{
	"contracts/main.sol": {
		"DecentroLocker": {
			"abi": [
				{
					"inputs": [
						{
							"internalType": "address",
							"name": "_adminWalletAddress",
							"type": "address"
						}
					],
					"stateMutability": "nonpayable",
					"type": "constructor"
				},
				{
					"anonymous": false,
					"inputs": [
						{
							"indexed": true,
							"internalType": "address",
							"name": "userAddress",
							"type": "address"
						},
						{
							"indexed": false,
							"internalType": "string",
							"name": "ipfsHash",
							"type": "string"
						}
					],
					"name": "DocumentUploaded",
					"type": "event"
				},
				{
					"anonymous": false,
					"inputs": [
						{
							"indexed": true,
							"internalType": "address",
							"name": "userAddress",
							"type": "address"
						}
					],
					"name": "UserEdited",
					"type": "event"
				},
				{
					"anonymous": false,
					"inputs": [
						{
							"indexed": true,
							"internalType": "address",
							"name": "userAddress",
							"type": "address"
						}
					],
					"name": "UserRegistered",
					"type": "event"
				},
				{
					"anonymous": false,
					"inputs": [
						{
							"indexed": false,
							"internalType": "uint256",
							"name": "timestamp",
							"type": "uint256"
						}
					],
					"name": "VerifiedByAdmin",
					"type": "event"
				},
				{
					"anonymous": false,
					"inputs": [
						{
							"indexed": true,
							"internalType": "address",
							"name": "verfierAddress",
							"type": "address"
						},
						{
							"indexed": false,
							"internalType": "uint256",
							"name": "timestamp",
							"type": "uint256"
						}
					],
					"name": "VerifiedByVerifier",
					"type": "event"
				},
				{
					"anonymous": false,
					"inputs": [
						{
							"indexed": true,
							"internalType": "address",
							"name": "userAddress",
							"type": "address"
						}
					],
					"name": "VerifierEdited",
					"type": "event"
				},
				{
					"anonymous": false,
					"inputs": [
						{
							"indexed": true,
							"internalType": "address",
							"name": "verifierAddress",
							"type": "address"
						}
					],
					"name": "VerifierRegistered",
					"type": "event"
				},
				{
					"inputs": [
						{
							"internalType": "bool",
							"name": "verified",
							"type": "bool"
						},
						{
							"internalType": "string",
							"name": "_ipfsHash",
							"type": "string"
						},
						{
							"internalType": "string",
							"name": "_reason",
							"type": "string"
						}
					],
					"name": "DocumentVerificationByAdmin",
					"outputs": [],
					"stateMutability": "nonpayable",
					"type": "function"
				},
				{
					"inputs": [
						{
							"internalType": "bool",
							"name": "verified",
							"type": "bool"
						},
						{
							"internalType": "string",
							"name": "_ipfsHash",
							"type": "string"
						},
						{
							"internalType": "string",
							"name": "_reason",
							"type": "string"
						}
					],
					"name": "DocumentVerificationByVerifier",
					"outputs": [],
					"stateMutability": "nonpayable",
					"type": "function"
				},
				{
					"inputs": [],
					"name": "GetDocumentsByAdmin",
					"outputs": [
						{
							"components": [
								{
									"internalType": "string",
									"name": "name",
									"type": "string"
								},
								{
									"internalType": "string",
									"name": "ipfsHash",
									"type": "string"
								},
								{
									"internalType": "enum Entities.DocumentStatus",
									"name": "status",
									"type": "uint8"
								},
								{
									"internalType": "address",
									"name": "verifiedBy",
									"type": "address"
								},
								{
									"internalType": "string",
									"name": "reason",
									"type": "string"
								},
								{
									"internalType": "uint256",
									"name": "timestamp",
									"type": "uint256"
								}
							],
							"internalType": "struct Entities.Document[]",
							"name": "",
							"type": "tuple[]"
						}
					],
					"stateMutability": "view",
					"type": "function"
				},
				{
					"inputs": [],
					"name": "GetDocumentsByVerfier",
					"outputs": [
						{
							"components": [
								{
									"internalType": "string",
									"name": "name",
									"type": "string"
								},
								{
									"internalType": "string",
									"name": "ipfsHash",
									"type": "string"
								},
								{
									"internalType": "enum Entities.DocumentStatus",
									"name": "status",
									"type": "uint8"
								},
								{
									"internalType": "address",
									"name": "verifiedBy",
									"type": "address"
								},
								{
									"internalType": "string",
									"name": "reason",
									"type": "string"
								},
								{
									"internalType": "uint256",
									"name": "timestamp",
									"type": "uint256"
								}
							],
							"internalType": "struct Entities.Document[]",
							"name": "",
							"type": "tuple[]"
						}
					],
					"stateMutability": "view",
					"type": "function"
				},
				{
					"inputs": [],
					"name": "GetVerifierRegistrationsByAdmin",
					"outputs": [
						{
							"internalType": "address[]",
							"name": "",
							"type": "address[]"
						}
					],
					"stateMutability": "view",
					"type": "function"
				},
				{
					"inputs": [
						{
							"internalType": "uint256",
							"name": "_role",
							"type": "uint256"
						}
					],
					"name": "RegisterUser",
					"outputs": [],
					"stateMutability": "nonpayable",
					"type": "function"
				},
				{
					"inputs": [
						{
							"internalType": "address",
							"name": "_verifier",
							"type": "address"
						},
						{
							"internalType": "bool",
							"name": "register",
							"type": "bool"
						}
					],
					"name": "VerifierRegistration",
					"outputs": [],
					"stateMutability": "nonpayable",
					"type": "function"
				},
				{
					"inputs": [
						{
							"internalType": "uint256",
							"name": "",
							"type": "uint256"
						}
					],
					"name": "allVerifiers",
					"outputs": [
						{
							"internalType": "address",
							"name": "walletAddress",
							"type": "address"
						}
					],
					"stateMutability": "view",
					"type": "function"
				},
				{
					"inputs": [],
					"name": "getAllverifiers",
					"outputs": [
						{
							"components": [
								{
									"internalType": "address",
									"name": "walletAddress",
									"type": "address"
								}
							],
							"internalType": "struct Entities.User[]",
							"name": "",
							"type": "tuple[]"
						}
					],
					"stateMutability": "view",
					"type": "function"
				},
				{
					"inputs": [],
					"name": "getDocumentsByUser",
					"outputs": [
						{
							"components": [
								{
									"internalType": "string",
									"name": "name",
									"type": "string"
								},
								{
									"internalType": "string",
									"name": "ipfsHash",
									"type": "string"
								},
								{
									"internalType": "enum Entities.DocumentStatus",
									"name": "status",
									"type": "uint8"
								},
								{
									"internalType": "address",
									"name": "verifiedBy",
									"type": "address"
								},
								{
									"internalType": "string",
									"name": "reason",
									"type": "string"
								},
								{
									"internalType": "uint256",
									"name": "timestamp",
									"type": "uint256"
								}
							],
							"internalType": "struct Entities.Document[]",
							"name": "",
							"type": "tuple[]"
						}
					],
					"stateMutability": "view",
					"type": "function"
				},
				{
					"inputs": [],
					"name": "getRole",
					"outputs": [
						{
							"internalType": "uint256",
							"name": "",
							"type": "uint256"
						}
					],
					"stateMutability": "view",
					"type": "function"
				},
				{
					"inputs": [],
					"name": "getUser",
					"outputs": [
						{
							"components": [
								{
									"internalType": "address",
									"name": "walletAddress",
									"type": "address"
								}
							],
							"internalType": "struct Entities.User",
							"name": "",
							"type": "tuple"
						}
					],
					"stateMutability": "view",
					"type": "function"
				},
				{
					"inputs": [
						{
							"internalType": "address",
							"name": "",
							"type": "address"
						}
					],
					"name": "role",
					"outputs": [
						{
							"internalType": "enum Entities.UserRoles",
							"name": "",
							"type": "uint8"
						}
					],
					"stateMutability": "view",
					"type": "function"
				},
				{
					"inputs": [
						{
							"internalType": "string",
							"name": "_ipfsHash",
							"type": "string"
						},
						{
							"internalType": "string",
							"name": "_name",
							"type": "string"
						}
					],
					"name": "uploadDocumentsByUser",
					"outputs": [],
					"stateMutability": "nonpayable",
					"type": "function"
				}
			],
			"devdoc": {
				"kind": "dev",
				"methods": {},
				"version": 1
			},
			"evm": {
				"assembly": "    /* \"contracts/main.sol\":7228:14241  contract DecentroLocker is Entities {... */\n  mstore(0x40, 0x80)\n    /* \"contracts/main.sol\":13942:14238  constructor(address _adminWalletAddress) {... */\n  callvalue\n  dup1\n  iszero\n  tag_1\n  jumpi\n  0x00\n  dup1\n  revert\ntag_1:\n  pop\n  mload(0x40)\n  sub(codesize, bytecodeSize)\n  dup1\n  bytecodeSize\n  dup4\n  codecopy\n  dup2\n  dup2\n  add\n  0x40\n  mstore\n  dup2\n  add\n  swap1\n  tag_2\n  swap2\n  swap1\n  tag_3\n  jump\t// in\ntag_2:\n    /* \"contracts/main.sol\":13994:14011  User memory admin */\n  0x00\n    /* \"contracts/main.sol\":14014:14083  User({... */\n  mload(0x40)\n  dup1\n  0x20\n  add\n  0x40\n  mstore\n  dup1\n    /* \"contracts/main.sol\":14052:14071  _adminWalletAddress */\n  dup4\n    /* \"contracts/main.sol\":14014:14083  User({... */\n  0xffffffffffffffffffffffffffffffffffffffff\n  and\n  dup2\n  mstore\n  pop\n    /* \"contracts/main.sol\":13994:14083  User memory admin = User({... */\n  swap1\n  pop\n    /* \"contracts/main.sol\":14122:14127  admin */\n  dup1\n    /* \"contracts/main.sol\":14094:14098  user */\n  0x00\n    /* \"contracts/main.sol\":14094:14119  user[_adminWalletAddress] */\n  dup1\n    /* \"contracts/main.sol\":14099:14118  _adminWalletAddress */\n  dup5\n    /* \"contracts/main.sol\":14094:14119  user[_adminWalletAddress] */\n  0xffffffffffffffffffffffffffffffffffffffff\n  and\n  0xffffffffffffffffffffffffffffffffffffffff\n  and\n  dup2\n  mstore\n  0x20\n  add\n  swap1\n  dup2\n  mstore\n  0x20\n  add\n  0x00\n  keccak256\n    /* \"contracts/main.sol\":14094:14127  user[_adminWalletAddress] = admin */\n  0x00\n  dup3\n  add\n  mload\n  dup2\n  0x00\n  add\n  exp(0x0100, 0x00)\n  dup2\n  sload\n  dup2\n  0xffffffffffffffffffffffffffffffffffffffff\n  mul\n  not\n  and\n  swap1\n  dup4\n  0xffffffffffffffffffffffffffffffffffffffff\n  and\n  mul\n  or\n  swap1\n  sstore\n  pop\n  swap1\n  pop\n  pop\n    /* \"contracts/main.sol\":14166:14181  UserRoles.Admin */\n  0x03\n    /* \"contracts/main.sol\":14138:14142  role */\n  0x01\n    /* \"contracts/main.sol\":14138:14163  role[_adminWalletAddress] */\n  0x00\n    /* \"contracts/main.sol\":14143:14162  _adminWalletAddress */\n  dup5\n    /* \"contracts/main.sol\":14138:14163  role[_adminWalletAddress] */\n  0xffffffffffffffffffffffffffffffffffffffff\n  and\n  0xffffffffffffffffffffffffffffffffffffffff\n  and\n  dup2\n  mstore\n  0x20\n  add\n  swap1\n  dup2\n  mstore\n  0x20\n  add\n  0x00\n  keccak256\n  0x00\n    /* \"contracts/main.sol\":14138:14181  role[_adminWalletAddress] = UserRoles.Admin */\n  0x0100\n  exp\n  dup2\n  sload\n  dup2\n  0xff\n  mul\n  not\n  and\n  swap1\n  dup4\n  0x05\n  dup2\n  gt\n  iszero\n  tag_6\n  jumpi\n  tag_7\n  tag_8\n  jump\t// in\ntag_7:\ntag_6:\n  mul\n  or\n  swap1\n  sstore\n  pop\n    /* \"contracts/main.sol\":14211:14230  UserRoles.Recoverer */\n  0x04\n    /* \"contracts/main.sol\":14192:14196  role */\n  0x01\n    /* \"contracts/main.sol\":14192:14208  role[msg.sender] */\n  0x00\n    /* \"contracts/main.sol\":14197:14207  msg.sender */\n  caller\n    /* \"contracts/main.sol\":14192:14208  role[msg.sender] */\n  0xffffffffffffffffffffffffffffffffffffffff\n  and\n  0xffffffffffffffffffffffffffffffffffffffff\n  and\n  dup2\n  mstore\n  0x20\n  add\n  swap1\n  dup2\n  mstore\n  0x20\n  add\n  0x00\n  keccak256\n  0x00\n    /* \"contracts/main.sol\":14192:14230  role[msg.sender] = UserRoles.Recoverer */\n  0x0100\n  exp\n  dup2\n  sload\n  dup2\n  0xff\n  mul\n  not\n  and\n  swap1\n  dup4\n  0x05\n  dup2\n  gt\n  iszero\n  tag_9\n  jumpi\n  tag_10\n  tag_8\n  jump\t// in\ntag_10:\ntag_9:\n  mul\n  or\n  swap1\n  sstore\n  pop\n    /* \"contracts/main.sol\":13983:14238  {... */\n  pop\n    /* \"contracts/main.sol\":13942:14238  constructor(address _adminWalletAddress) {... */\n  pop\n    /* \"contracts/main.sol\":7228:14241  contract DecentroLocker is Entities {... */\n  jump(tag_11)\n    /* \"#utility.yul\":88:205   */\ntag_13:\n    /* \"#utility.yul\":197:198   */\n  0x00\n    /* \"#utility.yul\":194:195   */\n  dup1\n    /* \"#utility.yul\":187:199   */\n  revert\n    /* \"#utility.yul\":334:460   */\ntag_15:\n    /* \"#utility.yul\":371:378   */\n  0x00\n    /* \"#utility.yul\":411:453   */\n  0xffffffffffffffffffffffffffffffffffffffff\n    /* \"#utility.yul\":404:409   */\n  dup3\n    /* \"#utility.yul\":400:454   */\n  and\n    /* \"#utility.yul\":389:454   */\n  swap1\n  pop\n    /* \"#utility.yul\":334:460   */\n  swap2\n  swap1\n  pop\n  jump\t// out\n    /* \"#utility.yul\":466:562   */\ntag_16:\n    /* \"#utility.yul\":503:510   */\n  0x00\n    /* \"#utility.yul\":532:556   */\n  tag_25\n    /* \"#utility.yul\":550:555   */\n  dup3\n    /* \"#utility.yul\":532:556   */\n  tag_15\n  jump\t// in\ntag_25:\n    /* \"#utility.yul\":521:556   */\n  swap1\n  pop\n    /* \"#utility.yul\":466:562   */\n  swap2\n  swap1\n  pop\n  jump\t// out\n    /* \"#utility.yul\":568:690   */\ntag_17:\n    /* \"#utility.yul\":641:665   */\n  tag_27\n    /* \"#utility.yul\":659:664   */\n  dup2\n    /* \"#utility.yul\":641:665   */\n  tag_16\n  jump\t// in\ntag_27:\n    /* \"#utility.yul\":634:639   */\n  dup2\n    /* \"#utility.yul\":631:666   */\n  eq\n    /* \"#utility.yul\":621:684   */\n  tag_28\n  jumpi\n    /* \"#utility.yul\":680:681   */\n  0x00\n    /* \"#utility.yul\":677:678   */\n  dup1\n    /* \"#utility.yul\":670:682   */\n  revert\n    /* \"#utility.yul\":621:684   */\ntag_28:\n    /* \"#utility.yul\":568:690   */\n  pop\n  jump\t// out\n    /* \"#utility.yul\":696:839   */\ntag_18:\n    /* \"#utility.yul\":753:758   */\n  0x00\n    /* \"#utility.yul\":784:790   */\n  dup2\n    /* \"#utility.yul\":778:791   */\n  mload\n    /* \"#utility.yul\":769:791   */\n  swap1\n  pop\n    /* \"#utility.yul\":800:833   */\n  tag_30\n    /* \"#utility.yul\":827:832   */\n  dup2\n    /* \"#utility.yul\":800:833   */\n  tag_17\n  jump\t// in\ntag_30:\n    /* \"#utility.yul\":696:839   */\n  swap3\n  swap2\n  pop\n  pop\n  jump\t// out\n    /* \"#utility.yul\":845:1196   */\ntag_3:\n    /* \"#utility.yul\":915:921   */\n  0x00\n    /* \"#utility.yul\":964:966   */\n  0x20\n    /* \"#utility.yul\":952:961   */\n  dup3\n    /* \"#utility.yul\":943:950   */\n  dup5\n    /* \"#utility.yul\":939:962   */\n  sub\n    /* \"#utility.yul\":935:967   */\n  slt\n    /* \"#utility.yul\":932:1051   */\n  iszero\n  tag_32\n  jumpi\n    /* \"#utility.yul\":970:1049   */\n  tag_33\n  tag_13\n  jump\t// in\ntag_33:\n    /* \"#utility.yul\":932:1051   */\ntag_32:\n    /* \"#utility.yul\":1090:1091   */\n  0x00\n    /* \"#utility.yul\":1115:1179   */\n  tag_34\n    /* \"#utility.yul\":1171:1178   */\n  dup5\n    /* \"#utility.yul\":1162:1168   */\n  dup3\n    /* \"#utility.yul\":1151:1160   */\n  dup6\n    /* \"#utility.yul\":1147:1169   */\n  add\n    /* \"#utility.yul\":1115:1179   */\n  tag_18\n  jump\t// in\ntag_34:\n    /* \"#utility.yul\":1105:1179   */\n  swap2\n  pop\n    /* \"#utility.yul\":1061:1189   */\n  pop\n    /* \"#utility.yul\":845:1196   */\n  swap3\n  swap2\n  pop\n  pop\n  jump\t// out\n    /* \"#utility.yul\":1202:1382   */\ntag_8:\n    /* \"#utility.yul\":1250:1327   */\n  0x4e487b7100000000000000000000000000000000000000000000000000000000\n    /* \"#utility.yul\":1247:1248   */\n  0x00\n    /* \"#utility.yul\":1240:1328   */\n  mstore\n    /* \"#utility.yul\":1347:1351   */\n  0x21\n    /* \"#utility.yul\":1344:1345   */\n  0x04\n    /* \"#utility.yul\":1337:1352   */\n  mstore\n    /* \"#utility.yul\":1371:1375   */\n  0x24\n    /* \"#utility.yul\":1368:1369   */\n  0x00\n    /* \"#utility.yul\":1361:1376   */\n  revert\n    /* \"contracts/main.sol\":7228:14241  contract DecentroLocker is Entities {... */\ntag_11:\n  dataSize(sub_0)\n  dup1\n  dataOffset(sub_0)\n  0x00\n  codecopy\n  0x00\n  return\nstop\n\nsub_0: assembly {\n        /* \"contracts/main.sol\":7228:14241  contract DecentroLocker is Entities {... */\n      mstore(0x40, 0x80)\n      callvalue\n      dup1\n      iszero\n      tag_1\n      jumpi\n      0x00\n      dup1\n      revert\n    tag_1:\n      pop\n      jumpi(tag_2, lt(calldatasize, 0x04))\n      shr(0xe0, calldataload(0x00))\n      dup1\n      0xcbe5ee2f\n      gt\n      tag_17\n      jumpi\n      dup1\n      0xe91f0a08\n      gt\n      tag_18\n      jumpi\n      dup1\n      0xe91f0a08\n      eq\n      tag_13\n      jumpi\n      dup1\n      0xf45f0ca0\n      eq\n      tag_14\n      jumpi\n      dup1\n      0xfc74e5c3\n      eq\n      tag_15\n      jumpi\n      dup1\n      0xfde08174\n      eq\n      tag_16\n      jumpi\n      jump(tag_2)\n    tag_18:\n      dup1\n      0xcbe5ee2f\n      eq\n      tag_10\n      jumpi\n      dup1\n      0xd590f8c9\n      eq\n      tag_11\n      jumpi\n      dup1\n      0xe169761f\n      eq\n      tag_12\n      jumpi\n      jump(tag_2)\n    tag_17:\n      dup1\n      0x832880e7\n      gt\n      tag_19\n      jumpi\n      dup1\n      0x832880e7\n      eq\n      tag_6\n      jumpi\n      dup1\n      0xaebb41a9\n      eq\n      tag_7\n      jumpi\n      dup1\n      0xc0d984ec\n      eq\n      tag_8\n      jumpi\n      dup1\n      0xcb3b280e\n      eq\n      tag_9\n      jumpi\n      jump(tag_2)\n    tag_19:\n      dup1\n      0x283ac166\n      eq\n      tag_3\n      jumpi\n      dup1\n      0x3c0d3caf\n      eq\n      tag_4\n      jumpi\n      dup1\n      0x813f8d8c\n      eq\n      tag_5\n      jumpi\n    tag_2:\n      0x00\n      dup1\n      revert\n        /* \"contracts/main.sol\":10375:11069  function uploadDocumentsByUser(string memory _ipfsHash, string memory _name) public onlyUser{... */\n    tag_3:\n      tag_20\n      0x04\n      dup1\n      calldatasize\n      sub\n      dup2\n      add\n      swap1\n      tag_21\n      swap2\n      swap1\n      tag_22\n      jump\t// in\n    tag_21:\n      tag_23\n      jump\t// in\n    tag_20:\n      stop\n        /* \"contracts/main.sol\":9362:10198  function VerifierRegistration(address _verifier, bool register) external {... */\n    tag_4:\n      tag_24\n      0x04\n      dup1\n      calldatasize\n      sub\n      dup2\n      add\n      swap1\n      tag_25\n      swap2\n      swap1\n      tag_26\n      jump\t// in\n    tag_25:\n      tag_27\n      jump\t// in\n    tag_24:\n      stop\n        /* \"contracts/main.sol\":8947:9354  function RegisterUser(uint256 _role) external {... */\n    tag_5:\n      tag_28\n      0x04\n      dup1\n      calldatasize\n      sub\n      dup2\n      add\n      swap1\n      tag_29\n      swap2\n      swap1\n      tag_30\n      jump\t// in\n    tag_29:\n      tag_31\n      jump\t// in\n    tag_28:\n      stop\n        /* \"contracts/main.sol\":13699:13793  function getUser() public view returns (User memory){... */\n    tag_6:\n      tag_32\n      tag_33\n      jump\t// in\n    tag_32:\n      mload(0x40)\n      tag_34\n      swap2\n      swap1\n      tag_35\n      jump\t// in\n    tag_34:\n      mload(0x40)\n      dup1\n      swap2\n      sub\n      swap1\n      return\n        /* \"contracts/main.sol\":13801:13911  function getAllverifiers() public view onlyAdmin returns (User[] memory){... */\n    tag_7:\n      tag_36\n      tag_37\n      jump\t// in\n    tag_36:\n      mload(0x40)\n      tag_38\n      swap2\n      swap1\n      tag_39\n      jump\t// in\n    tag_38:\n      mload(0x40)\n      dup1\n      swap2\n      sub\n      swap1\n      return\n        /* \"contracts/main.sol\":11446:12169  function DocumentVerificationByVerifier(bool verified, string memory _ipfsHash, string memory _reason) public onlyVerifier{... */\n    tag_8:\n      tag_40\n      0x04\n      dup1\n      calldatasize\n      sub\n      dup2\n      add\n      swap1\n      tag_41\n      swap2\n      swap1\n      tag_42\n      jump\t// in\n    tag_41:\n      tag_43\n      jump\t// in\n    tag_40:\n      stop\n        /* \"contracts/main.sol\":12177:12743  function DocumentVerificationByAdmin(bool verified, string memory _ipfsHash, string memory _reason) public onlyAdmin {... */\n    tag_9:\n      tag_44\n      0x04\n      dup1\n      calldatasize\n      sub\n      dup2\n      add\n      swap1\n      tag_45\n      swap2\n      swap1\n      tag_42\n      jump\t// in\n    tag_45:\n      tag_46\n      jump\t// in\n    tag_44:\n      stop\n        /* \"contracts/main.sol\":11077:11438  function getDocumentsByUser() public view onlyUser returns(Document[] memory){... */\n    tag_10:\n      tag_47\n      tag_48\n      jump\t// in\n    tag_47:\n      mload(0x40)\n      tag_49\n      swap2\n      swap1\n      tag_50\n      jump\t// in\n    tag_49:\n      mload(0x40)\n      dup1\n      swap2\n      sub\n      swap1\n      return\n        /* \"contracts/main.sol\":7309:7350  mapping(address => UserRoles) public role */\n    tag_11:\n      tag_51\n      0x04\n      dup1\n      calldatasize\n      sub\n      dup2\n      add\n      swap1\n      tag_52\n      swap2\n      swap1\n      tag_53\n      jump\t// in\n    tag_52:\n      tag_54\n      jump\t// in\n    tag_51:\n      mload(0x40)\n      tag_55\n      swap2\n      swap1\n      tag_56\n      jump\t// in\n    tag_55:\n      mload(0x40)\n      dup1\n      swap2\n      sub\n      swap1\n      return\n        /* \"contracts/main.sol\":10206:10363  function GetVerifierRegistrationsByAdmin() public view onlyAdmin returns (address[] memory) {... */\n    tag_12:\n      tag_57\n      tag_58\n      jump\t// in\n    tag_57:\n      mload(0x40)\n      tag_59\n      swap2\n      swap1\n      tag_60\n      jump\t// in\n    tag_59:\n      mload(0x40)\n      dup1\n      swap2\n      sub\n      swap1\n      return\n        /* \"contracts/main.sol\":12753:13171  function GetDocumentsByVerfier() public view onlyVerifier returns (Document[] memory) {... */\n    tag_13:\n      tag_61\n      tag_62\n      jump\t// in\n    tag_61:\n      mload(0x40)\n      tag_63\n      swap2\n      swap1\n      tag_50\n      jump\t// in\n    tag_63:\n      mload(0x40)\n      dup1\n      swap2\n      sub\n      swap1\n      return\n        /* \"contracts/main.sol\":7961:7987  User[] public allVerifiers */\n    tag_14:\n      tag_64\n      0x04\n      dup1\n      calldatasize\n      sub\n      dup2\n      add\n      swap1\n      tag_65\n      swap2\n      swap1\n      tag_30\n      jump\t// in\n    tag_65:\n      tag_66\n      jump\t// in\n    tag_64:\n      mload(0x40)\n      tag_67\n      swap2\n      swap1\n      tag_68\n      jump\t// in\n    tag_67:\n      mload(0x40)\n      dup1\n      swap2\n      sub\n      swap1\n      return\n        /* \"contracts/main.sol\":13179:13589  function GetDocumentsByAdmin() public view onlyAdmin returns (Document[] memory) {... */\n    tag_15:\n      tag_69\n      tag_70\n      jump\t// in\n    tag_69:\n      mload(0x40)\n      tag_71\n      swap2\n      swap1\n      tag_50\n      jump\t// in\n    tag_71:\n      mload(0x40)\n      dup1\n      swap2\n      sub\n      swap1\n      return\n        /* \"contracts/main.sol\":13597:13691  function getRole() public view returns (uint) {... */\n    tag_16:\n      tag_72\n      tag_73\n      jump\t// in\n    tag_72:\n      mload(0x40)\n      tag_74\n      swap2\n      swap1\n      tag_75\n      jump\t// in\n    tag_74:\n      mload(0x40)\n      dup1\n      swap2\n      sub\n      swap1\n      return\n        /* \"contracts/main.sol\":10375:11069  function uploadDocumentsByUser(string memory _ipfsHash, string memory _name) public onlyUser{... */\n    tag_23:\n        /* \"contracts/main.sol\":8519:8533  UserRoles.User */\n      0x01\n        /* \"contracts/main.sol\":8499:8533  role[msg.sender] == UserRoles.User */\n      0x05\n      dup2\n      gt\n      iszero\n      tag_77\n      jumpi\n      tag_78\n      tag_79\n      jump\t// in\n    tag_78:\n    tag_77:\n        /* \"contracts/main.sol\":8499:8503  role */\n      0x01\n        /* \"contracts/main.sol\":8499:8515  role[msg.sender] */\n      0x00\n        /* \"contracts/main.sol\":8504:8514  msg.sender */\n      caller\n        /* \"contracts/main.sol\":8499:8515  role[msg.sender] */\n      0xffffffffffffffffffffffffffffffffffffffff\n      and\n      0xffffffffffffffffffffffffffffffffffffffff\n      and\n      dup2\n      mstore\n      0x20\n      add\n      swap1\n      dup2\n      mstore\n      0x20\n      add\n      0x00\n      keccak256\n      0x00\n      swap1\n      sload\n      swap1\n      0x0100\n      exp\n      swap1\n      div\n      0xff\n      and\n        /* \"contracts/main.sol\":8499:8533  role[msg.sender] == UserRoles.User */\n      0x05\n      dup2\n      gt\n      iszero\n      tag_80\n      jumpi\n      tag_81\n      tag_79\n      jump\t// in\n    tag_81:\n    tag_80:\n      eq\n        /* \"contracts/main.sol\":8491:8548  require(role[msg.sender] == UserRoles.User, \"Not a User\") */\n      tag_82\n      jumpi\n      mload(0x40)\n      0x08c379a000000000000000000000000000000000000000000000000000000000\n      dup2\n      mstore\n      0x04\n      add\n      tag_83\n      swap1\n      tag_84\n      jump\t// in\n    tag_83:\n      mload(0x40)\n      dup1\n      swap2\n      sub\n      swap1\n      revert\n    tag_82:\n        /* \"contracts/main.sol\":10478:10501  Document memory userDoc */\n      0x00\n        /* \"contracts/main.sol\":10504:10733  Document({... */\n      mload(0x40)\n      dup1\n      0xc0\n      add\n      0x40\n      mstore\n      dup1\n        /* \"contracts/main.sol\":10534:10539  _name */\n      dup4\n        /* \"contracts/main.sol\":10504:10733  Document({... */\n      dup2\n      mstore\n      0x20\n      add\n        /* \"contracts/main.sol\":10564:10573  _ipfsHash */\n      dup5\n        /* \"contracts/main.sol\":10504:10733  Document({... */\n      dup2\n      mstore\n      0x20\n      add\n        /* \"contracts/main.sol\":10596:10618  DocumentStatus.Pending */\n      0x00\n        /* \"contracts/main.sol\":10504:10733  Document({... */\n      0x03\n      dup2\n      gt\n      iszero\n      tag_86\n      jumpi\n      tag_87\n      tag_79\n      jump\t// in\n    tag_87:\n    tag_86:\n      dup2\n      mstore\n      0x20\n      add\n        /* \"contracts/main.sol\":10653:10654  0 */\n      0x00\n        /* \"contracts/main.sol\":10504:10733  Document({... */\n      0xffffffffffffffffffffffffffffffffffffffff\n      and\n      dup2\n      mstore\n      0x20\n      add\n      mload(0x40)\n      dup1\n      0x20\n      add\n      0x40\n      mstore\n      dup1\n      0x00\n      dup2\n      mstore\n      pop\n      dup2\n      mstore\n      0x20\n      add\n        /* \"contracts/main.sol\":10706:10721  block.timestamp */\n      timestamp\n        /* \"contracts/main.sol\":10504:10733  Document({... */\n      dup2\n      mstore\n      pop\n        /* \"contracts/main.sol\":10478:10733  Document memory userDoc = Document({... */\n      swap1\n      pop\n        /* \"contracts/main.sol\":10744:10768  bytes32 _ipfsHashEncoded */\n      0x00\n        /* \"contracts/main.sol\":10798:10807  _ipfsHash */\n      dup4\n        /* \"contracts/main.sol\":10781:10808  abi.encodePacked(_ipfsHash) */\n      add(0x20, mload(0x40))\n      tag_88\n      swap2\n      swap1\n      tag_89\n      jump\t// in\n    tag_88:\n      mload(0x40)\n      0x20\n      dup2\n      dup4\n      sub\n      sub\n      dup2\n      mstore\n      swap1\n      0x40\n      mstore\n        /* \"contracts/main.sol\":10771:10809  keccak256(abi.encodePacked(_ipfsHash)) */\n      dup1\n      mload\n      swap1\n      0x20\n      add\n      keccak256\n        /* \"contracts/main.sol\":10744:10809  bytes32 _ipfsHashEncoded = keccak256(abi.encodePacked(_ipfsHash)) */\n      swap1\n      pop\n        /* \"contracts/main.sol\":10853:10860  userDoc */\n      dup2\n        /* \"contracts/main.sol\":10820:10832  AllDocuments */\n      0x03\n        /* \"contracts/main.sol\":10820:10850  AllDocuments[_ipfsHashEncoded] */\n      0x00\n        /* \"contracts/main.sol\":10833:10849  _ipfsHashEncoded */\n      dup4\n        /* \"contracts/main.sol\":10820:10850  AllDocuments[_ipfsHashEncoded] */\n      dup2\n      mstore\n      0x20\n      add\n      swap1\n      dup2\n      mstore\n      0x20\n      add\n      0x00\n      keccak256\n        /* \"contracts/main.sol\":10820:10860  AllDocuments[_ipfsHashEncoded] = userDoc */\n      0x00\n      dup3\n      add\n      mload\n      dup2\n      0x00\n      add\n      swap1\n      dup2\n      tag_90\n      swap2\n      swap1\n      tag_91\n      jump\t// in\n    tag_90:\n      pop\n      0x20\n      dup3\n      add\n      mload\n      dup2\n      0x01\n      add\n      swap1\n      dup2\n      tag_92\n      swap2\n      swap1\n      tag_91\n      jump\t// in\n    tag_92:\n      pop\n      0x40\n      dup3\n      add\n      mload\n      dup2\n      0x02\n      add\n      exp(0x0100, 0x00)\n      dup2\n      sload\n      dup2\n      0xff\n      mul\n      not\n      and\n      swap1\n      dup4\n      0x03\n      dup2\n      gt\n      iszero\n      tag_93\n      jumpi\n      tag_94\n      tag_79\n      jump\t// in\n    tag_94:\n    tag_93:\n      mul\n      or\n      swap1\n      sstore\n      pop\n      0x60\n      dup3\n      add\n      mload\n      dup2\n      0x02\n      add\n      exp(0x0100, 0x01)\n      dup2\n      sload\n      dup2\n      0xffffffffffffffffffffffffffffffffffffffff\n      mul\n      not\n      and\n      swap1\n      dup4\n      0xffffffffffffffffffffffffffffffffffffffff\n      and\n      mul\n      or\n      swap1\n      sstore\n      pop\n      0x80\n      dup3\n      add\n      mload\n      dup2\n      0x03\n      add\n      swap1\n      dup2\n      tag_95\n      swap2\n      swap1\n      tag_91\n      jump\t// in\n    tag_95:\n      pop\n      0xa0\n      dup3\n      add\n      mload\n      dup2\n      0x04\n      add\n      sstore\n      swap1\n      pop\n      pop\n        /* \"contracts/main.sol\":10871:10884  DocumentArray */\n      0x02\n        /* \"contracts/main.sol\":10871:10896  DocumentArray[msg.sender] */\n      0x00\n        /* \"contracts/main.sol\":10885:10895  msg.sender */\n      caller\n        /* \"contracts/main.sol\":10871:10896  DocumentArray[msg.sender] */\n      0xffffffffffffffffffffffffffffffffffffffff\n      and\n      0xffffffffffffffffffffffffffffffffffffffff\n      and\n      dup2\n      mstore\n      0x20\n      add\n      swap1\n      dup2\n      mstore\n      0x20\n      add\n      0x00\n      keccak256\n        /* \"contracts/main.sol\":10902:10918  _ipfsHashEncoded */\n      dup2\n        /* \"contracts/main.sol\":10871:10919  DocumentArray[msg.sender].push(_ipfsHashEncoded) */\n      swap1\n      dup1\n      0x01\n      dup2\n      sload\n      add\n      dup1\n      dup3\n      sstore\n      dup1\n      swap2\n      pop\n      pop\n      0x01\n      swap1\n      sub\n      swap1\n      0x00\n      mstore\n      keccak256(0x00, 0x20)\n      add\n      0x00\n      swap1\n      swap2\n      swap1\n      swap2\n      swap1\n      swap2\n      pop\n      sstore\n        /* \"contracts/main.sol\":10972:11004  verifierQueue.enqueue(_ipfsHash) */\n      tag_97\n        /* \"contracts/main.sol\":10994:11003  _ipfsHash */\n      dup5\n        /* \"contracts/main.sol\":10972:10985  verifierQueue */\n      0x05\n        /* \"contracts/main.sol\":10972:10993  verifierQueue.enqueue */\n      tag_98\n      swap1\n        /* \"contracts/main.sol\":10972:11004  verifierQueue.enqueue(_ipfsHash) */\n      swap2\n      swap1\n      0xffffffff\n      and\n      jump\t// in\n    tag_97:\n        /* \"contracts/main.sol\":11039:11049  msg.sender */\n      caller\n        /* \"contracts/main.sol\":11022:11061  DocumentUploaded(msg.sender, _ipfsHash) */\n      0xffffffffffffffffffffffffffffffffffffffff\n      and\n      0x124f4a6ee6006b9a10fcac9a51b1910a96b2e528b241f3c1b0a5ca12ab860183\n        /* \"contracts/main.sol\":11051:11060  _ipfsHash */\n      dup6\n        /* \"contracts/main.sol\":11022:11061  DocumentUploaded(msg.sender, _ipfsHash) */\n      mload(0x40)\n      tag_99\n      swap2\n      swap1\n      tag_100\n      jump\t// in\n    tag_99:\n      mload(0x40)\n      dup1\n      swap2\n      sub\n      swap1\n      log2\n        /* \"contracts/main.sol\":10467:11069  {... */\n      pop\n      pop\n        /* \"contracts/main.sol\":10375:11069  function uploadDocumentsByUser(string memory _ipfsHash, string memory _name) public onlyUser{... */\n      pop\n      pop\n      jump\t// out\n        /* \"contracts/main.sol\":9362:10198  function VerifierRegistration(address _verifier, bool register) external {... */\n    tag_27:\n        /* \"contracts/main.sol\":9474:9489  UserRoles.Admin */\n      0x03\n        /* \"contracts/main.sol\":9454:9489  role[msg.sender] == UserRoles.Admin */\n      0x05\n      dup2\n      gt\n      iszero\n      tag_102\n      jumpi\n      tag_103\n      tag_79\n      jump\t// in\n    tag_103:\n    tag_102:\n        /* \"contracts/main.sol\":9454:9458  role */\n      0x01\n        /* \"contracts/main.sol\":9454:9470  role[msg.sender] */\n      0x00\n        /* \"contracts/main.sol\":9459:9469  msg.sender */\n      caller\n        /* \"contracts/main.sol\":9454:9470  role[msg.sender] */\n      0xffffffffffffffffffffffffffffffffffffffff\n      and\n      0xffffffffffffffffffffffffffffffffffffffff\n      and\n      dup2\n      mstore\n      0x20\n      add\n      swap1\n      dup2\n      mstore\n      0x20\n      add\n      0x00\n      keccak256\n      0x00\n      swap1\n      sload\n      swap1\n      0x0100\n      exp\n      swap1\n      div\n      0xff\n      and\n        /* \"contracts/main.sol\":9454:9489  role[msg.sender] == UserRoles.Admin */\n      0x05\n      dup2\n      gt\n      iszero\n      tag_104\n      jumpi\n      tag_105\n      tag_79\n      jump\t// in\n    tag_105:\n    tag_104:\n      eq\n        /* \"contracts/main.sol\":9446:9490  require(role[msg.sender] == UserRoles.Admin) */\n      tag_106\n      jumpi\n      0x00\n      dup1\n      revert\n    tag_106:\n        /* \"contracts/main.sol\":9528:9557  UserRoles.RegistrationPending */\n      0x05\n        /* \"contracts/main.sol\":9509:9557  role[_verifier] == UserRoles.RegistrationPending */\n      dup1\n      dup2\n      gt\n      iszero\n      tag_107\n      jumpi\n      tag_108\n      tag_79\n      jump\t// in\n    tag_108:\n    tag_107:\n        /* \"contracts/main.sol\":9509:9513  role */\n      0x01\n        /* \"contracts/main.sol\":9509:9524  role[_verifier] */\n      0x00\n        /* \"contracts/main.sol\":9514:9523  _verifier */\n      dup5\n        /* \"contracts/main.sol\":9509:9524  role[_verifier] */\n      0xffffffffffffffffffffffffffffffffffffffff\n      and\n      0xffffffffffffffffffffffffffffffffffffffff\n      and\n      dup2\n      mstore\n      0x20\n      add\n      swap1\n      dup2\n      mstore\n      0x20\n      add\n      0x00\n      keccak256\n      0x00\n      swap1\n      sload\n      swap1\n      0x0100\n      exp\n      swap1\n      div\n      0xff\n      and\n        /* \"contracts/main.sol\":9509:9557  role[_verifier] == UserRoles.RegistrationPending */\n      0x05\n      dup2\n      gt\n      iszero\n      tag_109\n      jumpi\n      tag_110\n      tag_79\n      jump\t// in\n    tag_110:\n    tag_109:\n      eq\n        /* \"contracts/main.sol\":9501:9558  require(role[_verifier] == UserRoles.RegistrationPending) */\n      tag_111\n      jumpi\n      0x00\n      dup1\n      revert\n    tag_111:\n        /* \"contracts/main.sol\":9577:9622  verifierRegistrationQueue.contains(_verifier) */\n      tag_112\n        /* \"contracts/main.sol\":9612:9621  _verifier */\n      dup3\n        /* \"contracts/main.sol\":9577:9602  verifierRegistrationQueue */\n      0x0d\n        /* \"contracts/main.sol\":9577:9611  verifierRegistrationQueue.contains */\n      tag_113\n      swap1\n        /* \"contracts/main.sol\":9577:9622  verifierRegistrationQueue.contains(_verifier) */\n      swap2\n      swap1\n      0xffffffff\n      and\n      jump\t// in\n    tag_112:\n        /* \"contracts/main.sol\":9569:9623  require(verifierRegistrationQueue.contains(_verifier)) */\n      tag_114\n      jumpi\n      0x00\n      dup1\n      revert\n    tag_114:\n        /* \"contracts/main.sol\":9638:9646  register */\n      dup1\n        /* \"contracts/main.sol\":9634:9792  if(!register) {... */\n      tag_115\n      jumpi\n        /* \"contracts/main.sol\":9663:9707  verifierRegistrationQueue.dequeue(_verifier) */\n      tag_116\n        /* \"contracts/main.sol\":9697:9706  _verifier */\n      dup3\n        /* \"contracts/main.sol\":9663:9688  verifierRegistrationQueue */\n      0x0d\n        /* \"contracts/main.sol\":9663:9696  verifierRegistrationQueue.dequeue */\n      tag_117\n      swap1\n        /* \"contracts/main.sol\":9663:9707  verifierRegistrationQueue.dequeue(_verifier) */\n      swap2\n      swap1\n      0xffffffff\n      and\n      jump\t// in\n    tag_116:\n        /* \"contracts/main.sol\":9740:9758  UserRoles.Stranger */\n      0x00\n        /* \"contracts/main.sol\":9722:9726  role */\n      0x01\n        /* \"contracts/main.sol\":9722:9737  role[_verifier] */\n      0x00\n        /* \"contracts/main.sol\":9727:9736  _verifier */\n      dup5\n        /* \"contracts/main.sol\":9722:9737  role[_verifier] */\n      0xffffffffffffffffffffffffffffffffffffffff\n      and\n      0xffffffffffffffffffffffffffffffffffffffff\n      and\n      dup2\n      mstore\n      0x20\n      add\n      swap1\n      dup2\n      mstore\n      0x20\n      add\n      0x00\n      keccak256\n      0x00\n        /* \"contracts/main.sol\":9722:9758  role[_verifier] = UserRoles.Stranger */\n      0x0100\n      exp\n      dup2\n      sload\n      dup2\n      0xff\n      mul\n      not\n      and\n      swap1\n      dup4\n      0x05\n      dup2\n      gt\n      iszero\n      tag_118\n      jumpi\n      tag_119\n      tag_79\n      jump\t// in\n    tag_119:\n    tag_118:\n      mul\n      or\n      swap1\n      sstore\n      pop\n        /* \"contracts/main.sol\":9773:9781  return ; */\n      jump(tag_101)\n        /* \"contracts/main.sol\":9634:9792  if(!register) {... */\n    tag_115:\n        /* \"contracts/main.sol\":9802:9841  UserVerificationQueue.User memory _user */\n      0x00\n        /* \"contracts/main.sol\":9844:9869  verifierRegistrationQueue */\n      0x0d\n        /* \"contracts/main.sol\":9844:9879  verifierRegistrationQueue.queueData */\n      0x01\n      add\n        /* \"contracts/main.sol\":9844:9890  verifierRegistrationQueue.queueData[_verifier] */\n      0x00\n        /* \"contracts/main.sol\":9880:9889  _verifier */\n      dup5\n        /* \"contracts/main.sol\":9844:9890  verifierRegistrationQueue.queueData[_verifier] */\n      0xffffffffffffffffffffffffffffffffffffffff\n      and\n      0xffffffffffffffffffffffffffffffffffffffff\n      and\n      dup2\n      mstore\n      0x20\n      add\n      swap1\n      dup2\n      mstore\n      0x20\n      add\n      0x00\n      keccak256\n        /* \"contracts/main.sol\":9802:9890  UserVerificationQueue.User memory _user = verifierRegistrationQueue.queueData[_verifier] */\n      mload(0x40)\n      dup1\n      0x20\n      add\n      0x40\n      mstore\n      swap1\n      dup2\n      0x00\n      dup3\n      add\n      0x00\n      swap1\n      sload\n      swap1\n      0x0100\n      exp\n      swap1\n      div\n      0xffffffffffffffffffffffffffffffffffffffff\n      and\n      0xffffffffffffffffffffffffffffffffffffffff\n      and\n      0xffffffffffffffffffffffffffffffffffffffff\n      and\n      dup2\n      mstore\n      pop\n      pop\n      swap1\n      pop\n        /* \"contracts/main.sol\":9901:9945  verifierRegistrationQueue.dequeue(_verifier) */\n      tag_120\n        /* \"contracts/main.sol\":9935:9944  _verifier */\n      dup4\n        /* \"contracts/main.sol\":9901:9926  verifierRegistrationQueue */\n      0x0d\n        /* \"contracts/main.sol\":9901:9934  verifierRegistrationQueue.dequeue */\n      tag_117\n      swap1\n        /* \"contracts/main.sol\":9901:9945  verifierRegistrationQueue.dequeue(_verifier) */\n      swap2\n      swap1\n      0xffffffff\n      and\n      jump\t// in\n    tag_120:\n        /* \"contracts/main.sol\":9974:10040  User({... */\n      mload(0x40)\n      dup1\n      0x20\n      add\n      0x40\n      mstore\n      dup1\n        /* \"contracts/main.sol\":10009:10014  _user */\n      dup3\n        /* \"contracts/main.sol\":10009:10028  _user.walletAddress */\n      0x00\n      add\n      mload\n        /* \"contracts/main.sol\":9974:10040  User({... */\n      0xffffffffffffffffffffffffffffffffffffffff\n      and\n      dup2\n      mstore\n      pop\n        /* \"contracts/main.sol\":9956:9960  user */\n      0x00\n        /* \"contracts/main.sol\":9956:9971  user[_verifier] */\n      dup1\n        /* \"contracts/main.sol\":9961:9970  _verifier */\n      dup6\n        /* \"contracts/main.sol\":9956:9971  user[_verifier] */\n      0xffffffffffffffffffffffffffffffffffffffff\n      and\n      0xffffffffffffffffffffffffffffffffffffffff\n      and\n      dup2\n      mstore\n      0x20\n      add\n      swap1\n      dup2\n      mstore\n      0x20\n      add\n      0x00\n      keccak256\n        /* \"contracts/main.sol\":9956:10040  user[_verifier] = User({... */\n      0x00\n      dup3\n      add\n      mload\n      dup2\n      0x00\n      add\n      exp(0x0100, 0x00)\n      dup2\n      sload\n      dup2\n      0xffffffffffffffffffffffffffffffffffffffff\n      mul\n      not\n      and\n      swap1\n      dup4\n      0xffffffffffffffffffffffffffffffffffffffff\n      and\n      mul\n      or\n      swap1\n      sstore\n      pop\n      swap1\n      pop\n      pop\n        /* \"contracts/main.sol\":10051:10063  allVerifiers */\n      0x12\n        /* \"contracts/main.sol\":10069:10073  user */\n      0x00\n        /* \"contracts/main.sol\":10069:10084  user[_verifier] */\n      dup1\n        /* \"contracts/main.sol\":10074:10083  _verifier */\n      dup6\n        /* \"contracts/main.sol\":10069:10084  user[_verifier] */\n      0xffffffffffffffffffffffffffffffffffffffff\n      and\n      0xffffffffffffffffffffffffffffffffffffffff\n      and\n      dup2\n      mstore\n      0x20\n      add\n      swap1\n      dup2\n      mstore\n      0x20\n      add\n      0x00\n      keccak256\n        /* \"contracts/main.sol\":10051:10085  allVerifiers.push(user[_verifier]) */\n      swap1\n      dup1\n      0x01\n      dup2\n      sload\n      add\n      dup1\n      dup3\n      sstore\n      dup1\n      swap2\n      pop\n      pop\n      0x01\n      swap1\n      sub\n      swap1\n      0x00\n      mstore\n      keccak256(0x00, 0x20)\n      add\n      0x00\n      swap1\n      swap2\n      swap1\n      swap2\n      swap1\n      swap2\n      pop\n      0x00\n      dup3\n      add\n      0x00\n      swap1\n      sload\n      swap1\n      0x0100\n      exp\n      swap1\n      div\n      0xffffffffffffffffffffffffffffffffffffffff\n      and\n      dup2\n      0x00\n      add\n      exp(0x0100, 0x00)\n      dup2\n      sload\n      dup2\n      0xffffffffffffffffffffffffffffffffffffffff\n      mul\n      not\n      and\n      swap1\n      dup4\n      0xffffffffffffffffffffffffffffffffffffffff\n      and\n      mul\n      or\n      swap1\n      sstore\n      pop\n      pop\n      pop\n        /* \"contracts/main.sol\":10114:10132  UserRoles.Verifier */\n      0x02\n        /* \"contracts/main.sol\":10096:10100  role */\n      0x01\n        /* \"contracts/main.sol\":10096:10111  role[_verifier] */\n      0x00\n        /* \"contracts/main.sol\":10101:10110  _verifier */\n      dup6\n        /* \"contracts/main.sol\":10096:10111  role[_verifier] */\n      0xffffffffffffffffffffffffffffffffffffffff\n      and\n      0xffffffffffffffffffffffffffffffffffffffff\n      and\n      dup2\n      mstore\n      0x20\n      add\n      swap1\n      dup2\n      mstore\n      0x20\n      add\n      0x00\n      keccak256\n      0x00\n        /* \"contracts/main.sol\":10096:10132  role[_verifier] = UserRoles.Verifier */\n      0x0100\n      exp\n      dup2\n      sload\n      dup2\n      0xff\n      mul\n      not\n      and\n      swap1\n      dup4\n      0x05\n      dup2\n      gt\n      iszero\n      tag_122\n      jumpi\n      tag_123\n      tag_79\n      jump\t// in\n    tag_123:\n    tag_122:\n      mul\n      or\n      swap1\n      sstore\n      pop\n        /* \"contracts/main.sol\":10169:10179  msg.sender */\n      caller\n        /* \"contracts/main.sol\":10150:10180  VerifierRegistered(msg.sender) */\n      0xffffffffffffffffffffffffffffffffffffffff\n      and\n      0x85cf819da48b7e3c138cca9531adae41f25faeff5801e9e096eb2c1fb3cbbab7\n      mload(0x40)\n      mload(0x40)\n      dup1\n      swap2\n      sub\n      swap1\n      log2\n        /* \"contracts/main.sol\":9435:10198  {... */\n      pop\n        /* \"contracts/main.sol\":9362:10198  function VerifierRegistration(address _verifier, bool register) external {... */\n    tag_101:\n      pop\n      pop\n      jump\t// out\n        /* \"contracts/main.sol\":8947:9354  function RegisterUser(uint256 _role) external {... */\n    tag_31:\n        /* \"contracts/main.sol\":9038:9056  UserRoles.Stranger */\n      0x00\n        /* \"contracts/main.sol\":9018:9056  role[msg.sender] == UserRoles.Stranger */\n      0x05\n      dup2\n      gt\n      iszero\n      tag_125\n      jumpi\n      tag_126\n      tag_79\n      jump\t// in\n    tag_126:\n    tag_125:\n        /* \"contracts/main.sol\":9018:9022  role */\n      0x01\n        /* \"contracts/main.sol\":9018:9034  role[msg.sender] */\n      0x00\n        /* \"contracts/main.sol\":9023:9033  msg.sender */\n      caller\n        /* \"contracts/main.sol\":9018:9034  role[msg.sender] */\n      0xffffffffffffffffffffffffffffffffffffffff\n      and\n      0xffffffffffffffffffffffffffffffffffffffff\n      and\n      dup2\n      mstore\n      0x20\n      add\n      swap1\n      dup2\n      mstore\n      0x20\n      add\n      0x00\n      keccak256\n      0x00\n      swap1\n      sload\n      swap1\n      0x0100\n      exp\n      swap1\n      div\n      0xff\n      and\n        /* \"contracts/main.sol\":9018:9056  role[msg.sender] == UserRoles.Stranger */\n      0x05\n      dup2\n      gt\n      iszero\n      tag_127\n      jumpi\n      tag_128\n      tag_79\n      jump\t// in\n    tag_128:\n    tag_127:\n      eq\n        /* \"contracts/main.sol\":9000:9103  require(... */\n      tag_129\n      jumpi\n      mload(0x40)\n      0x08c379a000000000000000000000000000000000000000000000000000000000\n      dup2\n      mstore\n      0x04\n      add\n      tag_130\n      swap1\n      tag_131\n      jump\t// in\n    tag_130:\n      mload(0x40)\n      dup1\n      swap2\n      sub\n      swap1\n      revert\n    tag_129:\n        /* \"contracts/main.sol\":9125:9126  0 */\n      0x00\n        /* \"contracts/main.sol\":9116:9121  _role */\n      dup2\n        /* \"contracts/main.sol\":9116:9126  _role == 0 */\n      sub\n        /* \"contracts/main.sol\":9112:9351  if (_role == 0) {... */\n      tag_132\n      jumpi\n        /* \"contracts/main.sol\":9158:9172  UserRoles.User */\n      0x01\n        /* \"contracts/main.sol\":9139:9143  role */\n      dup1\n        /* \"contracts/main.sol\":9139:9155  role[msg.sender] */\n      0x00\n        /* \"contracts/main.sol\":9144:9154  msg.sender */\n      caller\n        /* \"contracts/main.sol\":9139:9155  role[msg.sender] */\n      0xffffffffffffffffffffffffffffffffffffffff\n      and\n      0xffffffffffffffffffffffffffffffffffffffff\n      and\n      dup2\n      mstore\n      0x20\n      add\n      swap1\n      dup2\n      mstore\n      0x20\n      add\n      0x00\n      keccak256\n      0x00\n        /* \"contracts/main.sol\":9139:9172  role[msg.sender] = UserRoles.User */\n      0x0100\n      exp\n      dup2\n      sload\n      dup2\n      0xff\n      mul\n      not\n      and\n      swap1\n      dup4\n      0x05\n      dup2\n      gt\n      iszero\n      tag_133\n      jumpi\n      tag_134\n      tag_79\n      jump\t// in\n    tag_134:\n    tag_133:\n      mul\n      or\n      swap1\n      sstore\n      pop\n        /* \"contracts/main.sol\":9203:9213  msg.sender */\n      caller\n        /* \"contracts/main.sol\":9188:9214  UserRegistered(msg.sender) */\n      0xffffffffffffffffffffffffffffffffffffffff\n      and\n      0x54db7a5cb4735e1aac1f53db512d3390390bb6637bd30ad4bf9fc98667d9b9b9\n      mload(0x40)\n      mload(0x40)\n      dup1\n      swap2\n      sub\n      swap1\n      log2\n        /* \"contracts/main.sol\":9112:9351  if (_role == 0) {... */\n      jump(tag_135)\n    tag_132:\n        /* \"contracts/main.sol\":9258:9287  UserRoles.RegistrationPending */\n      0x05\n        /* \"contracts/main.sol\":9239:9243  role */\n      0x01\n        /* \"contracts/main.sol\":9239:9255  role[msg.sender] */\n      0x00\n        /* \"contracts/main.sol\":9244:9254  msg.sender */\n      caller\n        /* \"contracts/main.sol\":9239:9255  role[msg.sender] */\n      0xffffffffffffffffffffffffffffffffffffffff\n      and\n      0xffffffffffffffffffffffffffffffffffffffff\n      and\n      dup2\n      mstore\n      0x20\n      add\n      swap1\n      dup2\n      mstore\n      0x20\n      add\n      0x00\n      keccak256\n      0x00\n        /* \"contracts/main.sol\":9239:9287  role[msg.sender] = UserRoles.RegistrationPending */\n      0x0100\n      exp\n      dup2\n      sload\n      dup2\n      0xff\n      mul\n      not\n      and\n      swap1\n      dup4\n      0x05\n      dup2\n      gt\n      iszero\n      tag_136\n      jumpi\n      tag_137\n      tag_79\n      jump\t// in\n    tag_137:\n    tag_136:\n      mul\n      or\n      swap1\n      sstore\n      pop\n        /* \"contracts/main.sol\":9298:9343  verifierRegistrationQueue.enqueue(msg.sender) */\n      tag_138\n        /* \"contracts/main.sol\":9332:9342  msg.sender */\n      caller\n        /* \"contracts/main.sol\":9298:9323  verifierRegistrationQueue */\n      0x0d\n        /* \"contracts/main.sol\":9298:9331  verifierRegistrationQueue.enqueue */\n      tag_139\n      swap1\n        /* \"contracts/main.sol\":9298:9343  verifierRegistrationQueue.enqueue(msg.sender) */\n      swap2\n      swap1\n      0xffffffff\n      and\n      jump\t// in\n    tag_138:\n        /* \"contracts/main.sol\":9112:9351  if (_role == 0) {... */\n    tag_135:\n        /* \"contracts/main.sol\":8947:9354  function RegisterUser(uint256 _role) external {... */\n      pop\n      jump\t// out\n        /* \"contracts/main.sol\":13699:13793  function getUser() public view returns (User memory){... */\n    tag_33:\n        /* \"contracts/main.sol\":13739:13750  User memory */\n      tag_140\n      tag_141\n      jump\t// in\n    tag_140:\n        /* \"contracts/main.sol\":13769:13773  user */\n      0x00\n        /* \"contracts/main.sol\":13769:13785  user[msg.sender] */\n      dup1\n        /* \"contracts/main.sol\":13774:13784  msg.sender */\n      caller\n        /* \"contracts/main.sol\":13769:13785  user[msg.sender] */\n      0xffffffffffffffffffffffffffffffffffffffff\n      and\n      0xffffffffffffffffffffffffffffffffffffffff\n      and\n      dup2\n      mstore\n      0x20\n      add\n      swap1\n      dup2\n      mstore\n      0x20\n      add\n      0x00\n      keccak256\n        /* \"contracts/main.sol\":13762:13785  return user[msg.sender] */\n      mload(0x40)\n      dup1\n      0x20\n      add\n      0x40\n      mstore\n      swap1\n      dup2\n      0x00\n      dup3\n      add\n      0x00\n      swap1\n      sload\n      swap1\n      0x0100\n      exp\n      swap1\n      div\n      0xffffffffffffffffffffffffffffffffffffffff\n      and\n      0xffffffffffffffffffffffffffffffffffffffff\n      and\n      0xffffffffffffffffffffffffffffffffffffffff\n      and\n      dup2\n      mstore\n      pop\n      pop\n      swap1\n      pop\n        /* \"contracts/main.sol\":13699:13793  function getUser() public view returns (User memory){... */\n      swap1\n      jump\t// out\n        /* \"contracts/main.sol\":13801:13911  function getAllverifiers() public view onlyAdmin returns (User[] memory){... */\n    tag_37:\n        /* \"contracts/main.sol\":13859:13872  User[] memory */\n      0x60\n        /* \"contracts/main.sol\":8760:8775  UserRoles.Admin */\n      0x03\n        /* \"contracts/main.sol\":8740:8775  role[msg.sender] == UserRoles.Admin */\n      0x05\n      dup2\n      gt\n      iszero\n      tag_144\n      jumpi\n      tag_145\n      tag_79\n      jump\t// in\n    tag_145:\n    tag_144:\n        /* \"contracts/main.sol\":8740:8744  role */\n      0x01\n        /* \"contracts/main.sol\":8740:8756  role[msg.sender] */\n      0x00\n        /* \"contracts/main.sol\":8745:8755  msg.sender */\n      caller\n        /* \"contracts/main.sol\":8740:8756  role[msg.sender] */\n      0xffffffffffffffffffffffffffffffffffffffff\n      and\n      0xffffffffffffffffffffffffffffffffffffffff\n      and\n      dup2\n      mstore\n      0x20\n      add\n      swap1\n      dup2\n      mstore\n      0x20\n      add\n      0x00\n      keccak256\n      0x00\n      swap1\n      sload\n      swap1\n      0x0100\n      exp\n      swap1\n      div\n      0xff\n      and\n        /* \"contracts/main.sol\":8740:8775  role[msg.sender] == UserRoles.Admin */\n      0x05\n      dup2\n      gt\n      iszero\n      tag_146\n      jumpi\n      tag_147\n      tag_79\n      jump\t// in\n    tag_147:\n    tag_146:\n      eq\n        /* \"contracts/main.sol\":8732:8793  require(role[msg.sender] == UserRoles.Admin, \"Not the Admin\") */\n      tag_148\n      jumpi\n      mload(0x40)\n      0x08c379a000000000000000000000000000000000000000000000000000000000\n      dup2\n      mstore\n      0x04\n      add\n      tag_149\n      swap1\n      tag_150\n      jump\t// in\n    tag_149:\n      mload(0x40)\n      dup1\n      swap2\n      sub\n      swap1\n      revert\n    tag_148:\n        /* \"contracts/main.sol\":13891:13903  allVerifiers */\n      0x12\n        /* \"contracts/main.sol\":13884:13903  return allVerifiers */\n      dup1\n      sload\n      dup1\n      0x20\n      mul\n      0x20\n      add\n      mload(0x40)\n      swap1\n      dup2\n      add\n      0x40\n      mstore\n      dup1\n      swap3\n      swap2\n      swap1\n      dup2\n      dup2\n      mstore\n      0x20\n      add\n      0x00\n      swap1\n    tag_152:\n      dup3\n      dup3\n      lt\n      iszero\n      tag_153\n      jumpi\n      dup4\n      dup3\n      swap1\n      0x00\n      mstore\n      keccak256(0x00, 0x20)\n      add\n      mload(0x40)\n      dup1\n      0x20\n      add\n      0x40\n      mstore\n      swap1\n      dup2\n      0x00\n      dup3\n      add\n      0x00\n      swap1\n      sload\n      swap1\n      0x0100\n      exp\n      swap1\n      div\n      0xffffffffffffffffffffffffffffffffffffffff\n      and\n      0xffffffffffffffffffffffffffffffffffffffff\n      and\n      0xffffffffffffffffffffffffffffffffffffffff\n      and\n      dup2\n      mstore\n      pop\n      pop\n      dup2\n      mstore\n      0x20\n      add\n      swap1\n      0x01\n      add\n      swap1\n      jump(tag_152)\n    tag_153:\n      pop\n      pop\n      pop\n      pop\n      swap1\n      pop\n        /* \"contracts/main.sol\":13801:13911  function getAllverifiers() public view onlyAdmin returns (User[] memory){... */\n      swap1\n      jump\t// out\n        /* \"contracts/main.sol\":11446:12169  function DocumentVerificationByVerifier(bool verified, string memory _ipfsHash, string memory _reason) public onlyVerifier{... */\n    tag_43:\n        /* \"contracts/main.sol\":8637:8655  UserRoles.Verifier */\n      0x02\n        /* \"contracts/main.sol\":8617:8655  role[msg.sender] == UserRoles.Verifier */\n      0x05\n      dup2\n      gt\n      iszero\n      tag_156\n      jumpi\n      tag_157\n      tag_79\n      jump\t// in\n    tag_157:\n    tag_156:\n        /* \"contracts/main.sol\":8617:8621  role */\n      0x01\n        /* \"contracts/main.sol\":8617:8633  role[msg.sender] */\n      0x00\n        /* \"contracts/main.sol\":8622:8632  msg.sender */\n      caller\n        /* \"contracts/main.sol\":8617:8633  role[msg.sender] */\n      0xffffffffffffffffffffffffffffffffffffffff\n      and\n      0xffffffffffffffffffffffffffffffffffffffff\n      and\n      dup2\n      mstore\n      0x20\n      add\n      swap1\n      dup2\n      mstore\n      0x20\n      add\n      0x00\n      keccak256\n      0x00\n      swap1\n      sload\n      swap1\n      0x0100\n      exp\n      swap1\n      div\n      0xff\n      and\n        /* \"contracts/main.sol\":8617:8655  role[msg.sender] == UserRoles.Verifier */\n      0x05\n      dup2\n      gt\n      iszero\n      tag_158\n      jumpi\n      tag_159\n      tag_79\n      jump\t// in\n    tag_159:\n    tag_158:\n      eq\n        /* \"contracts/main.sol\":8609:8674  require(role[msg.sender] == UserRoles.Verifier, \"Not a Verifier\") */\n      tag_160\n      jumpi\n      mload(0x40)\n      0x08c379a000000000000000000000000000000000000000000000000000000000\n      dup2\n      mstore\n      0x04\n      add\n      tag_161\n      swap1\n      tag_162\n      jump\t// in\n    tag_161:\n      mload(0x40)\n      dup1\n      swap2\n      sub\n      swap1\n      revert\n    tag_160:\n        /* \"contracts/main.sol\":11579:11603  bytes32 _ipfsHashEncoded */\n      0x00\n        /* \"contracts/main.sol\":11633:11642  _ipfsHash */\n      dup3\n        /* \"contracts/main.sol\":11616:11643  abi.encodePacked(_ipfsHash) */\n      add(0x20, mload(0x40))\n      tag_164\n      swap2\n      swap1\n      tag_89\n      jump\t// in\n    tag_164:\n      mload(0x40)\n      0x20\n      dup2\n      dup4\n      sub\n      sub\n      dup2\n      mstore\n      swap1\n      0x40\n      mstore\n        /* \"contracts/main.sol\":11606:11644  keccak256(abi.encodePacked(_ipfsHash)) */\n      dup1\n      mload\n      swap1\n      0x20\n      add\n      keccak256\n        /* \"contracts/main.sol\":11579:11644  bytes32 _ipfsHashEncoded = keccak256(abi.encodePacked(_ipfsHash)) */\n      swap1\n      pop\n        /* \"contracts/main.sol\":11695:11703  verified */\n      dup4\n        /* \"contracts/main.sol\":11695:11761  verified? DocumentStatus.VerifierApproved: DocumentStatus.Rejected */\n      tag_165\n      jumpi\n        /* \"contracts/main.sol\":11738:11761  DocumentStatus.Rejected */\n      0x03\n        /* \"contracts/main.sol\":11695:11761  verified? DocumentStatus.VerifierApproved: DocumentStatus.Rejected */\n      jump(tag_166)\n    tag_165:\n        /* \"contracts/main.sol\":11705:11736  DocumentStatus.VerifierApproved */\n      0x01\n        /* \"contracts/main.sol\":11695:11761  verified? DocumentStatus.VerifierApproved: DocumentStatus.Rejected */\n    tag_166:\n        /* \"contracts/main.sol\":11655:11667  AllDocuments */\n      0x03\n        /* \"contracts/main.sol\":11655:11685  AllDocuments[_ipfsHashEncoded] */\n      0x00\n        /* \"contracts/main.sol\":11668:11684  _ipfsHashEncoded */\n      dup4\n        /* \"contracts/main.sol\":11655:11685  AllDocuments[_ipfsHashEncoded] */\n      dup2\n      mstore\n      0x20\n      add\n      swap1\n      dup2\n      mstore\n      0x20\n      add\n      0x00\n      keccak256\n        /* \"contracts/main.sol\":11655:11692  AllDocuments[_ipfsHashEncoded].status */\n      0x02\n      add\n      0x00\n        /* \"contracts/main.sol\":11655:11761  AllDocuments[_ipfsHashEncoded].status = verified? DocumentStatus.VerifierApproved: DocumentStatus.Rejected */\n      0x0100\n      exp\n      dup2\n      sload\n      dup2\n      0xff\n      mul\n      not\n      and\n      swap1\n      dup4\n      0x03\n      dup2\n      gt\n      iszero\n      tag_167\n      jumpi\n      tag_168\n      tag_79\n      jump\t// in\n    tag_168:\n    tag_167:\n      mul\n      or\n      swap1\n      sstore\n      pop\n        /* \"contracts/main.sol\":11816:11826  msg.sender */\n      caller\n        /* \"contracts/main.sol\":11772:11784  AllDocuments */\n      0x03\n        /* \"contracts/main.sol\":11772:11802  AllDocuments[_ipfsHashEncoded] */\n      0x00\n        /* \"contracts/main.sol\":11785:11801  _ipfsHashEncoded */\n      dup4\n        /* \"contracts/main.sol\":11772:11802  AllDocuments[_ipfsHashEncoded] */\n      dup2\n      mstore\n      0x20\n      add\n      swap1\n      dup2\n      mstore\n      0x20\n      add\n      0x00\n      keccak256\n        /* \"contracts/main.sol\":11772:11813  AllDocuments[_ipfsHashEncoded].verifiedBy */\n      0x02\n      add\n      0x01\n        /* \"contracts/main.sol\":11772:11826  AllDocuments[_ipfsHashEncoded].verifiedBy = msg.sender */\n      0x0100\n      exp\n      dup2\n      sload\n      dup2\n      0xffffffffffffffffffffffffffffffffffffffff\n      mul\n      not\n      and\n      swap1\n      dup4\n      0xffffffffffffffffffffffffffffffffffffffff\n      and\n      mul\n      or\n      swap1\n      sstore\n      pop\n        /* \"contracts/main.sol\":11837:11869  verifierQueue.dequeue(_ipfsHash) */\n      tag_169\n        /* \"contracts/main.sol\":11859:11868  _ipfsHash */\n      dup4\n        /* \"contracts/main.sol\":11837:11850  verifierQueue */\n      0x05\n        /* \"contracts/main.sol\":11837:11858  verifierQueue.dequeue */\n      tag_170\n      swap1\n        /* \"contracts/main.sol\":11837:11869  verifierQueue.dequeue(_ipfsHash) */\n      swap2\n      swap1\n      0xffffffff\n      and\n      jump\t// in\n    tag_169:\n        /* \"contracts/main.sol\":11883:11891  verified */\n      dup4\n        /* \"contracts/main.sol\":11880:12038  if(verified) {... */\n      iszero\n      tag_171\n      jumpi\n        /* \"contracts/main.sol\":11908:11937  adminQueue.enqueue(_ipfsHash) */\n      tag_172\n        /* \"contracts/main.sol\":11927:11936  _ipfsHash */\n      dup4\n        /* \"contracts/main.sol\":11908:11918  adminQueue */\n      0x09\n        /* \"contracts/main.sol\":11908:11926  adminQueue.enqueue */\n      tag_98\n      swap1\n        /* \"contracts/main.sol\":11908:11937  adminQueue.enqueue(_ipfsHash) */\n      swap2\n      swap1\n      0xffffffff\n      and\n      jump\t// in\n    tag_172:\n        /* \"contracts/main.sol\":11880:12038  if(verified) {... */\n      jump(tag_173)\n    tag_171:\n        /* \"contracts/main.sol\":12019:12026  _reason */\n      dup2\n        /* \"contracts/main.sol\":11979:11991  AllDocuments */\n      0x03\n        /* \"contracts/main.sol\":11979:12009  AllDocuments[_ipfsHashEncoded] */\n      0x00\n        /* \"contracts/main.sol\":11992:12008  _ipfsHashEncoded */\n      dup4\n        /* \"contracts/main.sol\":11979:12009  AllDocuments[_ipfsHashEncoded] */\n      dup2\n      mstore\n      0x20\n      add\n      swap1\n      dup2\n      mstore\n      0x20\n      add\n      0x00\n      keccak256\n        /* \"contracts/main.sol\":11979:12016  AllDocuments[_ipfsHashEncoded].reason */\n      0x03\n      add\n        /* \"contracts/main.sol\":11979:12026  AllDocuments[_ipfsHashEncoded].reason = _reason */\n      swap1\n      dup2\n      tag_174\n      swap2\n      swap1\n      tag_91\n      jump\t// in\n    tag_174:\n      pop\n        /* \"contracts/main.sol\":11880:12038  if(verified) {... */\n    tag_173:\n        /* \"contracts/main.sol\":12088:12098  msg.sender */\n      caller\n        /* \"contracts/main.sol\":12048:12067  DocumentsVerifiedBy */\n      0x04\n        /* \"contracts/main.sol\":12048:12085  DocumentsVerifiedBy[_ipfsHashEncoded] */\n      0x00\n        /* \"contracts/main.sol\":12068:12084  _ipfsHashEncoded */\n      dup4\n        /* \"contracts/main.sol\":12048:12085  DocumentsVerifiedBy[_ipfsHashEncoded] */\n      dup2\n      mstore\n      0x20\n      add\n      swap1\n      dup2\n      mstore\n      0x20\n      add\n      0x00\n      keccak256\n      0x00\n        /* \"contracts/main.sol\":12048:12098  DocumentsVerifiedBy[_ipfsHashEncoded] = msg.sender */\n      0x0100\n      exp\n      dup2\n      sload\n      dup2\n      0xffffffffffffffffffffffffffffffffffffffff\n      mul\n      not\n      and\n      swap1\n      dup4\n      0xffffffffffffffffffffffffffffffffffffffff\n      and\n      mul\n      or\n      swap1\n      sstore\n      pop\n        /* \"contracts/main.sol\":12133:12143  msg.sender */\n      caller\n        /* \"contracts/main.sol\":12114:12161  VerifiedByVerifier(msg.sender, block.timestamp) */\n      0xffffffffffffffffffffffffffffffffffffffff\n      and\n      0x341f531fade60dae8b87577d9c41103cb176b651dc2648bc8bf4172fa45c7c78\n        /* \"contracts/main.sol\":12145:12160  block.timestamp */\n      timestamp\n        /* \"contracts/main.sol\":12114:12161  VerifiedByVerifier(msg.sender, block.timestamp) */\n      mload(0x40)\n      tag_175\n      swap2\n      swap1\n      tag_75\n      jump\t// in\n    tag_175:\n      mload(0x40)\n      dup1\n      swap2\n      sub\n      swap1\n      log2\n        /* \"contracts/main.sol\":11568:12169  {... */\n      pop\n        /* \"contracts/main.sol\":11446:12169  function DocumentVerificationByVerifier(bool verified, string memory _ipfsHash, string memory _reason) public onlyVerifier{... */\n      pop\n      pop\n      pop\n      jump\t// out\n        /* \"contracts/main.sol\":12177:12743  function DocumentVerificationByAdmin(bool verified, string memory _ipfsHash, string memory _reason) public onlyAdmin {... */\n    tag_46:\n        /* \"contracts/main.sol\":8760:8775  UserRoles.Admin */\n      0x03\n        /* \"contracts/main.sol\":8740:8775  role[msg.sender] == UserRoles.Admin */\n      0x05\n      dup2\n      gt\n      iszero\n      tag_177\n      jumpi\n      tag_178\n      tag_79\n      jump\t// in\n    tag_178:\n    tag_177:\n        /* \"contracts/main.sol\":8740:8744  role */\n      0x01\n        /* \"contracts/main.sol\":8740:8756  role[msg.sender] */\n      0x00\n        /* \"contracts/main.sol\":8745:8755  msg.sender */\n      caller\n        /* \"contracts/main.sol\":8740:8756  role[msg.sender] */\n      0xffffffffffffffffffffffffffffffffffffffff\n      and\n      0xffffffffffffffffffffffffffffffffffffffff\n      and\n      dup2\n      mstore\n      0x20\n      add\n      swap1\n      dup2\n      mstore\n      0x20\n      add\n      0x00\n      keccak256\n      0x00\n      swap1\n      sload\n      swap1\n      0x0100\n      exp\n      swap1\n      div\n      0xff\n      and\n        /* \"contracts/main.sol\":8740:8775  role[msg.sender] == UserRoles.Admin */\n      0x05\n      dup2\n      gt\n      iszero\n      tag_179\n      jumpi\n      tag_180\n      tag_79\n      jump\t// in\n    tag_180:\n    tag_179:\n      eq\n        /* \"contracts/main.sol\":8732:8793  require(role[msg.sender] == UserRoles.Admin, \"Not the Admin\") */\n      tag_181\n      jumpi\n      mload(0x40)\n      0x08c379a000000000000000000000000000000000000000000000000000000000\n      dup2\n      mstore\n      0x04\n      add\n      tag_182\n      swap1\n      tag_150\n      jump\t// in\n    tag_182:\n      mload(0x40)\n      dup1\n      swap2\n      sub\n      swap1\n      revert\n    tag_181:\n        /* \"contracts/main.sol\":12305:12329  bytes32 _ipfsHashEncoded */\n      0x00\n        /* \"contracts/main.sol\":12359:12368  _ipfsHash */\n      dup3\n        /* \"contracts/main.sol\":12342:12369  abi.encodePacked(_ipfsHash) */\n      add(0x20, mload(0x40))\n      tag_184\n      swap2\n      swap1\n      tag_89\n      jump\t// in\n    tag_184:\n      mload(0x40)\n      0x20\n      dup2\n      dup4\n      sub\n      sub\n      dup2\n      mstore\n      swap1\n      0x40\n      mstore\n        /* \"contracts/main.sol\":12332:12370  keccak256(abi.encodePacked(_ipfsHash)) */\n      dup1\n      mload\n      swap1\n      0x20\n      add\n      keccak256\n        /* \"contracts/main.sol\":12305:12370  bytes32 _ipfsHashEncoded = keccak256(abi.encodePacked(_ipfsHash)) */\n      swap1\n      pop\n        /* \"contracts/main.sol\":12421:12429  verified */\n      dup4\n        /* \"contracts/main.sol\":12421:12484  verified? DocumentStatus.AdminApproved: DocumentStatus.Rejected */\n      tag_185\n      jumpi\n        /* \"contracts/main.sol\":12461:12484  DocumentStatus.Rejected */\n      0x03\n        /* \"contracts/main.sol\":12421:12484  verified? DocumentStatus.AdminApproved: DocumentStatus.Rejected */\n      jump(tag_186)\n    tag_185:\n        /* \"contracts/main.sol\":12431:12459  DocumentStatus.AdminApproved */\n      0x02\n        /* \"contracts/main.sol\":12421:12484  verified? DocumentStatus.AdminApproved: DocumentStatus.Rejected */\n    tag_186:\n        /* \"contracts/main.sol\":12381:12393  AllDocuments */\n      0x03\n        /* \"contracts/main.sol\":12381:12411  AllDocuments[_ipfsHashEncoded] */\n      0x00\n        /* \"contracts/main.sol\":12394:12410  _ipfsHashEncoded */\n      dup4\n        /* \"contracts/main.sol\":12381:12411  AllDocuments[_ipfsHashEncoded] */\n      dup2\n      mstore\n      0x20\n      add\n      swap1\n      dup2\n      mstore\n      0x20\n      add\n      0x00\n      keccak256\n        /* \"contracts/main.sol\":12381:12418  AllDocuments[_ipfsHashEncoded].status */\n      0x02\n      add\n      0x00\n        /* \"contracts/main.sol\":12381:12484  AllDocuments[_ipfsHashEncoded].status = verified? DocumentStatus.AdminApproved: DocumentStatus.Rejected */\n      0x0100\n      exp\n      dup2\n      sload\n      dup2\n      0xff\n      mul\n      not\n      and\n      swap1\n      dup4\n      0x03\n      dup2\n      gt\n      iszero\n      tag_187\n      jumpi\n      tag_188\n      tag_79\n      jump\t// in\n    tag_188:\n    tag_187:\n      mul\n      or\n      swap1\n      sstore\n      pop\n        /* \"contracts/main.sol\":12539:12549  msg.sender */\n      caller\n        /* \"contracts/main.sol\":12495:12507  AllDocuments */\n      0x03\n        /* \"contracts/main.sol\":12495:12525  AllDocuments[_ipfsHashEncoded] */\n      0x00\n        /* \"contracts/main.sol\":12508:12524  _ipfsHashEncoded */\n      dup4\n        /* \"contracts/main.sol\":12495:12525  AllDocuments[_ipfsHashEncoded] */\n      dup2\n      mstore\n      0x20\n      add\n      swap1\n      dup2\n      mstore\n      0x20\n      add\n      0x00\n      keccak256\n        /* \"contracts/main.sol\":12495:12536  AllDocuments[_ipfsHashEncoded].verifiedBy */\n      0x02\n      add\n      0x01\n        /* \"contracts/main.sol\":12495:12549  AllDocuments[_ipfsHashEncoded].verifiedBy = msg.sender */\n      0x0100\n      exp\n      dup2\n      sload\n      dup2\n      0xffffffffffffffffffffffffffffffffffffffff\n      mul\n      not\n      and\n      swap1\n      dup4\n      0xffffffffffffffffffffffffffffffffffffffff\n      and\n      mul\n      or\n      swap1\n      sstore\n      pop\n        /* \"contracts/main.sol\":12560:12589  adminQueue.dequeue(_ipfsHash) */\n      tag_189\n        /* \"contracts/main.sol\":12579:12588  _ipfsHash */\n      dup4\n        /* \"contracts/main.sol\":12560:12570  adminQueue */\n      0x09\n        /* \"contracts/main.sol\":12560:12578  adminQueue.dequeue */\n      tag_170\n      swap1\n        /* \"contracts/main.sol\":12560:12589  adminQueue.dequeue(_ipfsHash) */\n      swap2\n      swap1\n      0xffffffff\n      and\n      jump\t// in\n    tag_189:\n        /* \"contracts/main.sol\":12604:12612  verified */\n      dup4\n        /* \"contracts/main.sol\":12600:12688  if(!verified) {... */\n      tag_190\n      jumpi\n        /* \"contracts/main.sol\":12669:12676  _reason */\n      dup2\n        /* \"contracts/main.sol\":12629:12641  AllDocuments */\n      0x03\n        /* \"contracts/main.sol\":12629:12659  AllDocuments[_ipfsHashEncoded] */\n      0x00\n        /* \"contracts/main.sol\":12642:12658  _ipfsHashEncoded */\n      dup4\n        /* \"contracts/main.sol\":12629:12659  AllDocuments[_ipfsHashEncoded] */\n      dup2\n      mstore\n      0x20\n      add\n      swap1\n      dup2\n      mstore\n      0x20\n      add\n      0x00\n      keccak256\n        /* \"contracts/main.sol\":12629:12666  AllDocuments[_ipfsHashEncoded].reason */\n      0x03\n      add\n        /* \"contracts/main.sol\":12629:12676  AllDocuments[_ipfsHashEncoded].reason = _reason */\n      swap1\n      dup2\n      tag_191\n      swap2\n      swap1\n      tag_91\n      jump\t// in\n    tag_191:\n      pop\n        /* \"contracts/main.sol\":12600:12688  if(!verified) {... */\n    tag_190:\n        /* \"contracts/main.sol\":12703:12735  VerifiedByAdmin(block.timestamp) */\n      0x514427b5cb3181cbc0513be266704d58869ecf3c0349cfcfb73679f4d7f4fb28\n        /* \"contracts/main.sol\":12719:12734  block.timestamp */\n      timestamp\n        /* \"contracts/main.sol\":12703:12735  VerifiedByAdmin(block.timestamp) */\n      mload(0x40)\n      tag_192\n      swap2\n      swap1\n      tag_75\n      jump\t// in\n    tag_192:\n      mload(0x40)\n      dup1\n      swap2\n      sub\n      swap1\n      log1\n        /* \"contracts/main.sol\":12294:12743  {... */\n      pop\n        /* \"contracts/main.sol\":12177:12743  function DocumentVerificationByAdmin(bool verified, string memory _ipfsHash, string memory _reason) public onlyAdmin {... */\n      pop\n      pop\n      pop\n      jump\t// out\n        /* \"contracts/main.sol\":11077:11438  function getDocumentsByUser() public view onlyUser returns(Document[] memory){... */\n    tag_48:\n        /* \"contracts/main.sol\":11136:11153  Document[] memory */\n      0x60\n        /* \"contracts/main.sol\":8519:8533  UserRoles.User */\n      0x01\n        /* \"contracts/main.sol\":8499:8533  role[msg.sender] == UserRoles.User */\n      0x05\n      dup2\n      gt\n      iszero\n      tag_194\n      jumpi\n      tag_195\n      tag_79\n      jump\t// in\n    tag_195:\n    tag_194:\n        /* \"contracts/main.sol\":8499:8503  role */\n      0x01\n        /* \"contracts/main.sol\":8499:8515  role[msg.sender] */\n      0x00\n        /* \"contracts/main.sol\":8504:8514  msg.sender */\n      caller\n        /* \"contracts/main.sol\":8499:8515  role[msg.sender] */\n      0xffffffffffffffffffffffffffffffffffffffff\n      and\n      0xffffffffffffffffffffffffffffffffffffffff\n      and\n      dup2\n      mstore\n      0x20\n      add\n      swap1\n      dup2\n      mstore\n      0x20\n      add\n      0x00\n      keccak256\n      0x00\n      swap1\n      sload\n      swap1\n      0x0100\n      exp\n      swap1\n      div\n      0xff\n      and\n        /* \"contracts/main.sol\":8499:8533  role[msg.sender] == UserRoles.User */\n      0x05\n      dup2\n      gt\n      iszero\n      tag_196\n      jumpi\n      tag_197\n      tag_79\n      jump\t// in\n    tag_197:\n    tag_196:\n      eq\n        /* \"contracts/main.sol\":8491:8548  require(role[msg.sender] == UserRoles.User, \"Not a User\") */\n      tag_198\n      jumpi\n      mload(0x40)\n      0x08c379a000000000000000000000000000000000000000000000000000000000\n      dup2\n      mstore\n      0x04\n      add\n      tag_199\n      swap1\n      tag_84\n      jump\t// in\n    tag_199:\n      mload(0x40)\n      dup1\n      swap2\n      sub\n      swap1\n      revert\n    tag_198:\n        /* \"contracts/main.sol\":11165:11174  uint size */\n      0x00\n        /* \"contracts/main.sol\":11177:11190  DocumentArray */\n      0x02\n        /* \"contracts/main.sol\":11177:11202  DocumentArray[msg.sender] */\n      0x00\n        /* \"contracts/main.sol\":11191:11201  msg.sender */\n      caller\n        /* \"contracts/main.sol\":11177:11202  DocumentArray[msg.sender] */\n      0xffffffffffffffffffffffffffffffffffffffff\n      and\n      0xffffffffffffffffffffffffffffffffffffffff\n      and\n      dup2\n      mstore\n      0x20\n      add\n      swap1\n      dup2\n      mstore\n      0x20\n      add\n      0x00\n      keccak256\n        /* \"contracts/main.sol\":11177:11209  DocumentArray[msg.sender].length */\n      dup1\n      sload\n      swap1\n      pop\n        /* \"contracts/main.sol\":11165:11209  uint size = DocumentArray[msg.sender].length */\n      swap1\n      pop\n        /* \"contracts/main.sol\":11220:11251  Document[] memory AllDocsOfUser */\n      0x00\n        /* \"contracts/main.sol\":11269:11273  size */\n      dup2\n        /* \"contracts/main.sol\":11254:11274  new Document[](size) */\n      0xffffffffffffffff\n      dup2\n      gt\n      iszero\n      tag_201\n      jumpi\n      tag_202\n      tag_203\n      jump\t// in\n    tag_202:\n    tag_201:\n      mload(0x40)\n      swap1\n      dup1\n      dup3\n      mstore\n      dup1\n      0x20\n      mul\n      0x20\n      add\n      dup3\n      add\n      0x40\n      mstore\n      dup1\n      iszero\n      tag_204\n      jumpi\n      dup2\n      0x20\n      add\n    tag_205:\n      tag_206\n      tag_207\n      jump\t// in\n    tag_206:\n      dup2\n      mstore\n      0x20\n      add\n      swap1\n      0x01\n      swap1\n      sub\n      swap1\n      dup2\n      tag_205\n      jumpi\n      swap1\n      pop\n    tag_204:\n      pop\n        /* \"contracts/main.sol\":11220:11274  Document[] memory AllDocsOfUser = new Document[](size) */\n      swap1\n      pop\n        /* \"contracts/main.sol\":11289:11295  uint i */\n      0x00\n        /* \"contracts/main.sol\":11285:11400  for(uint i=0; i<size; i++) {... */\n    tag_208:\n        /* \"contracts/main.sol\":11301:11305  size */\n      dup3\n        /* \"contracts/main.sol\":11299:11300  i */\n      dup2\n        /* \"contracts/main.sol\":11299:11305  i<size */\n      lt\n        /* \"contracts/main.sol\":11285:11400  for(uint i=0; i<size; i++) {... */\n      iszero\n      tag_209\n      jumpi\n        /* \"contracts/main.sol\":11346:11358  AllDocuments */\n      0x03\n        /* \"contracts/main.sol\":11346:11388  AllDocuments[DocumentArray[msg.sender][i]] */\n      0x00\n        /* \"contracts/main.sol\":11359:11372  DocumentArray */\n      0x02\n        /* \"contracts/main.sol\":11359:11384  DocumentArray[msg.sender] */\n      0x00\n        /* \"contracts/main.sol\":11373:11383  msg.sender */\n      caller\n        /* \"contracts/main.sol\":11359:11384  DocumentArray[msg.sender] */\n      0xffffffffffffffffffffffffffffffffffffffff\n      and\n      0xffffffffffffffffffffffffffffffffffffffff\n      and\n      dup2\n      mstore\n      0x20\n      add\n      swap1\n      dup2\n      mstore\n      0x20\n      add\n      0x00\n      keccak256\n        /* \"contracts/main.sol\":11385:11386  i */\n      dup4\n        /* \"contracts/main.sol\":11359:11387  DocumentArray[msg.sender][i] */\n      dup2\n      sload\n      dup2\n      lt\n      tag_211\n      jumpi\n      tag_212\n      tag_213\n      jump\t// in\n    tag_212:\n    tag_211:\n      swap1\n      0x00\n      mstore\n      keccak256(0x00, 0x20)\n      add\n      sload\n        /* \"contracts/main.sol\":11346:11388  AllDocuments[DocumentArray[msg.sender][i]] */\n      dup2\n      mstore\n      0x20\n      add\n      swap1\n      dup2\n      mstore\n      0x20\n      add\n      0x00\n      keccak256\n        /* \"contracts/main.sol\":11327:11388  AllDocsOfUser[i] = AllDocuments[DocumentArray[msg.sender][i]] */\n      mload(0x40)\n      dup1\n      0xc0\n      add\n      0x40\n      mstore\n      swap1\n      dup2\n      0x00\n      dup3\n      add\n      dup1\n      sload\n      tag_215\n      swap1\n      tag_216\n      jump\t// in\n    tag_215:\n      dup1\n      0x1f\n      add\n      0x20\n      dup1\n      swap2\n      div\n      mul\n      0x20\n      add\n      mload(0x40)\n      swap1\n      dup2\n      add\n      0x40\n      mstore\n      dup1\n      swap3\n      swap2\n      swap1\n      dup2\n      dup2\n      mstore\n      0x20\n      add\n      dup3\n      dup1\n      sload\n      tag_217\n      swap1\n      tag_216\n      jump\t// in\n    tag_217:\n      dup1\n      iszero\n      tag_218\n      jumpi\n      dup1\n      0x1f\n      lt\n      tag_219\n      jumpi\n      0x0100\n      dup1\n      dup4\n      sload\n      div\n      mul\n      dup4\n      mstore\n      swap2\n      0x20\n      add\n      swap2\n      jump(tag_218)\n    tag_219:\n      dup3\n      add\n      swap2\n      swap1\n      0x00\n      mstore\n      keccak256(0x00, 0x20)\n      swap1\n    tag_220:\n      dup2\n      sload\n      dup2\n      mstore\n      swap1\n      0x01\n      add\n      swap1\n      0x20\n      add\n      dup1\n      dup4\n      gt\n      tag_220\n      jumpi\n      dup3\n      swap1\n      sub\n      0x1f\n      and\n      dup3\n      add\n      swap2\n    tag_218:\n      pop\n      pop\n      pop\n      pop\n      pop\n      dup2\n      mstore\n      0x20\n      add\n      0x01\n      dup3\n      add\n      dup1\n      sload\n      tag_221\n      swap1\n      tag_216\n      jump\t// in\n    tag_221:\n      dup1\n      0x1f\n      add\n      0x20\n      dup1\n      swap2\n      div\n      mul\n      0x20\n      add\n      mload(0x40)\n      swap1\n      dup2\n      add\n      0x40\n      mstore\n      dup1\n      swap3\n      swap2\n      swap1\n      dup2\n      dup2\n      mstore\n      0x20\n      add\n      dup3\n      dup1\n      sload\n      tag_222\n      swap1\n      tag_216\n      jump\t// in\n    tag_222:\n      dup1\n      iszero\n      tag_223\n      jumpi\n      dup1\n      0x1f\n      lt\n      tag_224\n      jumpi\n      0x0100\n      dup1\n      dup4\n      sload\n      div\n      mul\n      dup4\n      mstore\n      swap2\n      0x20\n      add\n      swap2\n      jump(tag_223)\n    tag_224:\n      dup3\n      add\n      swap2\n      swap1\n      0x00\n      mstore\n      keccak256(0x00, 0x20)\n      swap1\n    tag_225:\n      dup2\n      sload\n      dup2\n      mstore\n      swap1\n      0x01\n      add\n      swap1\n      0x20\n      add\n      dup1\n      dup4\n      gt\n      tag_225\n      jumpi\n      dup3\n      swap1\n      sub\n      0x1f\n      and\n      dup3\n      add\n      swap2\n    tag_223:\n      pop\n      pop\n      pop\n      pop\n      pop\n      dup2\n      mstore\n      0x20\n      add\n      0x02\n      dup3\n      add\n      0x00\n      swap1\n      sload\n      swap1\n      0x0100\n      exp\n      swap1\n      div\n      0xff\n      and\n      0x03\n      dup2\n      gt\n      iszero\n      tag_226\n      jumpi\n      tag_227\n      tag_79\n      jump\t// in\n    tag_227:\n    tag_226:\n      0x03\n      dup2\n      gt\n      iszero\n      tag_228\n      jumpi\n      tag_229\n      tag_79\n      jump\t// in\n    tag_229:\n    tag_228:\n      dup2\n      mstore\n      0x20\n      add\n      0x02\n      dup3\n      add\n      0x01\n      swap1\n      sload\n      swap1\n      0x0100\n      exp\n      swap1\n      div\n      0xffffffffffffffffffffffffffffffffffffffff\n      and\n      0xffffffffffffffffffffffffffffffffffffffff\n      and\n      0xffffffffffffffffffffffffffffffffffffffff\n      and\n      dup2\n      mstore\n      0x20\n      add\n      0x03\n      dup3\n      add\n      dup1\n      sload\n      tag_230\n      swap1\n      tag_216\n      jump\t// in\n    tag_230:\n      dup1\n      0x1f\n      add\n      0x20\n      dup1\n      swap2\n      div\n      mul\n      0x20\n      add\n      mload(0x40)\n      swap1\n      dup2\n      add\n      0x40\n      mstore\n      dup1\n      swap3\n      swap2\n      swap1\n      dup2\n      dup2\n      mstore\n      0x20\n      add\n      dup3\n      dup1\n      sload\n      tag_231\n      swap1\n      tag_216\n      jump\t// in\n    tag_231:\n      dup1\n      iszero\n      tag_232\n      jumpi\n      dup1\n      0x1f\n      lt\n      tag_233\n      jumpi\n      0x0100\n      dup1\n      dup4\n      sload\n      div\n      mul\n      dup4\n      mstore\n      swap2\n      0x20\n      add\n      swap2\n      jump(tag_232)\n    tag_233:\n      dup3\n      add\n      swap2\n      swap1\n      0x00\n      mstore\n      keccak256(0x00, 0x20)\n      swap1\n    tag_234:\n      dup2\n      sload\n      dup2\n      mstore\n      swap1\n      0x01\n      add\n      swap1\n      0x20\n      add\n      dup1\n      dup4\n      gt\n      tag_234\n      jumpi\n      dup3\n      swap1\n      sub\n      0x1f\n      and\n      dup3\n      add\n      swap2\n    tag_232:\n      pop\n      pop\n      pop\n      pop\n      pop\n      dup2\n      mstore\n      0x20\n      add\n      0x04\n      dup3\n      add\n      sload\n      dup2\n      mstore\n      pop\n      pop\n        /* \"contracts/main.sol\":11327:11340  AllDocsOfUser */\n      dup3\n        /* \"contracts/main.sol\":11341:11342  i */\n      dup3\n        /* \"contracts/main.sol\":11327:11343  AllDocsOfUser[i] */\n      dup2\n      mload\n      dup2\n      lt\n      tag_235\n      jumpi\n      tag_236\n      tag_213\n      jump\t// in\n    tag_236:\n    tag_235:\n      0x20\n      mul\n      0x20\n      add\n      add\n        /* \"contracts/main.sol\":11327:11388  AllDocsOfUser[i] = AllDocuments[DocumentArray[msg.sender][i]] */\n      dup2\n      swap1\n      mstore\n      pop\n        /* \"contracts/main.sol\":11307:11310  i++ */\n      dup1\n      dup1\n      0x01\n      add\n      swap2\n      pop\n      pop\n        /* \"contracts/main.sol\":11285:11400  for(uint i=0; i<size; i++) {... */\n      jump(tag_208)\n    tag_209:\n      pop\n        /* \"contracts/main.sol\":11417:11430  AllDocsOfUser */\n      dup1\n        /* \"contracts/main.sol\":11410:11430  return AllDocsOfUser */\n      swap3\n      pop\n      pop\n      pop\n        /* \"contracts/main.sol\":11077:11438  function getDocumentsByUser() public view onlyUser returns(Document[] memory){... */\n      swap1\n      jump\t// out\n        /* \"contracts/main.sol\":7309:7350  mapping(address => UserRoles) public role */\n    tag_54:\n      mstore(0x20, 0x01)\n      dup1\n      0x00\n      mstore\n      keccak256(0x00, 0x40)\n      0x00\n      swap2\n      pop\n      sload\n      swap1\n      0x0100\n      exp\n      swap1\n      div\n      0xff\n      and\n      dup2\n      jump\t// out\n        /* \"contracts/main.sol\":10206:10363  function GetVerifierRegistrationsByAdmin() public view onlyAdmin returns (address[] memory) {... */\n    tag_58:\n        /* \"contracts/main.sol\":10280:10296  address[] memory */\n      0x60\n        /* \"contracts/main.sol\":8760:8775  UserRoles.Admin */\n      0x03\n        /* \"contracts/main.sol\":8740:8775  role[msg.sender] == UserRoles.Admin */\n      0x05\n      dup2\n      gt\n      iszero\n      tag_238\n      jumpi\n      tag_239\n      tag_79\n      jump\t// in\n    tag_239:\n    tag_238:\n        /* \"contracts/main.sol\":8740:8744  role */\n      0x01\n        /* \"contracts/main.sol\":8740:8756  role[msg.sender] */\n      0x00\n        /* \"contracts/main.sol\":8745:8755  msg.sender */\n      caller\n        /* \"contracts/main.sol\":8740:8756  role[msg.sender] */\n      0xffffffffffffffffffffffffffffffffffffffff\n      and\n      0xffffffffffffffffffffffffffffffffffffffff\n      and\n      dup2\n      mstore\n      0x20\n      add\n      swap1\n      dup2\n      mstore\n      0x20\n      add\n      0x00\n      keccak256\n      0x00\n      swap1\n      sload\n      swap1\n      0x0100\n      exp\n      swap1\n      div\n      0xff\n      and\n        /* \"contracts/main.sol\":8740:8775  role[msg.sender] == UserRoles.Admin */\n      0x05\n      dup2\n      gt\n      iszero\n      tag_240\n      jumpi\n      tag_241\n      tag_79\n      jump\t// in\n    tag_241:\n    tag_240:\n      eq\n        /* \"contracts/main.sol\":8732:8793  require(role[msg.sender] == UserRoles.Admin, \"Not the Admin\") */\n      tag_242\n      jumpi\n      mload(0x40)\n      0x08c379a000000000000000000000000000000000000000000000000000000000\n      dup2\n      mstore\n      0x04\n      add\n      tag_243\n      swap1\n      tag_150\n      jump\t// in\n    tag_243:\n      mload(0x40)\n      dup1\n      swap2\n      sub\n      swap1\n      revert\n    tag_242:\n        /* \"contracts/main.sol\":10316:10355  verifierRegistrationQueue.getUsers(100) */\n      tag_245\n        /* \"contracts/main.sol\":10351:10354  100 */\n      0x64\n        /* \"contracts/main.sol\":10316:10341  verifierRegistrationQueue */\n      0x0d\n        /* \"contracts/main.sol\":10316:10350  verifierRegistrationQueue.getUsers */\n      tag_246\n      swap1\n        /* \"contracts/main.sol\":10316:10355  verifierRegistrationQueue.getUsers(100) */\n      swap2\n      swap1\n      0xffffffff\n      and\n      jump\t// in\n    tag_245:\n        /* \"contracts/main.sol\":10309:10355  return verifierRegistrationQueue.getUsers(100) */\n      swap1\n      pop\n        /* \"contracts/main.sol\":10206:10363  function GetVerifierRegistrationsByAdmin() public view onlyAdmin returns (address[] memory) {... */\n      swap1\n      jump\t// out\n        /* \"contracts/main.sol\":12753:13171  function GetDocumentsByVerfier() public view onlyVerifier returns (Document[] memory) {... */\n    tag_62:\n        /* \"contracts/main.sol\":12820:12837  Document[] memory */\n      0x60\n        /* \"contracts/main.sol\":8637:8655  UserRoles.Verifier */\n      0x02\n        /* \"contracts/main.sol\":8617:8655  role[msg.sender] == UserRoles.Verifier */\n      0x05\n      dup2\n      gt\n      iszero\n      tag_248\n      jumpi\n      tag_249\n      tag_79\n      jump\t// in\n    tag_249:\n    tag_248:\n        /* \"contracts/main.sol\":8617:8621  role */\n      0x01\n        /* \"contracts/main.sol\":8617:8633  role[msg.sender] */\n      0x00\n        /* \"contracts/main.sol\":8622:8632  msg.sender */\n      caller\n        /* \"contracts/main.sol\":8617:8633  role[msg.sender] */\n      0xffffffffffffffffffffffffffffffffffffffff\n      and\n      0xffffffffffffffffffffffffffffffffffffffff\n      and\n      dup2\n      mstore\n      0x20\n      add\n      swap1\n      dup2\n      mstore\n      0x20\n      add\n      0x00\n      keccak256\n      0x00\n      swap1\n      sload\n      swap1\n      0x0100\n      exp\n      swap1\n      div\n      0xff\n      and\n        /* \"contracts/main.sol\":8617:8655  role[msg.sender] == UserRoles.Verifier */\n      0x05\n      dup2\n      gt\n      iszero\n      tag_250\n      jumpi\n      tag_251\n      tag_79\n      jump\t// in\n    tag_251:\n    tag_250:\n      eq\n        /* \"contracts/main.sol\":8609:8674  require(role[msg.sender] == UserRoles.Verifier, \"Not a Verifier\") */\n      tag_252\n      jumpi\n      mload(0x40)\n      0x08c379a000000000000000000000000000000000000000000000000000000000\n      dup2\n      mstore\n      0x04\n      add\n      tag_253\n      swap1\n      tag_162\n      jump\t// in\n    tag_253:\n      mload(0x40)\n      dup1\n      swap2\n      sub\n      swap1\n      revert\n    tag_252:\n        /* \"contracts/main.sol\":12850:12876  bytes32[] memory currQueue */\n      0x00\n        /* \"contracts/main.sol\":12879:12910  verifierQueue.getDocuments(100) */\n      tag_255\n        /* \"contracts/main.sol\":12906:12909  100 */\n      0x64\n        /* \"contracts/main.sol\":12879:12892  verifierQueue */\n      0x05\n        /* \"contracts/main.sol\":12879:12905  verifierQueue.getDocuments */\n      tag_256\n      swap1\n        /* \"contracts/main.sol\":12879:12910  verifierQueue.getDocuments(100) */\n      swap2\n      swap1\n      0xffffffff\n      and\n      jump\t// in\n    tag_255:\n        /* \"contracts/main.sol\":12850:12910  bytes32[] memory currQueue = verifierQueue.getDocuments(100) */\n      swap1\n      pop\n        /* \"contracts/main.sol\":12921:12933  uint256 size */\n      0x00\n        /* \"contracts/main.sol\":12936:12945  currQueue */\n      dup2\n        /* \"contracts/main.sol\":12936:12952  currQueue.length */\n      mload\n        /* \"contracts/main.sol\":12921:12952  uint256 size = currQueue.length */\n      swap1\n      pop\n        /* \"contracts/main.sol\":12963:12995  Document[] memory documentArrRes */\n      0x00\n        /* \"contracts/main.sol\":13013:13017  size */\n      dup2\n        /* \"contracts/main.sol\":12998:13018  new Document[](size) */\n      0xffffffffffffffff\n      dup2\n      gt\n      iszero\n      tag_257\n      jumpi\n      tag_258\n      tag_203\n      jump\t// in\n    tag_258:\n    tag_257:\n      mload(0x40)\n      swap1\n      dup1\n      dup3\n      mstore\n      dup1\n      0x20\n      mul\n      0x20\n      add\n      dup3\n      add\n      0x40\n      mstore\n      dup1\n      iszero\n      tag_259\n      jumpi\n      dup2\n      0x20\n      add\n    tag_260:\n      tag_261\n      tag_207\n      jump\t// in\n    tag_261:\n      dup2\n      mstore\n      0x20\n      add\n      swap1\n      0x01\n      swap1\n      sub\n      swap1\n      dup2\n      tag_260\n      jumpi\n      swap1\n      pop\n    tag_259:\n      pop\n        /* \"contracts/main.sol\":12963:13018  Document[] memory documentArrRes = new Document[](size) */\n      swap1\n      pop\n        /* \"contracts/main.sol\":13033:13042  uint256 i */\n      0x00\n        /* \"contracts/main.sol\":13029:13132  for(uint256 i=0; i<size; i++) {... */\n    tag_262:\n        /* \"contracts/main.sol\":13048:13052  size */\n      dup3\n        /* \"contracts/main.sol\":13046:13047  i */\n      dup2\n        /* \"contracts/main.sol\":13046:13052  i<size */\n      lt\n        /* \"contracts/main.sol\":13029:13132  for(uint256 i=0; i<size; i++) {... */\n      iszero\n      tag_263\n      jumpi\n        /* \"contracts/main.sol\":13094:13106  AllDocuments */\n      0x03\n        /* \"contracts/main.sol\":13094:13120  AllDocuments[currQueue[i]] */\n      0x00\n        /* \"contracts/main.sol\":13107:13116  currQueue */\n      dup6\n        /* \"contracts/main.sol\":13117:13118  i */\n      dup4\n        /* \"contracts/main.sol\":13107:13119  currQueue[i] */\n      dup2\n      mload\n      dup2\n      lt\n      tag_265\n      jumpi\n      tag_266\n      tag_213\n      jump\t// in\n    tag_266:\n    tag_265:\n      0x20\n      mul\n      0x20\n      add\n      add\n      mload\n        /* \"contracts/main.sol\":13094:13120  AllDocuments[currQueue[i]] */\n      dup2\n      mstore\n      0x20\n      add\n      swap1\n      dup2\n      mstore\n      0x20\n      add\n      0x00\n      keccak256\n        /* \"contracts/main.sol\":13074:13120  documentArrRes[i] = AllDocuments[currQueue[i]] */\n      mload(0x40)\n      dup1\n      0xc0\n      add\n      0x40\n      mstore\n      swap1\n      dup2\n      0x00\n      dup3\n      add\n      dup1\n      sload\n      tag_267\n      swap1\n      tag_216\n      jump\t// in\n    tag_267:\n      dup1\n      0x1f\n      add\n      0x20\n      dup1\n      swap2\n      div\n      mul\n      0x20\n      add\n      mload(0x40)\n      swap1\n      dup2\n      add\n      0x40\n      mstore\n      dup1\n      swap3\n      swap2\n      swap1\n      dup2\n      dup2\n      mstore\n      0x20\n      add\n      dup3\n      dup1\n      sload\n      tag_268\n      swap1\n      tag_216\n      jump\t// in\n    tag_268:\n      dup1\n      iszero\n      tag_269\n      jumpi\n      dup1\n      0x1f\n      lt\n      tag_270\n      jumpi\n      0x0100\n      dup1\n      dup4\n      sload\n      div\n      mul\n      dup4\n      mstore\n      swap2\n      0x20\n      add\n      swap2\n      jump(tag_269)\n    tag_270:\n      dup3\n      add\n      swap2\n      swap1\n      0x00\n      mstore\n      keccak256(0x00, 0x20)\n      swap1\n    tag_271:\n      dup2\n      sload\n      dup2\n      mstore\n      swap1\n      0x01\n      add\n      swap1\n      0x20\n      add\n      dup1\n      dup4\n      gt\n      tag_271\n      jumpi\n      dup3\n      swap1\n      sub\n      0x1f\n      and\n      dup3\n      add\n      swap2\n    tag_269:\n      pop\n      pop\n      pop\n      pop\n      pop\n      dup2\n      mstore\n      0x20\n      add\n      0x01\n      dup3\n      add\n      dup1\n      sload\n      tag_272\n      swap1\n      tag_216\n      jump\t// in\n    tag_272:\n      dup1\n      0x1f\n      add\n      0x20\n      dup1\n      swap2\n      div\n      mul\n      0x20\n      add\n      mload(0x40)\n      swap1\n      dup2\n      add\n      0x40\n      mstore\n      dup1\n      swap3\n      swap2\n      swap1\n      dup2\n      dup2\n      mstore\n      0x20\n      add\n      dup3\n      dup1\n      sload\n      tag_273\n      swap1\n      tag_216\n      jump\t// in\n    tag_273:\n      dup1\n      iszero\n      tag_274\n      jumpi\n      dup1\n      0x1f\n      lt\n      tag_275\n      jumpi\n      0x0100\n      dup1\n      dup4\n      sload\n      div\n      mul\n      dup4\n      mstore\n      swap2\n      0x20\n      add\n      swap2\n      jump(tag_274)\n    tag_275:\n      dup3\n      add\n      swap2\n      swap1\n      0x00\n      mstore\n      keccak256(0x00, 0x20)\n      swap1\n    tag_276:\n      dup2\n      sload\n      dup2\n      mstore\n      swap1\n      0x01\n      add\n      swap1\n      0x20\n      add\n      dup1\n      dup4\n      gt\n      tag_276\n      jumpi\n      dup3\n      swap1\n      sub\n      0x1f\n      and\n      dup3\n      add\n      swap2\n    tag_274:\n      pop\n      pop\n      pop\n      pop\n      pop\n      dup2\n      mstore\n      0x20\n      add\n      0x02\n      dup3\n      add\n      0x00\n      swap1\n      sload\n      swap1\n      0x0100\n      exp\n      swap1\n      div\n      0xff\n      and\n      0x03\n      dup2\n      gt\n      iszero\n      tag_277\n      jumpi\n      tag_278\n      tag_79\n      jump\t// in\n    tag_278:\n    tag_277:\n      0x03\n      dup2\n      gt\n      iszero\n      tag_279\n      jumpi\n      tag_280\n      tag_79\n      jump\t// in\n    tag_280:\n    tag_279:\n      dup2\n      mstore\n      0x20\n      add\n      0x02\n      dup3\n      add\n      0x01\n      swap1\n      sload\n      swap1\n      0x0100\n      exp\n      swap1\n      div\n      0xffffffffffffffffffffffffffffffffffffffff\n      and\n      0xffffffffffffffffffffffffffffffffffffffff\n      and\n      0xffffffffffffffffffffffffffffffffffffffff\n      and\n      dup2\n      mstore\n      0x20\n      add\n      0x03\n      dup3\n      add\n      dup1\n      sload\n      tag_281\n      swap1\n      tag_216\n      jump\t// in\n    tag_281:\n      dup1\n      0x1f\n      add\n      0x20\n      dup1\n      swap2\n      div\n      mul\n      0x20\n      add\n      mload(0x40)\n      swap1\n      dup2\n      add\n      0x40\n      mstore\n      dup1\n      swap3\n      swap2\n      swap1\n      dup2\n      dup2\n      mstore\n      0x20\n      add\n      dup3\n      dup1\n      sload\n      tag_282\n      swap1\n      tag_216\n      jump\t// in\n    tag_282:\n      dup1\n      iszero\n      tag_283\n      jumpi\n      dup1\n      0x1f\n      lt\n      tag_284\n      jumpi\n      0x0100\n      dup1\n      dup4\n      sload\n      div\n      mul\n      dup4\n      mstore\n      swap2\n      0x20\n      add\n      swap2\n      jump(tag_283)\n    tag_284:\n      dup3\n      add\n      swap2\n      swap1\n      0x00\n      mstore\n      keccak256(0x00, 0x20)\n      swap1\n    tag_285:\n      dup2\n      sload\n      dup2\n      mstore\n      swap1\n      0x01\n      add\n      swap1\n      0x20\n      add\n      dup1\n      dup4\n      gt\n      tag_285\n      jumpi\n      dup3\n      swap1\n      sub\n      0x1f\n      and\n      dup3\n      add\n      swap2\n    tag_283:\n      pop\n      pop\n      pop\n      pop\n      pop\n      dup2\n      mstore\n      0x20\n      add\n      0x04\n      dup3\n      add\n      sload\n      dup2\n      mstore\n      pop\n      pop\n        /* \"contracts/main.sol\":13074:13088  documentArrRes */\n      dup3\n        /* \"contracts/main.sol\":13089:13090  i */\n      dup3\n        /* \"contracts/main.sol\":13074:13091  documentArrRes[i] */\n      dup2\n      mload\n      dup2\n      lt\n      tag_286\n      jumpi\n      tag_287\n      tag_213\n      jump\t// in\n    tag_287:\n    tag_286:\n      0x20\n      mul\n      0x20\n      add\n      add\n        /* \"contracts/main.sol\":13074:13120  documentArrRes[i] = AllDocuments[currQueue[i]] */\n      dup2\n      swap1\n      mstore\n      pop\n        /* \"contracts/main.sol\":13054:13057  i++ */\n      dup1\n      dup1\n      0x01\n      add\n      swap2\n      pop\n      pop\n        /* \"contracts/main.sol\":13029:13132  for(uint256 i=0; i<size; i++) {... */\n      jump(tag_262)\n    tag_263:\n      pop\n        /* \"contracts/main.sol\":13149:13163  documentArrRes */\n      dup1\n        /* \"contracts/main.sol\":13142:13163  return documentArrRes */\n      swap4\n      pop\n      pop\n      pop\n      pop\n        /* \"contracts/main.sol\":12753:13171  function GetDocumentsByVerfier() public view onlyVerifier returns (Document[] memory) {... */\n      swap1\n      jump\t// out\n        /* \"contracts/main.sol\":7961:7987  User[] public allVerifiers */\n    tag_66:\n      0x12\n      dup2\n      dup2\n      sload\n      dup2\n      lt\n      tag_288\n      jumpi\n      0x00\n      dup1\n      revert\n    tag_288:\n      swap1\n      0x00\n      mstore\n      keccak256(0x00, 0x20)\n      add\n      0x00\n      swap2\n      pop\n      swap1\n      pop\n      dup1\n      0x00\n      add\n      0x00\n      swap1\n      sload\n      swap1\n      0x0100\n      exp\n      swap1\n      div\n      0xffffffffffffffffffffffffffffffffffffffff\n      and\n      swap1\n      pop\n      dup2\n      jump\t// out\n        /* \"contracts/main.sol\":13179:13589  function GetDocumentsByAdmin() public view onlyAdmin returns (Document[] memory) {... */\n    tag_70:\n        /* \"contracts/main.sol\":13241:13258  Document[] memory */\n      0x60\n        /* \"contracts/main.sol\":8760:8775  UserRoles.Admin */\n      0x03\n        /* \"contracts/main.sol\":8740:8775  role[msg.sender] == UserRoles.Admin */\n      0x05\n      dup2\n      gt\n      iszero\n      tag_291\n      jumpi\n      tag_292\n      tag_79\n      jump\t// in\n    tag_292:\n    tag_291:\n        /* \"contracts/main.sol\":8740:8744  role */\n      0x01\n        /* \"contracts/main.sol\":8740:8756  role[msg.sender] */\n      0x00\n        /* \"contracts/main.sol\":8745:8755  msg.sender */\n      caller\n        /* \"contracts/main.sol\":8740:8756  role[msg.sender] */\n      0xffffffffffffffffffffffffffffffffffffffff\n      and\n      0xffffffffffffffffffffffffffffffffffffffff\n      and\n      dup2\n      mstore\n      0x20\n      add\n      swap1\n      dup2\n      mstore\n      0x20\n      add\n      0x00\n      keccak256\n      0x00\n      swap1\n      sload\n      swap1\n      0x0100\n      exp\n      swap1\n      div\n      0xff\n      and\n        /* \"contracts/main.sol\":8740:8775  role[msg.sender] == UserRoles.Admin */\n      0x05\n      dup2\n      gt\n      iszero\n      tag_293\n      jumpi\n      tag_294\n      tag_79\n      jump\t// in\n    tag_294:\n    tag_293:\n      eq\n        /* \"contracts/main.sol\":8732:8793  require(role[msg.sender] == UserRoles.Admin, \"Not the Admin\") */\n      tag_295\n      jumpi\n      mload(0x40)\n      0x08c379a000000000000000000000000000000000000000000000000000000000\n      dup2\n      mstore\n      0x04\n      add\n      tag_296\n      swap1\n      tag_150\n      jump\t// in\n    tag_296:\n      mload(0x40)\n      dup1\n      swap2\n      sub\n      swap1\n      revert\n    tag_295:\n        /* \"contracts/main.sol\":13271:13297  bytes32[] memory currQueue */\n      0x00\n        /* \"contracts/main.sol\":13300:13328  adminQueue.getDocuments(100) */\n      tag_298\n        /* \"contracts/main.sol\":13324:13327  100 */\n      0x64\n        /* \"contracts/main.sol\":13300:13310  adminQueue */\n      0x09\n        /* \"contracts/main.sol\":13300:13323  adminQueue.getDocuments */\n      tag_256\n      swap1\n        /* \"contracts/main.sol\":13300:13328  adminQueue.getDocuments(100) */\n      swap2\n      swap1\n      0xffffffff\n      and\n      jump\t// in\n    tag_298:\n        /* \"contracts/main.sol\":13271:13328  bytes32[] memory currQueue = adminQueue.getDocuments(100) */\n      swap1\n      pop\n        /* \"contracts/main.sol\":13339:13351  uint256 size */\n      0x00\n        /* \"contracts/main.sol\":13354:13363  currQueue */\n      dup2\n        /* \"contracts/main.sol\":13354:13370  currQueue.length */\n      mload\n        /* \"contracts/main.sol\":13339:13370  uint256 size = currQueue.length */\n      swap1\n      pop\n        /* \"contracts/main.sol\":13381:13413  Document[] memory documentArrRes */\n      0x00\n        /* \"contracts/main.sol\":13431:13435  size */\n      dup2\n        /* \"contracts/main.sol\":13416:13436  new Document[](size) */\n      0xffffffffffffffff\n      dup2\n      gt\n      iszero\n      tag_299\n      jumpi\n      tag_300\n      tag_203\n      jump\t// in\n    tag_300:\n    tag_299:\n      mload(0x40)\n      swap1\n      dup1\n      dup3\n      mstore\n      dup1\n      0x20\n      mul\n      0x20\n      add\n      dup3\n      add\n      0x40\n      mstore\n      dup1\n      iszero\n      tag_301\n      jumpi\n      dup2\n      0x20\n      add\n    tag_302:\n      tag_303\n      tag_207\n      jump\t// in\n    tag_303:\n      dup2\n      mstore\n      0x20\n      add\n      swap1\n      0x01\n      swap1\n      sub\n      swap1\n      dup2\n      tag_302\n      jumpi\n      swap1\n      pop\n    tag_301:\n      pop\n        /* \"contracts/main.sol\":13381:13436  Document[] memory documentArrRes = new Document[](size) */\n      swap1\n      pop\n        /* \"contracts/main.sol\":13451:13460  uint256 i */\n      0x00\n        /* \"contracts/main.sol\":13447:13550  for(uint256 i=0; i<size; i++) {... */\n    tag_304:\n        /* \"contracts/main.sol\":13466:13470  size */\n      dup3\n        /* \"contracts/main.sol\":13464:13465  i */\n      dup2\n        /* \"contracts/main.sol\":13464:13470  i<size */\n      lt\n        /* \"contracts/main.sol\":13447:13550  for(uint256 i=0; i<size; i++) {... */\n      iszero\n      tag_305\n      jumpi\n        /* \"contracts/main.sol\":13512:13524  AllDocuments */\n      0x03\n        /* \"contracts/main.sol\":13512:13538  AllDocuments[currQueue[i]] */\n      0x00\n        /* \"contracts/main.sol\":13525:13534  currQueue */\n      dup6\n        /* \"contracts/main.sol\":13535:13536  i */\n      dup4\n        /* \"contracts/main.sol\":13525:13537  currQueue[i] */\n      dup2\n      mload\n      dup2\n      lt\n      tag_307\n      jumpi\n      tag_308\n      tag_213\n      jump\t// in\n    tag_308:\n    tag_307:\n      0x20\n      mul\n      0x20\n      add\n      add\n      mload\n        /* \"contracts/main.sol\":13512:13538  AllDocuments[currQueue[i]] */\n      dup2\n      mstore\n      0x20\n      add\n      swap1\n      dup2\n      mstore\n      0x20\n      add\n      0x00\n      keccak256\n        /* \"contracts/main.sol\":13492:13538  documentArrRes[i] = AllDocuments[currQueue[i]] */\n      mload(0x40)\n      dup1\n      0xc0\n      add\n      0x40\n      mstore\n      swap1\n      dup2\n      0x00\n      dup3\n      add\n      dup1\n      sload\n      tag_309\n      swap1\n      tag_216\n      jump\t// in\n    tag_309:\n      dup1\n      0x1f\n      add\n      0x20\n      dup1\n      swap2\n      div\n      mul\n      0x20\n      add\n      mload(0x40)\n      swap1\n      dup2\n      add\n      0x40\n      mstore\n      dup1\n      swap3\n      swap2\n      swap1\n      dup2\n      dup2\n      mstore\n      0x20\n      add\n      dup3\n      dup1\n      sload\n      tag_310\n      swap1\n      tag_216\n      jump\t// in\n    tag_310:\n      dup1\n      iszero\n      tag_311\n      jumpi\n      dup1\n      0x1f\n      lt\n      tag_312\n      jumpi\n      0x0100\n      dup1\n      dup4\n      sload\n      div\n      mul\n      dup4\n      mstore\n      swap2\n      0x20\n      add\n      swap2\n      jump(tag_311)\n    tag_312:\n      dup3\n      add\n      swap2\n      swap1\n      0x00\n      mstore\n      keccak256(0x00, 0x20)\n      swap1\n    tag_313:\n      dup2\n      sload\n      dup2\n      mstore\n      swap1\n      0x01\n      add\n      swap1\n      0x20\n      add\n      dup1\n      dup4\n      gt\n      tag_313\n      jumpi\n      dup3\n      swap1\n      sub\n      0x1f\n      and\n      dup3\n      add\n      swap2\n    tag_311:\n      pop\n      pop\n      pop\n      pop\n      pop\n      dup2\n      mstore\n      0x20\n      add\n      0x01\n      dup3\n      add\n      dup1\n      sload\n      tag_314\n      swap1\n      tag_216\n      jump\t// in\n    tag_314:\n      dup1\n      0x1f\n      add\n      0x20\n      dup1\n      swap2\n      div\n      mul\n      0x20\n      add\n      mload(0x40)\n      swap1\n      dup2\n      add\n      0x40\n      mstore\n      dup1\n      swap3\n      swap2\n      swap1\n      dup2\n      dup2\n      mstore\n      0x20\n      add\n      dup3\n      dup1\n      sload\n      tag_315\n      swap1\n      tag_216\n      jump\t// in\n    tag_315:\n      dup1\n      iszero\n      tag_316\n      jumpi\n      dup1\n      0x1f\n      lt\n      tag_317\n      jumpi\n      0x0100\n      dup1\n      dup4\n      sload\n      div\n      mul\n      dup4\n      mstore\n      swap2\n      0x20\n      add\n      swap2\n      jump(tag_316)\n    tag_317:\n      dup3\n      add\n      swap2\n      swap1\n      0x00\n      mstore\n      keccak256(0x00, 0x20)\n      swap1\n    tag_318:\n      dup2\n      sload\n      dup2\n      mstore\n      swap1\n      0x01\n      add\n      swap1\n      0x20\n      add\n      dup1\n      dup4\n      gt\n      tag_318\n      jumpi\n      dup3\n      swap1\n      sub\n      0x1f\n      and\n      dup3\n      add\n      swap2\n    tag_316:\n      pop\n      pop\n      pop\n      pop\n      pop\n      dup2\n      mstore\n      0x20\n      add\n      0x02\n      dup3\n      add\n      0x00\n      swap1\n      sload\n      swap1\n      0x0100\n      exp\n      swap1\n      div\n      0xff\n      and\n      0x03\n      dup2\n      gt\n      iszero\n      tag_319\n      jumpi\n      tag_320\n      tag_79\n      jump\t// in\n    tag_320:\n    tag_319:\n      0x03\n      dup2\n      gt\n      iszero\n      tag_321\n      jumpi\n      tag_322\n      tag_79\n      jump\t// in\n    tag_322:\n    tag_321:\n      dup2\n      mstore\n      0x20\n      add\n      0x02\n      dup3\n      add\n      0x01\n      swap1\n      sload\n      swap1\n      0x0100\n      exp\n      swap1\n      div\n      0xffffffffffffffffffffffffffffffffffffffff\n      and\n      0xffffffffffffffffffffffffffffffffffffffff\n      and\n      0xffffffffffffffffffffffffffffffffffffffff\n      and\n      dup2\n      mstore\n      0x20\n      add\n      0x03\n      dup3\n      add\n      dup1\n      sload\n      tag_323\n      swap1\n      tag_216\n      jump\t// in\n    tag_323:\n      dup1\n      0x1f\n      add\n      0x20\n      dup1\n      swap2\n      div\n      mul\n      0x20\n      add\n      mload(0x40)\n      swap1\n      dup2\n      add\n      0x40\n      mstore\n      dup1\n      swap3\n      swap2\n      swap1\n      dup2\n      dup2\n      mstore\n      0x20\n      add\n      dup3\n      dup1\n      sload\n      tag_324\n      swap1\n      tag_216\n      jump\t// in\n    tag_324:\n      dup1\n      iszero\n      tag_325\n      jumpi\n      dup1\n      0x1f\n      lt\n      tag_326\n      jumpi\n      0x0100\n      dup1\n      dup4\n      sload\n      div\n      mul\n      dup4\n      mstore\n      swap2\n      0x20\n      add\n      swap2\n      jump(tag_325)\n    tag_326:\n      dup3\n      add\n      swap2\n      swap1\n      0x00\n      mstore\n      keccak256(0x00, 0x20)\n      swap1\n    tag_327:\n      dup2\n      sload\n      dup2\n      mstore\n      swap1\n      0x01\n      add\n      swap1\n      0x20\n      add\n      dup1\n      dup4\n      gt\n      tag_327\n      jumpi\n      dup3\n      swap1\n      sub\n      0x1f\n      and\n      dup3\n      add\n      swap2\n    tag_325:\n      pop\n      pop\n      pop\n      pop\n      pop\n      dup2\n      mstore\n      0x20\n      add\n      0x04\n      dup3\n      add\n      sload\n      dup2\n      mstore\n      pop\n      pop\n        /* \"contracts/main.sol\":13492:13506  documentArrRes */\n      dup3\n        /* \"contracts/main.sol\":13507:13508  i */\n      dup3\n        /* \"contracts/main.sol\":13492:13509  documentArrRes[i] */\n      dup2\n      mload\n      dup2\n      lt\n      tag_328\n      jumpi\n      tag_329\n      tag_213\n      jump\t// in\n    tag_329:\n    tag_328:\n      0x20\n      mul\n      0x20\n      add\n      add\n        /* \"contracts/main.sol\":13492:13538  documentArrRes[i] = AllDocuments[currQueue[i]] */\n      dup2\n      swap1\n      mstore\n      pop\n        /* \"contracts/main.sol\":13472:13475  i++ */\n      dup1\n      dup1\n      0x01\n      add\n      swap2\n      pop\n      pop\n        /* \"contracts/main.sol\":13447:13550  for(uint256 i=0; i<size; i++) {... */\n      jump(tag_304)\n    tag_305:\n      pop\n        /* \"contracts/main.sol\":13567:13581  documentArrRes */\n      dup1\n        /* \"contracts/main.sol\":13560:13581  return documentArrRes */\n      swap4\n      pop\n      pop\n      pop\n      pop\n        /* \"contracts/main.sol\":13179:13589  function GetDocumentsByAdmin() public view onlyAdmin returns (Document[] memory) {... */\n      swap1\n      jump\t// out\n        /* \"contracts/main.sol\":13597:13691  function getRole() public view returns (uint) {... */\n    tag_73:\n        /* \"contracts/main.sol\":13637:13641  uint */\n      0x00\n        /* \"contracts/main.sol\":13666:13670  role */\n      0x01\n        /* \"contracts/main.sol\":13666:13682  role[msg.sender] */\n      0x00\n        /* \"contracts/main.sol\":13671:13681  msg.sender */\n      caller\n        /* \"contracts/main.sol\":13666:13682  role[msg.sender] */\n      0xffffffffffffffffffffffffffffffffffffffff\n      and\n      0xffffffffffffffffffffffffffffffffffffffff\n      and\n      dup2\n      mstore\n      0x20\n      add\n      swap1\n      dup2\n      mstore\n      0x20\n      add\n      0x00\n      keccak256\n      0x00\n      swap1\n      sload\n      swap1\n      0x0100\n      exp\n      swap1\n      div\n      0xff\n      and\n        /* \"contracts/main.sol\":13661:13683  uint(role[msg.sender]) */\n      0x05\n      dup2\n      gt\n      iszero\n      tag_331\n      jumpi\n      tag_332\n      tag_79\n      jump\t// in\n    tag_332:\n    tag_331:\n        /* \"contracts/main.sol\":13654:13683  return uint(role[msg.sender]) */\n      swap1\n      pop\n        /* \"contracts/main.sol\":13597:13691  function getRole() public view returns (uint) {... */\n      swap1\n      jump\t// out\n        /* \"contracts/main.sol\":877:1470  function enqueue(LinkedQueue storage queue, string memory userDoc) internal {... */\n    tag_98:\n        /* \"contracts/main.sol\":964:986  bytes32 encodedUserDoc */\n      0x00\n        /* \"contracts/main.sol\":1016:1023  userDoc */\n      dup2\n        /* \"contracts/main.sol\":999:1024  abi.encodePacked(userDoc) */\n      add(0x20, mload(0x40))\n      tag_334\n      swap2\n      swap1\n      tag_89\n      jump\t// in\n    tag_334:\n      mload(0x40)\n      0x20\n      dup2\n      dup4\n      sub\n      sub\n      dup2\n      mstore\n      swap1\n      0x40\n      mstore\n        /* \"contracts/main.sol\":989:1025  keccak256(abi.encodePacked(userDoc)) */\n      dup1\n      mload\n      swap1\n      0x20\n      add\n      keccak256\n        /* \"contracts/main.sol\":964:1025  bytes32 encodedUserDoc = keccak256(abi.encodePacked(userDoc)) */\n      swap1\n      pop\n        /* \"contracts/main.sol\":1062:1063  0 */\n      0x00\n        /* \"contracts/main.sol\":1054:1064  bytes32(0) */\n      dup1\n      shl\n        /* \"contracts/main.sol\":1040:1045  queue */\n      dup4\n        /* \"contracts/main.sol\":1040:1050  queue.back */\n      0x02\n      add\n      sload\n        /* \"contracts/main.sol\":1040:1064  queue.back == bytes32(0) */\n      sub\n        /* \"contracts/main.sol\":1036:1463  if (queue.back == bytes32(0)) {... */\n      tag_335\n      jumpi\n        /* \"contracts/main.sol\":1124:1125  0 */\n      0x00\n        /* \"contracts/main.sol\":1116:1126  bytes32(0) */\n      dup1\n      shl\n        /* \"contracts/main.sol\":1081:1086  queue */\n      dup4\n        /* \"contracts/main.sol\":1081:1097  queue.queueItems */\n      0x00\n      add\n        /* \"contracts/main.sol\":1081:1113  queue.queueItems[encodedUserDoc] */\n      0x00\n        /* \"contracts/main.sol\":1098:1112  encodedUserDoc */\n      dup4\n        /* \"contracts/main.sol\":1081:1113  queue.queueItems[encodedUserDoc] */\n      dup2\n      mstore\n      0x20\n      add\n      swap1\n      dup2\n      mstore\n      0x20\n      add\n      0x00\n      keccak256\n        /* \"contracts/main.sol\":1081:1126  queue.queueItems[encodedUserDoc] = bytes32(0) */\n      dup2\n      swap1\n      sstore\n      pop\n        /* \"contracts/main.sol\":1155:1169  encodedUserDoc */\n      dup1\n        /* \"contracts/main.sol\":1141:1146  queue */\n      dup4\n        /* \"contracts/main.sol\":1141:1152  queue.front */\n      0x01\n      add\n        /* \"contracts/main.sol\":1141:1169  queue.front = encodedUserDoc */\n      dup2\n      swap1\n      sstore\n      pop\n        /* \"contracts/main.sol\":1197:1211  encodedUserDoc */\n      dup1\n        /* \"contracts/main.sol\":1184:1189  queue */\n      dup4\n        /* \"contracts/main.sol\":1184:1194  queue.back */\n      0x02\n      add\n        /* \"contracts/main.sol\":1184:1211  queue.back = encodedUserDoc */\n      dup2\n      swap1\n      sstore\n      pop\n        /* \"contracts/main.sol\":1241:1242  1 */\n      0x01\n        /* \"contracts/main.sol\":1226:1231  queue */\n      dup4\n        /* \"contracts/main.sol\":1226:1238  queue.length */\n      0x03\n      add\n        /* \"contracts/main.sol\":1226:1242  queue.length = 1 */\n      dup2\n      swap1\n      sstore\n      pop\n        /* \"contracts/main.sol\":1036:1463  if (queue.back == bytes32(0)) {... */\n      jump(tag_336)\n    tag_335:\n        /* \"contracts/main.sol\":1306:1320  encodedUserDoc */\n      dup1\n        /* \"contracts/main.sol\":1275:1280  queue */\n      dup4\n        /* \"contracts/main.sol\":1275:1291  queue.queueItems */\n      0x00\n      add\n        /* \"contracts/main.sol\":1275:1303  queue.queueItems[queue.back] */\n      0x00\n        /* \"contracts/main.sol\":1292:1297  queue */\n      dup6\n        /* \"contracts/main.sol\":1292:1302  queue.back */\n      0x02\n      add\n      sload\n        /* \"contracts/main.sol\":1275:1303  queue.queueItems[queue.back] */\n      dup2\n      mstore\n      0x20\n      add\n      swap1\n      dup2\n      mstore\n      0x20\n      add\n      0x00\n      keccak256\n        /* \"contracts/main.sol\":1275:1320  queue.queueItems[queue.back] = encodedUserDoc */\n      dup2\n      swap1\n      sstore\n      pop\n        /* \"contracts/main.sol\":1378:1379  0 */\n      0x00\n        /* \"contracts/main.sol\":1370:1380  bytes32(0) */\n      dup1\n      shl\n        /* \"contracts/main.sol\":1335:1340  queue */\n      dup4\n        /* \"contracts/main.sol\":1335:1351  queue.queueItems */\n      0x00\n      add\n        /* \"contracts/main.sol\":1335:1367  queue.queueItems[encodedUserDoc] */\n      0x00\n        /* \"contracts/main.sol\":1352:1366  encodedUserDoc */\n      dup4\n        /* \"contracts/main.sol\":1335:1367  queue.queueItems[encodedUserDoc] */\n      dup2\n      mstore\n      0x20\n      add\n      swap1\n      dup2\n      mstore\n      0x20\n      add\n      0x00\n      keccak256\n        /* \"contracts/main.sol\":1335:1380  queue.queueItems[encodedUserDoc] = bytes32(0) */\n      dup2\n      swap1\n      sstore\n      pop\n        /* \"contracts/main.sol\":1408:1422  encodedUserDoc */\n      dup1\n        /* \"contracts/main.sol\":1395:1400  queue */\n      dup4\n        /* \"contracts/main.sol\":1395:1405  queue.back */\n      0x02\n      add\n        /* \"contracts/main.sol\":1395:1422  queue.back = encodedUserDoc */\n      dup2\n      swap1\n      sstore\n      pop\n        /* \"contracts/main.sol\":1437:1442  queue */\n      dup3\n        /* \"contracts/main.sol\":1437:1449  queue.length */\n      0x03\n      add\n      0x00\n        /* \"contracts/main.sol\":1437:1451  queue.length++ */\n      dup2\n      sload\n      dup1\n      swap3\n      swap2\n      swap1\n      tag_337\n      swap1\n      tag_338\n      jump\t// in\n    tag_337:\n      swap2\n      swap1\n      pop\n      sstore\n      pop\n        /* \"contracts/main.sol\":1036:1463  if (queue.back == bytes32(0)) {... */\n    tag_336:\n        /* \"contracts/main.sol\":953:1470  {... */\n      pop\n        /* \"contracts/main.sol\":877:1470  function enqueue(LinkedQueue storage queue, string memory userDoc) internal {... */\n      pop\n      pop\n      jump\t// out\n        /* \"contracts/main.sol\":7042:7221  function contains(LinkedQueue storage queue, address _user) internal view returns (bool) {... */\n    tag_113:\n        /* \"contracts/main.sol\":7125:7129  bool */\n      0x00\n        /* \"contracts/main.sol\":7184:7185  0 */\n      dup1\n        /* \"contracts/main.sol\":7149:7186  queue.queueItems[_user] == address(0) */\n      0xffffffffffffffffffffffffffffffffffffffff\n      and\n        /* \"contracts/main.sol\":7149:7154  queue */\n      dup4\n        /* \"contracts/main.sol\":7149:7165  queue.queueItems */\n      0x00\n      add\n        /* \"contracts/main.sol\":7149:7172  queue.queueItems[_user] */\n      0x00\n        /* \"contracts/main.sol\":7166:7171  _user */\n      dup5\n        /* \"contracts/main.sol\":7149:7172  queue.queueItems[_user] */\n      0xffffffffffffffffffffffffffffffffffffffff\n      and\n      0xffffffffffffffffffffffffffffffffffffffff\n      and\n      dup2\n      mstore\n      0x20\n      add\n      swap1\n      dup2\n      mstore\n      0x20\n      add\n      0x00\n      keccak256\n      0x00\n      swap1\n      sload\n      swap1\n      0x0100\n      exp\n      swap1\n      div\n      0xffffffffffffffffffffffffffffffffffffffff\n      and\n        /* \"contracts/main.sol\":7149:7186  queue.queueItems[_user] == address(0) */\n      0xffffffffffffffffffffffffffffffffffffffff\n      and\n      eq\n        /* \"contracts/main.sol\":7149:7213  queue.queueItems[_user] == address(0)? queue.back == _user: true */\n      tag_340\n      jumpi\n        /* \"contracts/main.sol\":7209:7213  true */\n      0x01\n        /* \"contracts/main.sol\":7149:7213  queue.queueItems[_user] == address(0)? queue.back == _user: true */\n      jump(tag_341)\n    tag_340:\n        /* \"contracts/main.sol\":7202:7207  _user */\n      dup2\n        /* \"contracts/main.sol\":7188:7207  queue.back == _user */\n      0xffffffffffffffffffffffffffffffffffffffff\n      and\n        /* \"contracts/main.sol\":7188:7193  queue */\n      dup4\n        /* \"contracts/main.sol\":7188:7198  queue.back */\n      0x03\n      add\n      0x00\n      swap1\n      sload\n      swap1\n      0x0100\n      exp\n      swap1\n      div\n      0xffffffffffffffffffffffffffffffffffffffff\n      and\n        /* \"contracts/main.sol\":7188:7207  queue.back == _user */\n      0xffffffffffffffffffffffffffffffffffffffff\n      and\n      eq\n        /* \"contracts/main.sol\":7149:7213  queue.queueItems[_user] == address(0)? queue.back == _user: true */\n    tag_341:\n        /* \"contracts/main.sol\":7142:7213  return queue.queueItems[_user] == address(0)? queue.back == _user: true */\n      swap1\n      pop\n        /* \"contracts/main.sol\":7042:7221  function contains(LinkedQueue storage queue, address _user) internal view returns (bool) {... */\n      swap3\n      swap2\n      pop\n      pop\n      jump\t// out\n        /* \"contracts/main.sol\":4798:5833  function dequeue(LinkedQueue storage queue, address _user) internal {... */\n    tag_117:\n        /* \"contracts/main.sol\":4908:4909  0 */\n      0x00\n        /* \"contracts/main.sol\":4885:4910  queue.front != address(0) */\n      0xffffffffffffffffffffffffffffffffffffffff\n      and\n        /* \"contracts/main.sol\":4885:4890  queue */\n      dup3\n        /* \"contracts/main.sol\":4885:4896  queue.front */\n      0x02\n      add\n      0x00\n      swap1\n      sload\n      swap1\n      0x0100\n      exp\n      swap1\n      div\n      0xffffffffffffffffffffffffffffffffffffffff\n      and\n        /* \"contracts/main.sol\":4885:4910  queue.front != address(0) */\n      0xffffffffffffffffffffffffffffffffffffffff\n      and\n      sub\n        /* \"contracts/main.sol\":4877:4929  require(queue.front != address(0), \"Queue is empty\") */\n      tag_343\n      jumpi\n      mload(0x40)\n      0x08c379a000000000000000000000000000000000000000000000000000000000\n      dup2\n      mstore\n      0x04\n      add\n      tag_344\n      swap1\n      tag_345\n      jump\t// in\n    tag_344:\n      mload(0x40)\n      dup1\n      swap2\n      sub\n      swap1\n      revert\n    tag_343:\n        /* \"contracts/main.sol\":4958:4963  _user */\n      dup1\n        /* \"contracts/main.sol\":4943:4963  queue.front == _user */\n      0xffffffffffffffffffffffffffffffffffffffff\n      and\n        /* \"contracts/main.sol\":4943:4948  queue */\n      dup3\n        /* \"contracts/main.sol\":4943:4954  queue.front */\n      0x02\n      add\n      0x00\n      swap1\n      sload\n      swap1\n      0x0100\n      exp\n      swap1\n      div\n      0xffffffffffffffffffffffffffffffffffffffff\n      and\n        /* \"contracts/main.sol\":4943:4963  queue.front == _user */\n      0xffffffffffffffffffffffffffffffffffffffff\n      and\n      sub\n        /* \"contracts/main.sol\":4940:5575  if(queue.front == _user) {... */\n      tag_346\n      jumpi\n        /* \"contracts/main.sol\":4994:4999  queue */\n      dup2\n        /* \"contracts/main.sol\":4994:5010  queue.queueItems */\n      0x00\n      add\n        /* \"contracts/main.sol\":4994:5023  queue.queueItems[queue.front] */\n      0x00\n        /* \"contracts/main.sol\":5011:5016  queue */\n      dup4\n        /* \"contracts/main.sol\":5011:5022  queue.front */\n      0x02\n      add\n      0x00\n      swap1\n      sload\n      swap1\n      0x0100\n      exp\n      swap1\n      div\n      0xffffffffffffffffffffffffffffffffffffffff\n      and\n        /* \"contracts/main.sol\":4994:5023  queue.queueItems[queue.front] */\n      0xffffffffffffffffffffffffffffffffffffffff\n      and\n      0xffffffffffffffffffffffffffffffffffffffff\n      and\n      dup2\n      mstore\n      0x20\n      add\n      swap1\n      dup2\n      mstore\n      0x20\n      add\n      0x00\n      keccak256\n      0x00\n      swap1\n      sload\n      swap1\n      0x0100\n      exp\n      swap1\n      div\n      0xffffffffffffffffffffffffffffffffffffffff\n      and\n        /* \"contracts/main.sol\":4980:4985  queue */\n      dup3\n        /* \"contracts/main.sol\":4980:4991  queue.front */\n      0x02\n      add\n      0x00\n        /* \"contracts/main.sol\":4980:5023  queue.front = queue.queueItems[queue.front] */\n      0x0100\n      exp\n      dup2\n      sload\n      dup2\n      0xffffffffffffffffffffffffffffffffffffffff\n      mul\n      not\n      and\n      swap1\n      dup4\n      0xffffffffffffffffffffffffffffffffffffffff\n      and\n      mul\n      or\n      swap1\n      sstore\n      pop\n        /* \"contracts/main.sol\":4940:5575  if(queue.front == _user) {... */\n      jump(tag_347)\n    tag_346:\n        /* \"contracts/main.sol\":5065:5085  address dequeuedData */\n      0x00\n        /* \"contracts/main.sol\":5088:5093  queue */\n      dup3\n        /* \"contracts/main.sol\":5088:5099  queue.front */\n      0x02\n      add\n      0x00\n      swap1\n      sload\n      swap1\n      0x0100\n      exp\n      swap1\n      div\n      0xffffffffffffffffffffffffffffffffffffffff\n      and\n        /* \"contracts/main.sol\":5065:5099  address dequeuedData = queue.front */\n      swap1\n      pop\n        /* \"contracts/main.sol\":5114:5271  while(dequeuedData != address(0) && queue.queueItems[dequeuedData] != _user) {... */\n    tag_348:\n        /* \"contracts/main.sol\":5144:5145  0 */\n      0x00\n        /* \"contracts/main.sol\":5120:5146  dequeuedData != address(0) */\n      0xffffffffffffffffffffffffffffffffffffffff\n      and\n        /* \"contracts/main.sol\":5120:5132  dequeuedData */\n      dup2\n        /* \"contracts/main.sol\":5120:5146  dequeuedData != address(0) */\n      0xffffffffffffffffffffffffffffffffffffffff\n      and\n      eq\n      iszero\n        /* \"contracts/main.sol\":5120:5189  dequeuedData != address(0) && queue.queueItems[dequeuedData] != _user */\n      dup1\n      iszero\n      tag_350\n      jumpi\n      pop\n        /* \"contracts/main.sol\":5184:5189  _user */\n      dup2\n        /* \"contracts/main.sol\":5150:5189  queue.queueItems[dequeuedData] != _user */\n      0xffffffffffffffffffffffffffffffffffffffff\n      and\n        /* \"contracts/main.sol\":5150:5155  queue */\n      dup4\n        /* \"contracts/main.sol\":5150:5166  queue.queueItems */\n      0x00\n      add\n        /* \"contracts/main.sol\":5150:5180  queue.queueItems[dequeuedData] */\n      0x00\n        /* \"contracts/main.sol\":5167:5179  dequeuedData */\n      dup4\n        /* \"contracts/main.sol\":5150:5180  queue.queueItems[dequeuedData] */\n      0xffffffffffffffffffffffffffffffffffffffff\n      and\n      0xffffffffffffffffffffffffffffffffffffffff\n      and\n      dup2\n      mstore\n      0x20\n      add\n      swap1\n      dup2\n      mstore\n      0x20\n      add\n      0x00\n      keccak256\n      0x00\n      swap1\n      sload\n      swap1\n      0x0100\n      exp\n      swap1\n      div\n      0xffffffffffffffffffffffffffffffffffffffff\n      and\n        /* \"contracts/main.sol\":5150:5189  queue.queueItems[dequeuedData] != _user */\n      0xffffffffffffffffffffffffffffffffffffffff\n      and\n      eq\n      iszero\n        /* \"contracts/main.sol\":5120:5189  dequeuedData != address(0) && queue.queueItems[dequeuedData] != _user */\n    tag_350:\n        /* \"contracts/main.sol\":5114:5271  while(dequeuedData != address(0) && queue.queueItems[dequeuedData] != _user) {... */\n      iszero\n      tag_349\n      jumpi\n        /* \"contracts/main.sol\":5225:5230  queue */\n      dup3\n        /* \"contracts/main.sol\":5225:5241  queue.queueItems */\n      0x00\n      add\n        /* \"contracts/main.sol\":5225:5255  queue.queueItems[dequeuedData] */\n      0x00\n        /* \"contracts/main.sol\":5242:5254  dequeuedData */\n      dup3\n        /* \"contracts/main.sol\":5225:5255  queue.queueItems[dequeuedData] */\n      0xffffffffffffffffffffffffffffffffffffffff\n      and\n      0xffffffffffffffffffffffffffffffffffffffff\n      and\n      dup2\n      mstore\n      0x20\n      add\n      swap1\n      dup2\n      mstore\n      0x20\n      add\n      0x00\n      keccak256\n      0x00\n      swap1\n      sload\n      swap1\n      0x0100\n      exp\n      swap1\n      div\n      0xffffffffffffffffffffffffffffffffffffffff\n      and\n        /* \"contracts/main.sol\":5210:5255  dequeuedData = queue.queueItems[dequeuedData] */\n      swap1\n      pop\n        /* \"contracts/main.sol\":5114:5271  while(dequeuedData != address(0) && queue.queueItems[dequeuedData] != _user) {... */\n      jump(tag_348)\n    tag_349:\n        /* \"contracts/main.sol\":5317:5318  0 */\n      0x00\n        /* \"contracts/main.sol\":5293:5319  dequeuedData != address(0) */\n      0xffffffffffffffffffffffffffffffffffffffff\n      and\n        /* \"contracts/main.sol\":5293:5305  dequeuedData */\n      dup2\n        /* \"contracts/main.sol\":5293:5319  dequeuedData != address(0) */\n      0xffffffffffffffffffffffffffffffffffffffff\n      and\n      sub\n        /* \"contracts/main.sol\":5285:5371  require(dequeuedData != address(0), \"The requested user does not exist in the Queue!\") */\n      tag_351\n      jumpi\n      mload(0x40)\n      0x08c379a000000000000000000000000000000000000000000000000000000000\n      dup2\n      mstore\n      0x04\n      add\n      tag_352\n      swap1\n      tag_353\n      jump\t// in\n    tag_352:\n      mload(0x40)\n      dup1\n      swap2\n      sub\n      swap1\n      revert\n    tag_351:\n        /* \"contracts/main.sol\":5419:5424  queue */\n      dup3\n        /* \"contracts/main.sol\":5419:5435  queue.queueItems */\n      0x00\n      add\n        /* \"contracts/main.sol\":5419:5467  queue.queueItems[queue.queueItems[dequeuedData]] */\n      0x00\n        /* \"contracts/main.sol\":5436:5441  queue */\n      dup5\n        /* \"contracts/main.sol\":5436:5452  queue.queueItems */\n      0x00\n      add\n        /* \"contracts/main.sol\":5436:5466  queue.queueItems[dequeuedData] */\n      0x00\n        /* \"contracts/main.sol\":5453:5465  dequeuedData */\n      dup5\n        /* \"contracts/main.sol\":5436:5466  queue.queueItems[dequeuedData] */\n      0xffffffffffffffffffffffffffffffffffffffff\n      and\n      0xffffffffffffffffffffffffffffffffffffffff\n      and\n      dup2\n      mstore\n      0x20\n      add\n      swap1\n      dup2\n      mstore\n      0x20\n      add\n      0x00\n      keccak256\n      0x00\n      swap1\n      sload\n      swap1\n      0x0100\n      exp\n      swap1\n      div\n      0xffffffffffffffffffffffffffffffffffffffff\n      and\n        /* \"contracts/main.sol\":5419:5467  queue.queueItems[queue.queueItems[dequeuedData]] */\n      0xffffffffffffffffffffffffffffffffffffffff\n      and\n      0xffffffffffffffffffffffffffffffffffffffff\n      and\n      dup2\n      mstore\n      0x20\n      add\n      swap1\n      dup2\n      mstore\n      0x20\n      add\n      0x00\n      keccak256\n      0x00\n      swap1\n      sload\n      swap1\n      0x0100\n      exp\n      swap1\n      div\n      0xffffffffffffffffffffffffffffffffffffffff\n      and\n        /* \"contracts/main.sol\":5386:5391  queue */\n      dup4\n        /* \"contracts/main.sol\":5386:5402  queue.queueItems */\n      0x00\n      add\n        /* \"contracts/main.sol\":5386:5416  queue.queueItems[dequeuedData] */\n      0x00\n        /* \"contracts/main.sol\":5403:5415  dequeuedData */\n      dup4\n        /* \"contracts/main.sol\":5386:5416  queue.queueItems[dequeuedData] */\n      0xffffffffffffffffffffffffffffffffffffffff\n      and\n      0xffffffffffffffffffffffffffffffffffffffff\n      and\n      dup2\n      mstore\n      0x20\n      add\n      swap1\n      dup2\n      mstore\n      0x20\n      add\n      0x00\n      keccak256\n      0x00\n        /* \"contracts/main.sol\":5386:5467  queue.queueItems[dequeuedData] = queue.queueItems[queue.queueItems[dequeuedData]] */\n      0x0100\n      exp\n      dup2\n      sload\n      dup2\n      0xffffffffffffffffffffffffffffffffffffffff\n      mul\n      not\n      and\n      swap1\n      dup4\n      0xffffffffffffffffffffffffffffffffffffffff\n      and\n      mul\n      or\n      swap1\n      sstore\n      pop\n        /* \"contracts/main.sol\":5499:5504  _user */\n      dup2\n        /* \"contracts/main.sol\":5485:5504  queue.back == _user */\n      0xffffffffffffffffffffffffffffffffffffffff\n      and\n        /* \"contracts/main.sol\":5485:5490  queue */\n      dup4\n        /* \"contracts/main.sol\":5485:5495  queue.back */\n      0x03\n      add\n      0x00\n      swap1\n      sload\n      swap1\n      0x0100\n      exp\n      swap1\n      div\n      0xffffffffffffffffffffffffffffffffffffffff\n      and\n        /* \"contracts/main.sol\":5485:5504  queue.back == _user */\n      0xffffffffffffffffffffffffffffffffffffffff\n      and\n      sub\n        /* \"contracts/main.sol\":5482:5564  if(queue.back == _user) {... */\n      tag_354\n      jumpi\n        /* \"contracts/main.sol\":5546:5547  0 */\n      0x00\n        /* \"contracts/main.sol\":5525:5530  queue */\n      dup4\n        /* \"contracts/main.sol\":5525:5535  queue.back */\n      0x03\n      add\n      0x00\n        /* \"contracts/main.sol\":5525:5548  queue.back = address(0) */\n      0x0100\n      exp\n      dup2\n      sload\n      dup2\n      0xffffffffffffffffffffffffffffffffffffffff\n      mul\n      not\n      and\n      swap1\n      dup4\n      0xffffffffffffffffffffffffffffffffffffffff\n      and\n      mul\n      or\n      swap1\n      sstore\n      pop\n        /* \"contracts/main.sol\":5482:5564  if(queue.back == _user) {... */\n    tag_354:\n        /* \"contracts/main.sol\":5050:5575  {... */\n      pop\n        /* \"contracts/main.sol\":4940:5575  if(queue.front == _user) {... */\n    tag_347:\n        /* \"contracts/main.sol\":5585:5590  queue */\n      dup2\n        /* \"contracts/main.sol\":5585:5597  queue.length */\n      0x04\n      add\n      0x00\n        /* \"contracts/main.sol\":5585:5599  queue.length-- */\n      dup2\n      sload\n      dup1\n      swap3\n      swap2\n      swap1\n      tag_355\n      swap1\n      tag_356\n      jump\t// in\n    tag_355:\n      swap2\n      swap1\n      pop\n      sstore\n      pop\n        /* \"contracts/main.sol\":5637:5638  0 */\n      0x00\n        /* \"contracts/main.sol\":5614:5639  queue.front == address(0) */\n      0xffffffffffffffffffffffffffffffffffffffff\n      and\n        /* \"contracts/main.sol\":5614:5619  queue */\n      dup3\n        /* \"contracts/main.sol\":5614:5625  queue.front */\n      0x02\n      add\n      0x00\n      swap1\n      sload\n      swap1\n      0x0100\n      exp\n      swap1\n      div\n      0xffffffffffffffffffffffffffffffffffffffff\n      and\n        /* \"contracts/main.sol\":5614:5639  queue.front == address(0) */\n      0xffffffffffffffffffffffffffffffffffffffff\n      and\n      sub\n        /* \"contracts/main.sol\":5610:5745  if (queue.front == address(0)) { ... */\n      tag_357\n      jumpi\n        /* \"contracts/main.sol\":5678:5679  0 */\n      0x00\n        /* \"contracts/main.sol\":5657:5662  queue */\n      dup3\n        /* \"contracts/main.sol\":5657:5667  queue.back */\n      0x03\n      add\n      0x00\n        /* \"contracts/main.sol\":5657:5680  queue.back = address(0) */\n      0x0100\n      exp\n      dup2\n      sload\n      dup2\n      0xffffffffffffffffffffffffffffffffffffffff\n      mul\n      not\n      and\n      swap1\n      dup4\n      0xffffffffffffffffffffffffffffffffffffffff\n      and\n      mul\n      or\n      swap1\n      sstore\n      pop\n        /* \"contracts/main.sol\":5732:5733  0 */\n      0x00\n        /* \"contracts/main.sol\":5717:5722  queue */\n      dup3\n        /* \"contracts/main.sol\":5717:5729  queue.length */\n      0x04\n      add\n        /* \"contracts/main.sol\":5717:5733  queue.length = 0 */\n      dup2\n      swap1\n      sstore\n      pop\n        /* \"contracts/main.sol\":5610:5745  if (queue.front == address(0)) { ... */\n    tag_357:\n        /* \"contracts/main.sol\":5762:5767  queue */\n      dup2\n        /* \"contracts/main.sol\":5762:5778  queue.queueItems */\n      0x00\n      add\n        /* \"contracts/main.sol\":5762:5785  queue.queueItems[_user] */\n      0x00\n        /* \"contracts/main.sol\":5779:5784  _user */\n      dup3\n        /* \"contracts/main.sol\":5762:5785  queue.queueItems[_user] */\n      0xffffffffffffffffffffffffffffffffffffffff\n      and\n      0xffffffffffffffffffffffffffffffffffffffff\n      and\n      dup2\n      mstore\n      0x20\n      add\n      swap1\n      dup2\n      mstore\n      0x20\n      add\n      0x00\n      keccak256\n      0x00\n        /* \"contracts/main.sol\":5755:5785  delete queue.queueItems[_user] */\n      0x0100\n      exp\n      dup2\n      sload\n      swap1\n      0xffffffffffffffffffffffffffffffffffffffff\n      mul\n      not\n      and\n      swap1\n      sstore\n        /* \"contracts/main.sol\":5803:5808  queue */\n      dup2\n        /* \"contracts/main.sol\":5803:5818  queue.queueData */\n      0x01\n      add\n        /* \"contracts/main.sol\":5803:5825  queue.queueData[_user] */\n      0x00\n        /* \"contracts/main.sol\":5819:5824  _user */\n      dup3\n        /* \"contracts/main.sol\":5803:5825  queue.queueData[_user] */\n      0xffffffffffffffffffffffffffffffffffffffff\n      and\n      0xffffffffffffffffffffffffffffffffffffffff\n      and\n      dup2\n      mstore\n      0x20\n      add\n      swap1\n      dup2\n      mstore\n      0x20\n      add\n      0x00\n      keccak256\n      0x00\n        /* \"contracts/main.sol\":5796:5825  delete queue.queueData[_user] */\n      dup1\n      dup3\n      add\n      exp(0x0100, 0x00)\n      dup2\n      sload\n      swap1\n      0xffffffffffffffffffffffffffffffffffffffff\n      mul\n      not\n      and\n      swap1\n      sstore\n      pop\n      pop\n        /* \"contracts/main.sol\":4798:5833  function dequeue(LinkedQueue storage queue, address _user) internal {... */\n      pop\n      pop\n      jump\t// out\n        /* \"contracts/main.sol\":4278:4737  function enqueue(LinkedQueue storage queue, address _user) internal {... */\n    tag_139:\n        /* \"contracts/main.sol\":4383:4384  0 */\n      0x00\n        /* \"contracts/main.sol\":4361:4385  queue.back == address(0) */\n      0xffffffffffffffffffffffffffffffffffffffff\n      and\n        /* \"contracts/main.sol\":4361:4366  queue */\n      dup3\n        /* \"contracts/main.sol\":4361:4371  queue.back */\n      0x03\n      add\n      0x00\n      swap1\n      sload\n      swap1\n      0x0100\n      exp\n      swap1\n      div\n      0xffffffffffffffffffffffffffffffffffffffff\n      and\n        /* \"contracts/main.sol\":4361:4385  queue.back == address(0) */\n      0xffffffffffffffffffffffffffffffffffffffff\n      and\n      sub\n        /* \"contracts/main.sol\":4357:4730  if (queue.back == address(0)) {... */\n      tag_359\n      jumpi\n        /* \"contracts/main.sol\":4436:4437  0 */\n      0x00\n        /* \"contracts/main.sol\":4402:4407  queue */\n      dup3\n        /* \"contracts/main.sol\":4402:4418  queue.queueItems */\n      0x00\n      add\n        /* \"contracts/main.sol\":4402:4425  queue.queueItems[_user] */\n      0x00\n        /* \"contracts/main.sol\":4419:4424  _user */\n      dup4\n        /* \"contracts/main.sol\":4402:4425  queue.queueItems[_user] */\n      0xffffffffffffffffffffffffffffffffffffffff\n      and\n      0xffffffffffffffffffffffffffffffffffffffff\n      and\n      dup2\n      mstore\n      0x20\n      add\n      swap1\n      dup2\n      mstore\n      0x20\n      add\n      0x00\n      keccak256\n      0x00\n        /* \"contracts/main.sol\":4402:4438  queue.queueItems[_user] = address(0) */\n      0x0100\n      exp\n      dup2\n      sload\n      dup2\n      0xffffffffffffffffffffffffffffffffffffffff\n      mul\n      not\n      and\n      swap1\n      dup4\n      0xffffffffffffffffffffffffffffffffffffffff\n      and\n      mul\n      or\n      swap1\n      sstore\n      pop\n        /* \"contracts/main.sol\":4467:4472  _user */\n      dup1\n        /* \"contracts/main.sol\":4453:4458  queue */\n      dup3\n        /* \"contracts/main.sol\":4453:4464  queue.front */\n      0x02\n      add\n      0x00\n        /* \"contracts/main.sol\":4453:4472  queue.front = _user */\n      0x0100\n      exp\n      dup2\n      sload\n      dup2\n      0xffffffffffffffffffffffffffffffffffffffff\n      mul\n      not\n      and\n      swap1\n      dup4\n      0xffffffffffffffffffffffffffffffffffffffff\n      and\n      mul\n      or\n      swap1\n      sstore\n      pop\n        /* \"contracts/main.sol\":4500:4505  _user */\n      dup1\n        /* \"contracts/main.sol\":4487:4492  queue */\n      dup3\n        /* \"contracts/main.sol\":4487:4497  queue.back */\n      0x03\n      add\n      0x00\n        /* \"contracts/main.sol\":4487:4505  queue.back = _user */\n      0x0100\n      exp\n      dup2\n      sload\n      dup2\n      0xffffffffffffffffffffffffffffffffffffffff\n      mul\n      not\n      and\n      swap1\n      dup4\n      0xffffffffffffffffffffffffffffffffffffffff\n      and\n      mul\n      or\n      swap1\n      sstore\n      pop\n        /* \"contracts/main.sol\":4535:4536  1 */\n      0x01\n        /* \"contracts/main.sol\":4520:4525  queue */\n      dup3\n        /* \"contracts/main.sol\":4520:4532  queue.length */\n      0x04\n      add\n        /* \"contracts/main.sol\":4520:4536  queue.length = 1 */\n      dup2\n      swap1\n      sstore\n      pop\n        /* \"contracts/main.sol\":4357:4730  if (queue.back == address(0)) {... */\n      jump(tag_360)\n    tag_359:\n        /* \"contracts/main.sol\":4600:4605  _user */\n      dup1\n        /* \"contracts/main.sol\":4569:4574  queue */\n      dup3\n        /* \"contracts/main.sol\":4569:4585  queue.queueItems */\n      0x00\n      add\n        /* \"contracts/main.sol\":4569:4597  queue.queueItems[queue.back] */\n      0x00\n        /* \"contracts/main.sol\":4586:4591  queue */\n      dup5\n        /* \"contracts/main.sol\":4586:4596  queue.back */\n      0x03\n      add\n      0x00\n      swap1\n      sload\n      swap1\n      0x0100\n      exp\n      swap1\n      div\n      0xffffffffffffffffffffffffffffffffffffffff\n      and\n        /* \"contracts/main.sol\":4569:4597  queue.queueItems[queue.back] */\n      0xffffffffffffffffffffffffffffffffffffffff\n      and\n      0xffffffffffffffffffffffffffffffffffffffff\n      and\n      dup2\n      mstore\n      0x20\n      add\n      swap1\n      dup2\n      mstore\n      0x20\n      add\n      0x00\n      keccak256\n      0x00\n        /* \"contracts/main.sol\":4569:4605  queue.queueItems[queue.back] = _user */\n      0x0100\n      exp\n      dup2\n      sload\n      dup2\n      0xffffffffffffffffffffffffffffffffffffffff\n      mul\n      not\n      and\n      swap1\n      dup4\n      0xffffffffffffffffffffffffffffffffffffffff\n      and\n      mul\n      or\n      swap1\n      sstore\n      pop\n        /* \"contracts/main.sol\":4654:4655  0 */\n      0x00\n        /* \"contracts/main.sol\":4620:4625  queue */\n      dup3\n        /* \"contracts/main.sol\":4620:4636  queue.queueItems */\n      0x00\n      add\n        /* \"contracts/main.sol\":4620:4643  queue.queueItems[_user] */\n      0x00\n        /* \"contracts/main.sol\":4637:4642  _user */\n      dup4\n        /* \"contracts/main.sol\":4620:4643  queue.queueItems[_user] */\n      0xffffffffffffffffffffffffffffffffffffffff\n      and\n      0xffffffffffffffffffffffffffffffffffffffff\n      and\n      dup2\n      mstore\n      0x20\n      add\n      swap1\n      dup2\n      mstore\n      0x20\n      add\n      0x00\n      keccak256\n      0x00\n        /* \"contracts/main.sol\":4620:4656  queue.queueItems[_user] = address(0) */\n      0x0100\n      exp\n      dup2\n      sload\n      dup2\n      0xffffffffffffffffffffffffffffffffffffffff\n      mul\n      not\n      and\n      swap1\n      dup4\n      0xffffffffffffffffffffffffffffffffffffffff\n      and\n      mul\n      or\n      swap1\n      sstore\n      pop\n        /* \"contracts/main.sol\":4684:4689  _user */\n      dup1\n        /* \"contracts/main.sol\":4671:4676  queue */\n      dup3\n        /* \"contracts/main.sol\":4671:4681  queue.back */\n      0x03\n      add\n      0x00\n        /* \"contracts/main.sol\":4671:4689  queue.back = _user */\n      0x0100\n      exp\n      dup2\n      sload\n      dup2\n      0xffffffffffffffffffffffffffffffffffffffff\n      mul\n      not\n      and\n      swap1\n      dup4\n      0xffffffffffffffffffffffffffffffffffffffff\n      and\n      mul\n      or\n      swap1\n      sstore\n      pop\n        /* \"contracts/main.sol\":4704:4709  queue */\n      dup2\n        /* \"contracts/main.sol\":4704:4716  queue.length */\n      0x04\n      add\n      0x00\n        /* \"contracts/main.sol\":4704:4718  queue.length++ */\n      dup2\n      sload\n      dup1\n      swap3\n      swap2\n      swap1\n      tag_361\n      swap1\n      tag_338\n      jump\t// in\n    tag_361:\n      swap2\n      swap1\n      pop\n      sstore\n      pop\n        /* \"contracts/main.sol\":4357:4730  if (queue.back == address(0)) {... */\n    tag_360:\n        /* \"contracts/main.sol\":4278:4737  function enqueue(LinkedQueue storage queue, address _user) internal {... */\n      pop\n      pop\n      jump\t// out\n        /* \"contracts/main.sol\":1531:2646  function dequeue(LinkedQueue storage queue, string memory userDoc) internal {... */\n    tag_170:\n        /* \"contracts/main.sol\":1649:1650  0 */\n      0x00\n        /* \"contracts/main.sol\":1641:1651  bytes32(0) */\n      dup1\n      shl\n        /* \"contracts/main.sol\":1626:1631  queue */\n      dup3\n        /* \"contracts/main.sol\":1626:1637  queue.front */\n      0x01\n      add\n      sload\n        /* \"contracts/main.sol\":1626:1651  queue.front != bytes32(0) */\n      sub\n        /* \"contracts/main.sol\":1618:1670  require(queue.front != bytes32(0), \"Queue is empty\") */\n      tag_363\n      jumpi\n      mload(0x40)\n      0x08c379a000000000000000000000000000000000000000000000000000000000\n      dup2\n      mstore\n      0x04\n      add\n      tag_364\n      swap1\n      tag_345\n      jump\t// in\n    tag_364:\n      mload(0x40)\n      dup1\n      swap2\n      sub\n      swap1\n      revert\n    tag_363:\n        /* \"contracts/main.sol\":1681:1703  bytes32 encodedUserDoc */\n      0x00\n        /* \"contracts/main.sol\":1733:1740  userDoc */\n      dup2\n        /* \"contracts/main.sol\":1716:1741  abi.encodePacked(userDoc) */\n      add(0x20, mload(0x40))\n      tag_365\n      swap2\n      swap1\n      tag_89\n      jump\t// in\n    tag_365:\n      mload(0x40)\n      0x20\n      dup2\n      dup4\n      sub\n      sub\n      dup2\n      mstore\n      swap1\n      0x40\n      mstore\n        /* \"contracts/main.sol\":1706:1742  keccak256(abi.encodePacked(userDoc)) */\n      dup1\n      mload\n      swap1\n      0x20\n      add\n      keccak256\n        /* \"contracts/main.sol\":1681:1742  bytes32 encodedUserDoc = keccak256(abi.encodePacked(userDoc)) */\n      swap1\n      pop\n        /* \"contracts/main.sol\":1771:1785  encodedUserDoc */\n      dup1\n        /* \"contracts/main.sol\":1756:1761  queue */\n      dup4\n        /* \"contracts/main.sol\":1756:1767  queue.front */\n      0x01\n      add\n      sload\n        /* \"contracts/main.sol\":1756:1785  queue.front == encodedUserDoc */\n      sub\n        /* \"contracts/main.sol\":1753:2419  if(queue.front == encodedUserDoc) {... */\n      tag_366\n      jumpi\n        /* \"contracts/main.sol\":1816:1821  queue */\n      dup3\n        /* \"contracts/main.sol\":1816:1832  queue.queueItems */\n      0x00\n      add\n        /* \"contracts/main.sol\":1816:1845  queue.queueItems[queue.front] */\n      0x00\n        /* \"contracts/main.sol\":1833:1838  queue */\n      dup5\n        /* \"contracts/main.sol\":1833:1844  queue.front */\n      0x01\n      add\n      sload\n        /* \"contracts/main.sol\":1816:1845  queue.queueItems[queue.front] */\n      dup2\n      mstore\n      0x20\n      add\n      swap1\n      dup2\n      mstore\n      0x20\n      add\n      0x00\n      keccak256\n      sload\n        /* \"contracts/main.sol\":1802:1807  queue */\n      dup4\n        /* \"contracts/main.sol\":1802:1813  queue.front */\n      0x01\n      add\n        /* \"contracts/main.sol\":1802:1845  queue.front = queue.queueItems[queue.front] */\n      dup2\n      swap1\n      sstore\n      pop\n        /* \"contracts/main.sol\":1753:2419  if(queue.front == encodedUserDoc) {... */\n      jump(tag_367)\n    tag_366:\n        /* \"contracts/main.sol\":1887:1907  bytes32 dequeuedData */\n      0x00\n        /* \"contracts/main.sol\":1910:1915  queue */\n      dup4\n        /* \"contracts/main.sol\":1910:1921  queue.front */\n      0x01\n      add\n      sload\n        /* \"contracts/main.sol\":1887:1921  bytes32 dequeuedData = queue.front */\n      swap1\n      pop\n        /* \"contracts/main.sol\":1936:2102  while(dequeuedData != bytes32(0) && queue.queueItems[dequeuedData] != encodedUserDoc) {... */\n    tag_368:\n        /* \"contracts/main.sol\":1966:1967  0 */\n      0x00\n        /* \"contracts/main.sol\":1958:1968  bytes32(0) */\n      dup1\n      shl\n        /* \"contracts/main.sol\":1942:1954  dequeuedData */\n      dup2\n        /* \"contracts/main.sol\":1942:1968  dequeuedData != bytes32(0) */\n      eq\n      iszero\n        /* \"contracts/main.sol\":1942:2020  dequeuedData != bytes32(0) && queue.queueItems[dequeuedData] != encodedUserDoc */\n      dup1\n      iszero\n      tag_370\n      jumpi\n      pop\n        /* \"contracts/main.sol\":2006:2020  encodedUserDoc */\n      dup2\n        /* \"contracts/main.sol\":1972:1977  queue */\n      dup5\n        /* \"contracts/main.sol\":1972:1988  queue.queueItems */\n      0x00\n      add\n        /* \"contracts/main.sol\":1972:2002  queue.queueItems[dequeuedData] */\n      0x00\n        /* \"contracts/main.sol\":1989:2001  dequeuedData */\n      dup4\n        /* \"contracts/main.sol\":1972:2002  queue.queueItems[dequeuedData] */\n      dup2\n      mstore\n      0x20\n      add\n      swap1\n      dup2\n      mstore\n      0x20\n      add\n      0x00\n      keccak256\n      sload\n        /* \"contracts/main.sol\":1972:2020  queue.queueItems[dequeuedData] != encodedUserDoc */\n      eq\n      iszero\n        /* \"contracts/main.sol\":1942:2020  dequeuedData != bytes32(0) && queue.queueItems[dequeuedData] != encodedUserDoc */\n    tag_370:\n        /* \"contracts/main.sol\":1936:2102  while(dequeuedData != bytes32(0) && queue.queueItems[dequeuedData] != encodedUserDoc) {... */\n      iszero\n      tag_369\n      jumpi\n        /* \"contracts/main.sol\":2056:2061  queue */\n      dup4\n        /* \"contracts/main.sol\":2056:2072  queue.queueItems */\n      0x00\n      add\n        /* \"contracts/main.sol\":2056:2086  queue.queueItems[dequeuedData] */\n      0x00\n        /* \"contracts/main.sol\":2073:2085  dequeuedData */\n      dup3\n        /* \"contracts/main.sol\":2056:2086  queue.queueItems[dequeuedData] */\n      dup2\n      mstore\n      0x20\n      add\n      swap1\n      dup2\n      mstore\n      0x20\n      add\n      0x00\n      keccak256\n      sload\n        /* \"contracts/main.sol\":2041:2086  dequeuedData = queue.queueItems[dequeuedData] */\n      swap1\n      pop\n        /* \"contracts/main.sol\":1936:2102  while(dequeuedData != bytes32(0) && queue.queueItems[dequeuedData] != encodedUserDoc) {... */\n      jump(tag_368)\n    tag_369:\n        /* \"contracts/main.sol\":2148:2149  0 */\n      0x00\n        /* \"contracts/main.sol\":2140:2150  bytes32(0) */\n      dup1\n      shl\n        /* \"contracts/main.sol\":2124:2136  dequeuedData */\n      dup2\n        /* \"contracts/main.sol\":2124:2150  dequeuedData != bytes32(0) */\n      sub\n        /* \"contracts/main.sol\":2116:2206  require(dequeuedData != bytes32(0), \"The requested Document does not exist in the Queue!\") */\n      tag_371\n      jumpi\n      mload(0x40)\n      0x08c379a000000000000000000000000000000000000000000000000000000000\n      dup2\n      mstore\n      0x04\n      add\n      tag_372\n      swap1\n      tag_373\n      jump\t// in\n    tag_372:\n      mload(0x40)\n      dup1\n      swap2\n      sub\n      swap1\n      revert\n    tag_371:\n        /* \"contracts/main.sol\":2254:2259  queue */\n      dup4\n        /* \"contracts/main.sol\":2254:2270  queue.queueItems */\n      0x00\n      add\n        /* \"contracts/main.sol\":2254:2302  queue.queueItems[queue.queueItems[dequeuedData]] */\n      0x00\n        /* \"contracts/main.sol\":2271:2276  queue */\n      dup6\n        /* \"contracts/main.sol\":2271:2287  queue.queueItems */\n      0x00\n      add\n        /* \"contracts/main.sol\":2271:2301  queue.queueItems[dequeuedData] */\n      0x00\n        /* \"contracts/main.sol\":2288:2300  dequeuedData */\n      dup5\n        /* \"contracts/main.sol\":2271:2301  queue.queueItems[dequeuedData] */\n      dup2\n      mstore\n      0x20\n      add\n      swap1\n      dup2\n      mstore\n      0x20\n      add\n      0x00\n      keccak256\n      sload\n        /* \"contracts/main.sol\":2254:2302  queue.queueItems[queue.queueItems[dequeuedData]] */\n      dup2\n      mstore\n      0x20\n      add\n      swap1\n      dup2\n      mstore\n      0x20\n      add\n      0x00\n      keccak256\n      sload\n        /* \"contracts/main.sol\":2221:2226  queue */\n      dup5\n        /* \"contracts/main.sol\":2221:2237  queue.queueItems */\n      0x00\n      add\n        /* \"contracts/main.sol\":2221:2251  queue.queueItems[dequeuedData] */\n      0x00\n        /* \"contracts/main.sol\":2238:2250  dequeuedData */\n      dup4\n        /* \"contracts/main.sol\":2221:2251  queue.queueItems[dequeuedData] */\n      dup2\n      mstore\n      0x20\n      add\n      swap1\n      dup2\n      mstore\n      0x20\n      add\n      0x00\n      keccak256\n        /* \"contracts/main.sol\":2221:2302  queue.queueItems[dequeuedData] = queue.queueItems[queue.queueItems[dequeuedData]] */\n      dup2\n      swap1\n      sstore\n      pop\n        /* \"contracts/main.sol\":2334:2348  encodedUserDoc */\n      dup2\n        /* \"contracts/main.sol\":2320:2325  queue */\n      dup5\n        /* \"contracts/main.sol\":2320:2330  queue.back */\n      0x02\n      add\n      sload\n        /* \"contracts/main.sol\":2320:2348  queue.back == encodedUserDoc */\n      sub\n        /* \"contracts/main.sol\":2317:2408  if(queue.back == encodedUserDoc) {... */\n      tag_374\n      jumpi\n        /* \"contracts/main.sol\":2390:2391  0 */\n      0x00\n        /* \"contracts/main.sol\":2382:2392  bytes32(0) */\n      dup1\n      shl\n        /* \"contracts/main.sol\":2369:2374  queue */\n      dup5\n        /* \"contracts/main.sol\":2369:2379  queue.back */\n      0x02\n      add\n        /* \"contracts/main.sol\":2369:2392  queue.back = bytes32(0) */\n      dup2\n      swap1\n      sstore\n      pop\n        /* \"contracts/main.sol\":2317:2408  if(queue.back == encodedUserDoc) {... */\n    tag_374:\n        /* \"contracts/main.sol\":1872:2419  {... */\n      pop\n        /* \"contracts/main.sol\":1753:2419  if(queue.front == encodedUserDoc) {... */\n    tag_367:\n        /* \"contracts/main.sol\":2429:2434  queue */\n      dup3\n        /* \"contracts/main.sol\":2429:2441  queue.length */\n      0x03\n      add\n      0x00\n        /* \"contracts/main.sol\":2429:2443  queue.length-- */\n      dup2\n      sload\n      dup1\n      swap3\n      swap2\n      swap1\n      tag_375\n      swap1\n      tag_356\n      jump\t// in\n    tag_375:\n      swap2\n      swap1\n      pop\n      sstore\n      pop\n        /* \"contracts/main.sol\":2481:2482  0 */\n      0x00\n        /* \"contracts/main.sol\":2473:2483  bytes32(0) */\n      dup1\n      shl\n        /* \"contracts/main.sol\":2458:2463  queue */\n      dup4\n        /* \"contracts/main.sol\":2458:2469  queue.front */\n      0x01\n      add\n      sload\n        /* \"contracts/main.sol\":2458:2483  queue.front == bytes32(0) */\n      sub\n        /* \"contracts/main.sol\":2454:2589  if (queue.front == bytes32(0)) { ... */\n      tag_376\n      jumpi\n        /* \"contracts/main.sol\":2522:2523  0 */\n      0x00\n        /* \"contracts/main.sol\":2514:2524  bytes32(0) */\n      dup1\n      shl\n        /* \"contracts/main.sol\":2501:2506  queue */\n      dup4\n        /* \"contracts/main.sol\":2501:2511  queue.back */\n      0x02\n      add\n        /* \"contracts/main.sol\":2501:2524  queue.back = bytes32(0) */\n      dup2\n      swap1\n      sstore\n      pop\n        /* \"contracts/main.sol\":2576:2577  0 */\n      0x00\n        /* \"contracts/main.sol\":2561:2566  queue */\n      dup4\n        /* \"contracts/main.sol\":2561:2573  queue.length */\n      0x03\n      add\n        /* \"contracts/main.sol\":2561:2577  queue.length = 0 */\n      dup2\n      swap1\n      sstore\n      pop\n        /* \"contracts/main.sol\":2454:2589  if (queue.front == bytes32(0)) { ... */\n    tag_376:\n        /* \"contracts/main.sol\":2606:2611  queue */\n      dup3\n        /* \"contracts/main.sol\":2606:2622  queue.queueItems */\n      0x00\n      add\n        /* \"contracts/main.sol\":2606:2638  queue.queueItems[encodedUserDoc] */\n      0x00\n        /* \"contracts/main.sol\":2623:2637  encodedUserDoc */\n      dup3\n        /* \"contracts/main.sol\":2606:2638  queue.queueItems[encodedUserDoc] */\n      dup2\n      mstore\n      0x20\n      add\n      swap1\n      dup2\n      mstore\n      0x20\n      add\n      0x00\n      keccak256\n        /* \"contracts/main.sol\":2599:2638  delete queue.queueItems[encodedUserDoc] */\n      0x00\n      swap1\n      sstore\n        /* \"contracts/main.sol\":1607:2646  {... */\n      pop\n        /* \"contracts/main.sol\":1531:2646  function dequeue(LinkedQueue storage queue, string memory userDoc) internal {... */\n      pop\n      pop\n      jump\t// out\n        /* \"contracts/main.sol\":6094:6872  function getUsers(LinkedQueue storage queue, uint256 lengthToBeFetched) internal view returns (address[] memory) {... */\n    tag_246:\n        /* \"contracts/main.sol\":6189:6205  address[] memory */\n      0x60\n        /* \"contracts/main.sol\":6279:6294  address current */\n      0x00\n        /* \"contracts/main.sol\":6297:6302  queue */\n      dup4\n        /* \"contracts/main.sol\":6297:6308  queue.front */\n      0x02\n      add\n      0x00\n      swap1\n      sload\n      swap1\n      0x0100\n      exp\n      swap1\n      div\n      0xffffffffffffffffffffffffffffffffffffffff\n      and\n        /* \"contracts/main.sol\":6279:6308  address current = queue.front */\n      swap1\n      pop\n        /* \"contracts/main.sol\":6354:6371  lengthToBeFetched */\n      dup3\n        /* \"contracts/main.sol\":6339:6344  queue */\n      dup5\n        /* \"contracts/main.sol\":6339:6351  queue.length */\n      0x04\n      add\n      sload\n        /* \"contracts/main.sol\":6339:6371  queue.length < lengthToBeFetched */\n      lt\n        /* \"contracts/main.sol\":6339:6404  queue.length < lengthToBeFetched? queue.length: lengthToBeFetched */\n      tag_378\n      jumpi\n        /* \"contracts/main.sol\":6387:6404  lengthToBeFetched */\n      dup3\n        /* \"contracts/main.sol\":6339:6404  queue.length < lengthToBeFetched? queue.length: lengthToBeFetched */\n      jump(tag_379)\n    tag_378:\n        /* \"contracts/main.sol\":6373:6378  queue */\n      dup4\n        /* \"contracts/main.sol\":6373:6385  queue.length */\n      0x04\n      add\n      sload\n        /* \"contracts/main.sol\":6339:6404  queue.length < lengthToBeFetched? queue.length: lengthToBeFetched */\n    tag_379:\n        /* \"contracts/main.sol\":6319:6404  lengthToBeFetched = queue.length < lengthToBeFetched? queue.length: lengthToBeFetched */\n      swap3\n      pop\n        /* \"contracts/main.sol\":6468:6490  address[] memory users */\n      0x00\n        /* \"contracts/main.sol\":6507:6524  lengthToBeFetched */\n      dup4\n        /* \"contracts/main.sol\":6493:6525  new address[](lengthToBeFetched) */\n      0xffffffffffffffff\n      dup2\n      gt\n      iszero\n      tag_380\n      jumpi\n      tag_381\n      tag_203\n      jump\t// in\n    tag_381:\n    tag_380:\n      mload(0x40)\n      swap1\n      dup1\n      dup3\n      mstore\n      dup1\n      0x20\n      mul\n      0x20\n      add\n      dup3\n      add\n      0x40\n      mstore\n      dup1\n      iszero\n      tag_382\n      jumpi\n      dup2\n      0x20\n      add\n      0x20\n      dup3\n      mul\n      dup1\n      calldatasize\n      dup4\n      calldatacopy\n      dup1\n      dup3\n      add\n      swap2\n      pop\n      pop\n      swap1\n      pop\n    tag_382:\n      pop\n        /* \"contracts/main.sol\":6468:6525  address[] memory users = new address[](lengthToBeFetched) */\n      swap1\n      pop\n        /* \"contracts/main.sol\":6546:6551  queue */\n      dup5\n        /* \"contracts/main.sol\":6546:6557  queue.front */\n      0x02\n      add\n      0x00\n      swap1\n      sload\n      swap1\n      0x0100\n      exp\n      swap1\n      div\n      0xffffffffffffffffffffffffffffffffffffffff\n      and\n        /* \"contracts/main.sol\":6536:6557  current = queue.front */\n      swap2\n      pop\n        /* \"contracts/main.sol\":6568:6581  uint256 index */\n      0x00\n        /* \"contracts/main.sol\":6648:6840  while (current != address(0)) {... */\n    tag_383:\n        /* \"contracts/main.sol\":6674:6675  0 */\n      0x00\n        /* \"contracts/main.sol\":6655:6676  current != address(0) */\n      0xffffffffffffffffffffffffffffffffffffffff\n      and\n        /* \"contracts/main.sol\":6655:6662  current */\n      dup4\n        /* \"contracts/main.sol\":6655:6676  current != address(0) */\n      0xffffffffffffffffffffffffffffffffffffffff\n      and\n      eq\n        /* \"contracts/main.sol\":6648:6840  while (current != address(0)) {... */\n      tag_384\n      jumpi\n        /* \"contracts/main.sol\":6708:6715  current */\n      dup3\n        /* \"contracts/main.sol\":6693:6698  users */\n      dup3\n        /* \"contracts/main.sol\":6699:6704  index */\n      dup3\n        /* \"contracts/main.sol\":6693:6705  users[index] */\n      dup2\n      mload\n      dup2\n      lt\n      tag_385\n      jumpi\n      tag_386\n      tag_213\n      jump\t// in\n    tag_386:\n    tag_385:\n      0x20\n      mul\n      0x20\n      add\n      add\n        /* \"contracts/main.sol\":6693:6715  users[index] = current */\n      swap1\n      0xffffffffffffffffffffffffffffffffffffffff\n      and\n      swap1\n      dup2\n      0xffffffffffffffffffffffffffffffffffffffff\n      and\n      dup2\n      mstore\n      pop\n      pop\n        /* \"contracts/main.sol\":6781:6786  queue */\n      dup6\n        /* \"contracts/main.sol\":6781:6797  queue.queueItems */\n      0x00\n      add\n        /* \"contracts/main.sol\":6781:6806  queue.queueItems[current] */\n      0x00\n        /* \"contracts/main.sol\":6798:6805  current */\n      dup5\n        /* \"contracts/main.sol\":6781:6806  queue.queueItems[current] */\n      0xffffffffffffffffffffffffffffffffffffffff\n      and\n      0xffffffffffffffffffffffffffffffffffffffff\n      and\n      dup2\n      mstore\n      0x20\n      add\n      swap1\n      dup2\n      mstore\n      0x20\n      add\n      0x00\n      keccak256\n      0x00\n      swap1\n      sload\n      swap1\n      0x0100\n      exp\n      swap1\n      div\n      0xffffffffffffffffffffffffffffffffffffffff\n      and\n        /* \"contracts/main.sol\":6771:6806  current = queue.queueItems[current] */\n      swap3\n      pop\n        /* \"contracts/main.sol\":6821:6828  index++ */\n      dup1\n      dup1\n      tag_387\n      swap1\n      tag_338\n      jump\t// in\n    tag_387:\n      swap2\n      pop\n      pop\n        /* \"contracts/main.sol\":6648:6840  while (current != address(0)) {... */\n      jump(tag_383)\n    tag_384:\n        /* \"contracts/main.sol\":6859:6864  users */\n      dup2\n        /* \"contracts/main.sol\":6852:6864  return users */\n      swap4\n      pop\n      pop\n      pop\n      pop\n        /* \"contracts/main.sol\":6094:6872  function getUsers(LinkedQueue storage queue, uint256 lengthToBeFetched) internal view returns (address[] memory) {... */\n      swap3\n      swap2\n      pop\n      pop\n      jump\t// out\n        /* \"contracts/main.sol\":2907:3703  function getDocuments(LinkedQueue storage queue, uint256 lengthToBeFetched) internal view returns (bytes32[] memory) {... */\n    tag_256:\n        /* \"contracts/main.sol\":3006:3022  bytes32[] memory */\n      0x60\n        /* \"contracts/main.sol\":3096:3111  bytes32 current */\n      0x00\n        /* \"contracts/main.sol\":3114:3119  queue */\n      dup4\n        /* \"contracts/main.sol\":3114:3125  queue.front */\n      0x01\n      add\n      sload\n        /* \"contracts/main.sol\":3096:3125  bytes32 current = queue.front */\n      swap1\n      pop\n        /* \"contracts/main.sol\":3171:3188  lengthToBeFetched */\n      dup3\n        /* \"contracts/main.sol\":3156:3161  queue */\n      dup5\n        /* \"contracts/main.sol\":3156:3168  queue.length */\n      0x03\n      add\n      sload\n        /* \"contracts/main.sol\":3156:3188  queue.length < lengthToBeFetched */\n      lt\n        /* \"contracts/main.sol\":3156:3221  queue.length < lengthToBeFetched? queue.length: lengthToBeFetched */\n      tag_389\n      jumpi\n        /* \"contracts/main.sol\":3204:3221  lengthToBeFetched */\n      dup3\n        /* \"contracts/main.sol\":3156:3221  queue.length < lengthToBeFetched? queue.length: lengthToBeFetched */\n      jump(tag_390)\n    tag_389:\n        /* \"contracts/main.sol\":3190:3195  queue */\n      dup4\n        /* \"contracts/main.sol\":3190:3202  queue.length */\n      0x03\n      add\n      sload\n        /* \"contracts/main.sol\":3156:3221  queue.length < lengthToBeFetched? queue.length: lengthToBeFetched */\n    tag_390:\n        /* \"contracts/main.sol\":3136:3221  lengthToBeFetched = queue.length < lengthToBeFetched? queue.length: lengthToBeFetched */\n      swap3\n      pop\n        /* \"contracts/main.sol\":3285:3311  bytes32[] memory documents */\n      0x00\n        /* \"contracts/main.sol\":3328:3345  lengthToBeFetched */\n      dup4\n        /* \"contracts/main.sol\":3314:3346  new bytes32[](lengthToBeFetched) */\n      0xffffffffffffffff\n      dup2\n      gt\n      iszero\n      tag_391\n      jumpi\n      tag_392\n      tag_203\n      jump\t// in\n    tag_392:\n    tag_391:\n      mload(0x40)\n      swap1\n      dup1\n      dup3\n      mstore\n      dup1\n      0x20\n      mul\n      0x20\n      add\n      dup3\n      add\n      0x40\n      mstore\n      dup1\n      iszero\n      tag_393\n      jumpi\n      dup2\n      0x20\n      add\n      0x20\n      dup3\n      mul\n      dup1\n      calldatasize\n      dup4\n      calldatacopy\n      dup1\n      dup3\n      add\n      swap2\n      pop\n      pop\n      swap1\n      pop\n    tag_393:\n      pop\n        /* \"contracts/main.sol\":3285:3346  bytes32[] memory documents = new bytes32[](lengthToBeFetched) */\n      swap1\n      pop\n        /* \"contracts/main.sol\":3367:3372  queue */\n      dup5\n        /* \"contracts/main.sol\":3367:3378  queue.front */\n      0x01\n      add\n      sload\n        /* \"contracts/main.sol\":3357:3378  current = queue.front */\n      swap2\n      pop\n        /* \"contracts/main.sol\":3389:3402  uint256 index */\n      0x00\n        /* \"contracts/main.sol\":3469:3667  while (current != bytes32(0)) {... */\n    tag_394:\n        /* \"contracts/main.sol\":3495:3496  0 */\n      0x00\n        /* \"contracts/main.sol\":3487:3497  bytes32(0) */\n      dup1\n      shl\n        /* \"contracts/main.sol\":3476:3483  current */\n      dup4\n        /* \"contracts/main.sol\":3476:3497  current != bytes32(0) */\n      eq\n        /* \"contracts/main.sol\":3469:3667  while (current != bytes32(0)) {... */\n      tag_395\n      jumpi\n        /* \"contracts/main.sol\":3533:3540  current */\n      dup3\n        /* \"contracts/main.sol\":3514:3523  documents */\n      dup3\n        /* \"contracts/main.sol\":3524:3529  index */\n      dup3\n        /* \"contracts/main.sol\":3514:3530  documents[index] */\n      dup2\n      mload\n      dup2\n      lt\n      tag_396\n      jumpi\n      tag_397\n      tag_213\n      jump\t// in\n    tag_397:\n    tag_396:\n      0x20\n      mul\n      0x20\n      add\n      add\n        /* \"contracts/main.sol\":3514:3540  documents[index] = current */\n      dup2\n      dup2\n      mstore\n      pop\n      pop\n        /* \"contracts/main.sol\":3608:3613  queue */\n      dup6\n        /* \"contracts/main.sol\":3608:3624  queue.queueItems */\n      0x00\n      add\n        /* \"contracts/main.sol\":3608:3633  queue.queueItems[current] */\n      0x00\n        /* \"contracts/main.sol\":3625:3632  current */\n      dup5\n        /* \"contracts/main.sol\":3608:3633  queue.queueItems[current] */\n      dup2\n      mstore\n      0x20\n      add\n      swap1\n      dup2\n      mstore\n      0x20\n      add\n      0x00\n      keccak256\n      sload\n        /* \"contracts/main.sol\":3598:3633  current = queue.queueItems[current] */\n      swap3\n      pop\n        /* \"contracts/main.sol\":3648:3655  index++ */\n      dup1\n      dup1\n      tag_398\n      swap1\n      tag_338\n      jump\t// in\n    tag_398:\n      swap2\n      pop\n      pop\n        /* \"contracts/main.sol\":3469:3667  while (current != bytes32(0)) {... */\n      jump(tag_394)\n    tag_395:\n        /* \"contracts/main.sol\":3686:3695  documents */\n      dup2\n        /* \"contracts/main.sol\":3679:3695  return documents */\n      swap4\n      pop\n      pop\n      pop\n      pop\n        /* \"contracts/main.sol\":2907:3703  function getDocuments(LinkedQueue storage queue, uint256 lengthToBeFetched) internal view returns (bytes32[] memory) {... */\n      swap3\n      swap2\n      pop\n      pop\n      jump\t// out\n    tag_141:\n      mload(0x40)\n      dup1\n      0x20\n      add\n      0x40\n      mstore\n      dup1\n      and(0xffffffffffffffffffffffffffffffffffffffff, 0x00)\n      dup2\n      mstore\n      pop\n      swap1\n      jump\t// out\n    tag_207:\n      mload(0x40)\n      dup1\n      0xc0\n      add\n      0x40\n      mstore\n      dup1\n      0x60\n      dup2\n      mstore\n      0x20\n      add\n      0x60\n      dup2\n      mstore\n      0x20\n      add\n      0x00\n      0x03\n      dup2\n      gt\n      iszero\n      tag_399\n      jumpi\n      tag_400\n      tag_79\n      jump\t// in\n    tag_400:\n    tag_399:\n      dup2\n      mstore\n      0x20\n      add\n      and(0xffffffffffffffffffffffffffffffffffffffff, 0x00)\n      dup2\n      mstore\n      0x20\n      add\n      0x60\n      dup2\n      mstore\n      0x20\n      add\n      0x00\n      dup2\n      mstore\n      pop\n      swap1\n      jump\t// out\n        /* \"#utility.yul\":7:82   */\n    tag_401:\n        /* \"#utility.yul\":40:46   */\n      0x00\n        /* \"#utility.yul\":73:75   */\n      0x40\n        /* \"#utility.yul\":67:76   */\n      mload\n        /* \"#utility.yul\":57:76   */\n      swap1\n      pop\n        /* \"#utility.yul\":7:82   */\n      swap1\n      jump\t// out\n        /* \"#utility.yul\":88:205   */\n    tag_402:\n        /* \"#utility.yul\":197:198   */\n      0x00\n        /* \"#utility.yul\":194:195   */\n      dup1\n        /* \"#utility.yul\":187:199   */\n      revert\n        /* \"#utility.yul\":211:328   */\n    tag_403:\n        /* \"#utility.yul\":320:321   */\n      0x00\n        /* \"#utility.yul\":317:318   */\n      dup1\n        /* \"#utility.yul\":310:322   */\n      revert\n        /* \"#utility.yul\":334:451   */\n    tag_404:\n        /* \"#utility.yul\":443:444   */\n      0x00\n        /* \"#utility.yul\":440:441   */\n      dup1\n        /* \"#utility.yul\":433:445   */\n      revert\n        /* \"#utility.yul\":457:574   */\n    tag_405:\n        /* \"#utility.yul\":566:567   */\n      0x00\n        /* \"#utility.yul\":563:564   */\n      dup1\n        /* \"#utility.yul\":556:568   */\n      revert\n        /* \"#utility.yul\":580:682   */\n    tag_406:\n        /* \"#utility.yul\":621:627   */\n      0x00\n        /* \"#utility.yul\":672:674   */\n      0x1f\n        /* \"#utility.yul\":668:675   */\n      not\n        /* \"#utility.yul\":663:665   */\n      0x1f\n        /* \"#utility.yul\":656:661   */\n      dup4\n        /* \"#utility.yul\":652:666   */\n      add\n        /* \"#utility.yul\":648:676   */\n      and\n        /* \"#utility.yul\":638:676   */\n      swap1\n      pop\n        /* \"#utility.yul\":580:682   */\n      swap2\n      swap1\n      pop\n      jump\t// out\n        /* \"#utility.yul\":688:868   */\n    tag_203:\n        /* \"#utility.yul\":736:813   */\n      0x4e487b7100000000000000000000000000000000000000000000000000000000\n        /* \"#utility.yul\":733:734   */\n      0x00\n        /* \"#utility.yul\":726:814   */\n      mstore\n        /* \"#utility.yul\":833:837   */\n      0x41\n        /* \"#utility.yul\":830:831   */\n      0x04\n        /* \"#utility.yul\":823:838   */\n      mstore\n        /* \"#utility.yul\":857:861   */\n      0x24\n        /* \"#utility.yul\":854:855   */\n      0x00\n        /* \"#utility.yul\":847:862   */\n      revert\n        /* \"#utility.yul\":874:1155   */\n    tag_407:\n        /* \"#utility.yul\":957:984   */\n      tag_504\n        /* \"#utility.yul\":979:983   */\n      dup3\n        /* \"#utility.yul\":957:984   */\n      tag_406\n      jump\t// in\n    tag_504:\n        /* \"#utility.yul\":949:955   */\n      dup2\n        /* \"#utility.yul\":945:985   */\n      add\n        /* \"#utility.yul\":1087:1093   */\n      dup2\n        /* \"#utility.yul\":1075:1085   */\n      dup2\n        /* \"#utility.yul\":1072:1094   */\n      lt\n        /* \"#utility.yul\":1051:1069   */\n      0xffffffffffffffff\n        /* \"#utility.yul\":1039:1049   */\n      dup3\n        /* \"#utility.yul\":1036:1070   */\n      gt\n        /* \"#utility.yul\":1033:1095   */\n      or\n        /* \"#utility.yul\":1030:1118   */\n      iszero\n      tag_505\n      jumpi\n        /* \"#utility.yul\":1098:1116   */\n      tag_506\n      tag_203\n      jump\t// in\n    tag_506:\n        /* \"#utility.yul\":1030:1118   */\n    tag_505:\n        /* \"#utility.yul\":1138:1148   */\n      dup1\n        /* \"#utility.yul\":1134:1136   */\n      0x40\n        /* \"#utility.yul\":1127:1149   */\n      mstore\n        /* \"#utility.yul\":917:1155   */\n      pop\n        /* \"#utility.yul\":874:1155   */\n      pop\n      pop\n      jump\t// out\n        /* \"#utility.yul\":1161:1290   */\n    tag_408:\n        /* \"#utility.yul\":1195:1201   */\n      0x00\n        /* \"#utility.yul\":1222:1242   */\n      tag_508\n      tag_401\n      jump\t// in\n    tag_508:\n        /* \"#utility.yul\":1212:1242   */\n      swap1\n      pop\n        /* \"#utility.yul\":1251:1284   */\n      tag_509\n        /* \"#utility.yul\":1279:1283   */\n      dup3\n        /* \"#utility.yul\":1271:1277   */\n      dup3\n        /* \"#utility.yul\":1251:1284   */\n      tag_407\n      jump\t// in\n    tag_509:\n        /* \"#utility.yul\":1161:1290   */\n      swap2\n      swap1\n      pop\n      jump\t// out\n        /* \"#utility.yul\":1296:1604   */\n    tag_409:\n        /* \"#utility.yul\":1358:1362   */\n      0x00\n        /* \"#utility.yul\":1448:1466   */\n      0xffffffffffffffff\n        /* \"#utility.yul\":1440:1446   */\n      dup3\n        /* \"#utility.yul\":1437:1467   */\n      gt\n        /* \"#utility.yul\":1434:1490   */\n      iszero\n      tag_511\n      jumpi\n        /* \"#utility.yul\":1470:1488   */\n      tag_512\n      tag_203\n      jump\t// in\n    tag_512:\n        /* \"#utility.yul\":1434:1490   */\n    tag_511:\n        /* \"#utility.yul\":1508:1537   */\n      tag_513\n        /* \"#utility.yul\":1530:1536   */\n      dup3\n        /* \"#utility.yul\":1508:1537   */\n      tag_406\n      jump\t// in\n    tag_513:\n        /* \"#utility.yul\":1500:1537   */\n      swap1\n      pop\n        /* \"#utility.yul\":1592:1596   */\n      0x20\n        /* \"#utility.yul\":1586:1590   */\n      dup2\n        /* \"#utility.yul\":1582:1597   */\n      add\n        /* \"#utility.yul\":1574:1597   */\n      swap1\n      pop\n        /* \"#utility.yul\":1296:1604   */\n      swap2\n      swap1\n      pop\n      jump\t// out\n        /* \"#utility.yul\":1610:1758   */\n    tag_410:\n        /* \"#utility.yul\":1708:1714   */\n      dup3\n        /* \"#utility.yul\":1703:1706   */\n      dup2\n        /* \"#utility.yul\":1698:1701   */\n      dup4\n        /* \"#utility.yul\":1685:1715   */\n      calldatacopy\n        /* \"#utility.yul\":1749:1750   */\n      0x00\n        /* \"#utility.yul\":1740:1746   */\n      dup4\n        /* \"#utility.yul\":1735:1738   */\n      dup4\n        /* \"#utility.yul\":1731:1747   */\n      add\n        /* \"#utility.yul\":1724:1751   */\n      mstore\n        /* \"#utility.yul\":1610:1758   */\n      pop\n      pop\n      pop\n      jump\t// out\n        /* \"#utility.yul\":1764:2189   */\n    tag_411:\n        /* \"#utility.yul\":1842:1847   */\n      0x00\n        /* \"#utility.yul\":1867:1933   */\n      tag_516\n        /* \"#utility.yul\":1883:1932   */\n      tag_517\n        /* \"#utility.yul\":1925:1931   */\n      dup5\n        /* \"#utility.yul\":1883:1932   */\n      tag_409\n      jump\t// in\n    tag_517:\n        /* \"#utility.yul\":1867:1933   */\n      tag_408\n      jump\t// in\n    tag_516:\n        /* \"#utility.yul\":1858:1933   */\n      swap1\n      pop\n        /* \"#utility.yul\":1956:1962   */\n      dup3\n        /* \"#utility.yul\":1949:1954   */\n      dup2\n        /* \"#utility.yul\":1942:1963   */\n      mstore\n        /* \"#utility.yul\":1994:1998   */\n      0x20\n        /* \"#utility.yul\":1987:1992   */\n      dup2\n        /* \"#utility.yul\":1983:1999   */\n      add\n        /* \"#utility.yul\":2032:2035   */\n      dup5\n        /* \"#utility.yul\":2023:2029   */\n      dup5\n        /* \"#utility.yul\":2018:2021   */\n      dup5\n        /* \"#utility.yul\":2014:2030   */\n      add\n        /* \"#utility.yul\":2011:2036   */\n      gt\n        /* \"#utility.yul\":2008:2120   */\n      iszero\n      tag_518\n      jumpi\n        /* \"#utility.yul\":2039:2118   */\n      tag_519\n      tag_405\n      jump\t// in\n    tag_519:\n        /* \"#utility.yul\":2008:2120   */\n    tag_518:\n        /* \"#utility.yul\":2129:2183   */\n      tag_520\n        /* \"#utility.yul\":2176:2182   */\n      dup5\n        /* \"#utility.yul\":2171:2174   */\n      dup3\n        /* \"#utility.yul\":2166:2169   */\n      dup6\n        /* \"#utility.yul\":2129:2183   */\n      tag_410\n      jump\t// in\n    tag_520:\n        /* \"#utility.yul\":1848:2189   */\n      pop\n        /* \"#utility.yul\":1764:2189   */\n      swap4\n      swap3\n      pop\n      pop\n      pop\n      jump\t// out\n        /* \"#utility.yul\":2209:2549   */\n    tag_412:\n        /* \"#utility.yul\":2265:2270   */\n      0x00\n        /* \"#utility.yul\":2314:2317   */\n      dup3\n        /* \"#utility.yul\":2307:2311   */\n      0x1f\n        /* \"#utility.yul\":2299:2305   */\n      dup4\n        /* \"#utility.yul\":2295:2312   */\n      add\n        /* \"#utility.yul\":2291:2318   */\n      slt\n        /* \"#utility.yul\":2281:2403   */\n      tag_522\n      jumpi\n        /* \"#utility.yul\":2322:2401   */\n      tag_523\n      tag_404\n      jump\t// in\n    tag_523:\n        /* \"#utility.yul\":2281:2403   */\n    tag_522:\n        /* \"#utility.yul\":2439:2445   */\n      dup2\n        /* \"#utility.yul\":2426:2446   */\n      calldataload\n        /* \"#utility.yul\":2464:2543   */\n      tag_524\n        /* \"#utility.yul\":2539:2542   */\n      dup5\n        /* \"#utility.yul\":2531:2537   */\n      dup3\n        /* \"#utility.yul\":2524:2528   */\n      0x20\n        /* \"#utility.yul\":2516:2522   */\n      dup7\n        /* \"#utility.yul\":2512:2529   */\n      add\n        /* \"#utility.yul\":2464:2543   */\n      tag_411\n      jump\t// in\n    tag_524:\n        /* \"#utility.yul\":2455:2543   */\n      swap2\n      pop\n        /* \"#utility.yul\":2271:2549   */\n      pop\n        /* \"#utility.yul\":2209:2549   */\n      swap3\n      swap2\n      pop\n      pop\n      jump\t// out\n        /* \"#utility.yul\":2555:3389   */\n    tag_22:\n        /* \"#utility.yul\":2643:2649   */\n      0x00\n        /* \"#utility.yul\":2651:2657   */\n      dup1\n        /* \"#utility.yul\":2700:2702   */\n      0x40\n        /* \"#utility.yul\":2688:2697   */\n      dup4\n        /* \"#utility.yul\":2679:2686   */\n      dup6\n        /* \"#utility.yul\":2675:2698   */\n      sub\n        /* \"#utility.yul\":2671:2703   */\n      slt\n        /* \"#utility.yul\":2668:2787   */\n      iszero\n      tag_526\n      jumpi\n        /* \"#utility.yul\":2706:2785   */\n      tag_527\n      tag_402\n      jump\t// in\n    tag_527:\n        /* \"#utility.yul\":2668:2787   */\n    tag_526:\n        /* \"#utility.yul\":2854:2855   */\n      0x00\n        /* \"#utility.yul\":2843:2852   */\n      dup4\n        /* \"#utility.yul\":2839:2856   */\n      add\n        /* \"#utility.yul\":2826:2857   */\n      calldataload\n        /* \"#utility.yul\":2884:2902   */\n      0xffffffffffffffff\n        /* \"#utility.yul\":2876:2882   */\n      dup2\n        /* \"#utility.yul\":2873:2903   */\n      gt\n        /* \"#utility.yul\":2870:2987   */\n      iszero\n      tag_528\n      jumpi\n        /* \"#utility.yul\":2906:2985   */\n      tag_529\n      tag_403\n      jump\t// in\n    tag_529:\n        /* \"#utility.yul\":2870:2987   */\n    tag_528:\n        /* \"#utility.yul\":3011:3074   */\n      tag_530\n        /* \"#utility.yul\":3066:3073   */\n      dup6\n        /* \"#utility.yul\":3057:3063   */\n      dup3\n        /* \"#utility.yul\":3046:3055   */\n      dup7\n        /* \"#utility.yul\":3042:3064   */\n      add\n        /* \"#utility.yul\":3011:3074   */\n      tag_412\n      jump\t// in\n    tag_530:\n        /* \"#utility.yul\":3001:3074   */\n      swap3\n      pop\n        /* \"#utility.yul\":2797:3084   */\n      pop\n        /* \"#utility.yul\":3151:3153   */\n      0x20\n        /* \"#utility.yul\":3140:3149   */\n      dup4\n        /* \"#utility.yul\":3136:3154   */\n      add\n        /* \"#utility.yul\":3123:3155   */\n      calldataload\n        /* \"#utility.yul\":3182:3200   */\n      0xffffffffffffffff\n        /* \"#utility.yul\":3174:3180   */\n      dup2\n        /* \"#utility.yul\":3171:3201   */\n      gt\n        /* \"#utility.yul\":3168:3285   */\n      iszero\n      tag_531\n      jumpi\n        /* \"#utility.yul\":3204:3283   */\n      tag_532\n      tag_403\n      jump\t// in\n    tag_532:\n        /* \"#utility.yul\":3168:3285   */\n    tag_531:\n        /* \"#utility.yul\":3309:3372   */\n      tag_533\n        /* \"#utility.yul\":3364:3371   */\n      dup6\n        /* \"#utility.yul\":3355:3361   */\n      dup3\n        /* \"#utility.yul\":3344:3353   */\n      dup7\n        /* \"#utility.yul\":3340:3362   */\n      add\n        /* \"#utility.yul\":3309:3372   */\n      tag_412\n      jump\t// in\n    tag_533:\n        /* \"#utility.yul\":3299:3372   */\n      swap2\n      pop\n        /* \"#utility.yul\":3094:3382   */\n      pop\n        /* \"#utility.yul\":2555:3389   */\n      swap3\n      pop\n      swap3\n      swap1\n      pop\n      jump\t// out\n        /* \"#utility.yul\":3395:3521   */\n    tag_413:\n        /* \"#utility.yul\":3432:3439   */\n      0x00\n        /* \"#utility.yul\":3472:3514   */\n      0xffffffffffffffffffffffffffffffffffffffff\n        /* \"#utility.yul\":3465:3470   */\n      dup3\n        /* \"#utility.yul\":3461:3515   */\n      and\n        /* \"#utility.yul\":3450:3515   */\n      swap1\n      pop\n        /* \"#utility.yul\":3395:3521   */\n      swap2\n      swap1\n      pop\n      jump\t// out\n        /* \"#utility.yul\":3527:3623   */\n    tag_414:\n        /* \"#utility.yul\":3564:3571   */\n      0x00\n        /* \"#utility.yul\":3593:3617   */\n      tag_536\n        /* \"#utility.yul\":3611:3616   */\n      dup3\n        /* \"#utility.yul\":3593:3617   */\n      tag_413\n      jump\t// in\n    tag_536:\n        /* \"#utility.yul\":3582:3617   */\n      swap1\n      pop\n        /* \"#utility.yul\":3527:3623   */\n      swap2\n      swap1\n      pop\n      jump\t// out\n        /* \"#utility.yul\":3629:3751   */\n    tag_415:\n        /* \"#utility.yul\":3702:3726   */\n      tag_538\n        /* \"#utility.yul\":3720:3725   */\n      dup2\n        /* \"#utility.yul\":3702:3726   */\n      tag_414\n      jump\t// in\n    tag_538:\n        /* \"#utility.yul\":3695:3700   */\n      dup2\n        /* \"#utility.yul\":3692:3727   */\n      eq\n        /* \"#utility.yul\":3682:3745   */\n      tag_539\n      jumpi\n        /* \"#utility.yul\":3741:3742   */\n      0x00\n        /* \"#utility.yul\":3738:3739   */\n      dup1\n        /* \"#utility.yul\":3731:3743   */\n      revert\n        /* \"#utility.yul\":3682:3745   */\n    tag_539:\n        /* \"#utility.yul\":3629:3751   */\n      pop\n      jump\t// out\n        /* \"#utility.yul\":3757:3896   */\n    tag_416:\n        /* \"#utility.yul\":3803:3808   */\n      0x00\n        /* \"#utility.yul\":3841:3847   */\n      dup2\n        /* \"#utility.yul\":3828:3848   */\n      calldataload\n        /* \"#utility.yul\":3819:3848   */\n      swap1\n      pop\n        /* \"#utility.yul\":3857:3890   */\n      tag_541\n        /* \"#utility.yul\":3884:3889   */\n      dup2\n        /* \"#utility.yul\":3857:3890   */\n      tag_415\n      jump\t// in\n    tag_541:\n        /* \"#utility.yul\":3757:3896   */\n      swap3\n      swap2\n      pop\n      pop\n      jump\t// out\n        /* \"#utility.yul\":3902:3992   */\n    tag_417:\n        /* \"#utility.yul\":3936:3943   */\n      0x00\n        /* \"#utility.yul\":3979:3984   */\n      dup2\n        /* \"#utility.yul\":3972:3985   */\n      iszero\n        /* \"#utility.yul\":3965:3986   */\n      iszero\n        /* \"#utility.yul\":3954:3986   */\n      swap1\n      pop\n        /* \"#utility.yul\":3902:3992   */\n      swap2\n      swap1\n      pop\n      jump\t// out\n        /* \"#utility.yul\":3998:4114   */\n    tag_418:\n        /* \"#utility.yul\":4068:4089   */\n      tag_544\n        /* \"#utility.yul\":4083:4088   */\n      dup2\n        /* \"#utility.yul\":4068:4089   */\n      tag_417\n      jump\t// in\n    tag_544:\n        /* \"#utility.yul\":4061:4066   */\n      dup2\n        /* \"#utility.yul\":4058:4090   */\n      eq\n        /* \"#utility.yul\":4048:4108   */\n      tag_545\n      jumpi\n        /* \"#utility.yul\":4104:4105   */\n      0x00\n        /* \"#utility.yul\":4101:4102   */\n      dup1\n        /* \"#utility.yul\":4094:4106   */\n      revert\n        /* \"#utility.yul\":4048:4108   */\n    tag_545:\n        /* \"#utility.yul\":3998:4114   */\n      pop\n      jump\t// out\n        /* \"#utility.yul\":4120:4253   */\n    tag_419:\n        /* \"#utility.yul\":4163:4168   */\n      0x00\n        /* \"#utility.yul\":4201:4207   */\n      dup2\n        /* \"#utility.yul\":4188:4208   */\n      calldataload\n        /* \"#utility.yul\":4179:4208   */\n      swap1\n      pop\n        /* \"#utility.yul\":4217:4247   */\n      tag_547\n        /* \"#utility.yul\":4241:4246   */\n      dup2\n        /* \"#utility.yul\":4217:4247   */\n      tag_418\n      jump\t// in\n    tag_547:\n        /* \"#utility.yul\":4120:4253   */\n      swap3\n      swap2\n      pop\n      pop\n      jump\t// out\n        /* \"#utility.yul\":4259:4727   */\n    tag_26:\n        /* \"#utility.yul\":4324:4330   */\n      0x00\n        /* \"#utility.yul\":4332:4338   */\n      dup1\n        /* \"#utility.yul\":4381:4383   */\n      0x40\n        /* \"#utility.yul\":4369:4378   */\n      dup4\n        /* \"#utility.yul\":4360:4367   */\n      dup6\n        /* \"#utility.yul\":4356:4379   */\n      sub\n        /* \"#utility.yul\":4352:4384   */\n      slt\n        /* \"#utility.yul\":4349:4468   */\n      iszero\n      tag_549\n      jumpi\n        /* \"#utility.yul\":4387:4466   */\n      tag_550\n      tag_402\n      jump\t// in\n    tag_550:\n        /* \"#utility.yul\":4349:4468   */\n    tag_549:\n        /* \"#utility.yul\":4507:4508   */\n      0x00\n        /* \"#utility.yul\":4532:4585   */\n      tag_551\n        /* \"#utility.yul\":4577:4584   */\n      dup6\n        /* \"#utility.yul\":4568:4574   */\n      dup3\n        /* \"#utility.yul\":4557:4566   */\n      dup7\n        /* \"#utility.yul\":4553:4575   */\n      add\n        /* \"#utility.yul\":4532:4585   */\n      tag_416\n      jump\t// in\n    tag_551:\n        /* \"#utility.yul\":4522:4585   */\n      swap3\n      pop\n        /* \"#utility.yul\":4478:4595   */\n      pop\n        /* \"#utility.yul\":4634:4636   */\n      0x20\n        /* \"#utility.yul\":4660:4710   */\n      tag_552\n        /* \"#utility.yul\":4702:4709   */\n      dup6\n        /* \"#utility.yul\":4693:4699   */\n      dup3\n        /* \"#utility.yul\":4682:4691   */\n      dup7\n        /* \"#utility.yul\":4678:4700   */\n      add\n        /* \"#utility.yul\":4660:4710   */\n      tag_419\n      jump\t// in\n    tag_552:\n        /* \"#utility.yul\":4650:4710   */\n      swap2\n      pop\n        /* \"#utility.yul\":4605:4720   */\n      pop\n        /* \"#utility.yul\":4259:4727   */\n      swap3\n      pop\n      swap3\n      swap1\n      pop\n      jump\t// out\n        /* \"#utility.yul\":4733:4810   */\n    tag_420:\n        /* \"#utility.yul\":4770:4777   */\n      0x00\n        /* \"#utility.yul\":4799:4804   */\n      dup2\n        /* \"#utility.yul\":4788:4804   */\n      swap1\n      pop\n        /* \"#utility.yul\":4733:4810   */\n      swap2\n      swap1\n      pop\n      jump\t// out\n        /* \"#utility.yul\":4816:4938   */\n    tag_421:\n        /* \"#utility.yul\":4889:4913   */\n      tag_555\n        /* \"#utility.yul\":4907:4912   */\n      dup2\n        /* \"#utility.yul\":4889:4913   */\n      tag_420\n      jump\t// in\n    tag_555:\n        /* \"#utility.yul\":4882:4887   */\n      dup2\n        /* \"#utility.yul\":4879:4914   */\n      eq\n        /* \"#utility.yul\":4869:4932   */\n      tag_556\n      jumpi\n        /* \"#utility.yul\":4928:4929   */\n      0x00\n        /* \"#utility.yul\":4925:4926   */\n      dup1\n        /* \"#utility.yul\":4918:4930   */\n      revert\n        /* \"#utility.yul\":4869:4932   */\n    tag_556:\n        /* \"#utility.yul\":4816:4938   */\n      pop\n      jump\t// out\n        /* \"#utility.yul\":4944:5083   */\n    tag_422:\n        /* \"#utility.yul\":4990:4995   */\n      0x00\n        /* \"#utility.yul\":5028:5034   */\n      dup2\n        /* \"#utility.yul\":5015:5035   */\n      calldataload\n        /* \"#utility.yul\":5006:5035   */\n      swap1\n      pop\n        /* \"#utility.yul\":5044:5077   */\n      tag_558\n        /* \"#utility.yul\":5071:5076   */\n      dup2\n        /* \"#utility.yul\":5044:5077   */\n      tag_421\n      jump\t// in\n    tag_558:\n        /* \"#utility.yul\":4944:5083   */\n      swap3\n      swap2\n      pop\n      pop\n      jump\t// out\n        /* \"#utility.yul\":5089:5418   */\n    tag_30:\n        /* \"#utility.yul\":5148:5154   */\n      0x00\n        /* \"#utility.yul\":5197:5199   */\n      0x20\n        /* \"#utility.yul\":5185:5194   */\n      dup3\n        /* \"#utility.yul\":5176:5183   */\n      dup5\n        /* \"#utility.yul\":5172:5195   */\n      sub\n        /* \"#utility.yul\":5168:5200   */\n      slt\n        /* \"#utility.yul\":5165:5284   */\n      iszero\n      tag_560\n      jumpi\n        /* \"#utility.yul\":5203:5282   */\n      tag_561\n      tag_402\n      jump\t// in\n    tag_561:\n        /* \"#utility.yul\":5165:5284   */\n    tag_560:\n        /* \"#utility.yul\":5323:5324   */\n      0x00\n        /* \"#utility.yul\":5348:5401   */\n      tag_562\n        /* \"#utility.yul\":5393:5400   */\n      dup5\n        /* \"#utility.yul\":5384:5390   */\n      dup3\n        /* \"#utility.yul\":5373:5382   */\n      dup6\n        /* \"#utility.yul\":5369:5391   */\n      add\n        /* \"#utility.yul\":5348:5401   */\n      tag_422\n      jump\t// in\n    tag_562:\n        /* \"#utility.yul\":5338:5401   */\n      swap2\n      pop\n        /* \"#utility.yul\":5294:5411   */\n      pop\n        /* \"#utility.yul\":5089:5418   */\n      swap3\n      swap2\n      pop\n      pop\n      jump\t// out\n        /* \"#utility.yul\":5424:5532   */\n    tag_423:\n        /* \"#utility.yul\":5501:5525   */\n      tag_564\n        /* \"#utility.yul\":5519:5524   */\n      dup2\n        /* \"#utility.yul\":5501:5525   */\n      tag_414\n      jump\t// in\n    tag_564:\n        /* \"#utility.yul\":5496:5499   */\n      dup3\n        /* \"#utility.yul\":5489:5526   */\n      mstore\n        /* \"#utility.yul\":5424:5532   */\n      pop\n      pop\n      jump\t// out\n        /* \"#utility.yul\":5590:5922   */\n    tag_424:\n        /* \"#utility.yul\":5727:5731   */\n      0x20\n        /* \"#utility.yul\":5722:5725   */\n      dup3\n        /* \"#utility.yul\":5718:5732   */\n      add\n        /* \"#utility.yul\":5823:5827   */\n      0x00\n        /* \"#utility.yul\":5816:5821   */\n      dup3\n        /* \"#utility.yul\":5812:5828   */\n      add\n        /* \"#utility.yul\":5806:5829   */\n      mload\n        /* \"#utility.yul\":5842:5905   */\n      tag_566\n        /* \"#utility.yul\":5899:5903   */\n      0x00\n        /* \"#utility.yul\":5894:5897   */\n      dup6\n        /* \"#utility.yul\":5890:5904   */\n      add\n        /* \"#utility.yul\":5876:5888   */\n      dup3\n        /* \"#utility.yul\":5842:5905   */\n      tag_423\n      jump\t// in\n    tag_566:\n        /* \"#utility.yul\":5742:5915   */\n      pop\n        /* \"#utility.yul\":5696:5922   */\n      pop\n        /* \"#utility.yul\":5590:5922   */\n      pop\n      pop\n      jump\t// out\n        /* \"#utility.yul\":5928:6230   */\n    tag_35:\n        /* \"#utility.yul\":6061:6065   */\n      0x00\n        /* \"#utility.yul\":6099:6101   */\n      0x20\n        /* \"#utility.yul\":6088:6097   */\n      dup3\n        /* \"#utility.yul\":6084:6102   */\n      add\n        /* \"#utility.yul\":6076:6102   */\n      swap1\n      pop\n        /* \"#utility.yul\":6112:6223   */\n      tag_568\n        /* \"#utility.yul\":6220:6221   */\n      0x00\n        /* \"#utility.yul\":6209:6218   */\n      dup4\n        /* \"#utility.yul\":6205:6222   */\n      add\n        /* \"#utility.yul\":6196:6202   */\n      dup5\n        /* \"#utility.yul\":6112:6223   */\n      tag_424\n      jump\t// in\n    tag_568:\n        /* \"#utility.yul\":5928:6230   */\n      swap3\n      swap2\n      pop\n      pop\n      jump\t// out\n        /* \"#utility.yul\":6236:6370   */\n    tag_425:\n        /* \"#utility.yul\":6323:6329   */\n      0x00\n        /* \"#utility.yul\":6357:6362   */\n      dup2\n        /* \"#utility.yul\":6351:6363   */\n      mload\n        /* \"#utility.yul\":6341:6363   */\n      swap1\n      pop\n        /* \"#utility.yul\":6236:6370   */\n      swap2\n      swap1\n      pop\n      jump\t// out\n        /* \"#utility.yul\":6376:6580   */\n    tag_426:\n        /* \"#utility.yul\":6495:6506   */\n      0x00\n        /* \"#utility.yul\":6529:6535   */\n      dup3\n        /* \"#utility.yul\":6524:6527   */\n      dup3\n        /* \"#utility.yul\":6517:6536   */\n      mstore\n        /* \"#utility.yul\":6569:6573   */\n      0x20\n        /* \"#utility.yul\":6564:6567   */\n      dup3\n        /* \"#utility.yul\":6560:6574   */\n      add\n        /* \"#utility.yul\":6545:6574   */\n      swap1\n      pop\n        /* \"#utility.yul\":6376:6580   */\n      swap3\n      swap2\n      pop\n      pop\n      jump\t// out\n        /* \"#utility.yul\":6586:6738   */\n    tag_427:\n        /* \"#utility.yul\":6673:6677   */\n      0x00\n        /* \"#utility.yul\":6696:6699   */\n      dup2\n        /* \"#utility.yul\":6688:6699   */\n      swap1\n      pop\n        /* \"#utility.yul\":6726:6730   */\n      0x20\n        /* \"#utility.yul\":6721:6724   */\n      dup3\n        /* \"#utility.yul\":6717:6731   */\n      add\n        /* \"#utility.yul\":6709:6731   */\n      swap1\n      pop\n        /* \"#utility.yul\":6586:6738   */\n      swap2\n      swap1\n      pop\n      jump\t// out\n        /* \"#utility.yul\":6796:7118   */\n    tag_428:\n        /* \"#utility.yul\":6923:6927   */\n      0x20\n        /* \"#utility.yul\":6918:6921   */\n      dup3\n        /* \"#utility.yul\":6914:6928   */\n      add\n        /* \"#utility.yul\":7019:7023   */\n      0x00\n        /* \"#utility.yul\":7012:7017   */\n      dup3\n        /* \"#utility.yul\":7008:7024   */\n      add\n        /* \"#utility.yul\":7002:7025   */\n      mload\n        /* \"#utility.yul\":7038:7101   */\n      tag_573\n        /* \"#utility.yul\":7095:7099   */\n      0x00\n        /* \"#utility.yul\":7090:7093   */\n      dup6\n        /* \"#utility.yul\":7086:7100   */\n      add\n        /* \"#utility.yul\":7072:7084   */\n      dup3\n        /* \"#utility.yul\":7038:7101   */\n      tag_423\n      jump\t// in\n    tag_573:\n        /* \"#utility.yul\":6938:7111   */\n      pop\n        /* \"#utility.yul\":6892:7118   */\n      pop\n        /* \"#utility.yul\":6796:7118   */\n      pop\n      pop\n      jump\t// out\n        /* \"#utility.yul\":7124:7383   */\n    tag_429:\n        /* \"#utility.yul\":7233:7243   */\n      0x00\n        /* \"#utility.yul\":7254:7340   */\n      tag_575\n        /* \"#utility.yul\":7336:7339   */\n      dup4\n        /* \"#utility.yul\":7328:7334   */\n      dup4\n        /* \"#utility.yul\":7254:7340   */\n      tag_428\n      jump\t// in\n    tag_575:\n        /* \"#utility.yul\":7372:7376   */\n      0x20\n        /* \"#utility.yul\":7367:7370   */\n      dup4\n        /* \"#utility.yul\":7363:7377   */\n      add\n        /* \"#utility.yul\":7349:7377   */\n      swap1\n      pop\n        /* \"#utility.yul\":7124:7383   */\n      swap3\n      swap2\n      pop\n      pop\n      jump\t// out\n        /* \"#utility.yul\":7389:7522   */\n    tag_430:\n        /* \"#utility.yul\":7479:7483   */\n      0x00\n        /* \"#utility.yul\":7511:7515   */\n      0x20\n        /* \"#utility.yul\":7506:7509   */\n      dup3\n        /* \"#utility.yul\":7502:7516   */\n      add\n        /* \"#utility.yul\":7494:7516   */\n      swap1\n      pop\n        /* \"#utility.yul\":7389:7522   */\n      swap2\n      swap1\n      pop\n      jump\t// out\n        /* \"#utility.yul\":7584:8476   */\n    tag_431:\n        /* \"#utility.yul\":7743:7746   */\n      0x00\n        /* \"#utility.yul\":7772:7846   */\n      tag_578\n        /* \"#utility.yul\":7840:7845   */\n      dup3\n        /* \"#utility.yul\":7772:7846   */\n      tag_425\n      jump\t// in\n    tag_578:\n        /* \"#utility.yul\":7862:7968   */\n      tag_579\n        /* \"#utility.yul\":7961:7967   */\n      dup2\n        /* \"#utility.yul\":7956:7959   */\n      dup6\n        /* \"#utility.yul\":7862:7968   */\n      tag_426\n      jump\t// in\n    tag_579:\n        /* \"#utility.yul\":7855:7968   */\n      swap4\n      pop\n        /* \"#utility.yul\":7992:8068   */\n      tag_580\n        /* \"#utility.yul\":8062:8067   */\n      dup4\n        /* \"#utility.yul\":7992:8068   */\n      tag_427\n      jump\t// in\n    tag_580:\n        /* \"#utility.yul\":8091:8098   */\n      dup1\n        /* \"#utility.yul\":8122:8123   */\n      0x00\n        /* \"#utility.yul\":8107:8451   */\n    tag_581:\n        /* \"#utility.yul\":8132:8138   */\n      dup4\n        /* \"#utility.yul\":8129:8130   */\n      dup2\n        /* \"#utility.yul\":8126:8139   */\n      lt\n        /* \"#utility.yul\":8107:8451   */\n      iszero\n      tag_583\n      jumpi\n        /* \"#utility.yul\":8208:8214   */\n      dup2\n        /* \"#utility.yul\":8202:8215   */\n      mload\n        /* \"#utility.yul\":8235:8338   */\n      tag_584\n        /* \"#utility.yul\":8334:8337   */\n      dup9\n        /* \"#utility.yul\":8319:8332   */\n      dup3\n        /* \"#utility.yul\":8235:8338   */\n      tag_429\n      jump\t// in\n    tag_584:\n        /* \"#utility.yul\":8228:8338   */\n      swap8\n      pop\n        /* \"#utility.yul\":8361:8441   */\n      tag_585\n        /* \"#utility.yul\":8434:8440   */\n      dup4\n        /* \"#utility.yul\":8361:8441   */\n      tag_430\n      jump\t// in\n    tag_585:\n        /* \"#utility.yul\":8351:8441   */\n      swap3\n      pop\n        /* \"#utility.yul\":8167:8451   */\n      pop\n        /* \"#utility.yul\":8154:8155   */\n      0x01\n        /* \"#utility.yul\":8151:8152   */\n      dup2\n        /* \"#utility.yul\":8147:8156   */\n      add\n        /* \"#utility.yul\":8142:8156   */\n      swap1\n      pop\n        /* \"#utility.yul\":8107:8451   */\n      jump(tag_581)\n    tag_583:\n        /* \"#utility.yul\":8111:8125   */\n      pop\n        /* \"#utility.yul\":8467:8470   */\n      dup6\n        /* \"#utility.yul\":8460:8470   */\n      swap4\n      pop\n        /* \"#utility.yul\":7748:8476   */\n      pop\n      pop\n      pop\n        /* \"#utility.yul\":7584:8476   */\n      swap3\n      swap2\n      pop\n      pop\n      jump\t// out\n        /* \"#utility.yul\":8482:8935   */\n    tag_39:\n        /* \"#utility.yul\":8665:8669   */\n      0x00\n        /* \"#utility.yul\":8703:8705   */\n      0x20\n        /* \"#utility.yul\":8692:8701   */\n      dup3\n        /* \"#utility.yul\":8688:8706   */\n      add\n        /* \"#utility.yul\":8680:8706   */\n      swap1\n      pop\n        /* \"#utility.yul\":8752:8761   */\n      dup2\n        /* \"#utility.yul\":8746:8750   */\n      dup2\n        /* \"#utility.yul\":8742:8762   */\n      sub\n        /* \"#utility.yul\":8738:8739   */\n      0x00\n        /* \"#utility.yul\":8727:8736   */\n      dup4\n        /* \"#utility.yul\":8723:8740   */\n      add\n        /* \"#utility.yul\":8716:8763   */\n      mstore\n        /* \"#utility.yul\":8780:8928   */\n      tag_587\n        /* \"#utility.yul\":8923:8927   */\n      dup2\n        /* \"#utility.yul\":8914:8920   */\n      dup5\n        /* \"#utility.yul\":8780:8928   */\n      tag_431\n      jump\t// in\n    tag_587:\n        /* \"#utility.yul\":8772:8928   */\n      swap1\n      pop\n        /* \"#utility.yul\":8482:8935   */\n      swap3\n      swap2\n      pop\n      pop\n      jump\t// out\n        /* \"#utility.yul\":8941:9914   */\n    tag_42:\n        /* \"#utility.yul\":9035:9041   */\n      0x00\n        /* \"#utility.yul\":9043:9049   */\n      dup1\n        /* \"#utility.yul\":9051:9057   */\n      0x00\n        /* \"#utility.yul\":9100:9102   */\n      0x60\n        /* \"#utility.yul\":9088:9097   */\n      dup5\n        /* \"#utility.yul\":9079:9086   */\n      dup7\n        /* \"#utility.yul\":9075:9098   */\n      sub\n        /* \"#utility.yul\":9071:9103   */\n      slt\n        /* \"#utility.yul\":9068:9187   */\n      iszero\n      tag_589\n      jumpi\n        /* \"#utility.yul\":9106:9185   */\n      tag_590\n      tag_402\n      jump\t// in\n    tag_590:\n        /* \"#utility.yul\":9068:9187   */\n    tag_589:\n        /* \"#utility.yul\":9226:9227   */\n      0x00\n        /* \"#utility.yul\":9251:9301   */\n      tag_591\n        /* \"#utility.yul\":9293:9300   */\n      dup7\n        /* \"#utility.yul\":9284:9290   */\n      dup3\n        /* \"#utility.yul\":9273:9282   */\n      dup8\n        /* \"#utility.yul\":9269:9291   */\n      add\n        /* \"#utility.yul\":9251:9301   */\n      tag_419\n      jump\t// in\n    tag_591:\n        /* \"#utility.yul\":9241:9301   */\n      swap4\n      pop\n        /* \"#utility.yul\":9197:9311   */\n      pop\n        /* \"#utility.yul\":9378:9380   */\n      0x20\n        /* \"#utility.yul\":9367:9376   */\n      dup5\n        /* \"#utility.yul\":9363:9381   */\n      add\n        /* \"#utility.yul\":9350:9382   */\n      calldataload\n        /* \"#utility.yul\":9409:9427   */\n      0xffffffffffffffff\n        /* \"#utility.yul\":9401:9407   */\n      dup2\n        /* \"#utility.yul\":9398:9428   */\n      gt\n        /* \"#utility.yul\":9395:9512   */\n      iszero\n      tag_592\n      jumpi\n        /* \"#utility.yul\":9431:9510   */\n      tag_593\n      tag_403\n      jump\t// in\n    tag_593:\n        /* \"#utility.yul\":9395:9512   */\n    tag_592:\n        /* \"#utility.yul\":9536:9599   */\n      tag_594\n        /* \"#utility.yul\":9591:9598   */\n      dup7\n        /* \"#utility.yul\":9582:9588   */\n      dup3\n        /* \"#utility.yul\":9571:9580   */\n      dup8\n        /* \"#utility.yul\":9567:9589   */\n      add\n        /* \"#utility.yul\":9536:9599   */\n      tag_412\n      jump\t// in\n    tag_594:\n        /* \"#utility.yul\":9526:9599   */\n      swap3\n      pop\n        /* \"#utility.yul\":9321:9609   */\n      pop\n        /* \"#utility.yul\":9676:9678   */\n      0x40\n        /* \"#utility.yul\":9665:9674   */\n      dup5\n        /* \"#utility.yul\":9661:9679   */\n      add\n        /* \"#utility.yul\":9648:9680   */\n      calldataload\n        /* \"#utility.yul\":9707:9725   */\n      0xffffffffffffffff\n        /* \"#utility.yul\":9699:9705   */\n      dup2\n        /* \"#utility.yul\":9696:9726   */\n      gt\n        /* \"#utility.yul\":9693:9810   */\n      iszero\n      tag_595\n      jumpi\n        /* \"#utility.yul\":9729:9808   */\n      tag_596\n      tag_403\n      jump\t// in\n    tag_596:\n        /* \"#utility.yul\":9693:9810   */\n    tag_595:\n        /* \"#utility.yul\":9834:9897   */\n      tag_597\n        /* \"#utility.yul\":9889:9896   */\n      dup7\n        /* \"#utility.yul\":9880:9886   */\n      dup3\n        /* \"#utility.yul\":9869:9878   */\n      dup8\n        /* \"#utility.yul\":9865:9887   */\n      add\n        /* \"#utility.yul\":9834:9897   */\n      tag_412\n      jump\t// in\n    tag_597:\n        /* \"#utility.yul\":9824:9897   */\n      swap2\n      pop\n        /* \"#utility.yul\":9619:9907   */\n      pop\n        /* \"#utility.yul\":8941:9914   */\n      swap3\n      pop\n      swap3\n      pop\n      swap3\n      jump\t// out\n        /* \"#utility.yul\":9920:10058   */\n    tag_432:\n        /* \"#utility.yul\":10011:10017   */\n      0x00\n        /* \"#utility.yul\":10045:10050   */\n      dup2\n        /* \"#utility.yul\":10039:10051   */\n      mload\n        /* \"#utility.yul\":10029:10051   */\n      swap1\n      pop\n        /* \"#utility.yul\":9920:10058   */\n      swap2\n      swap1\n      pop\n      jump\t// out\n        /* \"#utility.yul\":10064:10272   */\n    tag_433:\n        /* \"#utility.yul\":10187:10198   */\n      0x00\n        /* \"#utility.yul\":10221:10227   */\n      dup3\n        /* \"#utility.yul\":10216:10219   */\n      dup3\n        /* \"#utility.yul\":10209:10228   */\n      mstore\n        /* \"#utility.yul\":10261:10265   */\n      0x20\n        /* \"#utility.yul\":10256:10259   */\n      dup3\n        /* \"#utility.yul\":10252:10266   */\n      add\n        /* \"#utility.yul\":10237:10266   */\n      swap1\n      pop\n        /* \"#utility.yul\":10064:10272   */\n      swap3\n      swap2\n      pop\n      pop\n      jump\t// out\n        /* \"#utility.yul\":10278:10434   */\n    tag_434:\n        /* \"#utility.yul\":10369:10373   */\n      0x00\n        /* \"#utility.yul\":10392:10395   */\n      dup2\n        /* \"#utility.yul\":10384:10395   */\n      swap1\n      pop\n        /* \"#utility.yul\":10422:10426   */\n      0x20\n        /* \"#utility.yul\":10417:10420   */\n      dup3\n        /* \"#utility.yul\":10413:10427   */\n      add\n        /* \"#utility.yul\":10405:10427   */\n      swap1\n      pop\n        /* \"#utility.yul\":10278:10434   */\n      swap2\n      swap1\n      pop\n      jump\t// out\n        /* \"#utility.yul\":10440:10539   */\n    tag_435:\n        /* \"#utility.yul\":10492:10498   */\n      0x00\n        /* \"#utility.yul\":10526:10531   */\n      dup2\n        /* \"#utility.yul\":10520:10532   */\n      mload\n        /* \"#utility.yul\":10510:10532   */\n      swap1\n      pop\n        /* \"#utility.yul\":10440:10539   */\n      swap2\n      swap1\n      pop\n      jump\t// out\n        /* \"#utility.yul\":10545:10704   */\n    tag_436:\n        /* \"#utility.yul\":10619:10630   */\n      0x00\n        /* \"#utility.yul\":10653:10659   */\n      dup3\n        /* \"#utility.yul\":10648:10651   */\n      dup3\n        /* \"#utility.yul\":10641:10660   */\n      mstore\n        /* \"#utility.yul\":10693:10697   */\n      0x20\n        /* \"#utility.yul\":10688:10691   */\n      dup3\n        /* \"#utility.yul\":10684:10698   */\n      add\n        /* \"#utility.yul\":10669:10698   */\n      swap1\n      pop\n        /* \"#utility.yul\":10545:10704   */\n      swap3\n      swap2\n      pop\n      pop\n      jump\t// out\n        /* \"#utility.yul\":10710:10849   */\n    tag_437:\n        /* \"#utility.yul\":10799:10805   */\n      dup3\n        /* \"#utility.yul\":10794:10797   */\n      dup2\n        /* \"#utility.yul\":10789:10792   */\n      dup4\n        /* \"#utility.yul\":10783:10806   */\n      mcopy\n        /* \"#utility.yul\":10840:10841   */\n      0x00\n        /* \"#utility.yul\":10831:10837   */\n      dup4\n        /* \"#utility.yul\":10826:10829   */\n      dup4\n        /* \"#utility.yul\":10822:10838   */\n      add\n        /* \"#utility.yul\":10815:10842   */\n      mstore\n        /* \"#utility.yul\":10710:10849   */\n      pop\n      pop\n      pop\n      jump\t// out\n        /* \"#utility.yul\":10855:11212   */\n    tag_438:\n        /* \"#utility.yul\":10933:10936   */\n      0x00\n        /* \"#utility.yul\":10961:11000   */\n      tag_605\n        /* \"#utility.yul\":10994:10999   */\n      dup3\n        /* \"#utility.yul\":10961:11000   */\n      tag_435\n      jump\t// in\n    tag_605:\n        /* \"#utility.yul\":11016:11077   */\n      tag_606\n        /* \"#utility.yul\":11070:11076   */\n      dup2\n        /* \"#utility.yul\":11065:11068   */\n      dup6\n        /* \"#utility.yul\":11016:11077   */\n      tag_436\n      jump\t// in\n    tag_606:\n        /* \"#utility.yul\":11009:11077   */\n      swap4\n      pop\n        /* \"#utility.yul\":11086:11151   */\n      tag_607\n        /* \"#utility.yul\":11144:11150   */\n      dup2\n        /* \"#utility.yul\":11139:11142   */\n      dup6\n        /* \"#utility.yul\":11132:11136   */\n      0x20\n        /* \"#utility.yul\":11125:11130   */\n      dup7\n        /* \"#utility.yul\":11121:11137   */\n      add\n        /* \"#utility.yul\":11086:11151   */\n      tag_437\n      jump\t// in\n    tag_607:\n        /* \"#utility.yul\":11176:11205   */\n      tag_608\n        /* \"#utility.yul\":11198:11204   */\n      dup2\n        /* \"#utility.yul\":11176:11205   */\n      tag_406\n      jump\t// in\n    tag_608:\n        /* \"#utility.yul\":11171:11174   */\n      dup5\n        /* \"#utility.yul\":11167:11206   */\n      add\n        /* \"#utility.yul\":11160:11206   */\n      swap2\n      pop\n        /* \"#utility.yul\":10937:11212   */\n      pop\n        /* \"#utility.yul\":10855:11212   */\n      swap3\n      swap2\n      pop\n      pop\n      jump\t// out\n        /* \"#utility.yul\":11218:11398   */\n    tag_79:\n        /* \"#utility.yul\":11266:11343   */\n      0x4e487b7100000000000000000000000000000000000000000000000000000000\n        /* \"#utility.yul\":11263:11264   */\n      0x00\n        /* \"#utility.yul\":11256:11344   */\n      mstore\n        /* \"#utility.yul\":11363:11367   */\n      0x21\n        /* \"#utility.yul\":11360:11361   */\n      0x04\n        /* \"#utility.yul\":11353:11368   */\n      mstore\n        /* \"#utility.yul\":11387:11391   */\n      0x24\n        /* \"#utility.yul\":11384:11385   */\n      0x00\n        /* \"#utility.yul\":11377:11392   */\n      revert\n        /* \"#utility.yul\":11404:11525   */\n    tag_439:\n        /* \"#utility.yul\":11493:11494   */\n      0x04\n        /* \"#utility.yul\":11486:11491   */\n      dup2\n        /* \"#utility.yul\":11483:11495   */\n      lt\n        /* \"#utility.yul\":11473:11519   */\n      tag_611\n      jumpi\n        /* \"#utility.yul\":11499:11517   */\n      tag_612\n      tag_79\n      jump\t// in\n    tag_612:\n        /* \"#utility.yul\":11473:11519   */\n    tag_611:\n        /* \"#utility.yul\":11404:11525   */\n      pop\n      jump\t// out\n        /* \"#utility.yul\":11531:11674   */\n    tag_440:\n        /* \"#utility.yul\":11584:11591   */\n      0x00\n        /* \"#utility.yul\":11613:11618   */\n      dup2\n        /* \"#utility.yul\":11602:11618   */\n      swap1\n      pop\n        /* \"#utility.yul\":11619:11668   */\n      tag_614\n        /* \"#utility.yul\":11662:11667   */\n      dup3\n        /* \"#utility.yul\":11619:11668   */\n      tag_439\n      jump\t// in\n    tag_614:\n        /* \"#utility.yul\":11531:11674   */\n      swap2\n      swap1\n      pop\n      jump\t// out\n        /* \"#utility.yul\":11680:11823   */\n    tag_441:\n        /* \"#utility.yul\":11744:11753   */\n      0x00\n        /* \"#utility.yul\":11777:11817   */\n      tag_616\n        /* \"#utility.yul\":11811:11816   */\n      dup3\n        /* \"#utility.yul\":11777:11817   */\n      tag_440\n      jump\t// in\n    tag_616:\n        /* \"#utility.yul\":11764:11817   */\n      swap1\n      pop\n        /* \"#utility.yul\":11680:11823   */\n      swap2\n      swap1\n      pop\n      jump\t// out\n        /* \"#utility.yul\":11829:11978   */\n    tag_442:\n        /* \"#utility.yul\":11920:11971   */\n      tag_618\n        /* \"#utility.yul\":11965:11970   */\n      dup2\n        /* \"#utility.yul\":11920:11971   */\n      tag_441\n      jump\t// in\n    tag_618:\n        /* \"#utility.yul\":11915:11918   */\n      dup3\n        /* \"#utility.yul\":11908:11972   */\n      mstore\n        /* \"#utility.yul\":11829:11978   */\n      pop\n      pop\n      jump\t// out\n        /* \"#utility.yul\":11984:12092   */\n    tag_443:\n        /* \"#utility.yul\":12061:12085   */\n      tag_620\n        /* \"#utility.yul\":12079:12084   */\n      dup2\n        /* \"#utility.yul\":12061:12085   */\n      tag_420\n      jump\t// in\n    tag_620:\n        /* \"#utility.yul\":12056:12059   */\n      dup3\n        /* \"#utility.yul\":12049:12086   */\n      mstore\n        /* \"#utility.yul\":11984:12092   */\n      pop\n      pop\n      jump\t// out\n        /* \"#utility.yul\":12158:13623   */\n    tag_444:\n        /* \"#utility.yul\":12265:12268   */\n      0x00\n        /* \"#utility.yul\":12301:12305   */\n      0xc0\n        /* \"#utility.yul\":12296:12299   */\n      dup4\n        /* \"#utility.yul\":12292:12306   */\n      add\n        /* \"#utility.yul\":12388:12392   */\n      0x00\n        /* \"#utility.yul\":12381:12386   */\n      dup4\n        /* \"#utility.yul\":12377:12393   */\n      add\n        /* \"#utility.yul\":12371:12394   */\n      mload\n        /* \"#utility.yul\":12441:12444   */\n      dup5\n        /* \"#utility.yul\":12435:12439   */\n      dup3\n        /* \"#utility.yul\":12431:12445   */\n      sub\n        /* \"#utility.yul\":12424:12428   */\n      0x00\n        /* \"#utility.yul\":12419:12422   */\n      dup7\n        /* \"#utility.yul\":12415:12429   */\n      add\n        /* \"#utility.yul\":12408:12446   */\n      mstore\n        /* \"#utility.yul\":12467:12540   */\n      tag_622\n        /* \"#utility.yul\":12535:12539   */\n      dup3\n        /* \"#utility.yul\":12521:12533   */\n      dup3\n        /* \"#utility.yul\":12467:12540   */\n      tag_438\n      jump\t// in\n    tag_622:\n        /* \"#utility.yul\":12459:12540   */\n      swap2\n      pop\n        /* \"#utility.yul\":12316:12551   */\n      pop\n        /* \"#utility.yul\":12637:12641   */\n      0x20\n        /* \"#utility.yul\":12630:12635   */\n      dup4\n        /* \"#utility.yul\":12626:12642   */\n      add\n        /* \"#utility.yul\":12620:12643   */\n      mload\n        /* \"#utility.yul\":12690:12693   */\n      dup5\n        /* \"#utility.yul\":12684:12688   */\n      dup3\n        /* \"#utility.yul\":12680:12694   */\n      sub\n        /* \"#utility.yul\":12673:12677   */\n      0x20\n        /* \"#utility.yul\":12668:12671   */\n      dup7\n        /* \"#utility.yul\":12664:12678   */\n      add\n        /* \"#utility.yul\":12657:12695   */\n      mstore\n        /* \"#utility.yul\":12716:12789   */\n      tag_623\n        /* \"#utility.yul\":12784:12788   */\n      dup3\n        /* \"#utility.yul\":12770:12782   */\n      dup3\n        /* \"#utility.yul\":12716:12789   */\n      tag_438\n      jump\t// in\n    tag_623:\n        /* \"#utility.yul\":12708:12789   */\n      swap2\n      pop\n        /* \"#utility.yul\":12561:12800   */\n      pop\n        /* \"#utility.yul\":12884:12888   */\n      0x40\n        /* \"#utility.yul\":12877:12882   */\n      dup4\n        /* \"#utility.yul\":12873:12889   */\n      add\n        /* \"#utility.yul\":12867:12890   */\n      mload\n        /* \"#utility.yul\":12903:12980   */\n      tag_624\n        /* \"#utility.yul\":12974:12978   */\n      0x40\n        /* \"#utility.yul\":12969:12972   */\n      dup7\n        /* \"#utility.yul\":12965:12979   */\n      add\n        /* \"#utility.yul\":12951:12963   */\n      dup3\n        /* \"#utility.yul\":12903:12980   */\n      tag_442\n      jump\t// in\n    tag_624:\n        /* \"#utility.yul\":12810:12990   */\n      pop\n        /* \"#utility.yul\":13078:13082   */\n      0x60\n        /* \"#utility.yul\":13071:13076   */\n      dup4\n        /* \"#utility.yul\":13067:13083   */\n      add\n        /* \"#utility.yul\":13061:13084   */\n      mload\n        /* \"#utility.yul\":13097:13160   */\n      tag_625\n        /* \"#utility.yul\":13154:13158   */\n      0x60\n        /* \"#utility.yul\":13149:13152   */\n      dup7\n        /* \"#utility.yul\":13145:13159   */\n      add\n        /* \"#utility.yul\":13131:13143   */\n      dup3\n        /* \"#utility.yul\":13097:13160   */\n      tag_423\n      jump\t// in\n    tag_625:\n        /* \"#utility.yul\":13000:13170   */\n      pop\n        /* \"#utility.yul\":13254:13258   */\n      0x80\n        /* \"#utility.yul\":13247:13252   */\n      dup4\n        /* \"#utility.yul\":13243:13259   */\n      add\n        /* \"#utility.yul\":13237:13260   */\n      mload\n        /* \"#utility.yul\":13307:13310   */\n      dup5\n        /* \"#utility.yul\":13301:13305   */\n      dup3\n        /* \"#utility.yul\":13297:13311   */\n      sub\n        /* \"#utility.yul\":13290:13294   */\n      0x80\n        /* \"#utility.yul\":13285:13288   */\n      dup7\n        /* \"#utility.yul\":13281:13295   */\n      add\n        /* \"#utility.yul\":13274:13312   */\n      mstore\n        /* \"#utility.yul\":13333:13406   */\n      tag_626\n        /* \"#utility.yul\":13401:13405   */\n      dup3\n        /* \"#utility.yul\":13387:13399   */\n      dup3\n        /* \"#utility.yul\":13333:13406   */\n      tag_438\n      jump\t// in\n    tag_626:\n        /* \"#utility.yul\":13325:13406   */\n      swap2\n      pop\n        /* \"#utility.yul\":13180:13417   */\n      pop\n        /* \"#utility.yul\":13504:13508   */\n      0xa0\n        /* \"#utility.yul\":13497:13502   */\n      dup4\n        /* \"#utility.yul\":13493:13509   */\n      add\n        /* \"#utility.yul\":13487:13510   */\n      mload\n        /* \"#utility.yul\":13523:13586   */\n      tag_627\n        /* \"#utility.yul\":13580:13584   */\n      0xa0\n        /* \"#utility.yul\":13575:13578   */\n      dup7\n        /* \"#utility.yul\":13571:13585   */\n      add\n        /* \"#utility.yul\":13557:13569   */\n      dup3\n        /* \"#utility.yul\":13523:13586   */\n      tag_443\n      jump\t// in\n    tag_627:\n        /* \"#utility.yul\":13427:13596   */\n      pop\n        /* \"#utility.yul\":13613:13617   */\n      dup1\n        /* \"#utility.yul\":13606:13617   */\n      swap2\n      pop\n        /* \"#utility.yul\":12270:13623   */\n      pop\n        /* \"#utility.yul\":12158:13623   */\n      swap3\n      swap2\n      pop\n      pop\n      jump\t// out\n        /* \"#utility.yul\":13629:13881   */\n    tag_445:\n        /* \"#utility.yul\":13746:13756   */\n      0x00\n        /* \"#utility.yul\":13781:13875   */\n      tag_629\n        /* \"#utility.yul\":13871:13874   */\n      dup4\n        /* \"#utility.yul\":13863:13869   */\n      dup4\n        /* \"#utility.yul\":13781:13875   */\n      tag_444\n      jump\t// in\n    tag_629:\n        /* \"#utility.yul\":13767:13875   */\n      swap1\n      pop\n        /* \"#utility.yul\":13629:13881   */\n      swap3\n      swap2\n      pop\n      pop\n      jump\t// out\n        /* \"#utility.yul\":13887:14024   */\n    tag_446:\n        /* \"#utility.yul\":13981:13985   */\n      0x00\n        /* \"#utility.yul\":14013:14017   */\n      0x20\n        /* \"#utility.yul\":14008:14011   */\n      dup3\n        /* \"#utility.yul\":14004:14018   */\n      add\n        /* \"#utility.yul\":13996:14018   */\n      swap1\n      pop\n        /* \"#utility.yul\":13887:14024   */\n      swap2\n      swap1\n      pop\n      jump\t// out\n        /* \"#utility.yul\":14094:15197   */\n    tag_447:\n        /* \"#utility.yul\":14261:14264   */\n      0x00\n        /* \"#utility.yul\":14290:14368   */\n      tag_632\n        /* \"#utility.yul\":14362:14367   */\n      dup3\n        /* \"#utility.yul\":14290:14368   */\n      tag_432\n      jump\t// in\n    tag_632:\n        /* \"#utility.yul\":14384:14494   */\n      tag_633\n        /* \"#utility.yul\":14487:14493   */\n      dup2\n        /* \"#utility.yul\":14482:14485   */\n      dup6\n        /* \"#utility.yul\":14384:14494   */\n      tag_433\n      jump\t// in\n    tag_633:\n        /* \"#utility.yul\":14377:14494   */\n      swap4\n      pop\n        /* \"#utility.yul\":14520:14523   */\n      dup4\n        /* \"#utility.yul\":14565:14569   */\n      0x20\n        /* \"#utility.yul\":14557:14563   */\n      dup3\n        /* \"#utility.yul\":14553:14570   */\n      mul\n        /* \"#utility.yul\":14548:14551   */\n      dup6\n        /* \"#utility.yul\":14544:14571   */\n      add\n        /* \"#utility.yul\":14595:14675   */\n      tag_634\n        /* \"#utility.yul\":14669:14674   */\n      dup6\n        /* \"#utility.yul\":14595:14675   */\n      tag_434\n      jump\t// in\n    tag_634:\n        /* \"#utility.yul\":14698:14705   */\n      dup1\n        /* \"#utility.yul\":14729:14730   */\n      0x00\n        /* \"#utility.yul\":14714:15152   */\n    tag_635:\n        /* \"#utility.yul\":14739:14745   */\n      dup6\n        /* \"#utility.yul\":14736:14737   */\n      dup2\n        /* \"#utility.yul\":14733:14746   */\n      lt\n        /* \"#utility.yul\":14714:15152   */\n      iszero\n      tag_637\n      jumpi\n        /* \"#utility.yul\":14810:14819   */\n      dup5\n        /* \"#utility.yul\":14804:14808   */\n      dup5\n        /* \"#utility.yul\":14800:14820   */\n      sub\n        /* \"#utility.yul\":14795:14798   */\n      dup10\n        /* \"#utility.yul\":14788:14821   */\n      mstore\n        /* \"#utility.yul\":14861:14867   */\n      dup2\n        /* \"#utility.yul\":14855:14868   */\n      mload\n        /* \"#utility.yul\":14889:15001   */\n      tag_638\n        /* \"#utility.yul\":14996:15000   */\n      dup6\n        /* \"#utility.yul\":14981:14994   */\n      dup3\n        /* \"#utility.yul\":14889:15001   */\n      tag_445\n      jump\t// in\n    tag_638:\n        /* \"#utility.yul\":14881:15001   */\n      swap5\n      pop\n        /* \"#utility.yul\":15024:15108   */\n      tag_639\n        /* \"#utility.yul\":15101:15107   */\n      dup4\n        /* \"#utility.yul\":15024:15108   */\n      tag_446\n      jump\t// in\n    tag_639:\n        /* \"#utility.yul\":15014:15108   */\n      swap3\n      pop\n        /* \"#utility.yul\":15137:15141   */\n      0x20\n        /* \"#utility.yul\":15132:15135   */\n      dup11\n        /* \"#utility.yul\":15128:15142   */\n      add\n        /* \"#utility.yul\":15121:15142   */\n      swap10\n      pop\n        /* \"#utility.yul\":14774:15152   */\n      pop\n        /* \"#utility.yul\":14761:14762   */\n      0x01\n        /* \"#utility.yul\":14758:14759   */\n      dup2\n        /* \"#utility.yul\":14754:14763   */\n      add\n        /* \"#utility.yul\":14749:14763   */\n      swap1\n      pop\n        /* \"#utility.yul\":14714:15152   */\n      jump(tag_635)\n    tag_637:\n        /* \"#utility.yul\":14718:14732   */\n      pop\n        /* \"#utility.yul\":15168:15172   */\n      dup3\n        /* \"#utility.yul\":15161:15172   */\n      swap8\n      pop\n        /* \"#utility.yul\":15188:15191   */\n      dup8\n        /* \"#utility.yul\":15181:15191   */\n      swap6\n      pop\n        /* \"#utility.yul\":14266:15197   */\n      pop\n      pop\n      pop\n      pop\n      pop\n        /* \"#utility.yul\":14094:15197   */\n      swap3\n      swap2\n      pop\n      pop\n      jump\t// out\n        /* \"#utility.yul\":15203:15672   */\n    tag_50:\n        /* \"#utility.yul\":15394:15398   */\n      0x00\n        /* \"#utility.yul\":15432:15434   */\n      0x20\n        /* \"#utility.yul\":15421:15430   */\n      dup3\n        /* \"#utility.yul\":15417:15435   */\n      add\n        /* \"#utility.yul\":15409:15435   */\n      swap1\n      pop\n        /* \"#utility.yul\":15481:15490   */\n      dup2\n        /* \"#utility.yul\":15475:15479   */\n      dup2\n        /* \"#utility.yul\":15471:15491   */\n      sub\n        /* \"#utility.yul\":15467:15468   */\n      0x00\n        /* \"#utility.yul\":15456:15465   */\n      dup4\n        /* \"#utility.yul\":15452:15469   */\n      add\n        /* \"#utility.yul\":15445:15492   */\n      mstore\n        /* \"#utility.yul\":15509:15665   */\n      tag_641\n        /* \"#utility.yul\":15660:15664   */\n      dup2\n        /* \"#utility.yul\":15651:15657   */\n      dup5\n        /* \"#utility.yul\":15509:15665   */\n      tag_447\n      jump\t// in\n    tag_641:\n        /* \"#utility.yul\":15501:15665   */\n      swap1\n      pop\n        /* \"#utility.yul\":15203:15672   */\n      swap3\n      swap2\n      pop\n      pop\n      jump\t// out\n        /* \"#utility.yul\":15678:16007   */\n    tag_53:\n        /* \"#utility.yul\":15737:15743   */\n      0x00\n        /* \"#utility.yul\":15786:15788   */\n      0x20\n        /* \"#utility.yul\":15774:15783   */\n      dup3\n        /* \"#utility.yul\":15765:15772   */\n      dup5\n        /* \"#utility.yul\":15761:15784   */\n      sub\n        /* \"#utility.yul\":15757:15789   */\n      slt\n        /* \"#utility.yul\":15754:15873   */\n      iszero\n      tag_643\n      jumpi\n        /* \"#utility.yul\":15792:15871   */\n      tag_644\n      tag_402\n      jump\t// in\n    tag_644:\n        /* \"#utility.yul\":15754:15873   */\n    tag_643:\n        /* \"#utility.yul\":15912:15913   */\n      0x00\n        /* \"#utility.yul\":15937:15990   */\n      tag_645\n        /* \"#utility.yul\":15982:15989   */\n      dup5\n        /* \"#utility.yul\":15973:15979   */\n      dup3\n        /* \"#utility.yul\":15962:15971   */\n      dup6\n        /* \"#utility.yul\":15958:15980   */\n      add\n        /* \"#utility.yul\":15937:15990   */\n      tag_416\n      jump\t// in\n    tag_645:\n        /* \"#utility.yul\":15927:15990   */\n      swap2\n      pop\n        /* \"#utility.yul\":15883:16000   */\n      pop\n        /* \"#utility.yul\":15678:16007   */\n      swap3\n      swap2\n      pop\n      pop\n      jump\t// out\n        /* \"#utility.yul\":16013:16130   */\n    tag_448:\n        /* \"#utility.yul\":16098:16099   */\n      0x06\n        /* \"#utility.yul\":16091:16096   */\n      dup2\n        /* \"#utility.yul\":16088:16100   */\n      lt\n        /* \"#utility.yul\":16078:16124   */\n      tag_647\n      jumpi\n        /* \"#utility.yul\":16104:16122   */\n      tag_648\n      tag_79\n      jump\t// in\n    tag_648:\n        /* \"#utility.yul\":16078:16124   */\n    tag_647:\n        /* \"#utility.yul\":16013:16130   */\n      pop\n      jump\t// out\n        /* \"#utility.yul\":16136:16271   */\n    tag_449:\n        /* \"#utility.yul\":16185:16192   */\n      0x00\n        /* \"#utility.yul\":16214:16219   */\n      dup2\n        /* \"#utility.yul\":16203:16219   */\n      swap1\n      pop\n        /* \"#utility.yul\":16220:16265   */\n      tag_650\n        /* \"#utility.yul\":16259:16264   */\n      dup3\n        /* \"#utility.yul\":16220:16265   */\n      tag_448\n      jump\t// in\n    tag_650:\n        /* \"#utility.yul\":16136:16271   */\n      swap2\n      swap1\n      pop\n      jump\t// out\n        /* \"#utility.yul\":16277:16412   */\n    tag_450:\n        /* \"#utility.yul\":16337:16346   */\n      0x00\n        /* \"#utility.yul\":16370:16406   */\n      tag_652\n        /* \"#utility.yul\":16400:16405   */\n      dup3\n        /* \"#utility.yul\":16370:16406   */\n      tag_449\n      jump\t// in\n    tag_652:\n        /* \"#utility.yul\":16357:16406   */\n      swap1\n      pop\n        /* \"#utility.yul\":16277:16412   */\n      swap2\n      swap1\n      pop\n      jump\t// out\n        /* \"#utility.yul\":16418:16569   */\n    tag_451:\n        /* \"#utility.yul\":16515:16562   */\n      tag_654\n        /* \"#utility.yul\":16556:16561   */\n      dup2\n        /* \"#utility.yul\":16515:16562   */\n      tag_450\n      jump\t// in\n    tag_654:\n        /* \"#utility.yul\":16510:16513   */\n      dup3\n        /* \"#utility.yul\":16503:16563   */\n      mstore\n        /* \"#utility.yul\":16418:16569   */\n      pop\n      pop\n      jump\t// out\n        /* \"#utility.yul\":16575:16817   */\n    tag_56:\n        /* \"#utility.yul\":16678:16682   */\n      0x00\n        /* \"#utility.yul\":16716:16718   */\n      0x20\n        /* \"#utility.yul\":16705:16714   */\n      dup3\n        /* \"#utility.yul\":16701:16719   */\n      add\n        /* \"#utility.yul\":16693:16719   */\n      swap1\n      pop\n        /* \"#utility.yul\":16729:16810   */\n      tag_656\n        /* \"#utility.yul\":16807:16808   */\n      0x00\n        /* \"#utility.yul\":16796:16805   */\n      dup4\n        /* \"#utility.yul\":16792:16809   */\n      add\n        /* \"#utility.yul\":16783:16789   */\n      dup5\n        /* \"#utility.yul\":16729:16810   */\n      tag_451\n      jump\t// in\n    tag_656:\n        /* \"#utility.yul\":16575:16817   */\n      swap3\n      swap2\n      pop\n      pop\n      jump\t// out\n        /* \"#utility.yul\":16823:16937   */\n    tag_452:\n        /* \"#utility.yul\":16890:16896   */\n      0x00\n        /* \"#utility.yul\":16924:16929   */\n      dup2\n        /* \"#utility.yul\":16918:16930   */\n      mload\n        /* \"#utility.yul\":16908:16930   */\n      swap1\n      pop\n        /* \"#utility.yul\":16823:16937   */\n      swap2\n      swap1\n      pop\n      jump\t// out\n        /* \"#utility.yul\":16943:17127   */\n    tag_453:\n        /* \"#utility.yul\":17042:17053   */\n      0x00\n        /* \"#utility.yul\":17076:17082   */\n      dup3\n        /* \"#utility.yul\":17071:17074   */\n      dup3\n        /* \"#utility.yul\":17064:17083   */\n      mstore\n        /* \"#utility.yul\":17116:17120   */\n      0x20\n        /* \"#utility.yul\":17111:17114   */\n      dup3\n        /* \"#utility.yul\":17107:17121   */\n      add\n        /* \"#utility.yul\":17092:17121   */\n      swap1\n      pop\n        /* \"#utility.yul\":16943:17127   */\n      swap3\n      swap2\n      pop\n      pop\n      jump\t// out\n        /* \"#utility.yul\":17133:17265   */\n    tag_454:\n        /* \"#utility.yul\":17200:17204   */\n      0x00\n        /* \"#utility.yul\":17223:17226   */\n      dup2\n        /* \"#utility.yul\":17215:17226   */\n      swap1\n      pop\n        /* \"#utility.yul\":17253:17257   */\n      0x20\n        /* \"#utility.yul\":17248:17251   */\n      dup3\n        /* \"#utility.yul\":17244:17258   */\n      add\n        /* \"#utility.yul\":17236:17258   */\n      swap1\n      pop\n        /* \"#utility.yul\":17133:17265   */\n      swap2\n      swap1\n      pop\n      jump\t// out\n        /* \"#utility.yul\":17271:17450   */\n    tag_455:\n        /* \"#utility.yul\":17340:17350   */\n      0x00\n        /* \"#utility.yul\":17361:17407   */\n      tag_661\n        /* \"#utility.yul\":17403:17406   */\n      dup4\n        /* \"#utility.yul\":17395:17401   */\n      dup4\n        /* \"#utility.yul\":17361:17407   */\n      tag_423\n      jump\t// in\n    tag_661:\n        /* \"#utility.yul\":17439:17443   */\n      0x20\n        /* \"#utility.yul\":17434:17437   */\n      dup4\n        /* \"#utility.yul\":17430:17444   */\n      add\n        /* \"#utility.yul\":17416:17444   */\n      swap1\n      pop\n        /* \"#utility.yul\":17271:17450   */\n      swap3\n      swap2\n      pop\n      pop\n      jump\t// out\n        /* \"#utility.yul\":17456:17569   */\n    tag_456:\n        /* \"#utility.yul\":17526:17530   */\n      0x00\n        /* \"#utility.yul\":17558:17562   */\n      0x20\n        /* \"#utility.yul\":17553:17556   */\n      dup3\n        /* \"#utility.yul\":17549:17563   */\n      add\n        /* \"#utility.yul\":17541:17563   */\n      swap1\n      pop\n        /* \"#utility.yul\":17456:17569   */\n      swap2\n      swap1\n      pop\n      jump\t// out\n        /* \"#utility.yul\":17605:18337   */\n    tag_457:\n        /* \"#utility.yul\":17724:17727   */\n      0x00\n        /* \"#utility.yul\":17753:17807   */\n      tag_664\n        /* \"#utility.yul\":17801:17806   */\n      dup3\n        /* \"#utility.yul\":17753:17807   */\n      tag_452\n      jump\t// in\n    tag_664:\n        /* \"#utility.yul\":17823:17909   */\n      tag_665\n        /* \"#utility.yul\":17902:17908   */\n      dup2\n        /* \"#utility.yul\":17897:17900   */\n      dup6\n        /* \"#utility.yul\":17823:17909   */\n      tag_453\n      jump\t// in\n    tag_665:\n        /* \"#utility.yul\":17816:17909   */\n      swap4\n      pop\n        /* \"#utility.yul\":17933:17989   */\n      tag_666\n        /* \"#utility.yul\":17983:17988   */\n      dup4\n        /* \"#utility.yul\":17933:17989   */\n      tag_454\n      jump\t// in\n    tag_666:\n        /* \"#utility.yul\":18012:18019   */\n      dup1\n        /* \"#utility.yul\":18043:18044   */\n      0x00\n        /* \"#utility.yul\":18028:18312   */\n    tag_667:\n        /* \"#utility.yul\":18053:18059   */\n      dup4\n        /* \"#utility.yul\":18050:18051   */\n      dup2\n        /* \"#utility.yul\":18047:18060   */\n      lt\n        /* \"#utility.yul\":18028:18312   */\n      iszero\n      tag_669\n      jumpi\n        /* \"#utility.yul\":18129:18135   */\n      dup2\n        /* \"#utility.yul\":18123:18136   */\n      mload\n        /* \"#utility.yul\":18156:18219   */\n      tag_670\n        /* \"#utility.yul\":18215:18218   */\n      dup9\n        /* \"#utility.yul\":18200:18213   */\n      dup3\n        /* \"#utility.yul\":18156:18219   */\n      tag_455\n      jump\t// in\n    tag_670:\n        /* \"#utility.yul\":18149:18219   */\n      swap8\n      pop\n        /* \"#utility.yul\":18242:18302   */\n      tag_671\n        /* \"#utility.yul\":18295:18301   */\n      dup4\n        /* \"#utility.yul\":18242:18302   */\n      tag_456\n      jump\t// in\n    tag_671:\n        /* \"#utility.yul\":18232:18302   */\n      swap3\n      pop\n        /* \"#utility.yul\":18088:18312   */\n      pop\n        /* \"#utility.yul\":18075:18076   */\n      0x01\n        /* \"#utility.yul\":18072:18073   */\n      dup2\n        /* \"#utility.yul\":18068:18077   */\n      add\n        /* \"#utility.yul\":18063:18077   */\n      swap1\n      pop\n        /* \"#utility.yul\":18028:18312   */\n      jump(tag_667)\n    tag_669:\n        /* \"#utility.yul\":18032:18046   */\n      pop\n        /* \"#utility.yul\":18328:18331   */\n      dup6\n        /* \"#utility.yul\":18321:18331   */\n      swap4\n      pop\n        /* \"#utility.yul\":17729:18337   */\n      pop\n      pop\n      pop\n        /* \"#utility.yul\":17605:18337   */\n      swap3\n      swap2\n      pop\n      pop\n      jump\t// out\n        /* \"#utility.yul\":18343:18716   */\n    tag_60:\n        /* \"#utility.yul\":18486:18490   */\n      0x00\n        /* \"#utility.yul\":18524:18526   */\n      0x20\n        /* \"#utility.yul\":18513:18522   */\n      dup3\n        /* \"#utility.yul\":18509:18527   */\n      add\n        /* \"#utility.yul\":18501:18527   */\n      swap1\n      pop\n        /* \"#utility.yul\":18573:18582   */\n      dup2\n        /* \"#utility.yul\":18567:18571   */\n      dup2\n        /* \"#utility.yul\":18563:18583   */\n      sub\n        /* \"#utility.yul\":18559:18560   */\n      0x00\n        /* \"#utility.yul\":18548:18557   */\n      dup4\n        /* \"#utility.yul\":18544:18561   */\n      add\n        /* \"#utility.yul\":18537:18584   */\n      mstore\n        /* \"#utility.yul\":18601:18709   */\n      tag_673\n        /* \"#utility.yul\":18704:18708   */\n      dup2\n        /* \"#utility.yul\":18695:18701   */\n      dup5\n        /* \"#utility.yul\":18601:18709   */\n      tag_457\n      jump\t// in\n    tag_673:\n        /* \"#utility.yul\":18593:18709   */\n      swap1\n      pop\n        /* \"#utility.yul\":18343:18716   */\n      swap3\n      swap2\n      pop\n      pop\n      jump\t// out\n        /* \"#utility.yul\":18722:18840   */\n    tag_458:\n        /* \"#utility.yul\":18809:18833   */\n      tag_675\n        /* \"#utility.yul\":18827:18832   */\n      dup2\n        /* \"#utility.yul\":18809:18833   */\n      tag_414\n      jump\t// in\n    tag_675:\n        /* \"#utility.yul\":18804:18807   */\n      dup3\n        /* \"#utility.yul\":18797:18834   */\n      mstore\n        /* \"#utility.yul\":18722:18840   */\n      pop\n      pop\n      jump\t// out\n        /* \"#utility.yul\":18846:19068   */\n    tag_68:\n        /* \"#utility.yul\":18939:18943   */\n      0x00\n        /* \"#utility.yul\":18977:18979   */\n      0x20\n        /* \"#utility.yul\":18966:18975   */\n      dup3\n        /* \"#utility.yul\":18962:18980   */\n      add\n        /* \"#utility.yul\":18954:18980   */\n      swap1\n      pop\n        /* \"#utility.yul\":18990:19061   */\n      tag_677\n        /* \"#utility.yul\":19058:19059   */\n      0x00\n        /* \"#utility.yul\":19047:19056   */\n      dup4\n        /* \"#utility.yul\":19043:19060   */\n      add\n        /* \"#utility.yul\":19034:19040   */\n      dup5\n        /* \"#utility.yul\":18990:19061   */\n      tag_458\n      jump\t// in\n    tag_677:\n        /* \"#utility.yul\":18846:19068   */\n      swap3\n      swap2\n      pop\n      pop\n      jump\t// out\n        /* \"#utility.yul\":19074:19192   */\n    tag_459:\n        /* \"#utility.yul\":19161:19185   */\n      tag_679\n        /* \"#utility.yul\":19179:19184   */\n      dup2\n        /* \"#utility.yul\":19161:19185   */\n      tag_420\n      jump\t// in\n    tag_679:\n        /* \"#utility.yul\":19156:19159   */\n      dup3\n        /* \"#utility.yul\":19149:19186   */\n      mstore\n        /* \"#utility.yul\":19074:19192   */\n      pop\n      pop\n      jump\t// out\n        /* \"#utility.yul\":19198:19420   */\n    tag_75:\n        /* \"#utility.yul\":19291:19295   */\n      0x00\n        /* \"#utility.yul\":19329:19331   */\n      0x20\n        /* \"#utility.yul\":19318:19327   */\n      dup3\n        /* \"#utility.yul\":19314:19332   */\n      add\n        /* \"#utility.yul\":19306:19332   */\n      swap1\n      pop\n        /* \"#utility.yul\":19342:19413   */\n      tag_681\n        /* \"#utility.yul\":19410:19411   */\n      0x00\n        /* \"#utility.yul\":19399:19408   */\n      dup4\n        /* \"#utility.yul\":19395:19412   */\n      add\n        /* \"#utility.yul\":19386:19392   */\n      dup5\n        /* \"#utility.yul\":19342:19413   */\n      tag_459\n      jump\t// in\n    tag_681:\n        /* \"#utility.yul\":19198:19420   */\n      swap3\n      swap2\n      pop\n      pop\n      jump\t// out\n        /* \"#utility.yul\":19426:19595   */\n    tag_460:\n        /* \"#utility.yul\":19510:19521   */\n      0x00\n        /* \"#utility.yul\":19544:19550   */\n      dup3\n        /* \"#utility.yul\":19539:19542   */\n      dup3\n        /* \"#utility.yul\":19532:19551   */\n      mstore\n        /* \"#utility.yul\":19584:19588   */\n      0x20\n        /* \"#utility.yul\":19579:19582   */\n      dup3\n        /* \"#utility.yul\":19575:19589   */\n      add\n        /* \"#utility.yul\":19560:19589   */\n      swap1\n      pop\n        /* \"#utility.yul\":19426:19595   */\n      swap3\n      swap2\n      pop\n      pop\n      jump\t// out\n        /* \"#utility.yul\":19601:19761   */\n    tag_461:\n        /* \"#utility.yul\":19741:19753   */\n      0x4e6f742061205573657200000000000000000000000000000000000000000000\n        /* \"#utility.yul\":19737:19738   */\n      0x00\n        /* \"#utility.yul\":19729:19735   */\n      dup3\n        /* \"#utility.yul\":19725:19739   */\n      add\n        /* \"#utility.yul\":19718:19754   */\n      mstore\n        /* \"#utility.yul\":19601:19761   */\n      pop\n      jump\t// out\n        /* \"#utility.yul\":19767:20133   */\n    tag_462:\n        /* \"#utility.yul\":19909:19912   */\n      0x00\n        /* \"#utility.yul\":19930:19997   */\n      tag_685\n        /* \"#utility.yul\":19994:19996   */\n      0x0a\n        /* \"#utility.yul\":19989:19992   */\n      dup4\n        /* \"#utility.yul\":19930:19997   */\n      tag_460\n      jump\t// in\n    tag_685:\n        /* \"#utility.yul\":19923:19997   */\n      swap2\n      pop\n        /* \"#utility.yul\":20006:20099   */\n      tag_686\n        /* \"#utility.yul\":20095:20098   */\n      dup3\n        /* \"#utility.yul\":20006:20099   */\n      tag_461\n      jump\t// in\n    tag_686:\n        /* \"#utility.yul\":20124:20126   */\n      0x20\n        /* \"#utility.yul\":20119:20122   */\n      dup3\n        /* \"#utility.yul\":20115:20127   */\n      add\n        /* \"#utility.yul\":20108:20127   */\n      swap1\n      pop\n        /* \"#utility.yul\":19767:20133   */\n      swap2\n      swap1\n      pop\n      jump\t// out\n        /* \"#utility.yul\":20139:20558   */\n    tag_84:\n        /* \"#utility.yul\":20305:20309   */\n      0x00\n        /* \"#utility.yul\":20343:20345   */\n      0x20\n        /* \"#utility.yul\":20332:20341   */\n      dup3\n        /* \"#utility.yul\":20328:20346   */\n      add\n        /* \"#utility.yul\":20320:20346   */\n      swap1\n      pop\n        /* \"#utility.yul\":20392:20401   */\n      dup2\n        /* \"#utility.yul\":20386:20390   */\n      dup2\n        /* \"#utility.yul\":20382:20402   */\n      sub\n        /* \"#utility.yul\":20378:20379   */\n      0x00\n        /* \"#utility.yul\":20367:20376   */\n      dup4\n        /* \"#utility.yul\":20363:20380   */\n      add\n        /* \"#utility.yul\":20356:20403   */\n      mstore\n        /* \"#utility.yul\":20420:20551   */\n      tag_688\n        /* \"#utility.yul\":20546:20550   */\n      dup2\n        /* \"#utility.yul\":20420:20551   */\n      tag_462\n      jump\t// in\n    tag_688:\n        /* \"#utility.yul\":20412:20551   */\n      swap1\n      pop\n        /* \"#utility.yul\":20139:20558   */\n      swap2\n      swap1\n      pop\n      jump\t// out\n        /* \"#utility.yul\":20564:20712   */\n    tag_463:\n        /* \"#utility.yul\":20666:20677   */\n      0x00\n        /* \"#utility.yul\":20703:20706   */\n      dup2\n        /* \"#utility.yul\":20688:20706   */\n      swap1\n      pop\n        /* \"#utility.yul\":20564:20712   */\n      swap3\n      swap2\n      pop\n      pop\n      jump\t// out\n        /* \"#utility.yul\":20718:21108   */\n    tag_464:\n        /* \"#utility.yul\":20824:20827   */\n      0x00\n        /* \"#utility.yul\":20852:20891   */\n      tag_691\n        /* \"#utility.yul\":20885:20890   */\n      dup3\n        /* \"#utility.yul\":20852:20891   */\n      tag_435\n      jump\t// in\n    tag_691:\n        /* \"#utility.yul\":20907:20996   */\n      tag_692\n        /* \"#utility.yul\":20989:20995   */\n      dup2\n        /* \"#utility.yul\":20984:20987   */\n      dup6\n        /* \"#utility.yul\":20907:20996   */\n      tag_463\n      jump\t// in\n    tag_692:\n        /* \"#utility.yul\":20900:20996   */\n      swap4\n      pop\n        /* \"#utility.yul\":21005:21070   */\n      tag_693\n        /* \"#utility.yul\":21063:21069   */\n      dup2\n        /* \"#utility.yul\":21058:21061   */\n      dup6\n        /* \"#utility.yul\":21051:21055   */\n      0x20\n        /* \"#utility.yul\":21044:21049   */\n      dup7\n        /* \"#utility.yul\":21040:21056   */\n      add\n        /* \"#utility.yul\":21005:21070   */\n      tag_437\n      jump\t// in\n    tag_693:\n        /* \"#utility.yul\":21095:21101   */\n      dup1\n        /* \"#utility.yul\":21090:21093   */\n      dup5\n        /* \"#utility.yul\":21086:21102   */\n      add\n        /* \"#utility.yul\":21079:21102   */\n      swap2\n      pop\n        /* \"#utility.yul\":20828:21108   */\n      pop\n        /* \"#utility.yul\":20718:21108   */\n      swap3\n      swap2\n      pop\n      pop\n      jump\t// out\n        /* \"#utility.yul\":21114:21389   */\n    tag_89:\n        /* \"#utility.yul\":21246:21249   */\n      0x00\n        /* \"#utility.yul\":21268:21363   */\n      tag_695\n        /* \"#utility.yul\":21359:21362   */\n      dup3\n        /* \"#utility.yul\":21350:21356   */\n      dup5\n        /* \"#utility.yul\":21268:21363   */\n      tag_464\n      jump\t// in\n    tag_695:\n        /* \"#utility.yul\":21261:21363   */\n      swap2\n      pop\n        /* \"#utility.yul\":21380:21383   */\n      dup2\n        /* \"#utility.yul\":21373:21383   */\n      swap1\n      pop\n        /* \"#utility.yul\":21114:21389   */\n      swap3\n      swap2\n      pop\n      pop\n      jump\t// out\n        /* \"#utility.yul\":21395:21575   */\n    tag_465:\n        /* \"#utility.yul\":21443:21520   */\n      0x4e487b7100000000000000000000000000000000000000000000000000000000\n        /* \"#utility.yul\":21440:21441   */\n      0x00\n        /* \"#utility.yul\":21433:21521   */\n      mstore\n        /* \"#utility.yul\":21540:21544   */\n      0x22\n        /* \"#utility.yul\":21537:21538   */\n      0x04\n        /* \"#utility.yul\":21530:21545   */\n      mstore\n        /* \"#utility.yul\":21564:21568   */\n      0x24\n        /* \"#utility.yul\":21561:21562   */\n      0x00\n        /* \"#utility.yul\":21554:21569   */\n      revert\n        /* \"#utility.yul\":21581:21901   */\n    tag_216:\n        /* \"#utility.yul\":21625:21631   */\n      0x00\n        /* \"#utility.yul\":21662:21663   */\n      0x02\n        /* \"#utility.yul\":21656:21660   */\n      dup3\n        /* \"#utility.yul\":21652:21664   */\n      div\n        /* \"#utility.yul\":21642:21664   */\n      swap1\n      pop\n        /* \"#utility.yul\":21709:21710   */\n      0x01\n        /* \"#utility.yul\":21703:21707   */\n      dup3\n        /* \"#utility.yul\":21699:21711   */\n      and\n        /* \"#utility.yul\":21730:21748   */\n      dup1\n        /* \"#utility.yul\":21720:21801   */\n      tag_698\n      jumpi\n        /* \"#utility.yul\":21786:21790   */\n      0x7f\n        /* \"#utility.yul\":21778:21784   */\n      dup3\n        /* \"#utility.yul\":21774:21791   */\n      and\n        /* \"#utility.yul\":21764:21791   */\n      swap2\n      pop\n        /* \"#utility.yul\":21720:21801   */\n    tag_698:\n        /* \"#utility.yul\":21848:21850   */\n      0x20\n        /* \"#utility.yul\":21840:21846   */\n      dup3\n        /* \"#utility.yul\":21837:21851   */\n      lt\n        /* \"#utility.yul\":21817:21835   */\n      dup2\n        /* \"#utility.yul\":21814:21852   */\n      sub\n        /* \"#utility.yul\":21811:21895   */\n      tag_699\n      jumpi\n        /* \"#utility.yul\":21867:21885   */\n      tag_700\n      tag_465\n      jump\t// in\n    tag_700:\n        /* \"#utility.yul\":21811:21895   */\n    tag_699:\n        /* \"#utility.yul\":21632:21901   */\n      pop\n        /* \"#utility.yul\":21581:21901   */\n      swap2\n      swap1\n      pop\n      jump\t// out\n        /* \"#utility.yul\":21907:22048   */\n    tag_466:\n        /* \"#utility.yul\":21956:21960   */\n      0x00\n        /* \"#utility.yul\":21979:21982   */\n      dup2\n        /* \"#utility.yul\":21971:21982   */\n      swap1\n      pop\n        /* \"#utility.yul\":22002:22005   */\n      dup2\n        /* \"#utility.yul\":21999:22000   */\n      0x00\n        /* \"#utility.yul\":21992:22006   */\n      mstore\n        /* \"#utility.yul\":22036:22040   */\n      0x20\n        /* \"#utility.yul\":22033:22034   */\n      0x00\n        /* \"#utility.yul\":22023:22041   */\n      keccak256\n        /* \"#utility.yul\":22015:22041   */\n      swap1\n      pop\n        /* \"#utility.yul\":21907:22048   */\n      swap2\n      swap1\n      pop\n      jump\t// out\n        /* \"#utility.yul\":22054:22147   */\n    tag_467:\n        /* \"#utility.yul\":22091:22097   */\n      0x00\n        /* \"#utility.yul\":22138:22140   */\n      0x20\n        /* \"#utility.yul\":22133:22135   */\n      0x1f\n        /* \"#utility.yul\":22126:22131   */\n      dup4\n        /* \"#utility.yul\":22122:22136   */\n      add\n        /* \"#utility.yul\":22118:22141   */\n      div\n        /* \"#utility.yul\":22108:22141   */\n      swap1\n      pop\n        /* \"#utility.yul\":22054:22147   */\n      swap2\n      swap1\n      pop\n      jump\t// out\n        /* \"#utility.yul\":22153:22260   */\n    tag_468:\n        /* \"#utility.yul\":22197:22205   */\n      0x00\n        /* \"#utility.yul\":22247:22252   */\n      dup3\n        /* \"#utility.yul\":22241:22245   */\n      dup3\n        /* \"#utility.yul\":22237:22253   */\n      shl\n        /* \"#utility.yul\":22216:22253   */\n      swap1\n      pop\n        /* \"#utility.yul\":22153:22260   */\n      swap3\n      swap2\n      pop\n      pop\n      jump\t// out\n        /* \"#utility.yul\":22266:22659   */\n    tag_469:\n        /* \"#utility.yul\":22335:22341   */\n      0x00\n        /* \"#utility.yul\":22385:22386   */\n      0x08\n        /* \"#utility.yul\":22373:22383   */\n      dup4\n        /* \"#utility.yul\":22369:22387   */\n      mul\n        /* \"#utility.yul\":22408:22505   */\n      tag_705\n        /* \"#utility.yul\":22438:22504   */\n      0xffffffffffffffffffffffffffffffffffffffffffffffffffffffffffffffff\n        /* \"#utility.yul\":22427:22436   */\n      dup3\n        /* \"#utility.yul\":22408:22505   */\n      tag_468\n      jump\t// in\n    tag_705:\n        /* \"#utility.yul\":22526:22565   */\n      tag_706\n        /* \"#utility.yul\":22556:22564   */\n      dup7\n        /* \"#utility.yul\":22545:22554   */\n      dup4\n        /* \"#utility.yul\":22526:22565   */\n      tag_468\n      jump\t// in\n    tag_706:\n        /* \"#utility.yul\":22514:22565   */\n      swap6\n      pop\n        /* \"#utility.yul\":22598:22602   */\n      dup1\n        /* \"#utility.yul\":22594:22603   */\n      not\n        /* \"#utility.yul\":22587:22592   */\n      dup5\n        /* \"#utility.yul\":22583:22604   */\n      and\n        /* \"#utility.yul\":22574:22604   */\n      swap4\n      pop\n        /* \"#utility.yul\":22647:22651   */\n      dup1\n        /* \"#utility.yul\":22637:22645   */\n      dup7\n        /* \"#utility.yul\":22633:22652   */\n      and\n        /* \"#utility.yul\":22626:22631   */\n      dup5\n        /* \"#utility.yul\":22623:22653   */\n      or\n        /* \"#utility.yul\":22613:22653   */\n      swap3\n      pop\n        /* \"#utility.yul\":22342:22659   */\n      pop\n      pop\n        /* \"#utility.yul\":22266:22659   */\n      swap4\n      swap3\n      pop\n      pop\n      pop\n      jump\t// out\n        /* \"#utility.yul\":22665:22725   */\n    tag_470:\n        /* \"#utility.yul\":22693:22696   */\n      0x00\n        /* \"#utility.yul\":22714:22719   */\n      dup2\n        /* \"#utility.yul\":22707:22719   */\n      swap1\n      pop\n        /* \"#utility.yul\":22665:22725   */\n      swap2\n      swap1\n      pop\n      jump\t// out\n        /* \"#utility.yul\":22731:22873   */\n    tag_471:\n        /* \"#utility.yul\":22781:22790   */\n      0x00\n        /* \"#utility.yul\":22814:22867   */\n      tag_709\n        /* \"#utility.yul\":22832:22866   */\n      tag_710\n        /* \"#utility.yul\":22841:22865   */\n      tag_711\n        /* \"#utility.yul\":22859:22864   */\n      dup5\n        /* \"#utility.yul\":22841:22865   */\n      tag_420\n      jump\t// in\n    tag_711:\n        /* \"#utility.yul\":22832:22866   */\n      tag_470\n      jump\t// in\n    tag_710:\n        /* \"#utility.yul\":22814:22867   */\n      tag_420\n      jump\t// in\n    tag_709:\n        /* \"#utility.yul\":22801:22867   */\n      swap1\n      pop\n        /* \"#utility.yul\":22731:22873   */\n      swap2\n      swap1\n      pop\n      jump\t// out\n        /* \"#utility.yul\":22879:22954   */\n    tag_472:\n        /* \"#utility.yul\":22922:22925   */\n      0x00\n        /* \"#utility.yul\":22943:22948   */\n      dup2\n        /* \"#utility.yul\":22936:22948   */\n      swap1\n      pop\n        /* \"#utility.yul\":22879:22954   */\n      swap2\n      swap1\n      pop\n      jump\t// out\n        /* \"#utility.yul\":22960:23229   */\n    tag_473:\n        /* \"#utility.yul\":23070:23109   */\n      tag_714\n        /* \"#utility.yul\":23101:23108   */\n      dup4\n        /* \"#utility.yul\":23070:23109   */\n      tag_471\n      jump\t// in\n    tag_714:\n        /* \"#utility.yul\":23131:23222   */\n      tag_715\n        /* \"#utility.yul\":23180:23221   */\n      tag_716\n        /* \"#utility.yul\":23204:23220   */\n      dup3\n        /* \"#utility.yul\":23180:23221   */\n      tag_472\n      jump\t// in\n    tag_716:\n        /* \"#utility.yul\":23172:23178   */\n      dup5\n        /* \"#utility.yul\":23165:23169   */\n      dup5\n        /* \"#utility.yul\":23159:23170   */\n      sload\n        /* \"#utility.yul\":23131:23222   */\n      tag_469\n      jump\t// in\n    tag_715:\n        /* \"#utility.yul\":23125:23129   */\n      dup3\n        /* \"#utility.yul\":23118:23223   */\n      sstore\n        /* \"#utility.yul\":23036:23229   */\n      pop\n        /* \"#utility.yul\":22960:23229   */\n      pop\n      pop\n      pop\n      jump\t// out\n        /* \"#utility.yul\":23235:23308   */\n    tag_474:\n        /* \"#utility.yul\":23280:23283   */\n      0x00\n        /* \"#utility.yul\":23235:23308   */\n      swap1\n      jump\t// out\n        /* \"#utility.yul\":23314:23503   */\n    tag_475:\n        /* \"#utility.yul\":23391:23423   */\n      tag_719\n      tag_474\n      jump\t// in\n    tag_719:\n        /* \"#utility.yul\":23432:23497   */\n      tag_720\n        /* \"#utility.yul\":23490:23496   */\n      dup2\n        /* \"#utility.yul\":23482:23488   */\n      dup5\n        /* \"#utility.yul\":23476:23480   */\n      dup5\n        /* \"#utility.yul\":23432:23497   */\n      tag_473\n      jump\t// in\n    tag_720:\n        /* \"#utility.yul\":23367:23503   */\n      pop\n        /* \"#utility.yul\":23314:23503   */\n      pop\n      pop\n      jump\t// out\n        /* \"#utility.yul\":23509:23695   */\n    tag_476:\n        /* \"#utility.yul\":23569:23689   */\n    tag_722:\n        /* \"#utility.yul\":23586:23589   */\n      dup2\n        /* \"#utility.yul\":23579:23584   */\n      dup2\n        /* \"#utility.yul\":23576:23590   */\n      lt\n        /* \"#utility.yul\":23569:23689   */\n      iszero\n      tag_724\n      jumpi\n        /* \"#utility.yul\":23640:23679   */\n      tag_725\n        /* \"#utility.yul\":23677:23678   */\n      0x00\n        /* \"#utility.yul\":23670:23675   */\n      dup3\n        /* \"#utility.yul\":23640:23679   */\n      tag_475\n      jump\t// in\n    tag_725:\n        /* \"#utility.yul\":23613:23614   */\n      0x01\n        /* \"#utility.yul\":23606:23611   */\n      dup2\n        /* \"#utility.yul\":23602:23615   */\n      add\n        /* \"#utility.yul\":23593:23615   */\n      swap1\n      pop\n        /* \"#utility.yul\":23569:23689   */\n      jump(tag_722)\n    tag_724:\n        /* \"#utility.yul\":23509:23695   */\n      pop\n      pop\n      jump\t// out\n        /* \"#utility.yul\":23701:24244   */\n    tag_477:\n        /* \"#utility.yul\":23802:23804   */\n      0x1f\n        /* \"#utility.yul\":23797:23800   */\n      dup3\n        /* \"#utility.yul\":23794:23805   */\n      gt\n        /* \"#utility.yul\":23791:24237   */\n      iszero\n      tag_727\n      jumpi\n        /* \"#utility.yul\":23836:23874   */\n      tag_728\n        /* \"#utility.yul\":23868:23873   */\n      dup2\n        /* \"#utility.yul\":23836:23874   */\n      tag_466\n      jump\t// in\n    tag_728:\n        /* \"#utility.yul\":23920:23949   */\n      tag_729\n        /* \"#utility.yul\":23938:23948   */\n      dup5\n        /* \"#utility.yul\":23920:23949   */\n      tag_467\n      jump\t// in\n    tag_729:\n        /* \"#utility.yul\":23910:23918   */\n      dup2\n        /* \"#utility.yul\":23906:23950   */\n      add\n        /* \"#utility.yul\":24103:24105   */\n      0x20\n        /* \"#utility.yul\":24091:24101   */\n      dup6\n        /* \"#utility.yul\":24088:24106   */\n      lt\n        /* \"#utility.yul\":24085:24134   */\n      iszero\n      tag_730\n      jumpi\n        /* \"#utility.yul\":24124:24132   */\n      dup2\n        /* \"#utility.yul\":24109:24132   */\n      swap1\n      pop\n        /* \"#utility.yul\":24085:24134   */\n    tag_730:\n        /* \"#utility.yul\":24147:24227   */\n      tag_731\n        /* \"#utility.yul\":24203:24225   */\n      tag_732\n        /* \"#utility.yul\":24221:24224   */\n      dup6\n        /* \"#utility.yul\":24203:24225   */\n      tag_467\n      jump\t// in\n    tag_732:\n        /* \"#utility.yul\":24193:24201   */\n      dup4\n        /* \"#utility.yul\":24189:24226   */\n      add\n        /* \"#utility.yul\":24176:24187   */\n      dup3\n        /* \"#utility.yul\":24147:24227   */\n      tag_476\n      jump\t// in\n    tag_731:\n        /* \"#utility.yul\":23806:24237   */\n      pop\n      pop\n        /* \"#utility.yul\":23791:24237   */\n    tag_727:\n        /* \"#utility.yul\":23701:24244   */\n      pop\n      pop\n      pop\n      jump\t// out\n        /* \"#utility.yul\":24250:24367   */\n    tag_478:\n        /* \"#utility.yul\":24304:24312   */\n      0x00\n        /* \"#utility.yul\":24354:24359   */\n      dup3\n        /* \"#utility.yul\":24348:24352   */\n      dup3\n        /* \"#utility.yul\":24344:24360   */\n      shr\n        /* \"#utility.yul\":24323:24360   */\n      swap1\n      pop\n        /* \"#utility.yul\":24250:24367   */\n      swap3\n      swap2\n      pop\n      pop\n      jump\t// out\n        /* \"#utility.yul\":24373:24542   */\n    tag_479:\n        /* \"#utility.yul\":24417:24423   */\n      0x00\n        /* \"#utility.yul\":24450:24501   */\n      tag_735\n        /* \"#utility.yul\":24498:24499   */\n      0x00\n        /* \"#utility.yul\":24494:24500   */\n      not\n        /* \"#utility.yul\":24486:24491   */\n      dup5\n        /* \"#utility.yul\":24483:24484   */\n      0x08\n        /* \"#utility.yul\":24479:24492   */\n      mul\n        /* \"#utility.yul\":24450:24501   */\n      tag_478\n      jump\t// in\n    tag_735:\n        /* \"#utility.yul\":24446:24502   */\n      not\n        /* \"#utility.yul\":24531:24535   */\n      dup1\n        /* \"#utility.yul\":24525:24529   */\n      dup4\n        /* \"#utility.yul\":24521:24536   */\n      and\n        /* \"#utility.yul\":24511:24536   */\n      swap2\n      pop\n        /* \"#utility.yul\":24424:24542   */\n      pop\n        /* \"#utility.yul\":24373:24542   */\n      swap3\n      swap2\n      pop\n      pop\n      jump\t// out\n        /* \"#utility.yul\":24547:24842   */\n    tag_480:\n        /* \"#utility.yul\":24623:24627   */\n      0x00\n        /* \"#utility.yul\":24769:24798   */\n      tag_737\n        /* \"#utility.yul\":24794:24797   */\n      dup4\n        /* \"#utility.yul\":24788:24792   */\n      dup4\n        /* \"#utility.yul\":24769:24798   */\n      tag_479\n      jump\t// in\n    tag_737:\n        /* \"#utility.yul\":24761:24798   */\n      swap2\n      pop\n        /* \"#utility.yul\":24831:24834   */\n      dup3\n        /* \"#utility.yul\":24828:24829   */\n      0x02\n        /* \"#utility.yul\":24824:24835   */\n      mul\n        /* \"#utility.yul\":24818:24822   */\n      dup3\n        /* \"#utility.yul\":24815:24836   */\n      or\n        /* \"#utility.yul\":24807:24836   */\n      swap1\n      pop\n        /* \"#utility.yul\":24547:24842   */\n      swap3\n      swap2\n      pop\n      pop\n      jump\t// out\n        /* \"#utility.yul\":24847:26242   */\n    tag_91:\n        /* \"#utility.yul\":24964:25001   */\n      tag_739\n        /* \"#utility.yul\":24997:25000   */\n      dup3\n        /* \"#utility.yul\":24964:25001   */\n      tag_435\n      jump\t// in\n    tag_739:\n        /* \"#utility.yul\":25066:25084   */\n      0xffffffffffffffff\n        /* \"#utility.yul\":25058:25064   */\n      dup2\n        /* \"#utility.yul\":25055:25085   */\n      gt\n        /* \"#utility.yul\":25052:25108   */\n      iszero\n      tag_740\n      jumpi\n        /* \"#utility.yul\":25088:25106   */\n      tag_741\n      tag_203\n      jump\t// in\n    tag_741:\n        /* \"#utility.yul\":25052:25108   */\n    tag_740:\n        /* \"#utility.yul\":25132:25170   */\n      tag_742\n        /* \"#utility.yul\":25164:25168   */\n      dup3\n        /* \"#utility.yul\":25158:25169   */\n      sload\n        /* \"#utility.yul\":25132:25170   */\n      tag_216\n      jump\t// in\n    tag_742:\n        /* \"#utility.yul\":25217:25284   */\n      tag_743\n        /* \"#utility.yul\":25277:25283   */\n      dup3\n        /* \"#utility.yul\":25269:25275   */\n      dup3\n        /* \"#utility.yul\":25263:25267   */\n      dup6\n        /* \"#utility.yul\":25217:25284   */\n      tag_477\n      jump\t// in\n    tag_743:\n        /* \"#utility.yul\":25311:25312   */\n      0x00\n        /* \"#utility.yul\":25335:25339   */\n      0x20\n        /* \"#utility.yul\":25322:25339   */\n      swap1\n      pop\n        /* \"#utility.yul\":25367:25369   */\n      0x1f\n        /* \"#utility.yul\":25359:25365   */\n      dup4\n        /* \"#utility.yul\":25356:25370   */\n      gt\n        /* \"#utility.yul\":25384:25385   */\n      0x01\n        /* \"#utility.yul\":25379:25997   */\n      dup2\n      eq\n      tag_745\n      jumpi\n        /* \"#utility.yul\":26041:26042   */\n      0x00\n        /* \"#utility.yul\":26058:26064   */\n      dup5\n        /* \"#utility.yul\":26055:26132   */\n      iszero\n      tag_746\n      jumpi\n        /* \"#utility.yul\":26107:26116   */\n      dup3\n        /* \"#utility.yul\":26102:26105   */\n      dup8\n        /* \"#utility.yul\":26098:26117   */\n      add\n        /* \"#utility.yul\":26092:26118   */\n      mload\n        /* \"#utility.yul\":26083:26118   */\n      swap1\n      pop\n        /* \"#utility.yul\":26055:26132   */\n    tag_746:\n        /* \"#utility.yul\":26158:26225   */\n      tag_747\n        /* \"#utility.yul\":26218:26224   */\n      dup6\n        /* \"#utility.yul\":26211:26216   */\n      dup3\n        /* \"#utility.yul\":26158:26225   */\n      tag_480\n      jump\t// in\n    tag_747:\n        /* \"#utility.yul\":26152:26156   */\n      dup7\n        /* \"#utility.yul\":26145:26226   */\n      sstore\n        /* \"#utility.yul\":26014:26236   */\n      pop\n        /* \"#utility.yul\":25349:26236   */\n      jump(tag_744)\n        /* \"#utility.yul\":25379:25997   */\n    tag_745:\n        /* \"#utility.yul\":25431:25435   */\n      0x1f\n        /* \"#utility.yul\":25427:25436   */\n      not\n        /* \"#utility.yul\":25419:25425   */\n      dup5\n        /* \"#utility.yul\":25415:25437   */\n      and\n        /* \"#utility.yul\":25465:25502   */\n      tag_748\n        /* \"#utility.yul\":25497:25501   */\n      dup7\n        /* \"#utility.yul\":25465:25502   */\n      tag_466\n      jump\t// in\n    tag_748:\n        /* \"#utility.yul\":25524:25525   */\n      0x00\n        /* \"#utility.yul\":25538:25746   */\n    tag_749:\n        /* \"#utility.yul\":25552:25559   */\n      dup3\n        /* \"#utility.yul\":25549:25550   */\n      dup2\n        /* \"#utility.yul\":25546:25560   */\n      lt\n        /* \"#utility.yul\":25538:25746   */\n      iszero\n      tag_751\n      jumpi\n        /* \"#utility.yul\":25631:25640   */\n      dup5\n        /* \"#utility.yul\":25626:25629   */\n      dup10\n        /* \"#utility.yul\":25622:25641   */\n      add\n        /* \"#utility.yul\":25616:25642   */\n      mload\n        /* \"#utility.yul\":25608:25614   */\n      dup3\n        /* \"#utility.yul\":25601:25643   */\n      sstore\n        /* \"#utility.yul\":25682:25683   */\n      0x01\n        /* \"#utility.yul\":25674:25680   */\n      dup3\n        /* \"#utility.yul\":25670:25684   */\n      add\n        /* \"#utility.yul\":25660:25684   */\n      swap2\n      pop\n        /* \"#utility.yul\":25729:25731   */\n      0x20\n        /* \"#utility.yul\":25718:25727   */\n      dup6\n        /* \"#utility.yul\":25714:25732   */\n      add\n        /* \"#utility.yul\":25701:25732   */\n      swap5\n      pop\n        /* \"#utility.yul\":25575:25579   */\n      0x20\n        /* \"#utility.yul\":25572:25573   */\n      dup2\n        /* \"#utility.yul\":25568:25580   */\n      add\n        /* \"#utility.yul\":25563:25580   */\n      swap1\n      pop\n        /* \"#utility.yul\":25538:25746   */\n      jump(tag_749)\n    tag_751:\n        /* \"#utility.yul\":25774:25780   */\n      dup7\n        /* \"#utility.yul\":25765:25772   */\n      dup4\n        /* \"#utility.yul\":25762:25781   */\n      lt\n        /* \"#utility.yul\":25759:25938   */\n      iszero\n      tag_752\n      jumpi\n        /* \"#utility.yul\":25832:25841   */\n      dup5\n        /* \"#utility.yul\":25827:25830   */\n      dup10\n        /* \"#utility.yul\":25823:25842   */\n      add\n        /* \"#utility.yul\":25817:25843   */\n      mload\n        /* \"#utility.yul\":25875:25923   */\n      tag_753\n        /* \"#utility.yul\":25917:25921   */\n      0x1f\n        /* \"#utility.yul\":25909:25915   */\n      dup10\n        /* \"#utility.yul\":25905:25922   */\n      and\n        /* \"#utility.yul\":25894:25903   */\n      dup3\n        /* \"#utility.yul\":25875:25923   */\n      tag_479\n      jump\t// in\n    tag_753:\n        /* \"#utility.yul\":25867:25873   */\n      dup4\n        /* \"#utility.yul\":25860:25924   */\n      sstore\n        /* \"#utility.yul\":25782:25938   */\n      pop\n        /* \"#utility.yul\":25759:25938   */\n    tag_752:\n        /* \"#utility.yul\":25984:25985   */\n      0x01\n        /* \"#utility.yul\":25980:25981   */\n      0x02\n        /* \"#utility.yul\":25972:25978   */\n      dup9\n        /* \"#utility.yul\":25968:25982   */\n      mul\n        /* \"#utility.yul\":25964:25986   */\n      add\n        /* \"#utility.yul\":25958:25962   */\n      dup9\n        /* \"#utility.yul\":25951:25987   */\n      sstore\n        /* \"#utility.yul\":25386:25997   */\n      pop\n      pop\n      pop\n        /* \"#utility.yul\":25349:26236   */\n    tag_744:\n      pop\n        /* \"#utility.yul\":24939:26242   */\n      pop\n      pop\n      pop\n        /* \"#utility.yul\":24847:26242   */\n      pop\n      pop\n      jump\t// out\n        /* \"#utility.yul\":26248:26625   */\n    tag_481:\n        /* \"#utility.yul\":26336:26339   */\n      0x00\n        /* \"#utility.yul\":26364:26403   */\n      tag_755\n        /* \"#utility.yul\":26397:26402   */\n      dup3\n        /* \"#utility.yul\":26364:26403   */\n      tag_435\n      jump\t// in\n    tag_755:\n        /* \"#utility.yul\":26419:26490   */\n      tag_756\n        /* \"#utility.yul\":26483:26489   */\n      dup2\n        /* \"#utility.yul\":26478:26481   */\n      dup6\n        /* \"#utility.yul\":26419:26490   */\n      tag_460\n      jump\t// in\n    tag_756:\n        /* \"#utility.yul\":26412:26490   */\n      swap4\n      pop\n        /* \"#utility.yul\":26499:26564   */\n      tag_757\n        /* \"#utility.yul\":26557:26563   */\n      dup2\n        /* \"#utility.yul\":26552:26555   */\n      dup6\n        /* \"#utility.yul\":26545:26549   */\n      0x20\n        /* \"#utility.yul\":26538:26543   */\n      dup7\n        /* \"#utility.yul\":26534:26550   */\n      add\n        /* \"#utility.yul\":26499:26564   */\n      tag_437\n      jump\t// in\n    tag_757:\n        /* \"#utility.yul\":26589:26618   */\n      tag_758\n        /* \"#utility.yul\":26611:26617   */\n      dup2\n        /* \"#utility.yul\":26589:26618   */\n      tag_406\n      jump\t// in\n    tag_758:\n        /* \"#utility.yul\":26584:26587   */\n      dup5\n        /* \"#utility.yul\":26580:26619   */\n      add\n        /* \"#utility.yul\":26573:26619   */\n      swap2\n      pop\n        /* \"#utility.yul\":26340:26625   */\n      pop\n        /* \"#utility.yul\":26248:26625   */\n      swap3\n      swap2\n      pop\n      pop\n      jump\t// out\n        /* \"#utility.yul\":26631:26944   */\n    tag_100:\n        /* \"#utility.yul\":26744:26748   */\n      0x00\n        /* \"#utility.yul\":26782:26784   */\n      0x20\n        /* \"#utility.yul\":26771:26780   */\n      dup3\n        /* \"#utility.yul\":26767:26785   */\n      add\n        /* \"#utility.yul\":26759:26785   */\n      swap1\n      pop\n        /* \"#utility.yul\":26831:26840   */\n      dup2\n        /* \"#utility.yul\":26825:26829   */\n      dup2\n        /* \"#utility.yul\":26821:26841   */\n      sub\n        /* \"#utility.yul\":26817:26818   */\n      0x00\n        /* \"#utility.yul\":26806:26815   */\n      dup4\n        /* \"#utility.yul\":26802:26819   */\n      add\n        /* \"#utility.yul\":26795:26842   */\n      mstore\n        /* \"#utility.yul\":26859:26937   */\n      tag_760\n        /* \"#utility.yul\":26932:26936   */\n      dup2\n        /* \"#utility.yul\":26923:26929   */\n      dup5\n        /* \"#utility.yul\":26859:26937   */\n      tag_481\n      jump\t// in\n    tag_760:\n        /* \"#utility.yul\":26851:26937   */\n      swap1\n      pop\n        /* \"#utility.yul\":26631:26944   */\n      swap3\n      swap2\n      pop\n      pop\n      jump\t// out\n        /* \"#utility.yul\":26950:27127   */\n    tag_482:\n        /* \"#utility.yul\":27090:27119   */\n      0x5573657220697320616c726561647920726567697374657265642e0000000000\n        /* \"#utility.yul\":27086:27087   */\n      0x00\n        /* \"#utility.yul\":27078:27084   */\n      dup3\n        /* \"#utility.yul\":27074:27088   */\n      add\n        /* \"#utility.yul\":27067:27120   */\n      mstore\n        /* \"#utility.yul\":26950:27127   */\n      pop\n      jump\t// out\n        /* \"#utility.yul\":27133:27499   */\n    tag_483:\n        /* \"#utility.yul\":27275:27278   */\n      0x00\n        /* \"#utility.yul\":27296:27363   */\n      tag_763\n        /* \"#utility.yul\":27360:27362   */\n      0x1b\n        /* \"#utility.yul\":27355:27358   */\n      dup4\n        /* \"#utility.yul\":27296:27363   */\n      tag_460\n      jump\t// in\n    tag_763:\n        /* \"#utility.yul\":27289:27363   */\n      swap2\n      pop\n        /* \"#utility.yul\":27372:27465   */\n      tag_764\n        /* \"#utility.yul\":27461:27464   */\n      dup3\n        /* \"#utility.yul\":27372:27465   */\n      tag_482\n      jump\t// in\n    tag_764:\n        /* \"#utility.yul\":27490:27492   */\n      0x20\n        /* \"#utility.yul\":27485:27488   */\n      dup3\n        /* \"#utility.yul\":27481:27493   */\n      add\n        /* \"#utility.yul\":27474:27493   */\n      swap1\n      pop\n        /* \"#utility.yul\":27133:27499   */\n      swap2\n      swap1\n      pop\n      jump\t// out\n        /* \"#utility.yul\":27505:27924   */\n    tag_131:\n        /* \"#utility.yul\":27671:27675   */\n      0x00\n        /* \"#utility.yul\":27709:27711   */\n      0x20\n        /* \"#utility.yul\":27698:27707   */\n      dup3\n        /* \"#utility.yul\":27694:27712   */\n      add\n        /* \"#utility.yul\":27686:27712   */\n      swap1\n      pop\n        /* \"#utility.yul\":27758:27767   */\n      dup2\n        /* \"#utility.yul\":27752:27756   */\n      dup2\n        /* \"#utility.yul\":27748:27768   */\n      sub\n        /* \"#utility.yul\":27744:27745   */\n      0x00\n        /* \"#utility.yul\":27733:27742   */\n      dup4\n        /* \"#utility.yul\":27729:27746   */\n      add\n        /* \"#utility.yul\":27722:27769   */\n      mstore\n        /* \"#utility.yul\":27786:27917   */\n      tag_766\n        /* \"#utility.yul\":27912:27916   */\n      dup2\n        /* \"#utility.yul\":27786:27917   */\n      tag_483\n      jump\t// in\n    tag_766:\n        /* \"#utility.yul\":27778:27917   */\n      swap1\n      pop\n        /* \"#utility.yul\":27505:27924   */\n      swap2\n      swap1\n      pop\n      jump\t// out\n        /* \"#utility.yul\":27930:28093   */\n    tag_484:\n        /* \"#utility.yul\":28070:28085   */\n      0x4e6f74207468652041646d696e00000000000000000000000000000000000000\n        /* \"#utility.yul\":28066:28067   */\n      0x00\n        /* \"#utility.yul\":28058:28064   */\n      dup3\n        /* \"#utility.yul\":28054:28068   */\n      add\n        /* \"#utility.yul\":28047:28086   */\n      mstore\n        /* \"#utility.yul\":27930:28093   */\n      pop\n      jump\t// out\n        /* \"#utility.yul\":28099:28465   */\n    tag_485:\n        /* \"#utility.yul\":28241:28244   */\n      0x00\n        /* \"#utility.yul\":28262:28329   */\n      tag_769\n        /* \"#utility.yul\":28326:28328   */\n      0x0d\n        /* \"#utility.yul\":28321:28324   */\n      dup4\n        /* \"#utility.yul\":28262:28329   */\n      tag_460\n      jump\t// in\n    tag_769:\n        /* \"#utility.yul\":28255:28329   */\n      swap2\n      pop\n        /* \"#utility.yul\":28338:28431   */\n      tag_770\n        /* \"#utility.yul\":28427:28430   */\n      dup3\n        /* \"#utility.yul\":28338:28431   */\n      tag_484\n      jump\t// in\n    tag_770:\n        /* \"#utility.yul\":28456:28458   */\n      0x20\n        /* \"#utility.yul\":28451:28454   */\n      dup3\n        /* \"#utility.yul\":28447:28459   */\n      add\n        /* \"#utility.yul\":28440:28459   */\n      swap1\n      pop\n        /* \"#utility.yul\":28099:28465   */\n      swap2\n      swap1\n      pop\n      jump\t// out\n        /* \"#utility.yul\":28471:28890   */\n    tag_150:\n        /* \"#utility.yul\":28637:28641   */\n      0x00\n        /* \"#utility.yul\":28675:28677   */\n      0x20\n        /* \"#utility.yul\":28664:28673   */\n      dup3\n        /* \"#utility.yul\":28660:28678   */\n      add\n        /* \"#utility.yul\":28652:28678   */\n      swap1\n      pop\n        /* \"#utility.yul\":28724:28733   */\n      dup2\n        /* \"#utility.yul\":28718:28722   */\n      dup2\n        /* \"#utility.yul\":28714:28734   */\n      sub\n        /* \"#utility.yul\":28710:28711   */\n      0x00\n        /* \"#utility.yul\":28699:28708   */\n      dup4\n        /* \"#utility.yul\":28695:28712   */\n      add\n        /* \"#utility.yul\":28688:28735   */\n      mstore\n        /* \"#utility.yul\":28752:28883   */\n      tag_772\n        /* \"#utility.yul\":28878:28882   */\n      dup2\n        /* \"#utility.yul\":28752:28883   */\n      tag_485\n      jump\t// in\n    tag_772:\n        /* \"#utility.yul\":28744:28883   */\n      swap1\n      pop\n        /* \"#utility.yul\":28471:28890   */\n      swap2\n      swap1\n      pop\n      jump\t// out\n        /* \"#utility.yul\":28896:29060   */\n    tag_486:\n        /* \"#utility.yul\":29036:29052   */\n      0x4e6f742061205665726966696572000000000000000000000000000000000000\n        /* \"#utility.yul\":29032:29033   */\n      0x00\n        /* \"#utility.yul\":29024:29030   */\n      dup3\n        /* \"#utility.yul\":29020:29034   */\n      add\n        /* \"#utility.yul\":29013:29053   */\n      mstore\n        /* \"#utility.yul\":28896:29060   */\n      pop\n      jump\t// out\n        /* \"#utility.yul\":29066:29432   */\n    tag_487:\n        /* \"#utility.yul\":29208:29211   */\n      0x00\n        /* \"#utility.yul\":29229:29296   */\n      tag_775\n        /* \"#utility.yul\":29293:29295   */\n      0x0e\n        /* \"#utility.yul\":29288:29291   */\n      dup4\n        /* \"#utility.yul\":29229:29296   */\n      tag_460\n      jump\t// in\n    tag_775:\n        /* \"#utility.yul\":29222:29296   */\n      swap2\n      pop\n        /* \"#utility.yul\":29305:29398   */\n      tag_776\n        /* \"#utility.yul\":29394:29397   */\n      dup3\n        /* \"#utility.yul\":29305:29398   */\n      tag_486\n      jump\t// in\n    tag_776:\n        /* \"#utility.yul\":29423:29425   */\n      0x20\n        /* \"#utility.yul\":29418:29421   */\n      dup3\n        /* \"#utility.yul\":29414:29426   */\n      add\n        /* \"#utility.yul\":29407:29426   */\n      swap1\n      pop\n        /* \"#utility.yul\":29066:29432   */\n      swap2\n      swap1\n      pop\n      jump\t// out\n        /* \"#utility.yul\":29438:29857   */\n    tag_162:\n        /* \"#utility.yul\":29604:29608   */\n      0x00\n        /* \"#utility.yul\":29642:29644   */\n      0x20\n        /* \"#utility.yul\":29631:29640   */\n      dup3\n        /* \"#utility.yul\":29627:29645   */\n      add\n        /* \"#utility.yul\":29619:29645   */\n      swap1\n      pop\n        /* \"#utility.yul\":29691:29700   */\n      dup2\n        /* \"#utility.yul\":29685:29689   */\n      dup2\n        /* \"#utility.yul\":29681:29701   */\n      sub\n        /* \"#utility.yul\":29677:29678   */\n      0x00\n        /* \"#utility.yul\":29666:29675   */\n      dup4\n        /* \"#utility.yul\":29662:29679   */\n      add\n        /* \"#utility.yul\":29655:29702   */\n      mstore\n        /* \"#utility.yul\":29719:29850   */\n      tag_778\n        /* \"#utility.yul\":29845:29849   */\n      dup2\n        /* \"#utility.yul\":29719:29850   */\n      tag_487\n      jump\t// in\n    tag_778:\n        /* \"#utility.yul\":29711:29850   */\n      swap1\n      pop\n        /* \"#utility.yul\":29438:29857   */\n      swap2\n      swap1\n      pop\n      jump\t// out\n        /* \"#utility.yul\":29863:30043   */\n    tag_213:\n        /* \"#utility.yul\":29911:29988   */\n      0x4e487b7100000000000000000000000000000000000000000000000000000000\n        /* \"#utility.yul\":29908:29909   */\n      0x00\n        /* \"#utility.yul\":29901:29989   */\n      mstore\n        /* \"#utility.yul\":30008:30012   */\n      0x32\n        /* \"#utility.yul\":30005:30006   */\n      0x04\n        /* \"#utility.yul\":29998:30013   */\n      mstore\n        /* \"#utility.yul\":30032:30036   */\n      0x24\n        /* \"#utility.yul\":30029:30030   */\n      0x00\n        /* \"#utility.yul\":30022:30037   */\n      revert\n        /* \"#utility.yul\":30049:30229   */\n    tag_488:\n        /* \"#utility.yul\":30097:30174   */\n      0x4e487b7100000000000000000000000000000000000000000000000000000000\n        /* \"#utility.yul\":30094:30095   */\n      0x00\n        /* \"#utility.yul\":30087:30175   */\n      mstore\n        /* \"#utility.yul\":30194:30198   */\n      0x11\n        /* \"#utility.yul\":30191:30192   */\n      0x04\n        /* \"#utility.yul\":30184:30199   */\n      mstore\n        /* \"#utility.yul\":30218:30222   */\n      0x24\n        /* \"#utility.yul\":30215:30216   */\n      0x00\n        /* \"#utility.yul\":30208:30223   */\n      revert\n        /* \"#utility.yul\":30235:30468   */\n    tag_338:\n        /* \"#utility.yul\":30274:30277   */\n      0x00\n        /* \"#utility.yul\":30297:30321   */\n      tag_782\n        /* \"#utility.yul\":30315:30320   */\n      dup3\n        /* \"#utility.yul\":30297:30321   */\n      tag_420\n      jump\t// in\n    tag_782:\n        /* \"#utility.yul\":30288:30321   */\n      swap2\n      pop\n        /* \"#utility.yul\":30343:30409   */\n      0xffffffffffffffffffffffffffffffffffffffffffffffffffffffffffffffff\n        /* \"#utility.yul\":30336:30341   */\n      dup3\n        /* \"#utility.yul\":30333:30410   */\n      sub\n        /* \"#utility.yul\":30330:30433   */\n      tag_783\n      jumpi\n        /* \"#utility.yul\":30413:30431   */\n      tag_784\n      tag_488\n      jump\t// in\n    tag_784:\n        /* \"#utility.yul\":30330:30433   */\n    tag_783:\n        /* \"#utility.yul\":30460:30461   */\n      0x01\n        /* \"#utility.yul\":30453:30458   */\n      dup3\n        /* \"#utility.yul\":30449:30462   */\n      add\n        /* \"#utility.yul\":30442:30462   */\n      swap1\n      pop\n        /* \"#utility.yul\":30235:30468   */\n      swap2\n      swap1\n      pop\n      jump\t// out\n        /* \"#utility.yul\":30474:30638   */\n    tag_489:\n        /* \"#utility.yul\":30614:30630   */\n      0x517565756520697320656d707479000000000000000000000000000000000000\n        /* \"#utility.yul\":30610:30611   */\n      0x00\n        /* \"#utility.yul\":30602:30608   */\n      dup3\n        /* \"#utility.yul\":30598:30612   */\n      add\n        /* \"#utility.yul\":30591:30631   */\n      mstore\n        /* \"#utility.yul\":30474:30638   */\n      pop\n      jump\t// out\n        /* \"#utility.yul\":30644:31010   */\n    tag_490:\n        /* \"#utility.yul\":30786:30789   */\n      0x00\n        /* \"#utility.yul\":30807:30874   */\n      tag_787\n        /* \"#utility.yul\":30871:30873   */\n      0x0e\n        /* \"#utility.yul\":30866:30869   */\n      dup4\n        /* \"#utility.yul\":30807:30874   */\n      tag_460\n      jump\t// in\n    tag_787:\n        /* \"#utility.yul\":30800:30874   */\n      swap2\n      pop\n        /* \"#utility.yul\":30883:30976   */\n      tag_788\n        /* \"#utility.yul\":30972:30975   */\n      dup3\n        /* \"#utility.yul\":30883:30976   */\n      tag_489\n      jump\t// in\n    tag_788:\n        /* \"#utility.yul\":31001:31003   */\n      0x20\n        /* \"#utility.yul\":30996:30999   */\n      dup3\n        /* \"#utility.yul\":30992:31004   */\n      add\n        /* \"#utility.yul\":30985:31004   */\n      swap1\n      pop\n        /* \"#utility.yul\":30644:31010   */\n      swap2\n      swap1\n      pop\n      jump\t// out\n        /* \"#utility.yul\":31016:31435   */\n    tag_345:\n        /* \"#utility.yul\":31182:31186   */\n      0x00\n        /* \"#utility.yul\":31220:31222   */\n      0x20\n        /* \"#utility.yul\":31209:31218   */\n      dup3\n        /* \"#utility.yul\":31205:31223   */\n      add\n        /* \"#utility.yul\":31197:31223   */\n      swap1\n      pop\n        /* \"#utility.yul\":31269:31278   */\n      dup2\n        /* \"#utility.yul\":31263:31267   */\n      dup2\n        /* \"#utility.yul\":31259:31279   */\n      sub\n        /* \"#utility.yul\":31255:31256   */\n      0x00\n        /* \"#utility.yul\":31244:31253   */\n      dup4\n        /* \"#utility.yul\":31240:31257   */\n      add\n        /* \"#utility.yul\":31233:31280   */\n      mstore\n        /* \"#utility.yul\":31297:31428   */\n      tag_790\n        /* \"#utility.yul\":31423:31427   */\n      dup2\n        /* \"#utility.yul\":31297:31428   */\n      tag_490\n      jump\t// in\n    tag_790:\n        /* \"#utility.yul\":31289:31428   */\n      swap1\n      pop\n        /* \"#utility.yul\":31016:31435   */\n      swap2\n      swap1\n      pop\n      jump\t// out\n        /* \"#utility.yul\":31441:31675   */\n    tag_491:\n        /* \"#utility.yul\":31581:31615   */\n      0x54686520726571756573746564207573657220646f6573206e6f742065786973\n        /* \"#utility.yul\":31577:31578   */\n      0x00\n        /* \"#utility.yul\":31569:31575   */\n      dup3\n        /* \"#utility.yul\":31565:31579   */\n      add\n        /* \"#utility.yul\":31558:31616   */\n      mstore\n        /* \"#utility.yul\":31650:31667   */\n      0x7420696e20746865205175657565210000000000000000000000000000000000\n        /* \"#utility.yul\":31645:31647   */\n      0x20\n        /* \"#utility.yul\":31637:31643   */\n      dup3\n        /* \"#utility.yul\":31633:31648   */\n      add\n        /* \"#utility.yul\":31626:31668   */\n      mstore\n        /* \"#utility.yul\":31441:31675   */\n      pop\n      jump\t// out\n        /* \"#utility.yul\":31681:32047   */\n    tag_492:\n        /* \"#utility.yul\":31823:31826   */\n      0x00\n        /* \"#utility.yul\":31844:31911   */\n      tag_793\n        /* \"#utility.yul\":31908:31910   */\n      0x2f\n        /* \"#utility.yul\":31903:31906   */\n      dup4\n        /* \"#utility.yul\":31844:31911   */\n      tag_460\n      jump\t// in\n    tag_793:\n        /* \"#utility.yul\":31837:31911   */\n      swap2\n      pop\n        /* \"#utility.yul\":31920:32013   */\n      tag_794\n        /* \"#utility.yul\":32009:32012   */\n      dup3\n        /* \"#utility.yul\":31920:32013   */\n      tag_491\n      jump\t// in\n    tag_794:\n        /* \"#utility.yul\":32038:32040   */\n      0x40\n        /* \"#utility.yul\":32033:32036   */\n      dup3\n        /* \"#utility.yul\":32029:32041   */\n      add\n        /* \"#utility.yul\":32022:32041   */\n      swap1\n      pop\n        /* \"#utility.yul\":31681:32047   */\n      swap2\n      swap1\n      pop\n      jump\t// out\n        /* \"#utility.yul\":32053:32472   */\n    tag_353:\n        /* \"#utility.yul\":32219:32223   */\n      0x00\n        /* \"#utility.yul\":32257:32259   */\n      0x20\n        /* \"#utility.yul\":32246:32255   */\n      dup3\n        /* \"#utility.yul\":32242:32260   */\n      add\n        /* \"#utility.yul\":32234:32260   */\n      swap1\n      pop\n        /* \"#utility.yul\":32306:32315   */\n      dup2\n        /* \"#utility.yul\":32300:32304   */\n      dup2\n        /* \"#utility.yul\":32296:32316   */\n      sub\n        /* \"#utility.yul\":32292:32293   */\n      0x00\n        /* \"#utility.yul\":32281:32290   */\n      dup4\n        /* \"#utility.yul\":32277:32294   */\n      add\n        /* \"#utility.yul\":32270:32317   */\n      mstore\n        /* \"#utility.yul\":32334:32465   */\n      tag_796\n        /* \"#utility.yul\":32460:32464   */\n      dup2\n        /* \"#utility.yul\":32334:32465   */\n      tag_492\n      jump\t// in\n    tag_796:\n        /* \"#utility.yul\":32326:32465   */\n      swap1\n      pop\n        /* \"#utility.yul\":32053:32472   */\n      swap2\n      swap1\n      pop\n      jump\t// out\n        /* \"#utility.yul\":32478:32649   */\n    tag_356:\n        /* \"#utility.yul\":32517:32520   */\n      0x00\n        /* \"#utility.yul\":32540:32564   */\n      tag_798\n        /* \"#utility.yul\":32558:32563   */\n      dup3\n        /* \"#utility.yul\":32540:32564   */\n      tag_420\n      jump\t// in\n    tag_798:\n        /* \"#utility.yul\":32531:32564   */\n      swap2\n      pop\n        /* \"#utility.yul\":32586:32590   */\n      0x00\n        /* \"#utility.yul\":32579:32584   */\n      dup3\n        /* \"#utility.yul\":32576:32591   */\n      sub\n        /* \"#utility.yul\":32573:32614   */\n      tag_799\n      jumpi\n        /* \"#utility.yul\":32594:32612   */\n      tag_800\n      tag_488\n      jump\t// in\n    tag_800:\n        /* \"#utility.yul\":32573:32614   */\n    tag_799:\n        /* \"#utility.yul\":32641:32642   */\n      0x01\n        /* \"#utility.yul\":32634:32639   */\n      dup3\n        /* \"#utility.yul\":32630:32643   */\n      sub\n        /* \"#utility.yul\":32623:32643   */\n      swap1\n      pop\n        /* \"#utility.yul\":32478:32649   */\n      swap2\n      swap1\n      pop\n      jump\t// out\n        /* \"#utility.yul\":32655:32893   */\n    tag_493:\n        /* \"#utility.yul\":32795:32829   */\n      0x5468652072657175657374656420446f63756d656e7420646f6573206e6f7420\n        /* \"#utility.yul\":32791:32792   */\n      0x00\n        /* \"#utility.yul\":32783:32789   */\n      dup3\n        /* \"#utility.yul\":32779:32793   */\n      add\n        /* \"#utility.yul\":32772:32830   */\n      mstore\n        /* \"#utility.yul\":32864:32885   */\n      0x657869737420696e207468652051756575652100000000000000000000000000\n        /* \"#utility.yul\":32859:32861   */\n      0x20\n        /* \"#utility.yul\":32851:32857   */\n      dup3\n        /* \"#utility.yul\":32847:32862   */\n      add\n        /* \"#utility.yul\":32840:32886   */\n      mstore\n        /* \"#utility.yul\":32655:32893   */\n      pop\n      jump\t// out\n        /* \"#utility.yul\":32899:33265   */\n    tag_494:\n        /* \"#utility.yul\":33041:33044   */\n      0x00\n        /* \"#utility.yul\":33062:33129   */\n      tag_803\n        /* \"#utility.yul\":33126:33128   */\n      0x33\n        /* \"#utility.yul\":33121:33124   */\n      dup4\n        /* \"#utility.yul\":33062:33129   */\n      tag_460\n      jump\t// in\n    tag_803:\n        /* \"#utility.yul\":33055:33129   */\n      swap2\n      pop\n        /* \"#utility.yul\":33138:33231   */\n      tag_804\n        /* \"#utility.yul\":33227:33230   */\n      dup3\n        /* \"#utility.yul\":33138:33231   */\n      tag_493\n      jump\t// in\n    tag_804:\n        /* \"#utility.yul\":33256:33258   */\n      0x40\n        /* \"#utility.yul\":33251:33254   */\n      dup3\n        /* \"#utility.yul\":33247:33259   */\n      add\n        /* \"#utility.yul\":33240:33259   */\n      swap1\n      pop\n        /* \"#utility.yul\":32899:33265   */\n      swap2\n      swap1\n      pop\n      jump\t// out\n        /* \"#utility.yul\":33271:33690   */\n    tag_373:\n        /* \"#utility.yul\":33437:33441   */\n      0x00\n        /* \"#utility.yul\":33475:33477   */\n      0x20\n        /* \"#utility.yul\":33464:33473   */\n      dup3\n        /* \"#utility.yul\":33460:33478   */\n      add\n        /* \"#utility.yul\":33452:33478   */\n      swap1\n      pop\n        /* \"#utility.yul\":33524:33533   */\n      dup2\n        /* \"#utility.yul\":33518:33522   */\n      dup2\n        /* \"#utility.yul\":33514:33534   */\n      sub\n        /* \"#utility.yul\":33510:33511   */\n      0x00\n        /* \"#utility.yul\":33499:33508   */\n      dup4\n        /* \"#utility.yul\":33495:33512   */\n      add\n        /* \"#utility.yul\":33488:33535   */\n      mstore\n        /* \"#utility.yul\":33552:33683   */\n      tag_806\n        /* \"#utility.yul\":33678:33682   */\n      dup2\n        /* \"#utility.yul\":33552:33683   */\n      tag_494\n      jump\t// in\n    tag_806:\n        /* \"#utility.yul\":33544:33683   */\n      swap1\n      pop\n        /* \"#utility.yul\":33271:33690   */\n      swap2\n      swap1\n      pop\n      jump\t// out\n\n    auxdata: 0xa264697066735822122084b3c62ee0b81ee4f114b030d84e8d8e1cb58d4455ccb08a517d59f90343319664736f6c634300081a0033\n}\n",
				"bytecode": {
					"linkReferences": {},
					"object": "608060405234801561000f575f80fd5b506040516142bd3803806142bd8339818101604052810190610031919061020c565b5f60405180602001604052808373ffffffffffffffffffffffffffffffffffffffff168152509050805f808473ffffffffffffffffffffffffffffffffffffffff1673ffffffffffffffffffffffffffffffffffffffff1681526020019081526020015f205f820151815f015f6101000a81548173ffffffffffffffffffffffffffffffffffffffff021916908373ffffffffffffffffffffffffffffffffffffffff160217905550905050600360015f8473ffffffffffffffffffffffffffffffffffffffff1673ffffffffffffffffffffffffffffffffffffffff1681526020019081526020015f205f6101000a81548160ff0219169083600581111561013d5761013c610237565b5b0217905550600460015f3373ffffffffffffffffffffffffffffffffffffffff1673ffffffffffffffffffffffffffffffffffffffff1681526020019081526020015f205f6101000a81548160ff021916908360058111156101a2576101a1610237565b5b02179055505050610264565b5f80fd5b5f73ffffffffffffffffffffffffffffffffffffffff82169050919050565b5f6101db826101b2565b9050919050565b6101eb816101d1565b81146101f5575f80fd5b50565b5f81519050610206816101e2565b92915050565b5f60208284031215610221576102206101ae565b5b5f61022e848285016101f8565b91505092915050565b7f4e487b71000000000000000000000000000000000000000000000000000000005f52602160045260245ffd5b61404c806102715f395ff3fe608060405234801561000f575f80fd5b50600436106100e8575f3560e01c8063cbe5ee2f1161008a578063e91f0a0811610064578063e91f0a0814610220578063f45f0ca01461023e578063fc74e5c31461026e578063fde081741461028c576100e8565b8063cbe5ee2f146101b4578063d590f8c9146101d2578063e169761f14610202576100e8565b8063832880e7116100c6578063832880e714610140578063aebb41a91461015e578063c0d984ec1461017c578063cb3b280e14610198576100e8565b8063283ac166146100ec5780633c0d3caf14610108578063813f8d8c14610124575b5f80fd5b61010660048036038101906101019190613169565b6102aa565b005b610122600480360381019061011d919061326e565b610588565b005b61013e600480360381019061013991906132df565b6109eb565b005b610148610bca565b6040516101559190613333565b60405180910390f35b610166610c72565b604051610173919061340e565b60405180910390f35b6101966004803603810190610191919061342e565b610dce565b005b6101b260048036038101906101ad919061342e565b61103d565b005b6101bc61122c565b6040516101c991906136e7565b60405180910390f35b6101ec60048036038101906101e79190613707565b611673565b6040516101f99190613778565b60405180910390f35b61020a611690565b6040516102179190613839565b60405180910390f35b61022861175c565b60405161023591906136e7565b60405180910390f35b610258600480360381019061025391906132df565b611b40565b6040516102659190613868565b60405180910390f35b610276611b84565b60405161028391906136e7565b60405180910390f35b610294611f68565b6040516102a19190613890565b60405180910390f35b600160058111156102be576102bd61353f565b5b60015f3373ffffffffffffffffffffffffffffffffffffffff1673ffffffffffffffffffffffffffffffffffffffff1681526020019081526020015f205f9054906101000a900460ff16600581111561031a5761031961353f565b5b1461035a576040517f08c379a000000000000000000000000000000000000000000000000000000000815260040161035190613903565b60405180910390fd5b5f6040518060c001604052808381526020018481526020015f60038111156103855761038461353f565b5b81526020015f73ffffffffffffffffffffffffffffffffffffffff16815260200160405180602001604052805f81525081526020014281525090505f836040516020016103d2919061395b565b6040516020818303038152906040528051906020012090508160035f8381526020019081526020015f205f820151815f01908161040f9190613b6b565b5060208201518160010190816104259190613b6b565b506040820151816002015f6101000a81548160ff021916908360038111156104505761044f61353f565b5b021790555060608201518160020160016101000a81548173ffffffffffffffffffffffffffffffffffffffff021916908373ffffffffffffffffffffffffffffffffffffffff16021790555060808201518160030190816104b19190613b6b565b5060a0820151816004015590505060025f3373ffffffffffffffffffffffffffffffffffffffff1673ffffffffffffffffffffffffffffffffffffffff1681526020019081526020015f2081908060018154018082558091505060019003905f5260205f20015f9091909190915055610534846005611fca90919063ffffffff16565b3373ffffffffffffffffffffffffffffffffffffffff167f124f4a6ee6006b9a10fcac9a51b1910a96b2e528b241f3c1b0a5ca12ab8601838560405161057a9190613c72565b60405180910390a250505050565b6003600581111561059c5761059b61353f565b5b60015f3373ffffffffffffffffffffffffffffffffffffffff1673ffffffffffffffffffffffffffffffffffffffff1681526020019081526020015f205f9054906101000a900460ff1660058111156105f8576105f761353f565b5b14610601575f80fd5b6005808111156106145761061361353f565b5b60015f8473ffffffffffffffffffffffffffffffffffffffff1673ffffffffffffffffffffffffffffffffffffffff1681526020019081526020015f205f9054906101000a900460ff1660058111156106705761066f61353f565b5b14610679575f80fd5b61068d82600d61209790919063ffffffff16565b610695575f80fd5b80610717576106ae82600d61218a90919063ffffffff16565b5f60015f8473ffffffffffffffffffffffffffffffffffffffff1673ffffffffffffffffffffffffffffffffffffffff1681526020019081526020015f205f6101000a81548160ff0219169083600581111561070d5761070c61353f565b5b02179055506109e7565b5f600d6001015f8473ffffffffffffffffffffffffffffffffffffffff1673ffffffffffffffffffffffffffffffffffffffff1681526020019081526020015f206040518060200160405290815f82015f9054906101000a900473ffffffffffffffffffffffffffffffffffffffff1673ffffffffffffffffffffffffffffffffffffffff1673ffffffffffffffffffffffffffffffffffffffff168152505090506107cd83600d61218a90919063ffffffff16565b6040518060200160405280825f015173ffffffffffffffffffffffffffffffffffffffff168152505f808573ffffffffffffffffffffffffffffffffffffffff1673ffffffffffffffffffffffffffffffffffffffff1681526020019081526020015f205f820151815f015f6101000a81548173ffffffffffffffffffffffffffffffffffffffff021916908373ffffffffffffffffffffffffffffffffffffffff16021790555090505060125f808573ffffffffffffffffffffffffffffffffffffffff1673ffffffffffffffffffffffffffffffffffffffff1681526020019081526020015f20908060018154018082558091505060019003905f5260205f20015f909190919091505f82015f9054906101000a900473ffffffffffffffffffffffffffffffffffffffff16815f015f6101000a81548173ffffffffffffffffffffffffffffffffffffffff021916908373ffffffffffffffffffffffffffffffffffffffff1602179055505050600260015f8573ffffffffffffffffffffffffffffffffffffffff1673ffffffffffffffffffffffffffffffffffffffff1681526020019081526020015f205f6101000a81548160ff0219169083600581111561099d5761099c61353f565b5b02179055503373ffffffffffffffffffffffffffffffffffffffff167f85cf819da48b7e3c138cca9531adae41f25faeff5801e9e096eb2c1fb3cbbab760405160405180910390a2505b5050565b5f60058111156109fe576109fd61353f565b5b60015f3373ffffffffffffffffffffffffffffffffffffffff1673ffffffffffffffffffffffffffffffffffffffff1681526020019081526020015f205f9054906101000a900460ff166005811115610a5a57610a5961353f565b5b14610a9a576040517f08c379a0000000000000000000000000000000000000000000000000000000008152600401610a9190613cdc565b60405180910390fd5b5f8103610b4d576001805f3373ffffffffffffffffffffffffffffffffffffffff1673ffffffffffffffffffffffffffffffffffffffff1681526020019081526020015f205f6101000a81548160ff02191690836005811115610b0057610aff61353f565b5b02179055503373ffffffffffffffffffffffffffffffffffffffff167f54db7a5cb4735e1aac1f53db512d3390390bb6637bd30ad4bf9fc98667d9b9b960405160405180910390a2610bc7565b600560015f3373ffffffffffffffffffffffffffffffffffffffff1673ffffffffffffffffffffffffffffffffffffffff1681526020019081526020015f205f6101000a81548160ff02191690836005811115610bad57610bac61353f565b5b0217905550610bc633600d61285490919063ffffffff16565b5b50565b610bd2612f99565b5f803373ffffffffffffffffffffffffffffffffffffffff1673ffffffffffffffffffffffffffffffffffffffff1681526020019081526020015f206040518060200160405290815f82015f9054906101000a900473ffffffffffffffffffffffffffffffffffffffff1673ffffffffffffffffffffffffffffffffffffffff1673ffffffffffffffffffffffffffffffffffffffff1681525050905090565b606060036005811115610c8857610c8761353f565b5b60015f3373ffffffffffffffffffffffffffffffffffffffff1673ffffffffffffffffffffffffffffffffffffffff1681526020019081526020015f205f9054906101000a900460ff166005811115610ce457610ce361353f565b5b14610d24576040517f08c379a0000000000000000000000000000000000000000000000000000000008152600401610d1b90613d44565b60405180910390fd5b6012805480602002602001604051908101604052809291908181526020015f905b82821015610dc5578382905f5260205f20016040518060200160405290815f82015f9054906101000a900473ffffffffffffffffffffffffffffffffffffffff1673ffffffffffffffffffffffffffffffffffffffff1673ffffffffffffffffffffffffffffffffffffffff168152505081526020019060010190610d45565b50505050905090565b60026005811115610de257610de161353f565b5b60015f3373ffffffffffffffffffffffffffffffffffffffff1673ffffffffffffffffffffffffffffffffffffffff1681526020019081526020015f205f9054906101000a900460ff166005811115610e3e57610e3d61353f565b5b14610e7e576040517f08c379a0000000000000000000000000000000000000000000000000000000008152600401610e7590613dac565b60405180910390fd5b5f82604051602001610e90919061395b565b60405160208183030381529060405280519060200120905083610eb4576003610eb7565b60015b60035f8381526020019081526020015f206002015f6101000a81548160ff02191690836003811115610eec57610eeb61353f565b5b02179055503360035f8381526020019081526020015f2060020160016101000a81548173ffffffffffffffffffffffffffffffffffffffff021916908373ffffffffffffffffffffffffffffffffffffffff160217905550610f58836005612b3490919063ffffffff16565b8315610f7757610f72836009611fca90919063ffffffff16565b610f9a565b8160035f8381526020019081526020015f206003019081610f989190613b6b565b505b3360045f8381526020019081526020015f205f6101000a81548173ffffffffffffffffffffffffffffffffffffffff021916908373ffffffffffffffffffffffffffffffffffffffff1602179055503373ffffffffffffffffffffffffffffffffffffffff167f341f531fade60dae8b87577d9c41103cb176b651dc2648bc8bf4172fa45c7c784260405161102f9190613890565b60405180910390a250505050565b600360058111156110515761105061353f565b5b60015f3373ffffffffffffffffffffffffffffffffffffffff1673ffffffffffffffffffffffffffffffffffffffff1681526020019081526020015f205f9054906101000a900460ff1660058111156110ad576110ac61353f565b5b146110ed576040517f08c379a00000000000000000000000000000000000000000000000000000000081526004016110e490613d44565b60405180910390fd5b5f826040516020016110ff919061395b565b60405160208183030381529060405280519060200120905083611123576003611126565b60025b60035f8381526020019081526020015f206002015f6101000a81548160ff0219169083600381111561115b5761115a61353f565b5b02179055503360035f8381526020019081526020015f2060020160016101000a81548173ffffffffffffffffffffffffffffffffffffffff021916908373ffffffffffffffffffffffffffffffffffffffff1602179055506111c7836009612b3490919063ffffffff16565b836111ef578160035f8381526020019081526020015f2060030190816111ed9190613b6b565b505b7f514427b5cb3181cbc0513be266704d58869ecf3c0349cfcfb73679f4d7f4fb284260405161121e9190613890565b60405180910390a150505050565b6060600160058111156112425761124161353f565b5b60015f3373ffffffffffffffffffffffffffffffffffffffff1673ffffffffffffffffffffffffffffffffffffffff1681526020019081526020015f205f9054906101000a900460ff16600581111561129e5761129d61353f565b5b146112de576040517f08c379a00000000000000000000000000000000000000000000000000000000081526004016112d590613903565b60405180910390fd5b5f60025f3373ffffffffffffffffffffffffffffffffffffffff1673ffffffffffffffffffffffffffffffffffffffff1681526020019081526020015f208054905090505f8167ffffffffffffffff81111561133d5761133c613045565b5b60405190808252806020026020018201604052801561137657816020015b611363612fc1565b81526020019060019003908161135b5790505b5090505f5b8281101561166a5760035f60025f3373ffffffffffffffffffffffffffffffffffffffff1673ffffffffffffffffffffffffffffffffffffffff1681526020019081526020015f2083815481106113d5576113d4613dca565b5b905f5260205f20015481526020019081526020015f206040518060c00160405290815f820180546114059061399e565b80601f01602080910402602001604051908101604052809291908181526020018280546114319061399e565b801561147c5780601f106114535761010080835404028352916020019161147c565b820191905f5260205f20905b81548152906001019060200180831161145f57829003601f168201915b505050505081526020016001820180546114959061399e565b80601f01602080910402602001604051908101604052809291908181526020018280546114c19061399e565b801561150c5780601f106114e35761010080835404028352916020019161150c565b820191905f5260205f20905b8154815290600101906020018083116114ef57829003601f168201915b50505050508152602001600282015f9054906101000a900460ff1660038111156115395761153861353f565b5b600381111561154b5761154a61353f565b5b81526020016002820160019054906101000a900473ffffffffffffffffffffffffffffffffffffffff1673ffffffffffffffffffffffffffffffffffffffff1673ffffffffffffffffffffffffffffffffffffffff1681526020016003820180546115b59061399e565b80601f01602080910402602001604051908101604052809291908181526020018280546115e19061399e565b801561162c5780601f106116035761010080835404028352916020019161162c565b820191905f5260205f20905b81548152906001019060200180831161160f57829003601f168201915b5050505050815260200160048201548152505082828151811061165257611651613dca565b5b6020026020010181905250808060010191505061137b565b50809250505090565b6001602052805f5260405f205f915054906101000a900460ff1681565b6060600360058111156116a6576116a561353f565b5b60015f3373ffffffffffffffffffffffffffffffffffffffff1673ffffffffffffffffffffffffffffffffffffffff1681526020019081526020015f205f9054906101000a900460ff1660058111156117025761170161353f565b5b14611742576040517f08c379a000000000000000000000000000000000000000000000000000000000815260040161173990613d44565b60405180910390fd5b6117576064600d612d0e90919063ffffffff16565b905090565b6060600260058111156117725761177161353f565b5b60015f3373ffffffffffffffffffffffffffffffffffffffff1673ffffffffffffffffffffffffffffffffffffffff1681526020019081526020015f205f9054906101000a900460ff1660058111156117ce576117cd61353f565b5b1461180e576040517f08c379a000000000000000000000000000000000000000000000000000000000815260040161180590613dac565b60405180910390fd5b5f61182460646005612ec490919063ffffffff16565b90505f815190505f8167ffffffffffffffff81111561184657611845613045565b5b60405190808252806020026020018201604052801561187f57816020015b61186c612fc1565b8152602001906001900390816118645790505b5090505f5b82811015611b365760035f8583815181106118a2576118a1613dca565b5b602002602001015181526020019081526020015f206040518060c00160405290815f820180546118d19061399e565b80601f01602080910402602001604051908101604052809291908181526020018280546118fd9061399e565b80156119485780601f1061191f57610100808354040283529160200191611948565b820191905f5260205f20905b81548152906001019060200180831161192b57829003601f168201915b505050505081526020016001820180546119619061399e565b80601f016020809104026020016040519081016040528092919081815260200182805461198d9061399e565b80156119d85780601f106119af576101008083540402835291602001916119d8565b820191905f5260205f20905b8154815290600101906020018083116119bb57829003601f168201915b50505050508152602001600282015f9054906101000a900460ff166003811115611a0557611a0461353f565b5b6003811115611a1757611a1661353f565b5b81526020016002820160019054906101000a900473ffffffffffffffffffffffffffffffffffffffff1673ffffffffffffffffffffffffffffffffffffffff1673ffffffffffffffffffffffffffffffffffffffff168152602001600382018054611a819061399e565b80601f0160208091040260200160405190810160405280929190818152602001828054611aad9061399e565b8015611af85780601f10611acf57610100808354040283529160200191611af8565b820191905f5260205f20905b815481529060010190602001808311611adb57829003601f168201915b50505050508152602001600482015481525050828281518110611b1e57611b1d613dca565b5b60200260200101819052508080600101915050611884565b5080935050505090565b60128181548110611b4f575f80fd5b905f5260205f20015f91509050805f015f9054906101000a900473ffffffffffffffffffffffffffffffffffffffff16905081565b606060036005811115611b9a57611b9961353f565b5b60015f3373ffffffffffffffffffffffffffffffffffffffff1673ffffffffffffffffffffffffffffffffffffffff1681526020019081526020015f205f9054906101000a900460ff166005811115611bf657611bf561353f565b5b14611c36576040517f08c379a0000000000000000000000000000000000000000000000000000000008152600401611c2d90613d44565b60405180910390fd5b5f611c4c60646009612ec490919063ffffffff16565b90505f815190505f8167ffffffffffffffff811115611c6e57611c6d613045565b5b604051908082528060200260200182016040528015611ca757816020015b611c94612fc1565b815260200190600190039081611c8c5790505b5090505f5b82811015611f5e5760035f858381518110611cca57611cc9613dca565b5b602002602001015181526020019081526020015f206040518060c00160405290815f82018054611cf99061399e565b80601f0160208091040260200160405190810160405280929190818152602001828054611d259061399e565b8015611d705780601f10611d4757610100808354040283529160200191611d70565b820191905f5260205f20905b815481529060010190602001808311611d5357829003601f168201915b50505050508152602001600182018054611d899061399e565b80601f0160208091040260200160405190810160405280929190818152602001828054611db59061399e565b8015611e005780601f10611dd757610100808354040283529160200191611e00565b820191905f5260205f20905b815481529060010190602001808311611de357829003601f168201915b50505050508152602001600282015f9054906101000a900460ff166003811115611e2d57611e2c61353f565b5b6003811115611e3f57611e3e61353f565b5b81526020016002820160019054906101000a900473ffffffffffffffffffffffffffffffffffffffff1673ffffffffffffffffffffffffffffffffffffffff1673ffffffffffffffffffffffffffffffffffffffff168152602001600382018054611ea99061399e565b80601f0160208091040260200160405190810160405280929190818152602001828054611ed59061399e565b8015611f205780601f10611ef757610100808354040283529160200191611f20565b820191905f5260205f20905b815481529060010190602001808311611f0357829003601f168201915b50505050508152602001600482015481525050828281518110611f4657611f45613dca565b5b60200260200101819052508080600101915050611cac565b5080935050505090565b5f60015f3373ffffffffffffffffffffffffffffffffffffffff1673ffffffffffffffffffffffffffffffffffffffff1681526020019081526020015f205f9054906101000a900460ff166005811115611fc557611fc461353f565b5b905090565b5f81604051602001611fdc919061395b565b6040516020818303038152906040528051906020012090505f801b83600201540361203b575f801b835f015f8381526020019081526020015f208190555080836001018190555080836002018190555060018360030181905550612092565b80835f015f856002015481526020019081526020015f20819055505f801b835f015f8381526020019081526020015f2081905550808360020181905550826003015f81548092919061208c90613e24565b91905055505b505050565b5f8073ffffffffffffffffffffffffffffffffffffffff16835f015f8473ffffffffffffffffffffffffffffffffffffffff1673ffffffffffffffffffffffffffffffffffffffff1681526020019081526020015f205f9054906101000a900473ffffffffffffffffffffffffffffffffffffffff1673ffffffffffffffffffffffffffffffffffffffff161461212f576001612182565b8173ffffffffffffffffffffffffffffffffffffffff16836003015f9054906101000a900473ffffffffffffffffffffffffffffffffffffffff1673ffffffffffffffffffffffffffffffffffffffff16145b905092915050565b5f73ffffffffffffffffffffffffffffffffffffffff16826002015f9054906101000a900473ffffffffffffffffffffffffffffffffffffffff1673ffffffffffffffffffffffffffffffffffffffff160361221b576040517f08c379a000000000000000000000000000000000000000000000000000000000815260040161221290613eb5565b60405180910390fd5b8073ffffffffffffffffffffffffffffffffffffffff16826002015f9054906101000a900473ffffffffffffffffffffffffffffffffffffffff1673ffffffffffffffffffffffffffffffffffffffff160361233857815f015f836002015f9054906101000a900473ffffffffffffffffffffffffffffffffffffffff1673ffffffffffffffffffffffffffffffffffffffff1673ffffffffffffffffffffffffffffffffffffffff1681526020019081526020015f205f9054906101000a900473ffffffffffffffffffffffffffffffffffffffff16826002015f6101000a81548173ffffffffffffffffffffffffffffffffffffffff021916908373ffffffffffffffffffffffffffffffffffffffff1602179055506126ce565b5f826002015f9054906101000a900473ffffffffffffffffffffffffffffffffffffffff1690505b5f73ffffffffffffffffffffffffffffffffffffffff168173ffffffffffffffffffffffffffffffffffffffff161415801561242557508173ffffffffffffffffffffffffffffffffffffffff16835f015f8373ffffffffffffffffffffffffffffffffffffffff1673ffffffffffffffffffffffffffffffffffffffff1681526020019081526020015f205f9054906101000a900473ffffffffffffffffffffffffffffffffffffffff1673ffffffffffffffffffffffffffffffffffffffff1614155b1561248f57825f015f8273ffffffffffffffffffffffffffffffffffffffff1673ffffffffffffffffffffffffffffffffffffffff1681526020019081526020015f205f9054906101000a900473ffffffffffffffffffffffffffffffffffffffff169050612360565b5f73ffffffffffffffffffffffffffffffffffffffff168173ffffffffffffffffffffffffffffffffffffffff16036124fd576040517f08c379a00000000000000000000000000000000000000000000000000000000081526004016124f490613f43565b60405180910390fd5b825f015f845f015f8473ffffffffffffffffffffffffffffffffffffffff1673ffffffffffffffffffffffffffffffffffffffff1681526020019081526020015f205f9054906101000a900473ffffffffffffffffffffffffffffffffffffffff1673ffffffffffffffffffffffffffffffffffffffff1673ffffffffffffffffffffffffffffffffffffffff1681526020019081526020015f205f9054906101000a900473ffffffffffffffffffffffffffffffffffffffff16835f015f8373ffffffffffffffffffffffffffffffffffffffff1673ffffffffffffffffffffffffffffffffffffffff1681526020019081526020015f205f6101000a81548173ffffffffffffffffffffffffffffffffffffffff021916908373ffffffffffffffffffffffffffffffffffffffff1602179055508173ffffffffffffffffffffffffffffffffffffffff16836003015f9054906101000a900473ffffffffffffffffffffffffffffffffffffffff1673ffffffffffffffffffffffffffffffffffffffff16036126cc575f836003015f6101000a81548173ffffffffffffffffffffffffffffffffffffffff021916908373ffffffffffffffffffffffffffffffffffffffff1602179055505b505b816004015f8154809291906126e290613f61565b91905055505f73ffffffffffffffffffffffffffffffffffffffff16826002015f9054906101000a900473ffffffffffffffffffffffffffffffffffffffff1673ffffffffffffffffffffffffffffffffffffffff1603612789575f826003015f6101000a81548173ffffffffffffffffffffffffffffffffffffffff021916908373ffffffffffffffffffffffffffffffffffffffff1602179055505f82600401819055505b815f015f8273ffffffffffffffffffffffffffffffffffffffff1673ffffffffffffffffffffffffffffffffffffffff1681526020019081526020015f205f6101000a81549073ffffffffffffffffffffffffffffffffffffffff0219169055816001015f8273ffffffffffffffffffffffffffffffffffffffff1673ffffffffffffffffffffffffffffffffffffffff1681526020019081526020015f205f8082015f6101000a81549073ffffffffffffffffffffffffffffffffffffffff021916905550505050565b5f73ffffffffffffffffffffffffffffffffffffffff16826003015f9054906101000a900473ffffffffffffffffffffffffffffffffffffffff1673ffffffffffffffffffffffffffffffffffffffff16036129b9575f825f015f8373ffffffffffffffffffffffffffffffffffffffff1673ffffffffffffffffffffffffffffffffffffffff1681526020019081526020015f205f6101000a81548173ffffffffffffffffffffffffffffffffffffffff021916908373ffffffffffffffffffffffffffffffffffffffff16021790555080826002015f6101000a81548173ffffffffffffffffffffffffffffffffffffffff021916908373ffffffffffffffffffffffffffffffffffffffff16021790555080826003015f6101000a81548173ffffffffffffffffffffffffffffffffffffffff021916908373ffffffffffffffffffffffffffffffffffffffff16021790555060018260040181905550612b30565b80825f015f846003015f9054906101000a900473ffffffffffffffffffffffffffffffffffffffff1673ffffffffffffffffffffffffffffffffffffffff1673ffffffffffffffffffffffffffffffffffffffff1681526020019081526020015f205f6101000a81548173ffffffffffffffffffffffffffffffffffffffff021916908373ffffffffffffffffffffffffffffffffffffffff1602179055505f825f015f8373ffffffffffffffffffffffffffffffffffffffff1673ffffffffffffffffffffffffffffffffffffffff1681526020019081526020015f205f6101000a81548173ffffffffffffffffffffffffffffffffffffffff021916908373ffffffffffffffffffffffffffffffffffffffff16021790555080826003015f6101000a81548173ffffffffffffffffffffffffffffffffffffffff021916908373ffffffffffffffffffffffffffffffffffffffff160217905550816004015f815480929190612b2a90613e24565b91905055505b5050565b5f801b826001015403612b7c576040517f08c379a0000000000000000000000000000000000000000000000000000000008152600401612b7390613eb5565b60405180910390fd5b5f81604051602001612b8e919061395b565b60405160208183030381529060405280519060200120905080836001015403612bd557825f015f846001015481526020019081526020015f20548360010181905550612cb9565b5f836001015490505b5f801b8114158015612c02575081845f015f8381526020019081526020015f205414155b15612c2157835f015f8281526020019081526020015f20549050612bde565b5f801b8103612c65576040517f08c379a0000000000000000000000000000000000000000000000000000000008152600401612c5c90613ff8565b60405180910390fd5b835f015f855f015f8481526020019081526020015f205481526020019081526020015f2054845f015f8381526020019081526020015f208190555081846002015403612cb7575f801b84600201819055505b505b826003015f815480929190612ccd90613f61565b91905055505f801b836001015403612cf4575f801b83600201819055505f83600301819055505b825f015f8281526020019081526020015f205f9055505050565b60605f836002015f9054906101000a900473ffffffffffffffffffffffffffffffffffffffff16905082846004015410612d485782612d4e565b83600401545b92505f8367ffffffffffffffff811115612d6b57612d6a613045565b5b604051908082528060200260200182016040528015612d995781602001602082028036833780820191505090505b509050846002015f9054906101000a900473ffffffffffffffffffffffffffffffffffffffff1691505f5b5f73ffffffffffffffffffffffffffffffffffffffff168373ffffffffffffffffffffffffffffffffffffffff1614612eb85782828281518110612e0b57612e0a613dca565b5b602002602001019073ffffffffffffffffffffffffffffffffffffffff16908173ffffffffffffffffffffffffffffffffffffffff1681525050855f015f8473ffffffffffffffffffffffffffffffffffffffff1673ffffffffffffffffffffffffffffffffffffffff1681526020019081526020015f205f9054906101000a900473ffffffffffffffffffffffffffffffffffffffff1692508080612eb090613e24565b915050612dc4565b81935050505092915050565b60605f8360010154905082846003015410612edf5782612ee5565b83600301545b92505f8367ffffffffffffffff811115612f0257612f01613045565b5b604051908082528060200260200182016040528015612f305781602001602082028036833780820191505090505b509050846001015491505f5b5f801b8314612f8d5782828281518110612f5957612f58613dca565b5b602002602001018181525050855f015f8481526020019081526020015f205492508080612f8590613e24565b915050612f3c565b81935050505092915050565b60405180602001604052805f73ffffffffffffffffffffffffffffffffffffffff1681525090565b6040518060c0016040528060608152602001606081526020015f6003811115612fed57612fec61353f565b5b81526020015f73ffffffffffffffffffffffffffffffffffffffff168152602001606081526020015f81525090565b5f604051905090565b5f80fd5b5f80fd5b5f80fd5b5f80fd5b5f601f19601f8301169050919050565b7f4e487b71000000000000000000000000000000000000000000000000000000005f52604160045260245ffd5b61307b82613035565b810181811067ffffffffffffffff8211171561309a57613099613045565b5b80604052505050565b5f6130ac61301c565b90506130b88282613072565b919050565b5f67ffffffffffffffff8211156130d7576130d6613045565b5b6130e082613035565b9050602081019050919050565b828183375f83830152505050565b5f61310d613108846130bd565b6130a3565b90508281526020810184848401111561312957613128613031565b5b6131348482856130ed565b509392505050565b5f82601f8301126131505761314f61302d565b5b81356131608482602086016130fb565b91505092915050565b5f806040838503121561317f5761317e613025565b5b5f83013567ffffffffffffffff81111561319c5761319b613029565b5b6131a88582860161313c565b925050602083013567ffffffffffffffff8111156131c9576131c8613029565b5b6131d58582860161313c565b9150509250929050565b5f73ffffffffffffffffffffffffffffffffffffffff82169050919050565b5f613208826131df565b9050919050565b613218816131fe565b8114613222575f80fd5b50565b5f813590506132338161320f565b92915050565b5f8115159050919050565b61324d81613239565b8114613257575f80fd5b50565b5f8135905061326881613244565b92915050565b5f806040838503121561328457613283613025565b5b5f61329185828601613225565b92505060206132a28582860161325a565b9150509250929050565b5f819050919050565b6132be816132ac565b81146132c8575f80fd5b50565b5f813590506132d9816132b5565b92915050565b5f602082840312156132f4576132f3613025565b5b5f613301848285016132cb565b91505092915050565b613313816131fe565b82525050565b602082015f82015161332d5f85018261330a565b50505050565b5f6020820190506133465f830184613319565b92915050565b5f81519050919050565b5f82825260208201905092915050565b5f819050602082019050919050565b602082015f8201516133895f85018261330a565b50505050565b5f61339a8383613375565b60208301905092915050565b5f602082019050919050565b5f6133bc8261334c565b6133c68185613356565b93506133d183613366565b805f5b838110156134015781516133e8888261338f565b97506133f3836133a6565b9250506001810190506133d4565b5085935050505092915050565b5f6020820190508181035f83015261342681846133b2565b905092915050565b5f805f6060848603121561344557613444613025565b5b5f6134528682870161325a565b935050602084013567ffffffffffffffff81111561347357613472613029565b5b61347f8682870161313c565b925050604084013567ffffffffffffffff8111156134a05761349f613029565b5b6134ac8682870161313c565b9150509250925092565b5f81519050919050565b5f82825260208201905092915050565b5f819050602082019050919050565b5f81519050919050565b5f82825260208201905092915050565b8281835e5f83830152505050565b5f613511826134df565b61351b81856134e9565b935061352b8185602086016134f9565b61353481613035565b840191505092915050565b7f4e487b71000000000000000000000000000000000000000000000000000000005f52602160045260245ffd5b6004811061357d5761357c61353f565b5b50565b5f81905061358d8261356c565b919050565b5f61359c82613580565b9050919050565b6135ac81613592565b82525050565b6135bb816132ac565b82525050565b5f60c083015f8301518482035f8601526135db8282613507565b915050602083015184820360208601526135f58282613507565b915050604083015161360a60408601826135a3565b50606083015161361d606086018261330a565b50608083015184820360808601526136358282613507565b91505060a083015161364a60a08601826135b2565b508091505092915050565b5f61366083836135c1565b905092915050565b5f602082019050919050565b5f61367e826134b6565b61368881856134c0565b93508360208202850161369a856134d0565b805f5b858110156136d557848403895281516136b68582613655565b94506136c183613668565b925060208a0199505060018101905061369d565b50829750879550505050505092915050565b5f6020820190508181035f8301526136ff8184613674565b905092915050565b5f6020828403121561371c5761371b613025565b5b5f61372984828501613225565b91505092915050565b600681106137435761374261353f565b5b50565b5f81905061375382613732565b919050565b5f61376282613746565b9050919050565b61377281613758565b82525050565b5f60208201905061378b5f830184613769565b92915050565b5f81519050919050565b5f82825260208201905092915050565b5f819050602082019050919050565b5f6137c5838361330a565b60208301905092915050565b5f602082019050919050565b5f6137e782613791565b6137f1818561379b565b93506137fc836137ab565b805f5b8381101561382c57815161381388826137ba565b975061381e836137d1565b9250506001810190506137ff565b5085935050505092915050565b5f6020820190508181035f83015261385181846137dd565b905092915050565b613862816131fe565b82525050565b5f60208201905061387b5f830184613859565b92915050565b61388a816132ac565b82525050565b5f6020820190506138a35f830184613881565b92915050565b5f82825260208201905092915050565b7f4e6f7420612055736572000000000000000000000000000000000000000000005f82015250565b5f6138ed600a836138a9565b91506138f8826138b9565b602082019050919050565b5f6020820190508181035f83015261391a816138e1565b9050919050565b5f81905092915050565b5f613935826134df565b61393f8185613921565b935061394f8185602086016134f9565b80840191505092915050565b5f613966828461392b565b915081905092915050565b7f4e487b71000000000000000000000000000000000000000000000000000000005f52602260045260245ffd5b5f60028204905060018216806139b557607f821691505b6020821081036139c8576139c7613971565b5b50919050565b5f819050815f5260205f209050919050565b5f6020601f8301049050919050565b5f82821b905092915050565b5f60088302613a2a7fffffffffffffffffffffffffffffffffffffffffffffffffffffffffffffffff826139ef565b613a3486836139ef565b95508019841693508086168417925050509392505050565b5f819050919050565b5f613a6f613a6a613a65846132ac565b613a4c565b6132ac565b9050919050565b5f819050919050565b613a8883613a55565b613a9c613a9482613a76565b8484546139fb565b825550505050565b5f90565b613ab0613aa4565b613abb818484613a7f565b505050565b5b81811015613ade57613ad35f82613aa8565b600181019050613ac1565b5050565b601f821115613b2357613af4816139ce565b613afd846139e0565b81016020851015613b0c578190505b613b20613b18856139e0565b830182613ac0565b50505b505050565b5f82821c905092915050565b5f613b435f1984600802613b28565b1980831691505092915050565b5f613b5b8383613b34565b9150826002028217905092915050565b613b74826134df565b67ffffffffffffffff811115613b8d57613b8c613045565b5b613b97825461399e565b613ba2828285613ae2565b5f60209050601f831160018114613bd3575f8415613bc1578287015190505b613bcb8582613b50565b865550613c32565b601f198416613be1866139ce565b5f5b82811015613c0857848901518255600182019150602085019450602081019050613be3565b86831015613c255784890151613c21601f891682613b34565b8355505b6001600288020188555050505b505050505050565b5f613c44826134df565b613c4e81856138a9565b9350613c5e8185602086016134f9565b613c6781613035565b840191505092915050565b5f6020820190508181035f830152613c8a8184613c3a565b905092915050565b7f5573657220697320616c726561647920726567697374657265642e00000000005f82015250565b5f613cc6601b836138a9565b9150613cd182613c92565b602082019050919050565b5f6020820190508181035f830152613cf381613cba565b9050919050565b7f4e6f74207468652041646d696e000000000000000000000000000000000000005f82015250565b5f613d2e600d836138a9565b9150613d3982613cfa565b602082019050919050565b5f6020820190508181035f830152613d5b81613d22565b9050919050565b7f4e6f7420612056657269666965720000000000000000000000000000000000005f82015250565b5f613d96600e836138a9565b9150613da182613d62565b602082019050919050565b5f6020820190508181035f830152613dc381613d8a565b9050919050565b7f4e487b71000000000000000000000000000000000000000000000000000000005f52603260045260245ffd5b7f4e487b71000000000000000000000000000000000000000000000000000000005f52601160045260245ffd5b5f613e2e826132ac565b91507fffffffffffffffffffffffffffffffffffffffffffffffffffffffffffffffff8203613e6057613e5f613df7565b5b600182019050919050565b7f517565756520697320656d7074790000000000000000000000000000000000005f82015250565b5f613e9f600e836138a9565b9150613eaa82613e6b565b602082019050919050565b5f6020820190508181035f830152613ecc81613e93565b9050919050565b7f54686520726571756573746564207573657220646f6573206e6f7420657869735f8201527f7420696e20746865205175657565210000000000000000000000000000000000602082015250565b5f613f2d602f836138a9565b9150613f3882613ed3565b604082019050919050565b5f6020820190508181035f830152613f5a81613f21565b9050919050565b5f613f6b826132ac565b91505f8203613f7d57613f7c613df7565b5b600182039050919050565b7f5468652072657175657374656420446f63756d656e7420646f6573206e6f74205f8201527f657869737420696e207468652051756575652100000000000000000000000000602082015250565b5f613fe26033836138a9565b9150613fed82613f88565b604082019050919050565b5f6020820190508181035f83015261400f81613fd6565b905091905056fea264697066735822122084b3c62ee0b81ee4f114b030d84e8d8e1cb58d4455ccb08a517d59f90343319664736f6c634300081a0033",
					"opcodes": "PUSH1 0x80 PUSH1 0x40 MSTORE CALLVALUE DUP1 ISZERO PUSH2 0xF JUMPI PUSH0 DUP1 REVERT JUMPDEST POP PUSH1 0x40 MLOAD PUSH2 0x42BD CODESIZE SUB DUP1 PUSH2 0x42BD DUP4 CODECOPY DUP2 DUP2 ADD PUSH1 0x40 MSTORE DUP2 ADD SWAP1 PUSH2 0x31 SWAP2 SWAP1 PUSH2 0x20C JUMP JUMPDEST PUSH0 PUSH1 0x40 MLOAD DUP1 PUSH1 0x20 ADD PUSH1 0x40 MSTORE DUP1 DUP4 PUSH20 0xFFFFFFFFFFFFFFFFFFFFFFFFFFFFFFFFFFFFFFFF AND DUP2 MSTORE POP SWAP1 POP DUP1 PUSH0 DUP1 DUP5 PUSH20 0xFFFFFFFFFFFFFFFFFFFFFFFFFFFFFFFFFFFFFFFF AND PUSH20 0xFFFFFFFFFFFFFFFFFFFFFFFFFFFFFFFFFFFFFFFF AND DUP2 MSTORE PUSH1 0x20 ADD SWAP1 DUP2 MSTORE PUSH1 0x20 ADD PUSH0 KECCAK256 PUSH0 DUP3 ADD MLOAD DUP2 PUSH0 ADD PUSH0 PUSH2 0x100 EXP DUP2 SLOAD DUP2 PUSH20 0xFFFFFFFFFFFFFFFFFFFFFFFFFFFFFFFFFFFFFFFF MUL NOT AND SWAP1 DUP4 PUSH20 0xFFFFFFFFFFFFFFFFFFFFFFFFFFFFFFFFFFFFFFFF AND MUL OR SWAP1 SSTORE POP SWAP1 POP POP PUSH1 0x3 PUSH1 0x1 PUSH0 DUP5 PUSH20 0xFFFFFFFFFFFFFFFFFFFFFFFFFFFFFFFFFFFFFFFF AND PUSH20 0xFFFFFFFFFFFFFFFFFFFFFFFFFFFFFFFFFFFFFFFF AND DUP2 MSTORE PUSH1 0x20 ADD SWAP1 DUP2 MSTORE PUSH1 0x20 ADD PUSH0 KECCAK256 PUSH0 PUSH2 0x100 EXP DUP2 SLOAD DUP2 PUSH1 0xFF MUL NOT AND SWAP1 DUP4 PUSH1 0x5 DUP2 GT ISZERO PUSH2 0x13D JUMPI PUSH2 0x13C PUSH2 0x237 JUMP JUMPDEST JUMPDEST MUL OR SWAP1 SSTORE POP PUSH1 0x4 PUSH1 0x1 PUSH0 CALLER PUSH20 0xFFFFFFFFFFFFFFFFFFFFFFFFFFFFFFFFFFFFFFFF AND PUSH20 0xFFFFFFFFFFFFFFFFFFFFFFFFFFFFFFFFFFFFFFFF AND DUP2 MSTORE PUSH1 0x20 ADD SWAP1 DUP2 MSTORE PUSH1 0x20 ADD PUSH0 KECCAK256 PUSH0 PUSH2 0x100 EXP DUP2 SLOAD DUP2 PUSH1 0xFF MUL NOT AND SWAP1 DUP4 PUSH1 0x5 DUP2 GT ISZERO PUSH2 0x1A2 JUMPI PUSH2 0x1A1 PUSH2 0x237 JUMP JUMPDEST JUMPDEST MUL OR SWAP1 SSTORE POP POP POP PUSH2 0x264 JUMP JUMPDEST PUSH0 DUP1 REVERT JUMPDEST PUSH0 PUSH20 0xFFFFFFFFFFFFFFFFFFFFFFFFFFFFFFFFFFFFFFFF DUP3 AND SWAP1 POP SWAP2 SWAP1 POP JUMP JUMPDEST PUSH0 PUSH2 0x1DB DUP3 PUSH2 0x1B2 JUMP JUMPDEST SWAP1 POP SWAP2 SWAP1 POP JUMP JUMPDEST PUSH2 0x1EB DUP2 PUSH2 0x1D1 JUMP JUMPDEST DUP2 EQ PUSH2 0x1F5 JUMPI PUSH0 DUP1 REVERT JUMPDEST POP JUMP JUMPDEST PUSH0 DUP2 MLOAD SWAP1 POP PUSH2 0x206 DUP2 PUSH2 0x1E2 JUMP JUMPDEST SWAP3 SWAP2 POP POP JUMP JUMPDEST PUSH0 PUSH1 0x20 DUP3 DUP5 SUB SLT ISZERO PUSH2 0x221 JUMPI PUSH2 0x220 PUSH2 0x1AE JUMP JUMPDEST JUMPDEST PUSH0 PUSH2 0x22E DUP5 DUP3 DUP6 ADD PUSH2 0x1F8 JUMP JUMPDEST SWAP2 POP POP SWAP3 SWAP2 POP POP JUMP JUMPDEST PUSH32 0x4E487B7100000000000000000000000000000000000000000000000000000000 PUSH0 MSTORE PUSH1 0x21 PUSH1 0x4 MSTORE PUSH1 0x24 PUSH0 REVERT JUMPDEST PUSH2 0x404C DUP1 PUSH2 0x271 PUSH0 CODECOPY PUSH0 RETURN INVALID PUSH1 0x80 PUSH1 0x40 MSTORE CALLVALUE DUP1 ISZERO PUSH2 0xF JUMPI PUSH0 DUP1 REVERT JUMPDEST POP PUSH1 0x4 CALLDATASIZE LT PUSH2 0xE8 JUMPI PUSH0 CALLDATALOAD PUSH1 0xE0 SHR DUP1 PUSH4 0xCBE5EE2F GT PUSH2 0x8A JUMPI DUP1 PUSH4 0xE91F0A08 GT PUSH2 0x64 JUMPI DUP1 PUSH4 0xE91F0A08 EQ PUSH2 0x220 JUMPI DUP1 PUSH4 0xF45F0CA0 EQ PUSH2 0x23E JUMPI DUP1 PUSH4 0xFC74E5C3 EQ PUSH2 0x26E JUMPI DUP1 PUSH4 0xFDE08174 EQ PUSH2 0x28C JUMPI PUSH2 0xE8 JUMP JUMPDEST DUP1 PUSH4 0xCBE5EE2F EQ PUSH2 0x1B4 JUMPI DUP1 PUSH4 0xD590F8C9 EQ PUSH2 0x1D2 JUMPI DUP1 PUSH4 0xE169761F EQ PUSH2 0x202 JUMPI PUSH2 0xE8 JUMP JUMPDEST DUP1 PUSH4 0x832880E7 GT PUSH2 0xC6 JUMPI DUP1 PUSH4 0x832880E7 EQ PUSH2 0x140 JUMPI DUP1 PUSH4 0xAEBB41A9 EQ PUSH2 0x15E JUMPI DUP1 PUSH4 0xC0D984EC EQ PUSH2 0x17C JUMPI DUP1 PUSH4 0xCB3B280E EQ PUSH2 0x198 JUMPI PUSH2 0xE8 JUMP JUMPDEST DUP1 PUSH4 0x283AC166 EQ PUSH2 0xEC JUMPI DUP1 PUSH4 0x3C0D3CAF EQ PUSH2 0x108 JUMPI DUP1 PUSH4 0x813F8D8C EQ PUSH2 0x124 JUMPI JUMPDEST PUSH0 DUP1 REVERT JUMPDEST PUSH2 0x106 PUSH1 0x4 DUP1 CALLDATASIZE SUB DUP2 ADD SWAP1 PUSH2 0x101 SWAP2 SWAP1 PUSH2 0x3169 JUMP JUMPDEST PUSH2 0x2AA JUMP JUMPDEST STOP JUMPDEST PUSH2 0x122 PUSH1 0x4 DUP1 CALLDATASIZE SUB DUP2 ADD SWAP1 PUSH2 0x11D SWAP2 SWAP1 PUSH2 0x326E JUMP JUMPDEST PUSH2 0x588 JUMP JUMPDEST STOP JUMPDEST PUSH2 0x13E PUSH1 0x4 DUP1 CALLDATASIZE SUB DUP2 ADD SWAP1 PUSH2 0x139 SWAP2 SWAP1 PUSH2 0x32DF JUMP JUMPDEST PUSH2 0x9EB JUMP JUMPDEST STOP JUMPDEST PUSH2 0x148 PUSH2 0xBCA JUMP JUMPDEST PUSH1 0x40 MLOAD PUSH2 0x155 SWAP2 SWAP1 PUSH2 0x3333 JUMP JUMPDEST PUSH1 0x40 MLOAD DUP1 SWAP2 SUB SWAP1 RETURN JUMPDEST PUSH2 0x166 PUSH2 0xC72 JUMP JUMPDEST PUSH1 0x40 MLOAD PUSH2 0x173 SWAP2 SWAP1 PUSH2 0x340E JUMP JUMPDEST PUSH1 0x40 MLOAD DUP1 SWAP2 SUB SWAP1 RETURN JUMPDEST PUSH2 0x196 PUSH1 0x4 DUP1 CALLDATASIZE SUB DUP2 ADD SWAP1 PUSH2 0x191 SWAP2 SWAP1 PUSH2 0x342E JUMP JUMPDEST PUSH2 0xDCE JUMP JUMPDEST STOP JUMPDEST PUSH2 0x1B2 PUSH1 0x4 DUP1 CALLDATASIZE SUB DUP2 ADD SWAP1 PUSH2 0x1AD SWAP2 SWAP1 PUSH2 0x342E JUMP JUMPDEST PUSH2 0x103D JUMP JUMPDEST STOP JUMPDEST PUSH2 0x1BC PUSH2 0x122C JUMP JUMPDEST PUSH1 0x40 MLOAD PUSH2 0x1C9 SWAP2 SWAP1 PUSH2 0x36E7 JUMP JUMPDEST PUSH1 0x40 MLOAD DUP1 SWAP2 SUB SWAP1 RETURN JUMPDEST PUSH2 0x1EC PUSH1 0x4 DUP1 CALLDATASIZE SUB DUP2 ADD SWAP1 PUSH2 0x1E7 SWAP2 SWAP1 PUSH2 0x3707 JUMP JUMPDEST PUSH2 0x1673 JUMP JUMPDEST PUSH1 0x40 MLOAD PUSH2 0x1F9 SWAP2 SWAP1 PUSH2 0x3778 JUMP JUMPDEST PUSH1 0x40 MLOAD DUP1 SWAP2 SUB SWAP1 RETURN JUMPDEST PUSH2 0x20A PUSH2 0x1690 JUMP JUMPDEST PUSH1 0x40 MLOAD PUSH2 0x217 SWAP2 SWAP1 PUSH2 0x3839 JUMP JUMPDEST PUSH1 0x40 MLOAD DUP1 SWAP2 SUB SWAP1 RETURN JUMPDEST PUSH2 0x228 PUSH2 0x175C JUMP JUMPDEST PUSH1 0x40 MLOAD PUSH2 0x235 SWAP2 SWAP1 PUSH2 0x36E7 JUMP JUMPDEST PUSH1 0x40 MLOAD DUP1 SWAP2 SUB SWAP1 RETURN JUMPDEST PUSH2 0x258 PUSH1 0x4 DUP1 CALLDATASIZE SUB DUP2 ADD SWAP1 PUSH2 0x253 SWAP2 SWAP1 PUSH2 0x32DF JUMP JUMPDEST PUSH2 0x1B40 JUMP JUMPDEST PUSH1 0x40 MLOAD PUSH2 0x265 SWAP2 SWAP1 PUSH2 0x3868 JUMP JUMPDEST PUSH1 0x40 MLOAD DUP1 SWAP2 SUB SWAP1 RETURN JUMPDEST PUSH2 0x276 PUSH2 0x1B84 JUMP JUMPDEST PUSH1 0x40 MLOAD PUSH2 0x283 SWAP2 SWAP1 PUSH2 0x36E7 JUMP JUMPDEST PUSH1 0x40 MLOAD DUP1 SWAP2 SUB SWAP1 RETURN JUMPDEST PUSH2 0x294 PUSH2 0x1F68 JUMP JUMPDEST PUSH1 0x40 MLOAD PUSH2 0x2A1 SWAP2 SWAP1 PUSH2 0x3890 JUMP JUMPDEST PUSH1 0x40 MLOAD DUP1 SWAP2 SUB SWAP1 RETURN JUMPDEST PUSH1 0x1 PUSH1 0x5 DUP2 GT ISZERO PUSH2 0x2BE JUMPI PUSH2 0x2BD PUSH2 0x353F JUMP JUMPDEST JUMPDEST PUSH1 0x1 PUSH0 CALLER PUSH20 0xFFFFFFFFFFFFFFFFFFFFFFFFFFFFFFFFFFFFFFFF AND PUSH20 0xFFFFFFFFFFFFFFFFFFFFFFFFFFFFFFFFFFFFFFFF AND DUP2 MSTORE PUSH1 0x20 ADD SWAP1 DUP2 MSTORE PUSH1 0x20 ADD PUSH0 KECCAK256 PUSH0 SWAP1 SLOAD SWAP1 PUSH2 0x100 EXP SWAP1 DIV PUSH1 0xFF AND PUSH1 0x5 DUP2 GT ISZERO PUSH2 0x31A JUMPI PUSH2 0x319 PUSH2 0x353F JUMP JUMPDEST JUMPDEST EQ PUSH2 0x35A JUMPI PUSH1 0x40 MLOAD PUSH32 0x8C379A000000000000000000000000000000000000000000000000000000000 DUP2 MSTORE PUSH1 0x4 ADD PUSH2 0x351 SWAP1 PUSH2 0x3903 JUMP JUMPDEST PUSH1 0x40 MLOAD DUP1 SWAP2 SUB SWAP1 REVERT JUMPDEST PUSH0 PUSH1 0x40 MLOAD DUP1 PUSH1 0xC0 ADD PUSH1 0x40 MSTORE DUP1 DUP4 DUP2 MSTORE PUSH1 0x20 ADD DUP5 DUP2 MSTORE PUSH1 0x20 ADD PUSH0 PUSH1 0x3 DUP2 GT ISZERO PUSH2 0x385 JUMPI PUSH2 0x384 PUSH2 0x353F JUMP JUMPDEST JUMPDEST DUP2 MSTORE PUSH1 0x20 ADD PUSH0 PUSH20 0xFFFFFFFFFFFFFFFFFFFFFFFFFFFFFFFFFFFFFFFF AND DUP2 MSTORE PUSH1 0x20 ADD PUSH1 0x40 MLOAD DUP1 PUSH1 0x20 ADD PUSH1 0x40 MSTORE DUP1 PUSH0 DUP2 MSTORE POP DUP2 MSTORE PUSH1 0x20 ADD TIMESTAMP DUP2 MSTORE POP SWAP1 POP PUSH0 DUP4 PUSH1 0x40 MLOAD PUSH1 0x20 ADD PUSH2 0x3D2 SWAP2 SWAP1 PUSH2 0x395B JUMP JUMPDEST PUSH1 0x40 MLOAD PUSH1 0x20 DUP2 DUP4 SUB SUB DUP2 MSTORE SWAP1 PUSH1 0x40 MSTORE DUP1 MLOAD SWAP1 PUSH1 0x20 ADD KECCAK256 SWAP1 POP DUP2 PUSH1 0x3 PUSH0 DUP4 DUP2 MSTORE PUSH1 0x20 ADD SWAP1 DUP2 MSTORE PUSH1 0x20 ADD PUSH0 KECCAK256 PUSH0 DUP3 ADD MLOAD DUP2 PUSH0 ADD SWAP1 DUP2 PUSH2 0x40F SWAP2 SWAP1 PUSH2 0x3B6B JUMP JUMPDEST POP PUSH1 0x20 DUP3 ADD MLOAD DUP2 PUSH1 0x1 ADD SWAP1 DUP2 PUSH2 0x425 SWAP2 SWAP1 PUSH2 0x3B6B JUMP JUMPDEST POP PUSH1 0x40 DUP3 ADD MLOAD DUP2 PUSH1 0x2 ADD PUSH0 PUSH2 0x100 EXP DUP2 SLOAD DUP2 PUSH1 0xFF MUL NOT AND SWAP1 DUP4 PUSH1 0x3 DUP2 GT ISZERO PUSH2 0x450 JUMPI PUSH2 0x44F PUSH2 0x353F JUMP JUMPDEST JUMPDEST MUL OR SWAP1 SSTORE POP PUSH1 0x60 DUP3 ADD MLOAD DUP2 PUSH1 0x2 ADD PUSH1 0x1 PUSH2 0x100 EXP DUP2 SLOAD DUP2 PUSH20 0xFFFFFFFFFFFFFFFFFFFFFFFFFFFFFFFFFFFFFFFF MUL NOT AND SWAP1 DUP4 PUSH20 0xFFFFFFFFFFFFFFFFFFFFFFFFFFFFFFFFFFFFFFFF AND MUL OR SWAP1 SSTORE POP PUSH1 0x80 DUP3 ADD MLOAD DUP2 PUSH1 0x3 ADD SWAP1 DUP2 PUSH2 0x4B1 SWAP2 SWAP1 PUSH2 0x3B6B JUMP JUMPDEST POP PUSH1 0xA0 DUP3 ADD MLOAD DUP2 PUSH1 0x4 ADD SSTORE SWAP1 POP POP PUSH1 0x2 PUSH0 CALLER PUSH20 0xFFFFFFFFFFFFFFFFFFFFFFFFFFFFFFFFFFFFFFFF AND PUSH20 0xFFFFFFFFFFFFFFFFFFFFFFFFFFFFFFFFFFFFFFFF AND DUP2 MSTORE PUSH1 0x20 ADD SWAP1 DUP2 MSTORE PUSH1 0x20 ADD PUSH0 KECCAK256 DUP2 SWAP1 DUP1 PUSH1 0x1 DUP2 SLOAD ADD DUP1 DUP3 SSTORE DUP1 SWAP2 POP POP PUSH1 0x1 SWAP1 SUB SWAP1 PUSH0 MSTORE PUSH1 0x20 PUSH0 KECCAK256 ADD PUSH0 SWAP1 SWAP2 SWAP1 SWAP2 SWAP1 SWAP2 POP SSTORE PUSH2 0x534 DUP5 PUSH1 0x5 PUSH2 0x1FCA SWAP1 SWAP2 SWAP1 PUSH4 0xFFFFFFFF AND JUMP JUMPDEST CALLER PUSH20 0xFFFFFFFFFFFFFFFFFFFFFFFFFFFFFFFFFFFFFFFF AND PUSH32 0x124F4A6EE6006B9A10FCAC9A51B1910A96B2E528B241F3C1B0A5CA12AB860183 DUP6 PUSH1 0x40 MLOAD PUSH2 0x57A SWAP2 SWAP1 PUSH2 0x3C72 JUMP JUMPDEST PUSH1 0x40 MLOAD DUP1 SWAP2 SUB SWAP1 LOG2 POP POP POP POP JUMP JUMPDEST PUSH1 0x3 PUSH1 0x5 DUP2 GT ISZERO PUSH2 0x59C JUMPI PUSH2 0x59B PUSH2 0x353F JUMP JUMPDEST JUMPDEST PUSH1 0x1 PUSH0 CALLER PUSH20 0xFFFFFFFFFFFFFFFFFFFFFFFFFFFFFFFFFFFFFFFF AND PUSH20 0xFFFFFFFFFFFFFFFFFFFFFFFFFFFFFFFFFFFFFFFF AND DUP2 MSTORE PUSH1 0x20 ADD SWAP1 DUP2 MSTORE PUSH1 0x20 ADD PUSH0 KECCAK256 PUSH0 SWAP1 SLOAD SWAP1 PUSH2 0x100 EXP SWAP1 DIV PUSH1 0xFF AND PUSH1 0x5 DUP2 GT ISZERO PUSH2 0x5F8 JUMPI PUSH2 0x5F7 PUSH2 0x353F JUMP JUMPDEST JUMPDEST EQ PUSH2 0x601 JUMPI PUSH0 DUP1 REVERT JUMPDEST PUSH1 0x5 DUP1 DUP2 GT ISZERO PUSH2 0x614 JUMPI PUSH2 0x613 PUSH2 0x353F JUMP JUMPDEST JUMPDEST PUSH1 0x1 PUSH0 DUP5 PUSH20 0xFFFFFFFFFFFFFFFFFFFFFFFFFFFFFFFFFFFFFFFF AND PUSH20 0xFFFFFFFFFFFFFFFFFFFFFFFFFFFFFFFFFFFFFFFF AND DUP2 MSTORE PUSH1 0x20 ADD SWAP1 DUP2 MSTORE PUSH1 0x20 ADD PUSH0 KECCAK256 PUSH0 SWAP1 SLOAD SWAP1 PUSH2 0x100 EXP SWAP1 DIV PUSH1 0xFF AND PUSH1 0x5 DUP2 GT ISZERO PUSH2 0x670 JUMPI PUSH2 0x66F PUSH2 0x353F JUMP JUMPDEST JUMPDEST EQ PUSH2 0x679 JUMPI PUSH0 DUP1 REVERT JUMPDEST PUSH2 0x68D DUP3 PUSH1 0xD PUSH2 0x2097 SWAP1 SWAP2 SWAP1 PUSH4 0xFFFFFFFF AND JUMP JUMPDEST PUSH2 0x695 JUMPI PUSH0 DUP1 REVERT JUMPDEST DUP1 PUSH2 0x717 JUMPI PUSH2 0x6AE DUP3 PUSH1 0xD PUSH2 0x218A SWAP1 SWAP2 SWAP1 PUSH4 0xFFFFFFFF AND JUMP JUMPDEST PUSH0 PUSH1 0x1 PUSH0 DUP5 PUSH20 0xFFFFFFFFFFFFFFFFFFFFFFFFFFFFFFFFFFFFFFFF AND PUSH20 0xFFFFFFFFFFFFFFFFFFFFFFFFFFFFFFFFFFFFFFFF AND DUP2 MSTORE PUSH1 0x20 ADD SWAP1 DUP2 MSTORE PUSH1 0x20 ADD PUSH0 KECCAK256 PUSH0 PUSH2 0x100 EXP DUP2 SLOAD DUP2 PUSH1 0xFF MUL NOT AND SWAP1 DUP4 PUSH1 0x5 DUP2 GT ISZERO PUSH2 0x70D JUMPI PUSH2 0x70C PUSH2 0x353F JUMP JUMPDEST JUMPDEST MUL OR SWAP1 SSTORE POP PUSH2 0x9E7 JUMP JUMPDEST PUSH0 PUSH1 0xD PUSH1 0x1 ADD PUSH0 DUP5 PUSH20 0xFFFFFFFFFFFFFFFFFFFFFFFFFFFFFFFFFFFFFFFF AND PUSH20 0xFFFFFFFFFFFFFFFFFFFFFFFFFFFFFFFFFFFFFFFF AND DUP2 MSTORE PUSH1 0x20 ADD SWAP1 DUP2 MSTORE PUSH1 0x20 ADD PUSH0 KECCAK256 PUSH1 0x40 MLOAD DUP1 PUSH1 0x20 ADD PUSH1 0x40 MSTORE SWAP1 DUP2 PUSH0 DUP3 ADD PUSH0 SWAP1 SLOAD SWAP1 PUSH2 0x100 EXP SWAP1 DIV PUSH20 0xFFFFFFFFFFFFFFFFFFFFFFFFFFFFFFFFFFFFFFFF AND PUSH20 0xFFFFFFFFFFFFFFFFFFFFFFFFFFFFFFFFFFFFFFFF AND PUSH20 0xFFFFFFFFFFFFFFFFFFFFFFFFFFFFFFFFFFFFFFFF AND DUP2 MSTORE POP POP SWAP1 POP PUSH2 0x7CD DUP4 PUSH1 0xD PUSH2 0x218A SWAP1 SWAP2 SWAP1 PUSH4 0xFFFFFFFF AND JUMP JUMPDEST PUSH1 0x40 MLOAD DUP1 PUSH1 0x20 ADD PUSH1 0x40 MSTORE DUP1 DUP3 PUSH0 ADD MLOAD PUSH20 0xFFFFFFFFFFFFFFFFFFFFFFFFFFFFFFFFFFFFFFFF AND DUP2 MSTORE POP PUSH0 DUP1 DUP6 PUSH20 0xFFFFFFFFFFFFFFFFFFFFFFFFFFFFFFFFFFFFFFFF AND PUSH20 0xFFFFFFFFFFFFFFFFFFFFFFFFFFFFFFFFFFFFFFFF AND DUP2 MSTORE PUSH1 0x20 ADD SWAP1 DUP2 MSTORE PUSH1 0x20 ADD PUSH0 KECCAK256 PUSH0 DUP3 ADD MLOAD DUP2 PUSH0 ADD PUSH0 PUSH2 0x100 EXP DUP2 SLOAD DUP2 PUSH20 0xFFFFFFFFFFFFFFFFFFFFFFFFFFFFFFFFFFFFFFFF MUL NOT AND SWAP1 DUP4 PUSH20 0xFFFFFFFFFFFFFFFFFFFFFFFFFFFFFFFFFFFFFFFF AND MUL OR SWAP1 SSTORE POP SWAP1 POP POP PUSH1 0x12 PUSH0 DUP1 DUP6 PUSH20 0xFFFFFFFFFFFFFFFFFFFFFFFFFFFFFFFFFFFFFFFF AND PUSH20 0xFFFFFFFFFFFFFFFFFFFFFFFFFFFFFFFFFFFFFFFF AND DUP2 MSTORE PUSH1 0x20 ADD SWAP1 DUP2 MSTORE PUSH1 0x20 ADD PUSH0 KECCAK256 SWAP1 DUP1 PUSH1 0x1 DUP2 SLOAD ADD DUP1 DUP3 SSTORE DUP1 SWAP2 POP POP PUSH1 0x1 SWAP1 SUB SWAP1 PUSH0 MSTORE PUSH1 0x20 PUSH0 KECCAK256 ADD PUSH0 SWAP1 SWAP2 SWAP1 SWAP2 SWAP1 SWAP2 POP PUSH0 DUP3 ADD PUSH0 SWAP1 SLOAD SWAP1 PUSH2 0x100 EXP SWAP1 DIV PUSH20 0xFFFFFFFFFFFFFFFFFFFFFFFFFFFFFFFFFFFFFFFF AND DUP2 PUSH0 ADD PUSH0 PUSH2 0x100 EXP DUP2 SLOAD DUP2 PUSH20 0xFFFFFFFFFFFFFFFFFFFFFFFFFFFFFFFFFFFFFFFF MUL NOT AND SWAP1 DUP4 PUSH20 0xFFFFFFFFFFFFFFFFFFFFFFFFFFFFFFFFFFFFFFFF AND MUL OR SWAP1 SSTORE POP POP POP PUSH1 0x2 PUSH1 0x1 PUSH0 DUP6 PUSH20 0xFFFFFFFFFFFFFFFFFFFFFFFFFFFFFFFFFFFFFFFF AND PUSH20 0xFFFFFFFFFFFFFFFFFFFFFFFFFFFFFFFFFFFFFFFF AND DUP2 MSTORE PUSH1 0x20 ADD SWAP1 DUP2 MSTORE PUSH1 0x20 ADD PUSH0 KECCAK256 PUSH0 PUSH2 0x100 EXP DUP2 SLOAD DUP2 PUSH1 0xFF MUL NOT AND SWAP1 DUP4 PUSH1 0x5 DUP2 GT ISZERO PUSH2 0x99D JUMPI PUSH2 0x99C PUSH2 0x353F JUMP JUMPDEST JUMPDEST MUL OR SWAP1 SSTORE POP CALLER PUSH20 0xFFFFFFFFFFFFFFFFFFFFFFFFFFFFFFFFFFFFFFFF AND PUSH32 0x85CF819DA48B7E3C138CCA9531ADAE41F25FAEFF5801E9E096EB2C1FB3CBBAB7 PUSH1 0x40 MLOAD PUSH1 0x40 MLOAD DUP1 SWAP2 SUB SWAP1 LOG2 POP JUMPDEST POP POP JUMP JUMPDEST PUSH0 PUSH1 0x5 DUP2 GT ISZERO PUSH2 0x9FE JUMPI PUSH2 0x9FD PUSH2 0x353F JUMP JUMPDEST JUMPDEST PUSH1 0x1 PUSH0 CALLER PUSH20 0xFFFFFFFFFFFFFFFFFFFFFFFFFFFFFFFFFFFFFFFF AND PUSH20 0xFFFFFFFFFFFFFFFFFFFFFFFFFFFFFFFFFFFFFFFF AND DUP2 MSTORE PUSH1 0x20 ADD SWAP1 DUP2 MSTORE PUSH1 0x20 ADD PUSH0 KECCAK256 PUSH0 SWAP1 SLOAD SWAP1 PUSH2 0x100 EXP SWAP1 DIV PUSH1 0xFF AND PUSH1 0x5 DUP2 GT ISZERO PUSH2 0xA5A JUMPI PUSH2 0xA59 PUSH2 0x353F JUMP JUMPDEST JUMPDEST EQ PUSH2 0xA9A JUMPI PUSH1 0x40 MLOAD PUSH32 0x8C379A000000000000000000000000000000000000000000000000000000000 DUP2 MSTORE PUSH1 0x4 ADD PUSH2 0xA91 SWAP1 PUSH2 0x3CDC JUMP JUMPDEST PUSH1 0x40 MLOAD DUP1 SWAP2 SUB SWAP1 REVERT JUMPDEST PUSH0 DUP2 SUB PUSH2 0xB4D JUMPI PUSH1 0x1 DUP1 PUSH0 CALLER PUSH20 0xFFFFFFFFFFFFFFFFFFFFFFFFFFFFFFFFFFFFFFFF AND PUSH20 0xFFFFFFFFFFFFFFFFFFFFFFFFFFFFFFFFFFFFFFFF AND DUP2 MSTORE PUSH1 0x20 ADD SWAP1 DUP2 MSTORE PUSH1 0x20 ADD PUSH0 KECCAK256 PUSH0 PUSH2 0x100 EXP DUP2 SLOAD DUP2 PUSH1 0xFF MUL NOT AND SWAP1 DUP4 PUSH1 0x5 DUP2 GT ISZERO PUSH2 0xB00 JUMPI PUSH2 0xAFF PUSH2 0x353F JUMP JUMPDEST JUMPDEST MUL OR SWAP1 SSTORE POP CALLER PUSH20 0xFFFFFFFFFFFFFFFFFFFFFFFFFFFFFFFFFFFFFFFF AND PUSH32 0x54DB7A5CB4735E1AAC1F53DB512D3390390BB6637BD30AD4BF9FC98667D9B9B9 PUSH1 0x40 MLOAD PUSH1 0x40 MLOAD DUP1 SWAP2 SUB SWAP1 LOG2 PUSH2 0xBC7 JUMP JUMPDEST PUSH1 0x5 PUSH1 0x1 PUSH0 CALLER PUSH20 0xFFFFFFFFFFFFFFFFFFFFFFFFFFFFFFFFFFFFFFFF AND PUSH20 0xFFFFFFFFFFFFFFFFFFFFFFFFFFFFFFFFFFFFFFFF AND DUP2 MSTORE PUSH1 0x20 ADD SWAP1 DUP2 MSTORE PUSH1 0x20 ADD PUSH0 KECCAK256 PUSH0 PUSH2 0x100 EXP DUP2 SLOAD DUP2 PUSH1 0xFF MUL NOT AND SWAP1 DUP4 PUSH1 0x5 DUP2 GT ISZERO PUSH2 0xBAD JUMPI PUSH2 0xBAC PUSH2 0x353F JUMP JUMPDEST JUMPDEST MUL OR SWAP1 SSTORE POP PUSH2 0xBC6 CALLER PUSH1 0xD PUSH2 0x2854 SWAP1 SWAP2 SWAP1 PUSH4 0xFFFFFFFF AND JUMP JUMPDEST JUMPDEST POP JUMP JUMPDEST PUSH2 0xBD2 PUSH2 0x2F99 JUMP JUMPDEST PUSH0 DUP1 CALLER PUSH20 0xFFFFFFFFFFFFFFFFFFFFFFFFFFFFFFFFFFFFFFFF AND PUSH20 0xFFFFFFFFFFFFFFFFFFFFFFFFFFFFFFFFFFFFFFFF AND DUP2 MSTORE PUSH1 0x20 ADD SWAP1 DUP2 MSTORE PUSH1 0x20 ADD PUSH0 KECCAK256 PUSH1 0x40 MLOAD DUP1 PUSH1 0x20 ADD PUSH1 0x40 MSTORE SWAP1 DUP2 PUSH0 DUP3 ADD PUSH0 SWAP1 SLOAD SWAP1 PUSH2 0x100 EXP SWAP1 DIV PUSH20 0xFFFFFFFFFFFFFFFFFFFFFFFFFFFFFFFFFFFFFFFF AND PUSH20 0xFFFFFFFFFFFFFFFFFFFFFFFFFFFFFFFFFFFFFFFF AND PUSH20 0xFFFFFFFFFFFFFFFFFFFFFFFFFFFFFFFFFFFFFFFF AND DUP2 MSTORE POP POP SWAP1 POP SWAP1 JUMP JUMPDEST PUSH1 0x60 PUSH1 0x3 PUSH1 0x5 DUP2 GT ISZERO PUSH2 0xC88 JUMPI PUSH2 0xC87 PUSH2 0x353F JUMP JUMPDEST JUMPDEST PUSH1 0x1 PUSH0 CALLER PUSH20 0xFFFFFFFFFFFFFFFFFFFFFFFFFFFFFFFFFFFFFFFF AND PUSH20 0xFFFFFFFFFFFFFFFFFFFFFFFFFFFFFFFFFFFFFFFF AND DUP2 MSTORE PUSH1 0x20 ADD SWAP1 DUP2 MSTORE PUSH1 0x20 ADD PUSH0 KECCAK256 PUSH0 SWAP1 SLOAD SWAP1 PUSH2 0x100 EXP SWAP1 DIV PUSH1 0xFF AND PUSH1 0x5 DUP2 GT ISZERO PUSH2 0xCE4 JUMPI PUSH2 0xCE3 PUSH2 0x353F JUMP JUMPDEST JUMPDEST EQ PUSH2 0xD24 JUMPI PUSH1 0x40 MLOAD PUSH32 0x8C379A000000000000000000000000000000000000000000000000000000000 DUP2 MSTORE PUSH1 0x4 ADD PUSH2 0xD1B SWAP1 PUSH2 0x3D44 JUMP JUMPDEST PUSH1 0x40 MLOAD DUP1 SWAP2 SUB SWAP1 REVERT JUMPDEST PUSH1 0x12 DUP1 SLOAD DUP1 PUSH1 0x20 MUL PUSH1 0x20 ADD PUSH1 0x40 MLOAD SWAP1 DUP2 ADD PUSH1 0x40 MSTORE DUP1 SWAP3 SWAP2 SWAP1 DUP2 DUP2 MSTORE PUSH1 0x20 ADD PUSH0 SWAP1 JUMPDEST DUP3 DUP3 LT ISZERO PUSH2 0xDC5 JUMPI DUP4 DUP3 SWAP1 PUSH0 MSTORE PUSH1 0x20 PUSH0 KECCAK256 ADD PUSH1 0x40 MLOAD DUP1 PUSH1 0x20 ADD PUSH1 0x40 MSTORE SWAP1 DUP2 PUSH0 DUP3 ADD PUSH0 SWAP1 SLOAD SWAP1 PUSH2 0x100 EXP SWAP1 DIV PUSH20 0xFFFFFFFFFFFFFFFFFFFFFFFFFFFFFFFFFFFFFFFF AND PUSH20 0xFFFFFFFFFFFFFFFFFFFFFFFFFFFFFFFFFFFFFFFF AND PUSH20 0xFFFFFFFFFFFFFFFFFFFFFFFFFFFFFFFFFFFFFFFF AND DUP2 MSTORE POP POP DUP2 MSTORE PUSH1 0x20 ADD SWAP1 PUSH1 0x1 ADD SWAP1 PUSH2 0xD45 JUMP JUMPDEST POP POP POP POP SWAP1 POP SWAP1 JUMP JUMPDEST PUSH1 0x2 PUSH1 0x5 DUP2 GT ISZERO PUSH2 0xDE2 JUMPI PUSH2 0xDE1 PUSH2 0x353F JUMP JUMPDEST JUMPDEST PUSH1 0x1 PUSH0 CALLER PUSH20 0xFFFFFFFFFFFFFFFFFFFFFFFFFFFFFFFFFFFFFFFF AND PUSH20 0xFFFFFFFFFFFFFFFFFFFFFFFFFFFFFFFFFFFFFFFF AND DUP2 MSTORE PUSH1 0x20 ADD SWAP1 DUP2 MSTORE PUSH1 0x20 ADD PUSH0 KECCAK256 PUSH0 SWAP1 SLOAD SWAP1 PUSH2 0x100 EXP SWAP1 DIV PUSH1 0xFF AND PUSH1 0x5 DUP2 GT ISZERO PUSH2 0xE3E JUMPI PUSH2 0xE3D PUSH2 0x353F JUMP JUMPDEST JUMPDEST EQ PUSH2 0xE7E JUMPI PUSH1 0x40 MLOAD PUSH32 0x8C379A000000000000000000000000000000000000000000000000000000000 DUP2 MSTORE PUSH1 0x4 ADD PUSH2 0xE75 SWAP1 PUSH2 0x3DAC JUMP JUMPDEST PUSH1 0x40 MLOAD DUP1 SWAP2 SUB SWAP1 REVERT JUMPDEST PUSH0 DUP3 PUSH1 0x40 MLOAD PUSH1 0x20 ADD PUSH2 0xE90 SWAP2 SWAP1 PUSH2 0x395B JUMP JUMPDEST PUSH1 0x40 MLOAD PUSH1 0x20 DUP2 DUP4 SUB SUB DUP2 MSTORE SWAP1 PUSH1 0x40 MSTORE DUP1 MLOAD SWAP1 PUSH1 0x20 ADD KECCAK256 SWAP1 POP DUP4 PUSH2 0xEB4 JUMPI PUSH1 0x3 PUSH2 0xEB7 JUMP JUMPDEST PUSH1 0x1 JUMPDEST PUSH1 0x3 PUSH0 DUP4 DUP2 MSTORE PUSH1 0x20 ADD SWAP1 DUP2 MSTORE PUSH1 0x20 ADD PUSH0 KECCAK256 PUSH1 0x2 ADD PUSH0 PUSH2 0x100 EXP DUP2 SLOAD DUP2 PUSH1 0xFF MUL NOT AND SWAP1 DUP4 PUSH1 0x3 DUP2 GT ISZERO PUSH2 0xEEC JUMPI PUSH2 0xEEB PUSH2 0x353F JUMP JUMPDEST JUMPDEST MUL OR SWAP1 SSTORE POP CALLER PUSH1 0x3 PUSH0 DUP4 DUP2 MSTORE PUSH1 0x20 ADD SWAP1 DUP2 MSTORE PUSH1 0x20 ADD PUSH0 KECCAK256 PUSH1 0x2 ADD PUSH1 0x1 PUSH2 0x100 EXP DUP2 SLOAD DUP2 PUSH20 0xFFFFFFFFFFFFFFFFFFFFFFFFFFFFFFFFFFFFFFFF MUL NOT AND SWAP1 DUP4 PUSH20 0xFFFFFFFFFFFFFFFFFFFFFFFFFFFFFFFFFFFFFFFF AND MUL OR SWAP1 SSTORE POP PUSH2 0xF58 DUP4 PUSH1 0x5 PUSH2 0x2B34 SWAP1 SWAP2 SWAP1 PUSH4 0xFFFFFFFF AND JUMP JUMPDEST DUP4 ISZERO PUSH2 0xF77 JUMPI PUSH2 0xF72 DUP4 PUSH1 0x9 PUSH2 0x1FCA SWAP1 SWAP2 SWAP1 PUSH4 0xFFFFFFFF AND JUMP JUMPDEST PUSH2 0xF9A JUMP JUMPDEST DUP2 PUSH1 0x3 PUSH0 DUP4 DUP2 MSTORE PUSH1 0x20 ADD SWAP1 DUP2 MSTORE PUSH1 0x20 ADD PUSH0 KECCAK256 PUSH1 0x3 ADD SWAP1 DUP2 PUSH2 0xF98 SWAP2 SWAP1 PUSH2 0x3B6B JUMP JUMPDEST POP JUMPDEST CALLER PUSH1 0x4 PUSH0 DUP4 DUP2 MSTORE PUSH1 0x20 ADD SWAP1 DUP2 MSTORE PUSH1 0x20 ADD PUSH0 KECCAK256 PUSH0 PUSH2 0x100 EXP DUP2 SLOAD DUP2 PUSH20 0xFFFFFFFFFFFFFFFFFFFFFFFFFFFFFFFFFFFFFFFF MUL NOT AND SWAP1 DUP4 PUSH20 0xFFFFFFFFFFFFFFFFFFFFFFFFFFFFFFFFFFFFFFFF AND MUL OR SWAP1 SSTORE POP CALLER PUSH20 0xFFFFFFFFFFFFFFFFFFFFFFFFFFFFFFFFFFFFFFFF AND PUSH32 0x341F531FADE60DAE8B87577D9C41103CB176B651DC2648BC8BF4172FA45C7C78 TIMESTAMP PUSH1 0x40 MLOAD PUSH2 0x102F SWAP2 SWAP1 PUSH2 0x3890 JUMP JUMPDEST PUSH1 0x40 MLOAD DUP1 SWAP2 SUB SWAP1 LOG2 POP POP POP POP JUMP JUMPDEST PUSH1 0x3 PUSH1 0x5 DUP2 GT ISZERO PUSH2 0x1051 JUMPI PUSH2 0x1050 PUSH2 0x353F JUMP JUMPDEST JUMPDEST PUSH1 0x1 PUSH0 CALLER PUSH20 0xFFFFFFFFFFFFFFFFFFFFFFFFFFFFFFFFFFFFFFFF AND PUSH20 0xFFFFFFFFFFFFFFFFFFFFFFFFFFFFFFFFFFFFFFFF AND DUP2 MSTORE PUSH1 0x20 ADD SWAP1 DUP2 MSTORE PUSH1 0x20 ADD PUSH0 KECCAK256 PUSH0 SWAP1 SLOAD SWAP1 PUSH2 0x100 EXP SWAP1 DIV PUSH1 0xFF AND PUSH1 0x5 DUP2 GT ISZERO PUSH2 0x10AD JUMPI PUSH2 0x10AC PUSH2 0x353F JUMP JUMPDEST JUMPDEST EQ PUSH2 0x10ED JUMPI PUSH1 0x40 MLOAD PUSH32 0x8C379A000000000000000000000000000000000000000000000000000000000 DUP2 MSTORE PUSH1 0x4 ADD PUSH2 0x10E4 SWAP1 PUSH2 0x3D44 JUMP JUMPDEST PUSH1 0x40 MLOAD DUP1 SWAP2 SUB SWAP1 REVERT JUMPDEST PUSH0 DUP3 PUSH1 0x40 MLOAD PUSH1 0x20 ADD PUSH2 0x10FF SWAP2 SWAP1 PUSH2 0x395B JUMP JUMPDEST PUSH1 0x40 MLOAD PUSH1 0x20 DUP2 DUP4 SUB SUB DUP2 MSTORE SWAP1 PUSH1 0x40 MSTORE DUP1 MLOAD SWAP1 PUSH1 0x20 ADD KECCAK256 SWAP1 POP DUP4 PUSH2 0x1123 JUMPI PUSH1 0x3 PUSH2 0x1126 JUMP JUMPDEST PUSH1 0x2 JUMPDEST PUSH1 0x3 PUSH0 DUP4 DUP2 MSTORE PUSH1 0x20 ADD SWAP1 DUP2 MSTORE PUSH1 0x20 ADD PUSH0 KECCAK256 PUSH1 0x2 ADD PUSH0 PUSH2 0x100 EXP DUP2 SLOAD DUP2 PUSH1 0xFF MUL NOT AND SWAP1 DUP4 PUSH1 0x3 DUP2 GT ISZERO PUSH2 0x115B JUMPI PUSH2 0x115A PUSH2 0x353F JUMP JUMPDEST JUMPDEST MUL OR SWAP1 SSTORE POP CALLER PUSH1 0x3 PUSH0 DUP4 DUP2 MSTORE PUSH1 0x20 ADD SWAP1 DUP2 MSTORE PUSH1 0x20 ADD PUSH0 KECCAK256 PUSH1 0x2 ADD PUSH1 0x1 PUSH2 0x100 EXP DUP2 SLOAD DUP2 PUSH20 0xFFFFFFFFFFFFFFFFFFFFFFFFFFFFFFFFFFFFFFFF MUL NOT AND SWAP1 DUP4 PUSH20 0xFFFFFFFFFFFFFFFFFFFFFFFFFFFFFFFFFFFFFFFF AND MUL OR SWAP1 SSTORE POP PUSH2 0x11C7 DUP4 PUSH1 0x9 PUSH2 0x2B34 SWAP1 SWAP2 SWAP1 PUSH4 0xFFFFFFFF AND JUMP JUMPDEST DUP4 PUSH2 0x11EF JUMPI DUP2 PUSH1 0x3 PUSH0 DUP4 DUP2 MSTORE PUSH1 0x20 ADD SWAP1 DUP2 MSTORE PUSH1 0x20 ADD PUSH0 KECCAK256 PUSH1 0x3 ADD SWAP1 DUP2 PUSH2 0x11ED SWAP2 SWAP1 PUSH2 0x3B6B JUMP JUMPDEST POP JUMPDEST PUSH32 0x514427B5CB3181CBC0513BE266704D58869ECF3C0349CFCFB73679F4D7F4FB28 TIMESTAMP PUSH1 0x40 MLOAD PUSH2 0x121E SWAP2 SWAP1 PUSH2 0x3890 JUMP JUMPDEST PUSH1 0x40 MLOAD DUP1 SWAP2 SUB SWAP1 LOG1 POP POP POP POP JUMP JUMPDEST PUSH1 0x60 PUSH1 0x1 PUSH1 0x5 DUP2 GT ISZERO PUSH2 0x1242 JUMPI PUSH2 0x1241 PUSH2 0x353F JUMP JUMPDEST JUMPDEST PUSH1 0x1 PUSH0 CALLER PUSH20 0xFFFFFFFFFFFFFFFFFFFFFFFFFFFFFFFFFFFFFFFF AND PUSH20 0xFFFFFFFFFFFFFFFFFFFFFFFFFFFFFFFFFFFFFFFF AND DUP2 MSTORE PUSH1 0x20 ADD SWAP1 DUP2 MSTORE PUSH1 0x20 ADD PUSH0 KECCAK256 PUSH0 SWAP1 SLOAD SWAP1 PUSH2 0x100 EXP SWAP1 DIV PUSH1 0xFF AND PUSH1 0x5 DUP2 GT ISZERO PUSH2 0x129E JUMPI PUSH2 0x129D PUSH2 0x353F JUMP JUMPDEST JUMPDEST EQ PUSH2 0x12DE JUMPI PUSH1 0x40 MLOAD PUSH32 0x8C379A000000000000000000000000000000000000000000000000000000000 DUP2 MSTORE PUSH1 0x4 ADD PUSH2 0x12D5 SWAP1 PUSH2 0x3903 JUMP JUMPDEST PUSH1 0x40 MLOAD DUP1 SWAP2 SUB SWAP1 REVERT JUMPDEST PUSH0 PUSH1 0x2 PUSH0 CALLER PUSH20 0xFFFFFFFFFFFFFFFFFFFFFFFFFFFFFFFFFFFFFFFF AND PUSH20 0xFFFFFFFFFFFFFFFFFFFFFFFFFFFFFFFFFFFFFFFF AND DUP2 MSTORE PUSH1 0x20 ADD SWAP1 DUP2 MSTORE PUSH1 0x20 ADD PUSH0 KECCAK256 DUP1 SLOAD SWAP1 POP SWAP1 POP PUSH0 DUP2 PUSH8 0xFFFFFFFFFFFFFFFF DUP2 GT ISZERO PUSH2 0x133D JUMPI PUSH2 0x133C PUSH2 0x3045 JUMP JUMPDEST JUMPDEST PUSH1 0x40 MLOAD SWAP1 DUP1 DUP3 MSTORE DUP1 PUSH1 0x20 MUL PUSH1 0x20 ADD DUP3 ADD PUSH1 0x40 MSTORE DUP1 ISZERO PUSH2 0x1376 JUMPI DUP2 PUSH1 0x20 ADD JUMPDEST PUSH2 0x1363 PUSH2 0x2FC1 JUMP JUMPDEST DUP2 MSTORE PUSH1 0x20 ADD SWAP1 PUSH1 0x1 SWAP1 SUB SWAP1 DUP2 PUSH2 0x135B JUMPI SWAP1 POP JUMPDEST POP SWAP1 POP PUSH0 JUMPDEST DUP3 DUP2 LT ISZERO PUSH2 0x166A JUMPI PUSH1 0x3 PUSH0 PUSH1 0x2 PUSH0 CALLER PUSH20 0xFFFFFFFFFFFFFFFFFFFFFFFFFFFFFFFFFFFFFFFF AND PUSH20 0xFFFFFFFFFFFFFFFFFFFFFFFFFFFFFFFFFFFFFFFF AND DUP2 MSTORE PUSH1 0x20 ADD SWAP1 DUP2 MSTORE PUSH1 0x20 ADD PUSH0 KECCAK256 DUP4 DUP2 SLOAD DUP2 LT PUSH2 0x13D5 JUMPI PUSH2 0x13D4 PUSH2 0x3DCA JUMP JUMPDEST JUMPDEST SWAP1 PUSH0 MSTORE PUSH1 0x20 PUSH0 KECCAK256 ADD SLOAD DUP2 MSTORE PUSH1 0x20 ADD SWAP1 DUP2 MSTORE PUSH1 0x20 ADD PUSH0 KECCAK256 PUSH1 0x40 MLOAD DUP1 PUSH1 0xC0 ADD PUSH1 0x40 MSTORE SWAP1 DUP2 PUSH0 DUP3 ADD DUP1 SLOAD PUSH2 0x1405 SWAP1 PUSH2 0x399E JUMP JUMPDEST DUP1 PUSH1 0x1F ADD PUSH1 0x20 DUP1 SWAP2 DIV MUL PUSH1 0x20 ADD PUSH1 0x40 MLOAD SWAP1 DUP2 ADD PUSH1 0x40 MSTORE DUP1 SWAP3 SWAP2 SWAP1 DUP2 DUP2 MSTORE PUSH1 0x20 ADD DUP3 DUP1 SLOAD PUSH2 0x1431 SWAP1 PUSH2 0x399E JUMP JUMPDEST DUP1 ISZERO PUSH2 0x147C JUMPI DUP1 PUSH1 0x1F LT PUSH2 0x1453 JUMPI PUSH2 0x100 DUP1 DUP4 SLOAD DIV MUL DUP4 MSTORE SWAP2 PUSH1 0x20 ADD SWAP2 PUSH2 0x147C JUMP JUMPDEST DUP3 ADD SWAP2 SWAP1 PUSH0 MSTORE PUSH1 0x20 PUSH0 KECCAK256 SWAP1 JUMPDEST DUP2 SLOAD DUP2 MSTORE SWAP1 PUSH1 0x1 ADD SWAP1 PUSH1 0x20 ADD DUP1 DUP4 GT PUSH2 0x145F JUMPI DUP3 SWAP1 SUB PUSH1 0x1F AND DUP3 ADD SWAP2 JUMPDEST POP POP POP POP POP DUP2 MSTORE PUSH1 0x20 ADD PUSH1 0x1 DUP3 ADD DUP1 SLOAD PUSH2 0x1495 SWAP1 PUSH2 0x399E JUMP JUMPDEST DUP1 PUSH1 0x1F ADD PUSH1 0x20 DUP1 SWAP2 DIV MUL PUSH1 0x20 ADD PUSH1 0x40 MLOAD SWAP1 DUP2 ADD PUSH1 0x40 MSTORE DUP1 SWAP3 SWAP2 SWAP1 DUP2 DUP2 MSTORE PUSH1 0x20 ADD DUP3 DUP1 SLOAD PUSH2 0x14C1 SWAP1 PUSH2 0x399E JUMP JUMPDEST DUP1 ISZERO PUSH2 0x150C JUMPI DUP1 PUSH1 0x1F LT PUSH2 0x14E3 JUMPI PUSH2 0x100 DUP1 DUP4 SLOAD DIV MUL DUP4 MSTORE SWAP2 PUSH1 0x20 ADD SWAP2 PUSH2 0x150C JUMP JUMPDEST DUP3 ADD SWAP2 SWAP1 PUSH0 MSTORE PUSH1 0x20 PUSH0 KECCAK256 SWAP1 JUMPDEST DUP2 SLOAD DUP2 MSTORE SWAP1 PUSH1 0x1 ADD SWAP1 PUSH1 0x20 ADD DUP1 DUP4 GT PUSH2 0x14EF JUMPI DUP3 SWAP1 SUB PUSH1 0x1F AND DUP3 ADD SWAP2 JUMPDEST POP POP POP POP POP DUP2 MSTORE PUSH1 0x20 ADD PUSH1 0x2 DUP3 ADD PUSH0 SWAP1 SLOAD SWAP1 PUSH2 0x100 EXP SWAP1 DIV PUSH1 0xFF AND PUSH1 0x3 DUP2 GT ISZERO PUSH2 0x1539 JUMPI PUSH2 0x1538 PUSH2 0x353F JUMP JUMPDEST JUMPDEST PUSH1 0x3 DUP2 GT ISZERO PUSH2 0x154B JUMPI PUSH2 0x154A PUSH2 0x353F JUMP JUMPDEST JUMPDEST DUP2 MSTORE PUSH1 0x20 ADD PUSH1 0x2 DUP3 ADD PUSH1 0x1 SWAP1 SLOAD SWAP1 PUSH2 0x100 EXP SWAP1 DIV PUSH20 0xFFFFFFFFFFFFFFFFFFFFFFFFFFFFFFFFFFFFFFFF AND PUSH20 0xFFFFFFFFFFFFFFFFFFFFFFFFFFFFFFFFFFFFFFFF AND PUSH20 0xFFFFFFFFFFFFFFFFFFFFFFFFFFFFFFFFFFFFFFFF AND DUP2 MSTORE PUSH1 0x20 ADD PUSH1 0x3 DUP3 ADD DUP1 SLOAD PUSH2 0x15B5 SWAP1 PUSH2 0x399E JUMP JUMPDEST DUP1 PUSH1 0x1F ADD PUSH1 0x20 DUP1 SWAP2 DIV MUL PUSH1 0x20 ADD PUSH1 0x40 MLOAD SWAP1 DUP2 ADD PUSH1 0x40 MSTORE DUP1 SWAP3 SWAP2 SWAP1 DUP2 DUP2 MSTORE PUSH1 0x20 ADD DUP3 DUP1 SLOAD PUSH2 0x15E1 SWAP1 PUSH2 0x399E JUMP JUMPDEST DUP1 ISZERO PUSH2 0x162C JUMPI DUP1 PUSH1 0x1F LT PUSH2 0x1603 JUMPI PUSH2 0x100 DUP1 DUP4 SLOAD DIV MUL DUP4 MSTORE SWAP2 PUSH1 0x20 ADD SWAP2 PUSH2 0x162C JUMP JUMPDEST DUP3 ADD SWAP2 SWAP1 PUSH0 MSTORE PUSH1 0x20 PUSH0 KECCAK256 SWAP1 JUMPDEST DUP2 SLOAD DUP2 MSTORE SWAP1 PUSH1 0x1 ADD SWAP1 PUSH1 0x20 ADD DUP1 DUP4 GT PUSH2 0x160F JUMPI DUP3 SWAP1 SUB PUSH1 0x1F AND DUP3 ADD SWAP2 JUMPDEST POP POP POP POP POP DUP2 MSTORE PUSH1 0x20 ADD PUSH1 0x4 DUP3 ADD SLOAD DUP2 MSTORE POP POP DUP3 DUP3 DUP2 MLOAD DUP2 LT PUSH2 0x1652 JUMPI PUSH2 0x1651 PUSH2 0x3DCA JUMP JUMPDEST JUMPDEST PUSH1 0x20 MUL PUSH1 0x20 ADD ADD DUP2 SWAP1 MSTORE POP DUP1 DUP1 PUSH1 0x1 ADD SWAP2 POP POP PUSH2 0x137B JUMP JUMPDEST POP DUP1 SWAP3 POP POP POP SWAP1 JUMP JUMPDEST PUSH1 0x1 PUSH1 0x20 MSTORE DUP1 PUSH0 MSTORE PUSH1 0x40 PUSH0 KECCAK256 PUSH0 SWAP2 POP SLOAD SWAP1 PUSH2 0x100 EXP SWAP1 DIV PUSH1 0xFF AND DUP2 JUMP JUMPDEST PUSH1 0x60 PUSH1 0x3 PUSH1 0x5 DUP2 GT ISZERO PUSH2 0x16A6 JUMPI PUSH2 0x16A5 PUSH2 0x353F JUMP JUMPDEST JUMPDEST PUSH1 0x1 PUSH0 CALLER PUSH20 0xFFFFFFFFFFFFFFFFFFFFFFFFFFFFFFFFFFFFFFFF AND PUSH20 0xFFFFFFFFFFFFFFFFFFFFFFFFFFFFFFFFFFFFFFFF AND DUP2 MSTORE PUSH1 0x20 ADD SWAP1 DUP2 MSTORE PUSH1 0x20 ADD PUSH0 KECCAK256 PUSH0 SWAP1 SLOAD SWAP1 PUSH2 0x100 EXP SWAP1 DIV PUSH1 0xFF AND PUSH1 0x5 DUP2 GT ISZERO PUSH2 0x1702 JUMPI PUSH2 0x1701 PUSH2 0x353F JUMP JUMPDEST JUMPDEST EQ PUSH2 0x1742 JUMPI PUSH1 0x40 MLOAD PUSH32 0x8C379A000000000000000000000000000000000000000000000000000000000 DUP2 MSTORE PUSH1 0x4 ADD PUSH2 0x1739 SWAP1 PUSH2 0x3D44 JUMP JUMPDEST PUSH1 0x40 MLOAD DUP1 SWAP2 SUB SWAP1 REVERT JUMPDEST PUSH2 0x1757 PUSH1 0x64 PUSH1 0xD PUSH2 0x2D0E SWAP1 SWAP2 SWAP1 PUSH4 0xFFFFFFFF AND JUMP JUMPDEST SWAP1 POP SWAP1 JUMP JUMPDEST PUSH1 0x60 PUSH1 0x2 PUSH1 0x5 DUP2 GT ISZERO PUSH2 0x1772 JUMPI PUSH2 0x1771 PUSH2 0x353F JUMP JUMPDEST JUMPDEST PUSH1 0x1 PUSH0 CALLER PUSH20 0xFFFFFFFFFFFFFFFFFFFFFFFFFFFFFFFFFFFFFFFF AND PUSH20 0xFFFFFFFFFFFFFFFFFFFFFFFFFFFFFFFFFFFFFFFF AND DUP2 MSTORE PUSH1 0x20 ADD SWAP1 DUP2 MSTORE PUSH1 0x20 ADD PUSH0 KECCAK256 PUSH0 SWAP1 SLOAD SWAP1 PUSH2 0x100 EXP SWAP1 DIV PUSH1 0xFF AND PUSH1 0x5 DUP2 GT ISZERO PUSH2 0x17CE JUMPI PUSH2 0x17CD PUSH2 0x353F JUMP JUMPDEST JUMPDEST EQ PUSH2 0x180E JUMPI PUSH1 0x40 MLOAD PUSH32 0x8C379A000000000000000000000000000000000000000000000000000000000 DUP2 MSTORE PUSH1 0x4 ADD PUSH2 0x1805 SWAP1 PUSH2 0x3DAC JUMP JUMPDEST PUSH1 0x40 MLOAD DUP1 SWAP2 SUB SWAP1 REVERT JUMPDEST PUSH0 PUSH2 0x1824 PUSH1 0x64 PUSH1 0x5 PUSH2 0x2EC4 SWAP1 SWAP2 SWAP1 PUSH4 0xFFFFFFFF AND JUMP JUMPDEST SWAP1 POP PUSH0 DUP2 MLOAD SWAP1 POP PUSH0 DUP2 PUSH8 0xFFFFFFFFFFFFFFFF DUP2 GT ISZERO PUSH2 0x1846 JUMPI PUSH2 0x1845 PUSH2 0x3045 JUMP JUMPDEST JUMPDEST PUSH1 0x40 MLOAD SWAP1 DUP1 DUP3 MSTORE DUP1 PUSH1 0x20 MUL PUSH1 0x20 ADD DUP3 ADD PUSH1 0x40 MSTORE DUP1 ISZERO PUSH2 0x187F JUMPI DUP2 PUSH1 0x20 ADD JUMPDEST PUSH2 0x186C PUSH2 0x2FC1 JUMP JUMPDEST DUP2 MSTORE PUSH1 0x20 ADD SWAP1 PUSH1 0x1 SWAP1 SUB SWAP1 DUP2 PUSH2 0x1864 JUMPI SWAP1 POP JUMPDEST POP SWAP1 POP PUSH0 JUMPDEST DUP3 DUP2 LT ISZERO PUSH2 0x1B36 JUMPI PUSH1 0x3 PUSH0 DUP6 DUP4 DUP2 MLOAD DUP2 LT PUSH2 0x18A2 JUMPI PUSH2 0x18A1 PUSH2 0x3DCA JUMP JUMPDEST JUMPDEST PUSH1 0x20 MUL PUSH1 0x20 ADD ADD MLOAD DUP2 MSTORE PUSH1 0x20 ADD SWAP1 DUP2 MSTORE PUSH1 0x20 ADD PUSH0 KECCAK256 PUSH1 0x40 MLOAD DUP1 PUSH1 0xC0 ADD PUSH1 0x40 MSTORE SWAP1 DUP2 PUSH0 DUP3 ADD DUP1 SLOAD PUSH2 0x18D1 SWAP1 PUSH2 0x399E JUMP JUMPDEST DUP1 PUSH1 0x1F ADD PUSH1 0x20 DUP1 SWAP2 DIV MUL PUSH1 0x20 ADD PUSH1 0x40 MLOAD SWAP1 DUP2 ADD PUSH1 0x40 MSTORE DUP1 SWAP3 SWAP2 SWAP1 DUP2 DUP2 MSTORE PUSH1 0x20 ADD DUP3 DUP1 SLOAD PUSH2 0x18FD SWAP1 PUSH2 0x399E JUMP JUMPDEST DUP1 ISZERO PUSH2 0x1948 JUMPI DUP1 PUSH1 0x1F LT PUSH2 0x191F JUMPI PUSH2 0x100 DUP1 DUP4 SLOAD DIV MUL DUP4 MSTORE SWAP2 PUSH1 0x20 ADD SWAP2 PUSH2 0x1948 JUMP JUMPDEST DUP3 ADD SWAP2 SWAP1 PUSH0 MSTORE PUSH1 0x20 PUSH0 KECCAK256 SWAP1 JUMPDEST DUP2 SLOAD DUP2 MSTORE SWAP1 PUSH1 0x1 ADD SWAP1 PUSH1 0x20 ADD DUP1 DUP4 GT PUSH2 0x192B JUMPI DUP3 SWAP1 SUB PUSH1 0x1F AND DUP3 ADD SWAP2 JUMPDEST POP POP POP POP POP DUP2 MSTORE PUSH1 0x20 ADD PUSH1 0x1 DUP3 ADD DUP1 SLOAD PUSH2 0x1961 SWAP1 PUSH2 0x399E JUMP JUMPDEST DUP1 PUSH1 0x1F ADD PUSH1 0x20 DUP1 SWAP2 DIV MUL PUSH1 0x20 ADD PUSH1 0x40 MLOAD SWAP1 DUP2 ADD PUSH1 0x40 MSTORE DUP1 SWAP3 SWAP2 SWAP1 DUP2 DUP2 MSTORE PUSH1 0x20 ADD DUP3 DUP1 SLOAD PUSH2 0x198D SWAP1 PUSH2 0x399E JUMP JUMPDEST DUP1 ISZERO PUSH2 0x19D8 JUMPI DUP1 PUSH1 0x1F LT PUSH2 0x19AF JUMPI PUSH2 0x100 DUP1 DUP4 SLOAD DIV MUL DUP4 MSTORE SWAP2 PUSH1 0x20 ADD SWAP2 PUSH2 0x19D8 JUMP JUMPDEST DUP3 ADD SWAP2 SWAP1 PUSH0 MSTORE PUSH1 0x20 PUSH0 KECCAK256 SWAP1 JUMPDEST DUP2 SLOAD DUP2 MSTORE SWAP1 PUSH1 0x1 ADD SWAP1 PUSH1 0x20 ADD DUP1 DUP4 GT PUSH2 0x19BB JUMPI DUP3 SWAP1 SUB PUSH1 0x1F AND DUP3 ADD SWAP2 JUMPDEST POP POP POP POP POP DUP2 MSTORE PUSH1 0x20 ADD PUSH1 0x2 DUP3 ADD PUSH0 SWAP1 SLOAD SWAP1 PUSH2 0x100 EXP SWAP1 DIV PUSH1 0xFF AND PUSH1 0x3 DUP2 GT ISZERO PUSH2 0x1A05 JUMPI PUSH2 0x1A04 PUSH2 0x353F JUMP JUMPDEST JUMPDEST PUSH1 0x3 DUP2 GT ISZERO PUSH2 0x1A17 JUMPI PUSH2 0x1A16 PUSH2 0x353F JUMP JUMPDEST JUMPDEST DUP2 MSTORE PUSH1 0x20 ADD PUSH1 0x2 DUP3 ADD PUSH1 0x1 SWAP1 SLOAD SWAP1 PUSH2 0x100 EXP SWAP1 DIV PUSH20 0xFFFFFFFFFFFFFFFFFFFFFFFFFFFFFFFFFFFFFFFF AND PUSH20 0xFFFFFFFFFFFFFFFFFFFFFFFFFFFFFFFFFFFFFFFF AND PUSH20 0xFFFFFFFFFFFFFFFFFFFFFFFFFFFFFFFFFFFFFFFF AND DUP2 MSTORE PUSH1 0x20 ADD PUSH1 0x3 DUP3 ADD DUP1 SLOAD PUSH2 0x1A81 SWAP1 PUSH2 0x399E JUMP JUMPDEST DUP1 PUSH1 0x1F ADD PUSH1 0x20 DUP1 SWAP2 DIV MUL PUSH1 0x20 ADD PUSH1 0x40 MLOAD SWAP1 DUP2 ADD PUSH1 0x40 MSTORE DUP1 SWAP3 SWAP2 SWAP1 DUP2 DUP2 MSTORE PUSH1 0x20 ADD DUP3 DUP1 SLOAD PUSH2 0x1AAD SWAP1 PUSH2 0x399E JUMP JUMPDEST DUP1 ISZERO PUSH2 0x1AF8 JUMPI DUP1 PUSH1 0x1F LT PUSH2 0x1ACF JUMPI PUSH2 0x100 DUP1 DUP4 SLOAD DIV MUL DUP4 MSTORE SWAP2 PUSH1 0x20 ADD SWAP2 PUSH2 0x1AF8 JUMP JUMPDEST DUP3 ADD SWAP2 SWAP1 PUSH0 MSTORE PUSH1 0x20 PUSH0 KECCAK256 SWAP1 JUMPDEST DUP2 SLOAD DUP2 MSTORE SWAP1 PUSH1 0x1 ADD SWAP1 PUSH1 0x20 ADD DUP1 DUP4 GT PUSH2 0x1ADB JUMPI DUP3 SWAP1 SUB PUSH1 0x1F AND DUP3 ADD SWAP2 JUMPDEST POP POP POP POP POP DUP2 MSTORE PUSH1 0x20 ADD PUSH1 0x4 DUP3 ADD SLOAD DUP2 MSTORE POP POP DUP3 DUP3 DUP2 MLOAD DUP2 LT PUSH2 0x1B1E JUMPI PUSH2 0x1B1D PUSH2 0x3DCA JUMP JUMPDEST JUMPDEST PUSH1 0x20 MUL PUSH1 0x20 ADD ADD DUP2 SWAP1 MSTORE POP DUP1 DUP1 PUSH1 0x1 ADD SWAP2 POP POP PUSH2 0x1884 JUMP JUMPDEST POP DUP1 SWAP4 POP POP POP POP SWAP1 JUMP JUMPDEST PUSH1 0x12 DUP2 DUP2 SLOAD DUP2 LT PUSH2 0x1B4F JUMPI PUSH0 DUP1 REVERT JUMPDEST SWAP1 PUSH0 MSTORE PUSH1 0x20 PUSH0 KECCAK256 ADD PUSH0 SWAP2 POP SWAP1 POP DUP1 PUSH0 ADD PUSH0 SWAP1 SLOAD SWAP1 PUSH2 0x100 EXP SWAP1 DIV PUSH20 0xFFFFFFFFFFFFFFFFFFFFFFFFFFFFFFFFFFFFFFFF AND SWAP1 POP DUP2 JUMP JUMPDEST PUSH1 0x60 PUSH1 0x3 PUSH1 0x5 DUP2 GT ISZERO PUSH2 0x1B9A JUMPI PUSH2 0x1B99 PUSH2 0x353F JUMP JUMPDEST JUMPDEST PUSH1 0x1 PUSH0 CALLER PUSH20 0xFFFFFFFFFFFFFFFFFFFFFFFFFFFFFFFFFFFFFFFF AND PUSH20 0xFFFFFFFFFFFFFFFFFFFFFFFFFFFFFFFFFFFFFFFF AND DUP2 MSTORE PUSH1 0x20 ADD SWAP1 DUP2 MSTORE PUSH1 0x20 ADD PUSH0 KECCAK256 PUSH0 SWAP1 SLOAD SWAP1 PUSH2 0x100 EXP SWAP1 DIV PUSH1 0xFF AND PUSH1 0x5 DUP2 GT ISZERO PUSH2 0x1BF6 JUMPI PUSH2 0x1BF5 PUSH2 0x353F JUMP JUMPDEST JUMPDEST EQ PUSH2 0x1C36 JUMPI PUSH1 0x40 MLOAD PUSH32 0x8C379A000000000000000000000000000000000000000000000000000000000 DUP2 MSTORE PUSH1 0x4 ADD PUSH2 0x1C2D SWAP1 PUSH2 0x3D44 JUMP JUMPDEST PUSH1 0x40 MLOAD DUP1 SWAP2 SUB SWAP1 REVERT JUMPDEST PUSH0 PUSH2 0x1C4C PUSH1 0x64 PUSH1 0x9 PUSH2 0x2EC4 SWAP1 SWAP2 SWAP1 PUSH4 0xFFFFFFFF AND JUMP JUMPDEST SWAP1 POP PUSH0 DUP2 MLOAD SWAP1 POP PUSH0 DUP2 PUSH8 0xFFFFFFFFFFFFFFFF DUP2 GT ISZERO PUSH2 0x1C6E JUMPI PUSH2 0x1C6D PUSH2 0x3045 JUMP JUMPDEST JUMPDEST PUSH1 0x40 MLOAD SWAP1 DUP1 DUP3 MSTORE DUP1 PUSH1 0x20 MUL PUSH1 0x20 ADD DUP3 ADD PUSH1 0x40 MSTORE DUP1 ISZERO PUSH2 0x1CA7 JUMPI DUP2 PUSH1 0x20 ADD JUMPDEST PUSH2 0x1C94 PUSH2 0x2FC1 JUMP JUMPDEST DUP2 MSTORE PUSH1 0x20 ADD SWAP1 PUSH1 0x1 SWAP1 SUB SWAP1 DUP2 PUSH2 0x1C8C JUMPI SWAP1 POP JUMPDEST POP SWAP1 POP PUSH0 JUMPDEST DUP3 DUP2 LT ISZERO PUSH2 0x1F5E JUMPI PUSH1 0x3 PUSH0 DUP6 DUP4 DUP2 MLOAD DUP2 LT PUSH2 0x1CCA JUMPI PUSH2 0x1CC9 PUSH2 0x3DCA JUMP JUMPDEST JUMPDEST PUSH1 0x20 MUL PUSH1 0x20 ADD ADD MLOAD DUP2 MSTORE PUSH1 0x20 ADD SWAP1 DUP2 MSTORE PUSH1 0x20 ADD PUSH0 KECCAK256 PUSH1 0x40 MLOAD DUP1 PUSH1 0xC0 ADD PUSH1 0x40 MSTORE SWAP1 DUP2 PUSH0 DUP3 ADD DUP1 SLOAD PUSH2 0x1CF9 SWAP1 PUSH2 0x399E JUMP JUMPDEST DUP1 PUSH1 0x1F ADD PUSH1 0x20 DUP1 SWAP2 DIV MUL PUSH1 0x20 ADD PUSH1 0x40 MLOAD SWAP1 DUP2 ADD PUSH1 0x40 MSTORE DUP1 SWAP3 SWAP2 SWAP1 DUP2 DUP2 MSTORE PUSH1 0x20 ADD DUP3 DUP1 SLOAD PUSH2 0x1D25 SWAP1 PUSH2 0x399E JUMP JUMPDEST DUP1 ISZERO PUSH2 0x1D70 JUMPI DUP1 PUSH1 0x1F LT PUSH2 0x1D47 JUMPI PUSH2 0x100 DUP1 DUP4 SLOAD DIV MUL DUP4 MSTORE SWAP2 PUSH1 0x20 ADD SWAP2 PUSH2 0x1D70 JUMP JUMPDEST DUP3 ADD SWAP2 SWAP1 PUSH0 MSTORE PUSH1 0x20 PUSH0 KECCAK256 SWAP1 JUMPDEST DUP2 SLOAD DUP2 MSTORE SWAP1 PUSH1 0x1 ADD SWAP1 PUSH1 0x20 ADD DUP1 DUP4 GT PUSH2 0x1D53 JUMPI DUP3 SWAP1 SUB PUSH1 0x1F AND DUP3 ADD SWAP2 JUMPDEST POP POP POP POP POP DUP2 MSTORE PUSH1 0x20 ADD PUSH1 0x1 DUP3 ADD DUP1 SLOAD PUSH2 0x1D89 SWAP1 PUSH2 0x399E JUMP JUMPDEST DUP1 PUSH1 0x1F ADD PUSH1 0x20 DUP1 SWAP2 DIV MUL PUSH1 0x20 ADD PUSH1 0x40 MLOAD SWAP1 DUP2 ADD PUSH1 0x40 MSTORE DUP1 SWAP3 SWAP2 SWAP1 DUP2 DUP2 MSTORE PUSH1 0x20 ADD DUP3 DUP1 SLOAD PUSH2 0x1DB5 SWAP1 PUSH2 0x399E JUMP JUMPDEST DUP1 ISZERO PUSH2 0x1E00 JUMPI DUP1 PUSH1 0x1F LT PUSH2 0x1DD7 JUMPI PUSH2 0x100 DUP1 DUP4 SLOAD DIV MUL DUP4 MSTORE SWAP2 PUSH1 0x20 ADD SWAP2 PUSH2 0x1E00 JUMP JUMPDEST DUP3 ADD SWAP2 SWAP1 PUSH0 MSTORE PUSH1 0x20 PUSH0 KECCAK256 SWAP1 JUMPDEST DUP2 SLOAD DUP2 MSTORE SWAP1 PUSH1 0x1 ADD SWAP1 PUSH1 0x20 ADD DUP1 DUP4 GT PUSH2 0x1DE3 JUMPI DUP3 SWAP1 SUB PUSH1 0x1F AND DUP3 ADD SWAP2 JUMPDEST POP POP POP POP POP DUP2 MSTORE PUSH1 0x20 ADD PUSH1 0x2 DUP3 ADD PUSH0 SWAP1 SLOAD SWAP1 PUSH2 0x100 EXP SWAP1 DIV PUSH1 0xFF AND PUSH1 0x3 DUP2 GT ISZERO PUSH2 0x1E2D JUMPI PUSH2 0x1E2C PUSH2 0x353F JUMP JUMPDEST JUMPDEST PUSH1 0x3 DUP2 GT ISZERO PUSH2 0x1E3F JUMPI PUSH2 0x1E3E PUSH2 0x353F JUMP JUMPDEST JUMPDEST DUP2 MSTORE PUSH1 0x20 ADD PUSH1 0x2 DUP3 ADD PUSH1 0x1 SWAP1 SLOAD SWAP1 PUSH2 0x100 EXP SWAP1 DIV PUSH20 0xFFFFFFFFFFFFFFFFFFFFFFFFFFFFFFFFFFFFFFFF AND PUSH20 0xFFFFFFFFFFFFFFFFFFFFFFFFFFFFFFFFFFFFFFFF AND PUSH20 0xFFFFFFFFFFFFFFFFFFFFFFFFFFFFFFFFFFFFFFFF AND DUP2 MSTORE PUSH1 0x20 ADD PUSH1 0x3 DUP3 ADD DUP1 SLOAD PUSH2 0x1EA9 SWAP1 PUSH2 0x399E JUMP JUMPDEST DUP1 PUSH1 0x1F ADD PUSH1 0x20 DUP1 SWAP2 DIV MUL PUSH1 0x20 ADD PUSH1 0x40 MLOAD SWAP1 DUP2 ADD PUSH1 0x40 MSTORE DUP1 SWAP3 SWAP2 SWAP1 DUP2 DUP2 MSTORE PUSH1 0x20 ADD DUP3 DUP1 SLOAD PUSH2 0x1ED5 SWAP1 PUSH2 0x399E JUMP JUMPDEST DUP1 ISZERO PUSH2 0x1F20 JUMPI DUP1 PUSH1 0x1F LT PUSH2 0x1EF7 JUMPI PUSH2 0x100 DUP1 DUP4 SLOAD DIV MUL DUP4 MSTORE SWAP2 PUSH1 0x20 ADD SWAP2 PUSH2 0x1F20 JUMP JUMPDEST DUP3 ADD SWAP2 SWAP1 PUSH0 MSTORE PUSH1 0x20 PUSH0 KECCAK256 SWAP1 JUMPDEST DUP2 SLOAD DUP2 MSTORE SWAP1 PUSH1 0x1 ADD SWAP1 PUSH1 0x20 ADD DUP1 DUP4 GT PUSH2 0x1F03 JUMPI DUP3 SWAP1 SUB PUSH1 0x1F AND DUP3 ADD SWAP2 JUMPDEST POP POP POP POP POP DUP2 MSTORE PUSH1 0x20 ADD PUSH1 0x4 DUP3 ADD SLOAD DUP2 MSTORE POP POP DUP3 DUP3 DUP2 MLOAD DUP2 LT PUSH2 0x1F46 JUMPI PUSH2 0x1F45 PUSH2 0x3DCA JUMP JUMPDEST JUMPDEST PUSH1 0x20 MUL PUSH1 0x20 ADD ADD DUP2 SWAP1 MSTORE POP DUP1 DUP1 PUSH1 0x1 ADD SWAP2 POP POP PUSH2 0x1CAC JUMP JUMPDEST POP DUP1 SWAP4 POP POP POP POP SWAP1 JUMP JUMPDEST PUSH0 PUSH1 0x1 PUSH0 CALLER PUSH20 0xFFFFFFFFFFFFFFFFFFFFFFFFFFFFFFFFFFFFFFFF AND PUSH20 0xFFFFFFFFFFFFFFFFFFFFFFFFFFFFFFFFFFFFFFFF AND DUP2 MSTORE PUSH1 0x20 ADD SWAP1 DUP2 MSTORE PUSH1 0x20 ADD PUSH0 KECCAK256 PUSH0 SWAP1 SLOAD SWAP1 PUSH2 0x100 EXP SWAP1 DIV PUSH1 0xFF AND PUSH1 0x5 DUP2 GT ISZERO PUSH2 0x1FC5 JUMPI PUSH2 0x1FC4 PUSH2 0x353F JUMP JUMPDEST JUMPDEST SWAP1 POP SWAP1 JUMP JUMPDEST PUSH0 DUP2 PUSH1 0x40 MLOAD PUSH1 0x20 ADD PUSH2 0x1FDC SWAP2 SWAP1 PUSH2 0x395B JUMP JUMPDEST PUSH1 0x40 MLOAD PUSH1 0x20 DUP2 DUP4 SUB SUB DUP2 MSTORE SWAP1 PUSH1 0x40 MSTORE DUP1 MLOAD SWAP1 PUSH1 0x20 ADD KECCAK256 SWAP1 POP PUSH0 DUP1 SHL DUP4 PUSH1 0x2 ADD SLOAD SUB PUSH2 0x203B JUMPI PUSH0 DUP1 SHL DUP4 PUSH0 ADD PUSH0 DUP4 DUP2 MSTORE PUSH1 0x20 ADD SWAP1 DUP2 MSTORE PUSH1 0x20 ADD PUSH0 KECCAK256 DUP2 SWAP1 SSTORE POP DUP1 DUP4 PUSH1 0x1 ADD DUP2 SWAP1 SSTORE POP DUP1 DUP4 PUSH1 0x2 ADD DUP2 SWAP1 SSTORE POP PUSH1 0x1 DUP4 PUSH1 0x3 ADD DUP2 SWAP1 SSTORE POP PUSH2 0x2092 JUMP JUMPDEST DUP1 DUP4 PUSH0 ADD PUSH0 DUP6 PUSH1 0x2 ADD SLOAD DUP2 MSTORE PUSH1 0x20 ADD SWAP1 DUP2 MSTORE PUSH1 0x20 ADD PUSH0 KECCAK256 DUP2 SWAP1 SSTORE POP PUSH0 DUP1 SHL DUP4 PUSH0 ADD PUSH0 DUP4 DUP2 MSTORE PUSH1 0x20 ADD SWAP1 DUP2 MSTORE PUSH1 0x20 ADD PUSH0 KECCAK256 DUP2 SWAP1 SSTORE POP DUP1 DUP4 PUSH1 0x2 ADD DUP2 SWAP1 SSTORE POP DUP3 PUSH1 0x3 ADD PUSH0 DUP2 SLOAD DUP1 SWAP3 SWAP2 SWAP1 PUSH2 0x208C SWAP1 PUSH2 0x3E24 JUMP JUMPDEST SWAP2 SWAP1 POP SSTORE POP JUMPDEST POP POP POP JUMP JUMPDEST PUSH0 DUP1 PUSH20 0xFFFFFFFFFFFFFFFFFFFFFFFFFFFFFFFFFFFFFFFF AND DUP4 PUSH0 ADD PUSH0 DUP5 PUSH20 0xFFFFFFFFFFFFFFFFFFFFFFFFFFFFFFFFFFFFFFFF AND PUSH20 0xFFFFFFFFFFFFFFFFFFFFFFFFFFFFFFFFFFFFFFFF AND DUP2 MSTORE PUSH1 0x20 ADD SWAP1 DUP2 MSTORE PUSH1 0x20 ADD PUSH0 KECCAK256 PUSH0 SWAP1 SLOAD SWAP1 PUSH2 0x100 EXP SWAP1 DIV PUSH20 0xFFFFFFFFFFFFFFFFFFFFFFFFFFFFFFFFFFFFFFFF AND PUSH20 0xFFFFFFFFFFFFFFFFFFFFFFFFFFFFFFFFFFFFFFFF AND EQ PUSH2 0x212F JUMPI PUSH1 0x1 PUSH2 0x2182 JUMP JUMPDEST DUP2 PUSH20 0xFFFFFFFFFFFFFFFFFFFFFFFFFFFFFFFFFFFFFFFF AND DUP4 PUSH1 0x3 ADD PUSH0 SWAP1 SLOAD SWAP1 PUSH2 0x100 EXP SWAP1 DIV PUSH20 0xFFFFFFFFFFFFFFFFFFFFFFFFFFFFFFFFFFFFFFFF AND PUSH20 0xFFFFFFFFFFFFFFFFFFFFFFFFFFFFFFFFFFFFFFFF AND EQ JUMPDEST SWAP1 POP SWAP3 SWAP2 POP POP JUMP JUMPDEST PUSH0 PUSH20 0xFFFFFFFFFFFFFFFFFFFFFFFFFFFFFFFFFFFFFFFF AND DUP3 PUSH1 0x2 ADD PUSH0 SWAP1 SLOAD SWAP1 PUSH2 0x100 EXP SWAP1 DIV PUSH20 0xFFFFFFFFFFFFFFFFFFFFFFFFFFFFFFFFFFFFFFFF AND PUSH20 0xFFFFFFFFFFFFFFFFFFFFFFFFFFFFFFFFFFFFFFFF AND SUB PUSH2 0x221B JUMPI PUSH1 0x40 MLOAD PUSH32 0x8C379A000000000000000000000000000000000000000000000000000000000 DUP2 MSTORE PUSH1 0x4 ADD PUSH2 0x2212 SWAP1 PUSH2 0x3EB5 JUMP JUMPDEST PUSH1 0x40 MLOAD DUP1 SWAP2 SUB SWAP1 REVERT JUMPDEST DUP1 PUSH20 0xFFFFFFFFFFFFFFFFFFFFFFFFFFFFFFFFFFFFFFFF AND DUP3 PUSH1 0x2 ADD PUSH0 SWAP1 SLOAD SWAP1 PUSH2 0x100 EXP SWAP1 DIV PUSH20 0xFFFFFFFFFFFFFFFFFFFFFFFFFFFFFFFFFFFFFFFF AND PUSH20 0xFFFFFFFFFFFFFFFFFFFFFFFFFFFFFFFFFFFFFFFF AND SUB PUSH2 0x2338 JUMPI DUP2 PUSH0 ADD PUSH0 DUP4 PUSH1 0x2 ADD PUSH0 SWAP1 SLOAD SWAP1 PUSH2 0x100 EXP SWAP1 DIV PUSH20 0xFFFFFFFFFFFFFFFFFFFFFFFFFFFFFFFFFFFFFFFF AND PUSH20 0xFFFFFFFFFFFFFFFFFFFFFFFFFFFFFFFFFFFFFFFF AND PUSH20 0xFFFFFFFFFFFFFFFFFFFFFFFFFFFFFFFFFFFFFFFF AND DUP2 MSTORE PUSH1 0x20 ADD SWAP1 DUP2 MSTORE PUSH1 0x20 ADD PUSH0 KECCAK256 PUSH0 SWAP1 SLOAD SWAP1 PUSH2 0x100 EXP SWAP1 DIV PUSH20 0xFFFFFFFFFFFFFFFFFFFFFFFFFFFFFFFFFFFFFFFF AND DUP3 PUSH1 0x2 ADD PUSH0 PUSH2 0x100 EXP DUP2 SLOAD DUP2 PUSH20 0xFFFFFFFFFFFFFFFFFFFFFFFFFFFFFFFFFFFFFFFF MUL NOT AND SWAP1 DUP4 PUSH20 0xFFFFFFFFFFFFFFFFFFFFFFFFFFFFFFFFFFFFFFFF AND MUL OR SWAP1 SSTORE POP PUSH2 0x26CE JUMP JUMPDEST PUSH0 DUP3 PUSH1 0x2 ADD PUSH0 SWAP1 SLOAD SWAP1 PUSH2 0x100 EXP SWAP1 DIV PUSH20 0xFFFFFFFFFFFFFFFFFFFFFFFFFFFFFFFFFFFFFFFF AND SWAP1 POP JUMPDEST PUSH0 PUSH20 0xFFFFFFFFFFFFFFFFFFFFFFFFFFFFFFFFFFFFFFFF AND DUP2 PUSH20 0xFFFFFFFFFFFFFFFFFFFFFFFFFFFFFFFFFFFFFFFF AND EQ ISZERO DUP1 ISZERO PUSH2 0x2425 JUMPI POP DUP2 PUSH20 0xFFFFFFFFFFFFFFFFFFFFFFFFFFFFFFFFFFFFFFFF AND DUP4 PUSH0 ADD PUSH0 DUP4 PUSH20 0xFFFFFFFFFFFFFFFFFFFFFFFFFFFFFFFFFFFFFFFF AND PUSH20 0xFFFFFFFFFFFFFFFFFFFFFFFFFFFFFFFFFFFFFFFF AND DUP2 MSTORE PUSH1 0x20 ADD SWAP1 DUP2 MSTORE PUSH1 0x20 ADD PUSH0 KECCAK256 PUSH0 SWAP1 SLOAD SWAP1 PUSH2 0x100 EXP SWAP1 DIV PUSH20 0xFFFFFFFFFFFFFFFFFFFFFFFFFFFFFFFFFFFFFFFF AND PUSH20 0xFFFFFFFFFFFFFFFFFFFFFFFFFFFFFFFFFFFFFFFF AND EQ ISZERO JUMPDEST ISZERO PUSH2 0x248F JUMPI DUP3 PUSH0 ADD PUSH0 DUP3 PUSH20 0xFFFFFFFFFFFFFFFFFFFFFFFFFFFFFFFFFFFFFFFF AND PUSH20 0xFFFFFFFFFFFFFFFFFFFFFFFFFFFFFFFFFFFFFFFF AND DUP2 MSTORE PUSH1 0x20 ADD SWAP1 DUP2 MSTORE PUSH1 0x20 ADD PUSH0 KECCAK256 PUSH0 SWAP1 SLOAD SWAP1 PUSH2 0x100 EXP SWAP1 DIV PUSH20 0xFFFFFFFFFFFFFFFFFFFFFFFFFFFFFFFFFFFFFFFF AND SWAP1 POP PUSH2 0x2360 JUMP JUMPDEST PUSH0 PUSH20 0xFFFFFFFFFFFFFFFFFFFFFFFFFFFFFFFFFFFFFFFF AND DUP2 PUSH20 0xFFFFFFFFFFFFFFFFFFFFFFFFFFFFFFFFFFFFFFFF AND SUB PUSH2 0x24FD JUMPI PUSH1 0x40 MLOAD PUSH32 0x8C379A000000000000000000000000000000000000000000000000000000000 DUP2 MSTORE PUSH1 0x4 ADD PUSH2 0x24F4 SWAP1 PUSH2 0x3F43 JUMP JUMPDEST PUSH1 0x40 MLOAD DUP1 SWAP2 SUB SWAP1 REVERT JUMPDEST DUP3 PUSH0 ADD PUSH0 DUP5 PUSH0 ADD PUSH0 DUP5 PUSH20 0xFFFFFFFFFFFFFFFFFFFFFFFFFFFFFFFFFFFFFFFF AND PUSH20 0xFFFFFFFFFFFFFFFFFFFFFFFFFFFFFFFFFFFFFFFF AND DUP2 MSTORE PUSH1 0x20 ADD SWAP1 DUP2 MSTORE PUSH1 0x20 ADD PUSH0 KECCAK256 PUSH0 SWAP1 SLOAD SWAP1 PUSH2 0x100 EXP SWAP1 DIV PUSH20 0xFFFFFFFFFFFFFFFFFFFFFFFFFFFFFFFFFFFFFFFF AND PUSH20 0xFFFFFFFFFFFFFFFFFFFFFFFFFFFFFFFFFFFFFFFF AND PUSH20 0xFFFFFFFFFFFFFFFFFFFFFFFFFFFFFFFFFFFFFFFF AND DUP2 MSTORE PUSH1 0x20 ADD SWAP1 DUP2 MSTORE PUSH1 0x20 ADD PUSH0 KECCAK256 PUSH0 SWAP1 SLOAD SWAP1 PUSH2 0x100 EXP SWAP1 DIV PUSH20 0xFFFFFFFFFFFFFFFFFFFFFFFFFFFFFFFFFFFFFFFF AND DUP4 PUSH0 ADD PUSH0 DUP4 PUSH20 0xFFFFFFFFFFFFFFFFFFFFFFFFFFFFFFFFFFFFFFFF AND PUSH20 0xFFFFFFFFFFFFFFFFFFFFFFFFFFFFFFFFFFFFFFFF AND DUP2 MSTORE PUSH1 0x20 ADD SWAP1 DUP2 MSTORE PUSH1 0x20 ADD PUSH0 KECCAK256 PUSH0 PUSH2 0x100 EXP DUP2 SLOAD DUP2 PUSH20 0xFFFFFFFFFFFFFFFFFFFFFFFFFFFFFFFFFFFFFFFF MUL NOT AND SWAP1 DUP4 PUSH20 0xFFFFFFFFFFFFFFFFFFFFFFFFFFFFFFFFFFFFFFFF AND MUL OR SWAP1 SSTORE POP DUP2 PUSH20 0xFFFFFFFFFFFFFFFFFFFFFFFFFFFFFFFFFFFFFFFF AND DUP4 PUSH1 0x3 ADD PUSH0 SWAP1 SLOAD SWAP1 PUSH2 0x100 EXP SWAP1 DIV PUSH20 0xFFFFFFFFFFFFFFFFFFFFFFFFFFFFFFFFFFFFFFFF AND PUSH20 0xFFFFFFFFFFFFFFFFFFFFFFFFFFFFFFFFFFFFFFFF AND SUB PUSH2 0x26CC JUMPI PUSH0 DUP4 PUSH1 0x3 ADD PUSH0 PUSH2 0x100 EXP DUP2 SLOAD DUP2 PUSH20 0xFFFFFFFFFFFFFFFFFFFFFFFFFFFFFFFFFFFFFFFF MUL NOT AND SWAP1 DUP4 PUSH20 0xFFFFFFFFFFFFFFFFFFFFFFFFFFFFFFFFFFFFFFFF AND MUL OR SWAP1 SSTORE POP JUMPDEST POP JUMPDEST DUP2 PUSH1 0x4 ADD PUSH0 DUP2 SLOAD DUP1 SWAP3 SWAP2 SWAP1 PUSH2 0x26E2 SWAP1 PUSH2 0x3F61 JUMP JUMPDEST SWAP2 SWAP1 POP SSTORE POP PUSH0 PUSH20 0xFFFFFFFFFFFFFFFFFFFFFFFFFFFFFFFFFFFFFFFF AND DUP3 PUSH1 0x2 ADD PUSH0 SWAP1 SLOAD SWAP1 PUSH2 0x100 EXP SWAP1 DIV PUSH20 0xFFFFFFFFFFFFFFFFFFFFFFFFFFFFFFFFFFFFFFFF AND PUSH20 0xFFFFFFFFFFFFFFFFFFFFFFFFFFFFFFFFFFFFFFFF AND SUB PUSH2 0x2789 JUMPI PUSH0 DUP3 PUSH1 0x3 ADD PUSH0 PUSH2 0x100 EXP DUP2 SLOAD DUP2 PUSH20 0xFFFFFFFFFFFFFFFFFFFFFFFFFFFFFFFFFFFFFFFF MUL NOT AND SWAP1 DUP4 PUSH20 0xFFFFFFFFFFFFFFFFFFFFFFFFFFFFFFFFFFFFFFFF AND MUL OR SWAP1 SSTORE POP PUSH0 DUP3 PUSH1 0x4 ADD DUP2 SWAP1 SSTORE POP JUMPDEST DUP2 PUSH0 ADD PUSH0 DUP3 PUSH20 0xFFFFFFFFFFFFFFFFFFFFFFFFFFFFFFFFFFFFFFFF AND PUSH20 0xFFFFFFFFFFFFFFFFFFFFFFFFFFFFFFFFFFFFFFFF AND DUP2 MSTORE PUSH1 0x20 ADD SWAP1 DUP2 MSTORE PUSH1 0x20 ADD PUSH0 KECCAK256 PUSH0 PUSH2 0x100 EXP DUP2 SLOAD SWAP1 PUSH20 0xFFFFFFFFFFFFFFFFFFFFFFFFFFFFFFFFFFFFFFFF MUL NOT AND SWAP1 SSTORE DUP2 PUSH1 0x1 ADD PUSH0 DUP3 PUSH20 0xFFFFFFFFFFFFFFFFFFFFFFFFFFFFFFFFFFFFFFFF AND PUSH20 0xFFFFFFFFFFFFFFFFFFFFFFFFFFFFFFFFFFFFFFFF AND DUP2 MSTORE PUSH1 0x20 ADD SWAP1 DUP2 MSTORE PUSH1 0x20 ADD PUSH0 KECCAK256 PUSH0 DUP1 DUP3 ADD PUSH0 PUSH2 0x100 EXP DUP2 SLOAD SWAP1 PUSH20 0xFFFFFFFFFFFFFFFFFFFFFFFFFFFFFFFFFFFFFFFF MUL NOT AND SWAP1 SSTORE POP POP POP POP JUMP JUMPDEST PUSH0 PUSH20 0xFFFFFFFFFFFFFFFFFFFFFFFFFFFFFFFFFFFFFFFF AND DUP3 PUSH1 0x3 ADD PUSH0 SWAP1 SLOAD SWAP1 PUSH2 0x100 EXP SWAP1 DIV PUSH20 0xFFFFFFFFFFFFFFFFFFFFFFFFFFFFFFFFFFFFFFFF AND PUSH20 0xFFFFFFFFFFFFFFFFFFFFFFFFFFFFFFFFFFFFFFFF AND SUB PUSH2 0x29B9 JUMPI PUSH0 DUP3 PUSH0 ADD PUSH0 DUP4 PUSH20 0xFFFFFFFFFFFFFFFFFFFFFFFFFFFFFFFFFFFFFFFF AND PUSH20 0xFFFFFFFFFFFFFFFFFFFFFFFFFFFFFFFFFFFFFFFF AND DUP2 MSTORE PUSH1 0x20 ADD SWAP1 DUP2 MSTORE PUSH1 0x20 ADD PUSH0 KECCAK256 PUSH0 PUSH2 0x100 EXP DUP2 SLOAD DUP2 PUSH20 0xFFFFFFFFFFFFFFFFFFFFFFFFFFFFFFFFFFFFFFFF MUL NOT AND SWAP1 DUP4 PUSH20 0xFFFFFFFFFFFFFFFFFFFFFFFFFFFFFFFFFFFFFFFF AND MUL OR SWAP1 SSTORE POP DUP1 DUP3 PUSH1 0x2 ADD PUSH0 PUSH2 0x100 EXP DUP2 SLOAD DUP2 PUSH20 0xFFFFFFFFFFFFFFFFFFFFFFFFFFFFFFFFFFFFFFFF MUL NOT AND SWAP1 DUP4 PUSH20 0xFFFFFFFFFFFFFFFFFFFFFFFFFFFFFFFFFFFFFFFF AND MUL OR SWAP1 SSTORE POP DUP1 DUP3 PUSH1 0x3 ADD PUSH0 PUSH2 0x100 EXP DUP2 SLOAD DUP2 PUSH20 0xFFFFFFFFFFFFFFFFFFFFFFFFFFFFFFFFFFFFFFFF MUL NOT AND SWAP1 DUP4 PUSH20 0xFFFFFFFFFFFFFFFFFFFFFFFFFFFFFFFFFFFFFFFF AND MUL OR SWAP1 SSTORE POP PUSH1 0x1 DUP3 PUSH1 0x4 ADD DUP2 SWAP1 SSTORE POP PUSH2 0x2B30 JUMP JUMPDEST DUP1 DUP3 PUSH0 ADD PUSH0 DUP5 PUSH1 0x3 ADD PUSH0 SWAP1 SLOAD SWAP1 PUSH2 0x100 EXP SWAP1 DIV PUSH20 0xFFFFFFFFFFFFFFFFFFFFFFFFFFFFFFFFFFFFFFFF AND PUSH20 0xFFFFFFFFFFFFFFFFFFFFFFFFFFFFFFFFFFFFFFFF AND PUSH20 0xFFFFFFFFFFFFFFFFFFFFFFFFFFFFFFFFFFFFFFFF AND DUP2 MSTORE PUSH1 0x20 ADD SWAP1 DUP2 MSTORE PUSH1 0x20 ADD PUSH0 KECCAK256 PUSH0 PUSH2 0x100 EXP DUP2 SLOAD DUP2 PUSH20 0xFFFFFFFFFFFFFFFFFFFFFFFFFFFFFFFFFFFFFFFF MUL NOT AND SWAP1 DUP4 PUSH20 0xFFFFFFFFFFFFFFFFFFFFFFFFFFFFFFFFFFFFFFFF AND MUL OR SWAP1 SSTORE POP PUSH0 DUP3 PUSH0 ADD PUSH0 DUP4 PUSH20 0xFFFFFFFFFFFFFFFFFFFFFFFFFFFFFFFFFFFFFFFF AND PUSH20 0xFFFFFFFFFFFFFFFFFFFFFFFFFFFFFFFFFFFFFFFF AND DUP2 MSTORE PUSH1 0x20 ADD SWAP1 DUP2 MSTORE PUSH1 0x20 ADD PUSH0 KECCAK256 PUSH0 PUSH2 0x100 EXP DUP2 SLOAD DUP2 PUSH20 0xFFFFFFFFFFFFFFFFFFFFFFFFFFFFFFFFFFFFFFFF MUL NOT AND SWAP1 DUP4 PUSH20 0xFFFFFFFFFFFFFFFFFFFFFFFFFFFFFFFFFFFFFFFF AND MUL OR SWAP1 SSTORE POP DUP1 DUP3 PUSH1 0x3 ADD PUSH0 PUSH2 0x100 EXP DUP2 SLOAD DUP2 PUSH20 0xFFFFFFFFFFFFFFFFFFFFFFFFFFFFFFFFFFFFFFFF MUL NOT AND SWAP1 DUP4 PUSH20 0xFFFFFFFFFFFFFFFFFFFFFFFFFFFFFFFFFFFFFFFF AND MUL OR SWAP1 SSTORE POP DUP2 PUSH1 0x4 ADD PUSH0 DUP2 SLOAD DUP1 SWAP3 SWAP2 SWAP1 PUSH2 0x2B2A SWAP1 PUSH2 0x3E24 JUMP JUMPDEST SWAP2 SWAP1 POP SSTORE POP JUMPDEST POP POP JUMP JUMPDEST PUSH0 DUP1 SHL DUP3 PUSH1 0x1 ADD SLOAD SUB PUSH2 0x2B7C JUMPI PUSH1 0x40 MLOAD PUSH32 0x8C379A000000000000000000000000000000000000000000000000000000000 DUP2 MSTORE PUSH1 0x4 ADD PUSH2 0x2B73 SWAP1 PUSH2 0x3EB5 JUMP JUMPDEST PUSH1 0x40 MLOAD DUP1 SWAP2 SUB SWAP1 REVERT JUMPDEST PUSH0 DUP2 PUSH1 0x40 MLOAD PUSH1 0x20 ADD PUSH2 0x2B8E SWAP2 SWAP1 PUSH2 0x395B JUMP JUMPDEST PUSH1 0x40 MLOAD PUSH1 0x20 DUP2 DUP4 SUB SUB DUP2 MSTORE SWAP1 PUSH1 0x40 MSTORE DUP1 MLOAD SWAP1 PUSH1 0x20 ADD KECCAK256 SWAP1 POP DUP1 DUP4 PUSH1 0x1 ADD SLOAD SUB PUSH2 0x2BD5 JUMPI DUP3 PUSH0 ADD PUSH0 DUP5 PUSH1 0x1 ADD SLOAD DUP2 MSTORE PUSH1 0x20 ADD SWAP1 DUP2 MSTORE PUSH1 0x20 ADD PUSH0 KECCAK256 SLOAD DUP4 PUSH1 0x1 ADD DUP2 SWAP1 SSTORE POP PUSH2 0x2CB9 JUMP JUMPDEST PUSH0 DUP4 PUSH1 0x1 ADD SLOAD SWAP1 POP JUMPDEST PUSH0 DUP1 SHL DUP2 EQ ISZERO DUP1 ISZERO PUSH2 0x2C02 JUMPI POP DUP2 DUP5 PUSH0 ADD PUSH0 DUP4 DUP2 MSTORE PUSH1 0x20 ADD SWAP1 DUP2 MSTORE PUSH1 0x20 ADD PUSH0 KECCAK256 SLOAD EQ ISZERO JUMPDEST ISZERO PUSH2 0x2C21 JUMPI DUP4 PUSH0 ADD PUSH0 DUP3 DUP2 MSTORE PUSH1 0x20 ADD SWAP1 DUP2 MSTORE PUSH1 0x20 ADD PUSH0 KECCAK256 SLOAD SWAP1 POP PUSH2 0x2BDE JUMP JUMPDEST PUSH0 DUP1 SHL DUP2 SUB PUSH2 0x2C65 JUMPI PUSH1 0x40 MLOAD PUSH32 0x8C379A000000000000000000000000000000000000000000000000000000000 DUP2 MSTORE PUSH1 0x4 ADD PUSH2 0x2C5C SWAP1 PUSH2 0x3FF8 JUMP JUMPDEST PUSH1 0x40 MLOAD DUP1 SWAP2 SUB SWAP1 REVERT JUMPDEST DUP4 PUSH0 ADD PUSH0 DUP6 PUSH0 ADD PUSH0 DUP5 DUP2 MSTORE PUSH1 0x20 ADD SWAP1 DUP2 MSTORE PUSH1 0x20 ADD PUSH0 KECCAK256 SLOAD DUP2 MSTORE PUSH1 0x20 ADD SWAP1 DUP2 MSTORE PUSH1 0x20 ADD PUSH0 KECCAK256 SLOAD DUP5 PUSH0 ADD PUSH0 DUP4 DUP2 MSTORE PUSH1 0x20 ADD SWAP1 DUP2 MSTORE PUSH1 0x20 ADD PUSH0 KECCAK256 DUP2 SWAP1 SSTORE POP DUP2 DUP5 PUSH1 0x2 ADD SLOAD SUB PUSH2 0x2CB7 JUMPI PUSH0 DUP1 SHL DUP5 PUSH1 0x2 ADD DUP2 SWAP1 SSTORE POP JUMPDEST POP JUMPDEST DUP3 PUSH1 0x3 ADD PUSH0 DUP2 SLOAD DUP1 SWAP3 SWAP2 SWAP1 PUSH2 0x2CCD SWAP1 PUSH2 0x3F61 JUMP JUMPDEST SWAP2 SWAP1 POP SSTORE POP PUSH0 DUP1 SHL DUP4 PUSH1 0x1 ADD SLOAD SUB PUSH2 0x2CF4 JUMPI PUSH0 DUP1 SHL DUP4 PUSH1 0x2 ADD DUP2 SWAP1 SSTORE POP PUSH0 DUP4 PUSH1 0x3 ADD DUP2 SWAP1 SSTORE POP JUMPDEST DUP3 PUSH0 ADD PUSH0 DUP3 DUP2 MSTORE PUSH1 0x20 ADD SWAP1 DUP2 MSTORE PUSH1 0x20 ADD PUSH0 KECCAK256 PUSH0 SWAP1 SSTORE POP POP POP JUMP JUMPDEST PUSH1 0x60 PUSH0 DUP4 PUSH1 0x2 ADD PUSH0 SWAP1 SLOAD SWAP1 PUSH2 0x100 EXP SWAP1 DIV PUSH20 0xFFFFFFFFFFFFFFFFFFFFFFFFFFFFFFFFFFFFFFFF AND SWAP1 POP DUP3 DUP5 PUSH1 0x4 ADD SLOAD LT PUSH2 0x2D48 JUMPI DUP3 PUSH2 0x2D4E JUMP JUMPDEST DUP4 PUSH1 0x4 ADD SLOAD JUMPDEST SWAP3 POP PUSH0 DUP4 PUSH8 0xFFFFFFFFFFFFFFFF DUP2 GT ISZERO PUSH2 0x2D6B JUMPI PUSH2 0x2D6A PUSH2 0x3045 JUMP JUMPDEST JUMPDEST PUSH1 0x40 MLOAD SWAP1 DUP1 DUP3 MSTORE DUP1 PUSH1 0x20 MUL PUSH1 0x20 ADD DUP3 ADD PUSH1 0x40 MSTORE DUP1 ISZERO PUSH2 0x2D99 JUMPI DUP2 PUSH1 0x20 ADD PUSH1 0x20 DUP3 MUL DUP1 CALLDATASIZE DUP4 CALLDATACOPY DUP1 DUP3 ADD SWAP2 POP POP SWAP1 POP JUMPDEST POP SWAP1 POP DUP5 PUSH1 0x2 ADD PUSH0 SWAP1 SLOAD SWAP1 PUSH2 0x100 EXP SWAP1 DIV PUSH20 0xFFFFFFFFFFFFFFFFFFFFFFFFFFFFFFFFFFFFFFFF AND SWAP2 POP PUSH0 JUMPDEST PUSH0 PUSH20 0xFFFFFFFFFFFFFFFFFFFFFFFFFFFFFFFFFFFFFFFF AND DUP4 PUSH20 0xFFFFFFFFFFFFFFFFFFFFFFFFFFFFFFFFFFFFFFFF AND EQ PUSH2 0x2EB8 JUMPI DUP3 DUP3 DUP3 DUP2 MLOAD DUP2 LT PUSH2 0x2E0B JUMPI PUSH2 0x2E0A PUSH2 0x3DCA JUMP JUMPDEST JUMPDEST PUSH1 0x20 MUL PUSH1 0x20 ADD ADD SWAP1 PUSH20 0xFFFFFFFFFFFFFFFFFFFFFFFFFFFFFFFFFFFFFFFF AND SWAP1 DUP2 PUSH20 0xFFFFFFFFFFFFFFFFFFFFFFFFFFFFFFFFFFFFFFFF AND DUP2 MSTORE POP POP DUP6 PUSH0 ADD PUSH0 DUP5 PUSH20 0xFFFFFFFFFFFFFFFFFFFFFFFFFFFFFFFFFFFFFFFF AND PUSH20 0xFFFFFFFFFFFFFFFFFFFFFFFFFFFFFFFFFFFFFFFF AND DUP2 MSTORE PUSH1 0x20 ADD SWAP1 DUP2 MSTORE PUSH1 0x20 ADD PUSH0 KECCAK256 PUSH0 SWAP1 SLOAD SWAP1 PUSH2 0x100 EXP SWAP1 DIV PUSH20 0xFFFFFFFFFFFFFFFFFFFFFFFFFFFFFFFFFFFFFFFF AND SWAP3 POP DUP1 DUP1 PUSH2 0x2EB0 SWAP1 PUSH2 0x3E24 JUMP JUMPDEST SWAP2 POP POP PUSH2 0x2DC4 JUMP JUMPDEST DUP2 SWAP4 POP POP POP POP SWAP3 SWAP2 POP POP JUMP JUMPDEST PUSH1 0x60 PUSH0 DUP4 PUSH1 0x1 ADD SLOAD SWAP1 POP DUP3 DUP5 PUSH1 0x3 ADD SLOAD LT PUSH2 0x2EDF JUMPI DUP3 PUSH2 0x2EE5 JUMP JUMPDEST DUP4 PUSH1 0x3 ADD SLOAD JUMPDEST SWAP3 POP PUSH0 DUP4 PUSH8 0xFFFFFFFFFFFFFFFF DUP2 GT ISZERO PUSH2 0x2F02 JUMPI PUSH2 0x2F01 PUSH2 0x3045 JUMP JUMPDEST JUMPDEST PUSH1 0x40 MLOAD SWAP1 DUP1 DUP3 MSTORE DUP1 PUSH1 0x20 MUL PUSH1 0x20 ADD DUP3 ADD PUSH1 0x40 MSTORE DUP1 ISZERO PUSH2 0x2F30 JUMPI DUP2 PUSH1 0x20 ADD PUSH1 0x20 DUP3 MUL DUP1 CALLDATASIZE DUP4 CALLDATACOPY DUP1 DUP3 ADD SWAP2 POP POP SWAP1 POP JUMPDEST POP SWAP1 POP DUP5 PUSH1 0x1 ADD SLOAD SWAP2 POP PUSH0 JUMPDEST PUSH0 DUP1 SHL DUP4 EQ PUSH2 0x2F8D JUMPI DUP3 DUP3 DUP3 DUP2 MLOAD DUP2 LT PUSH2 0x2F59 JUMPI PUSH2 0x2F58 PUSH2 0x3DCA JUMP JUMPDEST JUMPDEST PUSH1 0x20 MUL PUSH1 0x20 ADD ADD DUP2 DUP2 MSTORE POP POP DUP6 PUSH0 ADD PUSH0 DUP5 DUP2 MSTORE PUSH1 0x20 ADD SWAP1 DUP2 MSTORE PUSH1 0x20 ADD PUSH0 KECCAK256 SLOAD SWAP3 POP DUP1 DUP1 PUSH2 0x2F85 SWAP1 PUSH2 0x3E24 JUMP JUMPDEST SWAP2 POP POP PUSH2 0x2F3C JUMP JUMPDEST DUP2 SWAP4 POP POP POP POP SWAP3 SWAP2 POP POP JUMP JUMPDEST PUSH1 0x40 MLOAD DUP1 PUSH1 0x20 ADD PUSH1 0x40 MSTORE DUP1 PUSH0 PUSH20 0xFFFFFFFFFFFFFFFFFFFFFFFFFFFFFFFFFFFFFFFF AND DUP2 MSTORE POP SWAP1 JUMP JUMPDEST PUSH1 0x40 MLOAD DUP1 PUSH1 0xC0 ADD PUSH1 0x40 MSTORE DUP1 PUSH1 0x60 DUP2 MSTORE PUSH1 0x20 ADD PUSH1 0x60 DUP2 MSTORE PUSH1 0x20 ADD PUSH0 PUSH1 0x3 DUP2 GT ISZERO PUSH2 0x2FED JUMPI PUSH2 0x2FEC PUSH2 0x353F JUMP JUMPDEST JUMPDEST DUP2 MSTORE PUSH1 0x20 ADD PUSH0 PUSH20 0xFFFFFFFFFFFFFFFFFFFFFFFFFFFFFFFFFFFFFFFF AND DUP2 MSTORE PUSH1 0x20 ADD PUSH1 0x60 DUP2 MSTORE PUSH1 0x20 ADD PUSH0 DUP2 MSTORE POP SWAP1 JUMP JUMPDEST PUSH0 PUSH1 0x40 MLOAD SWAP1 POP SWAP1 JUMP JUMPDEST PUSH0 DUP1 REVERT JUMPDEST PUSH0 DUP1 REVERT JUMPDEST PUSH0 DUP1 REVERT JUMPDEST PUSH0 DUP1 REVERT JUMPDEST PUSH0 PUSH1 0x1F NOT PUSH1 0x1F DUP4 ADD AND SWAP1 POP SWAP2 SWAP1 POP JUMP JUMPDEST PUSH32 0x4E487B7100000000000000000000000000000000000000000000000000000000 PUSH0 MSTORE PUSH1 0x41 PUSH1 0x4 MSTORE PUSH1 0x24 PUSH0 REVERT JUMPDEST PUSH2 0x307B DUP3 PUSH2 0x3035 JUMP JUMPDEST DUP2 ADD DUP2 DUP2 LT PUSH8 0xFFFFFFFFFFFFFFFF DUP3 GT OR ISZERO PUSH2 0x309A JUMPI PUSH2 0x3099 PUSH2 0x3045 JUMP JUMPDEST JUMPDEST DUP1 PUSH1 0x40 MSTORE POP POP POP JUMP JUMPDEST PUSH0 PUSH2 0x30AC PUSH2 0x301C JUMP JUMPDEST SWAP1 POP PUSH2 0x30B8 DUP3 DUP3 PUSH2 0x3072 JUMP JUMPDEST SWAP2 SWAP1 POP JUMP JUMPDEST PUSH0 PUSH8 0xFFFFFFFFFFFFFFFF DUP3 GT ISZERO PUSH2 0x30D7 JUMPI PUSH2 0x30D6 PUSH2 0x3045 JUMP JUMPDEST JUMPDEST PUSH2 0x30E0 DUP3 PUSH2 0x3035 JUMP JUMPDEST SWAP1 POP PUSH1 0x20 DUP2 ADD SWAP1 POP SWAP2 SWAP1 POP JUMP JUMPDEST DUP3 DUP2 DUP4 CALLDATACOPY PUSH0 DUP4 DUP4 ADD MSTORE POP POP POP JUMP JUMPDEST PUSH0 PUSH2 0x310D PUSH2 0x3108 DUP5 PUSH2 0x30BD JUMP JUMPDEST PUSH2 0x30A3 JUMP JUMPDEST SWAP1 POP DUP3 DUP2 MSTORE PUSH1 0x20 DUP2 ADD DUP5 DUP5 DUP5 ADD GT ISZERO PUSH2 0x3129 JUMPI PUSH2 0x3128 PUSH2 0x3031 JUMP JUMPDEST JUMPDEST PUSH2 0x3134 DUP5 DUP3 DUP6 PUSH2 0x30ED JUMP JUMPDEST POP SWAP4 SWAP3 POP POP POP JUMP JUMPDEST PUSH0 DUP3 PUSH1 0x1F DUP4 ADD SLT PUSH2 0x3150 JUMPI PUSH2 0x314F PUSH2 0x302D JUMP JUMPDEST JUMPDEST DUP2 CALLDATALOAD PUSH2 0x3160 DUP5 DUP3 PUSH1 0x20 DUP7 ADD PUSH2 0x30FB JUMP JUMPDEST SWAP2 POP POP SWAP3 SWAP2 POP POP JUMP JUMPDEST PUSH0 DUP1 PUSH1 0x40 DUP4 DUP6 SUB SLT ISZERO PUSH2 0x317F JUMPI PUSH2 0x317E PUSH2 0x3025 JUMP JUMPDEST JUMPDEST PUSH0 DUP4 ADD CALLDATALOAD PUSH8 0xFFFFFFFFFFFFFFFF DUP2 GT ISZERO PUSH2 0x319C JUMPI PUSH2 0x319B PUSH2 0x3029 JUMP JUMPDEST JUMPDEST PUSH2 0x31A8 DUP6 DUP3 DUP7 ADD PUSH2 0x313C JUMP JUMPDEST SWAP3 POP POP PUSH1 0x20 DUP4 ADD CALLDATALOAD PUSH8 0xFFFFFFFFFFFFFFFF DUP2 GT ISZERO PUSH2 0x31C9 JUMPI PUSH2 0x31C8 PUSH2 0x3029 JUMP JUMPDEST JUMPDEST PUSH2 0x31D5 DUP6 DUP3 DUP7 ADD PUSH2 0x313C JUMP JUMPDEST SWAP2 POP POP SWAP3 POP SWAP3 SWAP1 POP JUMP JUMPDEST PUSH0 PUSH20 0xFFFFFFFFFFFFFFFFFFFFFFFFFFFFFFFFFFFFFFFF DUP3 AND SWAP1 POP SWAP2 SWAP1 POP JUMP JUMPDEST PUSH0 PUSH2 0x3208 DUP3 PUSH2 0x31DF JUMP JUMPDEST SWAP1 POP SWAP2 SWAP1 POP JUMP JUMPDEST PUSH2 0x3218 DUP2 PUSH2 0x31FE JUMP JUMPDEST DUP2 EQ PUSH2 0x3222 JUMPI PUSH0 DUP1 REVERT JUMPDEST POP JUMP JUMPDEST PUSH0 DUP2 CALLDATALOAD SWAP1 POP PUSH2 0x3233 DUP2 PUSH2 0x320F JUMP JUMPDEST SWAP3 SWAP2 POP POP JUMP JUMPDEST PUSH0 DUP2 ISZERO ISZERO SWAP1 POP SWAP2 SWAP1 POP JUMP JUMPDEST PUSH2 0x324D DUP2 PUSH2 0x3239 JUMP JUMPDEST DUP2 EQ PUSH2 0x3257 JUMPI PUSH0 DUP1 REVERT JUMPDEST POP JUMP JUMPDEST PUSH0 DUP2 CALLDATALOAD SWAP1 POP PUSH2 0x3268 DUP2 PUSH2 0x3244 JUMP JUMPDEST SWAP3 SWAP2 POP POP JUMP JUMPDEST PUSH0 DUP1 PUSH1 0x40 DUP4 DUP6 SUB SLT ISZERO PUSH2 0x3284 JUMPI PUSH2 0x3283 PUSH2 0x3025 JUMP JUMPDEST JUMPDEST PUSH0 PUSH2 0x3291 DUP6 DUP3 DUP7 ADD PUSH2 0x3225 JUMP JUMPDEST SWAP3 POP POP PUSH1 0x20 PUSH2 0x32A2 DUP6 DUP3 DUP7 ADD PUSH2 0x325A JUMP JUMPDEST SWAP2 POP POP SWAP3 POP SWAP3 SWAP1 POP JUMP JUMPDEST PUSH0 DUP2 SWAP1 POP SWAP2 SWAP1 POP JUMP JUMPDEST PUSH2 0x32BE DUP2 PUSH2 0x32AC JUMP JUMPDEST DUP2 EQ PUSH2 0x32C8 JUMPI PUSH0 DUP1 REVERT JUMPDEST POP JUMP JUMPDEST PUSH0 DUP2 CALLDATALOAD SWAP1 POP PUSH2 0x32D9 DUP2 PUSH2 0x32B5 JUMP JUMPDEST SWAP3 SWAP2 POP POP JUMP JUMPDEST PUSH0 PUSH1 0x20 DUP3 DUP5 SUB SLT ISZERO PUSH2 0x32F4 JUMPI PUSH2 0x32F3 PUSH2 0x3025 JUMP JUMPDEST JUMPDEST PUSH0 PUSH2 0x3301 DUP5 DUP3 DUP6 ADD PUSH2 0x32CB JUMP JUMPDEST SWAP2 POP POP SWAP3 SWAP2 POP POP JUMP JUMPDEST PUSH2 0x3313 DUP2 PUSH2 0x31FE JUMP JUMPDEST DUP3 MSTORE POP POP JUMP JUMPDEST PUSH1 0x20 DUP3 ADD PUSH0 DUP3 ADD MLOAD PUSH2 0x332D PUSH0 DUP6 ADD DUP3 PUSH2 0x330A JUMP JUMPDEST POP POP POP POP JUMP JUMPDEST PUSH0 PUSH1 0x20 DUP3 ADD SWAP1 POP PUSH2 0x3346 PUSH0 DUP4 ADD DUP5 PUSH2 0x3319 JUMP JUMPDEST SWAP3 SWAP2 POP POP JUMP JUMPDEST PUSH0 DUP2 MLOAD SWAP1 POP SWAP2 SWAP1 POP JUMP JUMPDEST PUSH0 DUP3 DUP3 MSTORE PUSH1 0x20 DUP3 ADD SWAP1 POP SWAP3 SWAP2 POP POP JUMP JUMPDEST PUSH0 DUP2 SWAP1 POP PUSH1 0x20 DUP3 ADD SWAP1 POP SWAP2 SWAP1 POP JUMP JUMPDEST PUSH1 0x20 DUP3 ADD PUSH0 DUP3 ADD MLOAD PUSH2 0x3389 PUSH0 DUP6 ADD DUP3 PUSH2 0x330A JUMP JUMPDEST POP POP POP POP JUMP JUMPDEST PUSH0 PUSH2 0x339A DUP4 DUP4 PUSH2 0x3375 JUMP JUMPDEST PUSH1 0x20 DUP4 ADD SWAP1 POP SWAP3 SWAP2 POP POP JUMP JUMPDEST PUSH0 PUSH1 0x20 DUP3 ADD SWAP1 POP SWAP2 SWAP1 POP JUMP JUMPDEST PUSH0 PUSH2 0x33BC DUP3 PUSH2 0x334C JUMP JUMPDEST PUSH2 0x33C6 DUP2 DUP6 PUSH2 0x3356 JUMP JUMPDEST SWAP4 POP PUSH2 0x33D1 DUP4 PUSH2 0x3366 JUMP JUMPDEST DUP1 PUSH0 JUMPDEST DUP4 DUP2 LT ISZERO PUSH2 0x3401 JUMPI DUP2 MLOAD PUSH2 0x33E8 DUP9 DUP3 PUSH2 0x338F JUMP JUMPDEST SWAP8 POP PUSH2 0x33F3 DUP4 PUSH2 0x33A6 JUMP JUMPDEST SWAP3 POP POP PUSH1 0x1 DUP2 ADD SWAP1 POP PUSH2 0x33D4 JUMP JUMPDEST POP DUP6 SWAP4 POP POP POP POP SWAP3 SWAP2 POP POP JUMP JUMPDEST PUSH0 PUSH1 0x20 DUP3 ADD SWAP1 POP DUP2 DUP2 SUB PUSH0 DUP4 ADD MSTORE PUSH2 0x3426 DUP2 DUP5 PUSH2 0x33B2 JUMP JUMPDEST SWAP1 POP SWAP3 SWAP2 POP POP JUMP JUMPDEST PUSH0 DUP1 PUSH0 PUSH1 0x60 DUP5 DUP7 SUB SLT ISZERO PUSH2 0x3445 JUMPI PUSH2 0x3444 PUSH2 0x3025 JUMP JUMPDEST JUMPDEST PUSH0 PUSH2 0x3452 DUP7 DUP3 DUP8 ADD PUSH2 0x325A JUMP JUMPDEST SWAP4 POP POP PUSH1 0x20 DUP5 ADD CALLDATALOAD PUSH8 0xFFFFFFFFFFFFFFFF DUP2 GT ISZERO PUSH2 0x3473 JUMPI PUSH2 0x3472 PUSH2 0x3029 JUMP JUMPDEST JUMPDEST PUSH2 0x347F DUP7 DUP3 DUP8 ADD PUSH2 0x313C JUMP JUMPDEST SWAP3 POP POP PUSH1 0x40 DUP5 ADD CALLDATALOAD PUSH8 0xFFFFFFFFFFFFFFFF DUP2 GT ISZERO PUSH2 0x34A0 JUMPI PUSH2 0x349F PUSH2 0x3029 JUMP JUMPDEST JUMPDEST PUSH2 0x34AC DUP7 DUP3 DUP8 ADD PUSH2 0x313C JUMP JUMPDEST SWAP2 POP POP SWAP3 POP SWAP3 POP SWAP3 JUMP JUMPDEST PUSH0 DUP2 MLOAD SWAP1 POP SWAP2 SWAP1 POP JUMP JUMPDEST PUSH0 DUP3 DUP3 MSTORE PUSH1 0x20 DUP3 ADD SWAP1 POP SWAP3 SWAP2 POP POP JUMP JUMPDEST PUSH0 DUP2 SWAP1 POP PUSH1 0x20 DUP3 ADD SWAP1 POP SWAP2 SWAP1 POP JUMP JUMPDEST PUSH0 DUP2 MLOAD SWAP1 POP SWAP2 SWAP1 POP JUMP JUMPDEST PUSH0 DUP3 DUP3 MSTORE PUSH1 0x20 DUP3 ADD SWAP1 POP SWAP3 SWAP2 POP POP JUMP JUMPDEST DUP3 DUP2 DUP4 MCOPY PUSH0 DUP4 DUP4 ADD MSTORE POP POP POP JUMP JUMPDEST PUSH0 PUSH2 0x3511 DUP3 PUSH2 0x34DF JUMP JUMPDEST PUSH2 0x351B DUP2 DUP6 PUSH2 0x34E9 JUMP JUMPDEST SWAP4 POP PUSH2 0x352B DUP2 DUP6 PUSH1 0x20 DUP7 ADD PUSH2 0x34F9 JUMP JUMPDEST PUSH2 0x3534 DUP2 PUSH2 0x3035 JUMP JUMPDEST DUP5 ADD SWAP2 POP POP SWAP3 SWAP2 POP POP JUMP JUMPDEST PUSH32 0x4E487B7100000000000000000000000000000000000000000000000000000000 PUSH0 MSTORE PUSH1 0x21 PUSH1 0x4 MSTORE PUSH1 0x24 PUSH0 REVERT JUMPDEST PUSH1 0x4 DUP2 LT PUSH2 0x357D JUMPI PUSH2 0x357C PUSH2 0x353F JUMP JUMPDEST JUMPDEST POP JUMP JUMPDEST PUSH0 DUP2 SWAP1 POP PUSH2 0x358D DUP3 PUSH2 0x356C JUMP JUMPDEST SWAP2 SWAP1 POP JUMP JUMPDEST PUSH0 PUSH2 0x359C DUP3 PUSH2 0x3580 JUMP JUMPDEST SWAP1 POP SWAP2 SWAP1 POP JUMP JUMPDEST PUSH2 0x35AC DUP2 PUSH2 0x3592 JUMP JUMPDEST DUP3 MSTORE POP POP JUMP JUMPDEST PUSH2 0x35BB DUP2 PUSH2 0x32AC JUMP JUMPDEST DUP3 MSTORE POP POP JUMP JUMPDEST PUSH0 PUSH1 0xC0 DUP4 ADD PUSH0 DUP4 ADD MLOAD DUP5 DUP3 SUB PUSH0 DUP7 ADD MSTORE PUSH2 0x35DB DUP3 DUP3 PUSH2 0x3507 JUMP JUMPDEST SWAP2 POP POP PUSH1 0x20 DUP4 ADD MLOAD DUP5 DUP3 SUB PUSH1 0x20 DUP7 ADD MSTORE PUSH2 0x35F5 DUP3 DUP3 PUSH2 0x3507 JUMP JUMPDEST SWAP2 POP POP PUSH1 0x40 DUP4 ADD MLOAD PUSH2 0x360A PUSH1 0x40 DUP7 ADD DUP3 PUSH2 0x35A3 JUMP JUMPDEST POP PUSH1 0x60 DUP4 ADD MLOAD PUSH2 0x361D PUSH1 0x60 DUP7 ADD DUP3 PUSH2 0x330A JUMP JUMPDEST POP PUSH1 0x80 DUP4 ADD MLOAD DUP5 DUP3 SUB PUSH1 0x80 DUP7 ADD MSTORE PUSH2 0x3635 DUP3 DUP3 PUSH2 0x3507 JUMP JUMPDEST SWAP2 POP POP PUSH1 0xA0 DUP4 ADD MLOAD PUSH2 0x364A PUSH1 0xA0 DUP7 ADD DUP3 PUSH2 0x35B2 JUMP JUMPDEST POP DUP1 SWAP2 POP POP SWAP3 SWAP2 POP POP JUMP JUMPDEST PUSH0 PUSH2 0x3660 DUP4 DUP4 PUSH2 0x35C1 JUMP JUMPDEST SWAP1 POP SWAP3 SWAP2 POP POP JUMP JUMPDEST PUSH0 PUSH1 0x20 DUP3 ADD SWAP1 POP SWAP2 SWAP1 POP JUMP JUMPDEST PUSH0 PUSH2 0x367E DUP3 PUSH2 0x34B6 JUMP JUMPDEST PUSH2 0x3688 DUP2 DUP6 PUSH2 0x34C0 JUMP JUMPDEST SWAP4 POP DUP4 PUSH1 0x20 DUP3 MUL DUP6 ADD PUSH2 0x369A DUP6 PUSH2 0x34D0 JUMP JUMPDEST DUP1 PUSH0 JUMPDEST DUP6 DUP2 LT ISZERO PUSH2 0x36D5 JUMPI DUP5 DUP5 SUB DUP10 MSTORE DUP2 MLOAD PUSH2 0x36B6 DUP6 DUP3 PUSH2 0x3655 JUMP JUMPDEST SWAP5 POP PUSH2 0x36C1 DUP4 PUSH2 0x3668 JUMP JUMPDEST SWAP3 POP PUSH1 0x20 DUP11 ADD SWAP10 POP POP PUSH1 0x1 DUP2 ADD SWAP1 POP PUSH2 0x369D JUMP JUMPDEST POP DUP3 SWAP8 POP DUP8 SWAP6 POP POP POP POP POP POP SWAP3 SWAP2 POP POP JUMP JUMPDEST PUSH0 PUSH1 0x20 DUP3 ADD SWAP1 POP DUP2 DUP2 SUB PUSH0 DUP4 ADD MSTORE PUSH2 0x36FF DUP2 DUP5 PUSH2 0x3674 JUMP JUMPDEST SWAP1 POP SWAP3 SWAP2 POP POP JUMP JUMPDEST PUSH0 PUSH1 0x20 DUP3 DUP5 SUB SLT ISZERO PUSH2 0x371C JUMPI PUSH2 0x371B PUSH2 0x3025 JUMP JUMPDEST JUMPDEST PUSH0 PUSH2 0x3729 DUP5 DUP3 DUP6 ADD PUSH2 0x3225 JUMP JUMPDEST SWAP2 POP POP SWAP3 SWAP2 POP POP JUMP JUMPDEST PUSH1 0x6 DUP2 LT PUSH2 0x3743 JUMPI PUSH2 0x3742 PUSH2 0x353F JUMP JUMPDEST JUMPDEST POP JUMP JUMPDEST PUSH0 DUP2 SWAP1 POP PUSH2 0x3753 DUP3 PUSH2 0x3732 JUMP JUMPDEST SWAP2 SWAP1 POP JUMP JUMPDEST PUSH0 PUSH2 0x3762 DUP3 PUSH2 0x3746 JUMP JUMPDEST SWAP1 POP SWAP2 SWAP1 POP JUMP JUMPDEST PUSH2 0x3772 DUP2 PUSH2 0x3758 JUMP JUMPDEST DUP3 MSTORE POP POP JUMP JUMPDEST PUSH0 PUSH1 0x20 DUP3 ADD SWAP1 POP PUSH2 0x378B PUSH0 DUP4 ADD DUP5 PUSH2 0x3769 JUMP JUMPDEST SWAP3 SWAP2 POP POP JUMP JUMPDEST PUSH0 DUP2 MLOAD SWAP1 POP SWAP2 SWAP1 POP JUMP JUMPDEST PUSH0 DUP3 DUP3 MSTORE PUSH1 0x20 DUP3 ADD SWAP1 POP SWAP3 SWAP2 POP POP JUMP JUMPDEST PUSH0 DUP2 SWAP1 POP PUSH1 0x20 DUP3 ADD SWAP1 POP SWAP2 SWAP1 POP JUMP JUMPDEST PUSH0 PUSH2 0x37C5 DUP4 DUP4 PUSH2 0x330A JUMP JUMPDEST PUSH1 0x20 DUP4 ADD SWAP1 POP SWAP3 SWAP2 POP POP JUMP JUMPDEST PUSH0 PUSH1 0x20 DUP3 ADD SWAP1 POP SWAP2 SWAP1 POP JUMP JUMPDEST PUSH0 PUSH2 0x37E7 DUP3 PUSH2 0x3791 JUMP JUMPDEST PUSH2 0x37F1 DUP2 DUP6 PUSH2 0x379B JUMP JUMPDEST SWAP4 POP PUSH2 0x37FC DUP4 PUSH2 0x37AB JUMP JUMPDEST DUP1 PUSH0 JUMPDEST DUP4 DUP2 LT ISZERO PUSH2 0x382C JUMPI DUP2 MLOAD PUSH2 0x3813 DUP9 DUP3 PUSH2 0x37BA JUMP JUMPDEST SWAP8 POP PUSH2 0x381E DUP4 PUSH2 0x37D1 JUMP JUMPDEST SWAP3 POP POP PUSH1 0x1 DUP2 ADD SWAP1 POP PUSH2 0x37FF JUMP JUMPDEST POP DUP6 SWAP4 POP POP POP POP SWAP3 SWAP2 POP POP JUMP JUMPDEST PUSH0 PUSH1 0x20 DUP3 ADD SWAP1 POP DUP2 DUP2 SUB PUSH0 DUP4 ADD MSTORE PUSH2 0x3851 DUP2 DUP5 PUSH2 0x37DD JUMP JUMPDEST SWAP1 POP SWAP3 SWAP2 POP POP JUMP JUMPDEST PUSH2 0x3862 DUP2 PUSH2 0x31FE JUMP JUMPDEST DUP3 MSTORE POP POP JUMP JUMPDEST PUSH0 PUSH1 0x20 DUP3 ADD SWAP1 POP PUSH2 0x387B PUSH0 DUP4 ADD DUP5 PUSH2 0x3859 JUMP JUMPDEST SWAP3 SWAP2 POP POP JUMP JUMPDEST PUSH2 0x388A DUP2 PUSH2 0x32AC JUMP JUMPDEST DUP3 MSTORE POP POP JUMP JUMPDEST PUSH0 PUSH1 0x20 DUP3 ADD SWAP1 POP PUSH2 0x38A3 PUSH0 DUP4 ADD DUP5 PUSH2 0x3881 JUMP JUMPDEST SWAP3 SWAP2 POP POP JUMP JUMPDEST PUSH0 DUP3 DUP3 MSTORE PUSH1 0x20 DUP3 ADD SWAP1 POP SWAP3 SWAP2 POP POP JUMP JUMPDEST PUSH32 0x4E6F742061205573657200000000000000000000000000000000000000000000 PUSH0 DUP3 ADD MSTORE POP JUMP JUMPDEST PUSH0 PUSH2 0x38ED PUSH1 0xA DUP4 PUSH2 0x38A9 JUMP JUMPDEST SWAP2 POP PUSH2 0x38F8 DUP3 PUSH2 0x38B9 JUMP JUMPDEST PUSH1 0x20 DUP3 ADD SWAP1 POP SWAP2 SWAP1 POP JUMP JUMPDEST PUSH0 PUSH1 0x20 DUP3 ADD SWAP1 POP DUP2 DUP2 SUB PUSH0 DUP4 ADD MSTORE PUSH2 0x391A DUP2 PUSH2 0x38E1 JUMP JUMPDEST SWAP1 POP SWAP2 SWAP1 POP JUMP JUMPDEST PUSH0 DUP2 SWAP1 POP SWAP3 SWAP2 POP POP JUMP JUMPDEST PUSH0 PUSH2 0x3935 DUP3 PUSH2 0x34DF JUMP JUMPDEST PUSH2 0x393F DUP2 DUP6 PUSH2 0x3921 JUMP JUMPDEST SWAP4 POP PUSH2 0x394F DUP2 DUP6 PUSH1 0x20 DUP7 ADD PUSH2 0x34F9 JUMP JUMPDEST DUP1 DUP5 ADD SWAP2 POP POP SWAP3 SWAP2 POP POP JUMP JUMPDEST PUSH0 PUSH2 0x3966 DUP3 DUP5 PUSH2 0x392B JUMP JUMPDEST SWAP2 POP DUP2 SWAP1 POP SWAP3 SWAP2 POP POP JUMP JUMPDEST PUSH32 0x4E487B7100000000000000000000000000000000000000000000000000000000 PUSH0 MSTORE PUSH1 0x22 PUSH1 0x4 MSTORE PUSH1 0x24 PUSH0 REVERT JUMPDEST PUSH0 PUSH1 0x2 DUP3 DIV SWAP1 POP PUSH1 0x1 DUP3 AND DUP1 PUSH2 0x39B5 JUMPI PUSH1 0x7F DUP3 AND SWAP2 POP JUMPDEST PUSH1 0x20 DUP3 LT DUP2 SUB PUSH2 0x39C8 JUMPI PUSH2 0x39C7 PUSH2 0x3971 JUMP JUMPDEST JUMPDEST POP SWAP2 SWAP1 POP JUMP JUMPDEST PUSH0 DUP2 SWAP1 POP DUP2 PUSH0 MSTORE PUSH1 0x20 PUSH0 KECCAK256 SWAP1 POP SWAP2 SWAP1 POP JUMP JUMPDEST PUSH0 PUSH1 0x20 PUSH1 0x1F DUP4 ADD DIV SWAP1 POP SWAP2 SWAP1 POP JUMP JUMPDEST PUSH0 DUP3 DUP3 SHL SWAP1 POP SWAP3 SWAP2 POP POP JUMP JUMPDEST PUSH0 PUSH1 0x8 DUP4 MUL PUSH2 0x3A2A PUSH32 0xFFFFFFFFFFFFFFFFFFFFFFFFFFFFFFFFFFFFFFFFFFFFFFFFFFFFFFFFFFFFFFFF DUP3 PUSH2 0x39EF JUMP JUMPDEST PUSH2 0x3A34 DUP7 DUP4 PUSH2 0x39EF JUMP JUMPDEST SWAP6 POP DUP1 NOT DUP5 AND SWAP4 POP DUP1 DUP7 AND DUP5 OR SWAP3 POP POP POP SWAP4 SWAP3 POP POP POP JUMP JUMPDEST PUSH0 DUP2 SWAP1 POP SWAP2 SWAP1 POP JUMP JUMPDEST PUSH0 PUSH2 0x3A6F PUSH2 0x3A6A PUSH2 0x3A65 DUP5 PUSH2 0x32AC JUMP JUMPDEST PUSH2 0x3A4C JUMP JUMPDEST PUSH2 0x32AC JUMP JUMPDEST SWAP1 POP SWAP2 SWAP1 POP JUMP JUMPDEST PUSH0 DUP2 SWAP1 POP SWAP2 SWAP1 POP JUMP JUMPDEST PUSH2 0x3A88 DUP4 PUSH2 0x3A55 JUMP JUMPDEST PUSH2 0x3A9C PUSH2 0x3A94 DUP3 PUSH2 0x3A76 JUMP JUMPDEST DUP5 DUP5 SLOAD PUSH2 0x39FB JUMP JUMPDEST DUP3 SSTORE POP POP POP POP JUMP JUMPDEST PUSH0 SWAP1 JUMP JUMPDEST PUSH2 0x3AB0 PUSH2 0x3AA4 JUMP JUMPDEST PUSH2 0x3ABB DUP2 DUP5 DUP5 PUSH2 0x3A7F JUMP JUMPDEST POP POP POP JUMP JUMPDEST JUMPDEST DUP2 DUP2 LT ISZERO PUSH2 0x3ADE JUMPI PUSH2 0x3AD3 PUSH0 DUP3 PUSH2 0x3AA8 JUMP JUMPDEST PUSH1 0x1 DUP2 ADD SWAP1 POP PUSH2 0x3AC1 JUMP JUMPDEST POP POP JUMP JUMPDEST PUSH1 0x1F DUP3 GT ISZERO PUSH2 0x3B23 JUMPI PUSH2 0x3AF4 DUP2 PUSH2 0x39CE JUMP JUMPDEST PUSH2 0x3AFD DUP5 PUSH2 0x39E0 JUMP JUMPDEST DUP2 ADD PUSH1 0x20 DUP6 LT ISZERO PUSH2 0x3B0C JUMPI DUP2 SWAP1 POP JUMPDEST PUSH2 0x3B20 PUSH2 0x3B18 DUP6 PUSH2 0x39E0 JUMP JUMPDEST DUP4 ADD DUP3 PUSH2 0x3AC0 JUMP JUMPDEST POP POP JUMPDEST POP POP POP JUMP JUMPDEST PUSH0 DUP3 DUP3 SHR SWAP1 POP SWAP3 SWAP2 POP POP JUMP JUMPDEST PUSH0 PUSH2 0x3B43 PUSH0 NOT DUP5 PUSH1 0x8 MUL PUSH2 0x3B28 JUMP JUMPDEST NOT DUP1 DUP4 AND SWAP2 POP POP SWAP3 SWAP2 POP POP JUMP JUMPDEST PUSH0 PUSH2 0x3B5B DUP4 DUP4 PUSH2 0x3B34 JUMP JUMPDEST SWAP2 POP DUP3 PUSH1 0x2 MUL DUP3 OR SWAP1 POP SWAP3 SWAP2 POP POP JUMP JUMPDEST PUSH2 0x3B74 DUP3 PUSH2 0x34DF JUMP JUMPDEST PUSH8 0xFFFFFFFFFFFFFFFF DUP2 GT ISZERO PUSH2 0x3B8D JUMPI PUSH2 0x3B8C PUSH2 0x3045 JUMP JUMPDEST JUMPDEST PUSH2 0x3B97 DUP3 SLOAD PUSH2 0x399E JUMP JUMPDEST PUSH2 0x3BA2 DUP3 DUP3 DUP6 PUSH2 0x3AE2 JUMP JUMPDEST PUSH0 PUSH1 0x20 SWAP1 POP PUSH1 0x1F DUP4 GT PUSH1 0x1 DUP2 EQ PUSH2 0x3BD3 JUMPI PUSH0 DUP5 ISZERO PUSH2 0x3BC1 JUMPI DUP3 DUP8 ADD MLOAD SWAP1 POP JUMPDEST PUSH2 0x3BCB DUP6 DUP3 PUSH2 0x3B50 JUMP JUMPDEST DUP7 SSTORE POP PUSH2 0x3C32 JUMP JUMPDEST PUSH1 0x1F NOT DUP5 AND PUSH2 0x3BE1 DUP7 PUSH2 0x39CE JUMP JUMPDEST PUSH0 JUMPDEST DUP3 DUP2 LT ISZERO PUSH2 0x3C08 JUMPI DUP5 DUP10 ADD MLOAD DUP3 SSTORE PUSH1 0x1 DUP3 ADD SWAP2 POP PUSH1 0x20 DUP6 ADD SWAP5 POP PUSH1 0x20 DUP2 ADD SWAP1 POP PUSH2 0x3BE3 JUMP JUMPDEST DUP7 DUP4 LT ISZERO PUSH2 0x3C25 JUMPI DUP5 DUP10 ADD MLOAD PUSH2 0x3C21 PUSH1 0x1F DUP10 AND DUP3 PUSH2 0x3B34 JUMP JUMPDEST DUP4 SSTORE POP JUMPDEST PUSH1 0x1 PUSH1 0x2 DUP9 MUL ADD DUP9 SSTORE POP POP POP JUMPDEST POP POP POP POP POP POP JUMP JUMPDEST PUSH0 PUSH2 0x3C44 DUP3 PUSH2 0x34DF JUMP JUMPDEST PUSH2 0x3C4E DUP2 DUP6 PUSH2 0x38A9 JUMP JUMPDEST SWAP4 POP PUSH2 0x3C5E DUP2 DUP6 PUSH1 0x20 DUP7 ADD PUSH2 0x34F9 JUMP JUMPDEST PUSH2 0x3C67 DUP2 PUSH2 0x3035 JUMP JUMPDEST DUP5 ADD SWAP2 POP POP SWAP3 SWAP2 POP POP JUMP JUMPDEST PUSH0 PUSH1 0x20 DUP3 ADD SWAP1 POP DUP2 DUP2 SUB PUSH0 DUP4 ADD MSTORE PUSH2 0x3C8A DUP2 DUP5 PUSH2 0x3C3A JUMP JUMPDEST SWAP1 POP SWAP3 SWAP2 POP POP JUMP JUMPDEST PUSH32 0x5573657220697320616C726561647920726567697374657265642E0000000000 PUSH0 DUP3 ADD MSTORE POP JUMP JUMPDEST PUSH0 PUSH2 0x3CC6 PUSH1 0x1B DUP4 PUSH2 0x38A9 JUMP JUMPDEST SWAP2 POP PUSH2 0x3CD1 DUP3 PUSH2 0x3C92 JUMP JUMPDEST PUSH1 0x20 DUP3 ADD SWAP1 POP SWAP2 SWAP1 POP JUMP JUMPDEST PUSH0 PUSH1 0x20 DUP3 ADD SWAP1 POP DUP2 DUP2 SUB PUSH0 DUP4 ADD MSTORE PUSH2 0x3CF3 DUP2 PUSH2 0x3CBA JUMP JUMPDEST SWAP1 POP SWAP2 SWAP1 POP JUMP JUMPDEST PUSH32 0x4E6F74207468652041646D696E00000000000000000000000000000000000000 PUSH0 DUP3 ADD MSTORE POP JUMP JUMPDEST PUSH0 PUSH2 0x3D2E PUSH1 0xD DUP4 PUSH2 0x38A9 JUMP JUMPDEST SWAP2 POP PUSH2 0x3D39 DUP3 PUSH2 0x3CFA JUMP JUMPDEST PUSH1 0x20 DUP3 ADD SWAP1 POP SWAP2 SWAP1 POP JUMP JUMPDEST PUSH0 PUSH1 0x20 DUP3 ADD SWAP1 POP DUP2 DUP2 SUB PUSH0 DUP4 ADD MSTORE PUSH2 0x3D5B DUP2 PUSH2 0x3D22 JUMP JUMPDEST SWAP1 POP SWAP2 SWAP1 POP JUMP JUMPDEST PUSH32 0x4E6F742061205665726966696572000000000000000000000000000000000000 PUSH0 DUP3 ADD MSTORE POP JUMP JUMPDEST PUSH0 PUSH2 0x3D96 PUSH1 0xE DUP4 PUSH2 0x38A9 JUMP JUMPDEST SWAP2 POP PUSH2 0x3DA1 DUP3 PUSH2 0x3D62 JUMP JUMPDEST PUSH1 0x20 DUP3 ADD SWAP1 POP SWAP2 SWAP1 POP JUMP JUMPDEST PUSH0 PUSH1 0x20 DUP3 ADD SWAP1 POP DUP2 DUP2 SUB PUSH0 DUP4 ADD MSTORE PUSH2 0x3DC3 DUP2 PUSH2 0x3D8A JUMP JUMPDEST SWAP1 POP SWAP2 SWAP1 POP JUMP JUMPDEST PUSH32 0x4E487B7100000000000000000000000000000000000000000000000000000000 PUSH0 MSTORE PUSH1 0x32 PUSH1 0x4 MSTORE PUSH1 0x24 PUSH0 REVERT JUMPDEST PUSH32 0x4E487B7100000000000000000000000000000000000000000000000000000000 PUSH0 MSTORE PUSH1 0x11 PUSH1 0x4 MSTORE PUSH1 0x24 PUSH0 REVERT JUMPDEST PUSH0 PUSH2 0x3E2E DUP3 PUSH2 0x32AC JUMP JUMPDEST SWAP2 POP PUSH32 0xFFFFFFFFFFFFFFFFFFFFFFFFFFFFFFFFFFFFFFFFFFFFFFFFFFFFFFFFFFFFFFFF DUP3 SUB PUSH2 0x3E60 JUMPI PUSH2 0x3E5F PUSH2 0x3DF7 JUMP JUMPDEST JUMPDEST PUSH1 0x1 DUP3 ADD SWAP1 POP SWAP2 SWAP1 POP JUMP JUMPDEST PUSH32 0x517565756520697320656D707479000000000000000000000000000000000000 PUSH0 DUP3 ADD MSTORE POP JUMP JUMPDEST PUSH0 PUSH2 0x3E9F PUSH1 0xE DUP4 PUSH2 0x38A9 JUMP JUMPDEST SWAP2 POP PUSH2 0x3EAA DUP3 PUSH2 0x3E6B JUMP JUMPDEST PUSH1 0x20 DUP3 ADD SWAP1 POP SWAP2 SWAP1 POP JUMP JUMPDEST PUSH0 PUSH1 0x20 DUP3 ADD SWAP1 POP DUP2 DUP2 SUB PUSH0 DUP4 ADD MSTORE PUSH2 0x3ECC DUP2 PUSH2 0x3E93 JUMP JUMPDEST SWAP1 POP SWAP2 SWAP1 POP JUMP JUMPDEST PUSH32 0x54686520726571756573746564207573657220646F6573206E6F742065786973 PUSH0 DUP3 ADD MSTORE PUSH32 0x7420696E20746865205175657565210000000000000000000000000000000000 PUSH1 0x20 DUP3 ADD MSTORE POP JUMP JUMPDEST PUSH0 PUSH2 0x3F2D PUSH1 0x2F DUP4 PUSH2 0x38A9 JUMP JUMPDEST SWAP2 POP PUSH2 0x3F38 DUP3 PUSH2 0x3ED3 JUMP JUMPDEST PUSH1 0x40 DUP3 ADD SWAP1 POP SWAP2 SWAP1 POP JUMP JUMPDEST PUSH0 PUSH1 0x20 DUP3 ADD SWAP1 POP DUP2 DUP2 SUB PUSH0 DUP4 ADD MSTORE PUSH2 0x3F5A DUP2 PUSH2 0x3F21 JUMP JUMPDEST SWAP1 POP SWAP2 SWAP1 POP JUMP JUMPDEST PUSH0 PUSH2 0x3F6B DUP3 PUSH2 0x32AC JUMP JUMPDEST SWAP2 POP PUSH0 DUP3 SUB PUSH2 0x3F7D JUMPI PUSH2 0x3F7C PUSH2 0x3DF7 JUMP JUMPDEST JUMPDEST PUSH1 0x1 DUP3 SUB SWAP1 POP SWAP2 SWAP1 POP JUMP JUMPDEST PUSH32 0x5468652072657175657374656420446F63756D656E7420646F6573206E6F7420 PUSH0 DUP3 ADD MSTORE PUSH32 0x657869737420696E207468652051756575652100000000000000000000000000 PUSH1 0x20 DUP3 ADD MSTORE POP JUMP JUMPDEST PUSH0 PUSH2 0x3FE2 PUSH1 0x33 DUP4 PUSH2 0x38A9 JUMP JUMPDEST SWAP2 POP PUSH2 0x3FED DUP3 PUSH2 0x3F88 JUMP JUMPDEST PUSH1 0x40 DUP3 ADD SWAP1 POP SWAP2 SWAP1 POP JUMP JUMPDEST PUSH0 PUSH1 0x20 DUP3 ADD SWAP1 POP DUP2 DUP2 SUB PUSH0 DUP4 ADD MSTORE PUSH2 0x400F DUP2 PUSH2 0x3FD6 JUMP JUMPDEST SWAP1 POP SWAP2 SWAP1 POP JUMP INVALID LOG2 PUSH5 0x6970667358 0x22 SLT KECCAK256 DUP5 0xB3 0xC6 0x2E 0xE0 0xB8 0x1E 0xE4 CALL EQ 0xB0 ADDRESS 0xD8 0x4E DUP14 DUP15 SHR 0xB5 DUP14 PREVRANDAO SSTORE 0xCC 0xB0 DUP11 MLOAD PUSH30 0x59F90343319664736F6C634300081A003300000000000000000000000000 "
				},
				"gasEstimates": {
					"creation": {
						"codeDepositCost": "3292000",
						"executionCost": "infinite",
						"totalCost": "infinite"
					},
					"external": {
						"DocumentVerificationByAdmin(bool,string,string)": "infinite",
						"DocumentVerificationByVerifier(bool,string,string)": "infinite",
						"GetDocumentsByAdmin()": "infinite",
						"GetDocumentsByVerfier()": "infinite",
						"GetVerifierRegistrationsByAdmin()": "infinite",
						"RegisterUser(uint256)": "infinite",
						"VerifierRegistration(address,bool)": "infinite",
						"allVerifiers(uint256)": "5011",
						"getAllverifiers()": "infinite",
						"getDocumentsByUser()": "infinite",
						"getRole()": "2668",
						"getUser()": "2816",
						"role(address)": "2966",
						"uploadDocumentsByUser(string,string)": "infinite"
					}
				},
				"methodIdentifiers": {
					"DocumentVerificationByAdmin(bool,string,string)": "cb3b280e",
					"DocumentVerificationByVerifier(bool,string,string)": "c0d984ec",
					"GetDocumentsByAdmin()": "fc74e5c3",
					"GetDocumentsByVerfier()": "e91f0a08",
					"GetVerifierRegistrationsByAdmin()": "e169761f",
					"RegisterUser(uint256)": "813f8d8c",
					"VerifierRegistration(address,bool)": "3c0d3caf",
					"allVerifiers(uint256)": "f45f0ca0",
					"getAllverifiers()": "aebb41a9",
					"getDocumentsByUser()": "cbe5ee2f",
					"getRole()": "fde08174",
					"getUser()": "832880e7",
					"role(address)": "d590f8c9",
					"uploadDocumentsByUser(string,string)": "283ac166"
				}
			},
			"storageLayout": {
				"storage": [
					{
						"astId": 783,
						"contract": "contracts/main.sol:DecentroLocker",
						"label": "user",
						"offset": 0,
						"slot": "0",
						"type": "t_mapping(t_address,t_struct(User)30_storage)"
					},
					{
						"astId": 788,
						"contract": "contracts/main.sol:DecentroLocker",
						"label": "role",
						"offset": 0,
						"slot": "1",
						"type": "t_mapping(t_address,t_enum(UserRoles)13)"
					},
					{
						"astId": 793,
						"contract": "contracts/main.sol:DecentroLocker",
						"label": "DocumentArray",
						"offset": 0,
						"slot": "2",
						"type": "t_mapping(t_address,t_array(t_bytes32)dyn_storage)"
					},
					{
						"astId": 798,
						"contract": "contracts/main.sol:DecentroLocker",
						"label": "AllDocuments",
						"offset": 0,
						"slot": "3",
						"type": "t_mapping(t_bytes32,t_struct(Document)27_storage)"
					},
					{
						"astId": 802,
						"contract": "contracts/main.sol:DecentroLocker",
						"label": "DocumentsVerifiedBy",
						"offset": 0,
						"slot": "4",
						"type": "t_mapping(t_bytes32,t_address)"
					},
					{
						"astId": 809,
						"contract": "contracts/main.sol:DecentroLocker",
						"label": "verifierQueue",
						"offset": 0,
						"slot": "5",
						"type": "t_struct(LinkedQueue)42_storage"
					},
					{
						"astId": 812,
						"contract": "contracts/main.sol:DecentroLocker",
						"label": "adminQueue",
						"offset": 0,
						"slot": "9",
						"type": "t_struct(LinkedQueue)42_storage"
					},
					{
						"astId": 819,
						"contract": "contracts/main.sol:DecentroLocker",
						"label": "verifierRegistrationQueue",
						"offset": 0,
						"slot": "13",
						"type": "t_struct(LinkedQueue)411_storage"
					},
					{
						"astId": 823,
						"contract": "contracts/main.sol:DecentroLocker",
						"label": "allVerifiers",
						"offset": 0,
						"slot": "18",
						"type": "t_array(t_struct(User)30_storage)dyn_storage"
					}
				],
				"types": {
					"t_address": {
						"encoding": "inplace",
						"label": "address",
						"numberOfBytes": "20"
					},
					"t_array(t_bytes32)dyn_storage": {
						"base": "t_bytes32",
						"encoding": "dynamic_array",
						"label": "bytes32[]",
						"numberOfBytes": "32"
					},
					"t_array(t_struct(User)30_storage)dyn_storage": {
						"base": "t_struct(User)30_storage",
						"encoding": "dynamic_array",
						"label": "struct Entities.User[]",
						"numberOfBytes": "32"
					},
					"t_bytes32": {
						"encoding": "inplace",
						"label": "bytes32",
						"numberOfBytes": "32"
					},
					"t_enum(DocumentStatus)6": {
						"encoding": "inplace",
						"label": "enum Entities.DocumentStatus",
						"numberOfBytes": "1"
					},
					"t_enum(UserRoles)13": {
						"encoding": "inplace",
						"label": "enum Entities.UserRoles",
						"numberOfBytes": "1"
					},
					"t_mapping(t_address,t_address)": {
						"encoding": "mapping",
						"key": "t_address",
						"label": "mapping(address => address)",
						"numberOfBytes": "32",
						"value": "t_address"
					},
					"t_mapping(t_address,t_array(t_bytes32)dyn_storage)": {
						"encoding": "mapping",
						"key": "t_address",
						"label": "mapping(address => bytes32[])",
						"numberOfBytes": "32",
						"value": "t_array(t_bytes32)dyn_storage"
					},
					"t_mapping(t_address,t_enum(UserRoles)13)": {
						"encoding": "mapping",
						"key": "t_address",
						"label": "mapping(address => enum Entities.UserRoles)",
						"numberOfBytes": "32",
						"value": "t_enum(UserRoles)13"
					},
					"t_mapping(t_address,t_struct(User)30_storage)": {
						"encoding": "mapping",
						"key": "t_address",
						"label": "mapping(address => struct Entities.User)",
						"numberOfBytes": "32",
						"value": "t_struct(User)30_storage"
					},
					"t_mapping(t_address,t_struct(User)395_storage)": {
						"encoding": "mapping",
						"key": "t_address",
						"label": "mapping(address => struct UserVerificationQueue.User)",
						"numberOfBytes": "32",
						"value": "t_struct(User)395_storage"
					},
					"t_mapping(t_bytes32,t_address)": {
						"encoding": "mapping",
						"key": "t_bytes32",
						"label": "mapping(bytes32 => address)",
						"numberOfBytes": "32",
						"value": "t_address"
					},
					"t_mapping(t_bytes32,t_bytes32)": {
						"encoding": "mapping",
						"key": "t_bytes32",
						"label": "mapping(bytes32 => bytes32)",
						"numberOfBytes": "32",
						"value": "t_bytes32"
					},
					"t_mapping(t_bytes32,t_struct(Document)27_storage)": {
						"encoding": "mapping",
						"key": "t_bytes32",
						"label": "mapping(bytes32 => struct Entities.Document)",
						"numberOfBytes": "32",
						"value": "t_struct(Document)27_storage"
					},
					"t_string_storage": {
						"encoding": "bytes",
						"label": "string",
						"numberOfBytes": "32"
					},
					"t_struct(Document)27_storage": {
						"encoding": "inplace",
						"label": "struct Entities.Document",
						"members": [
							{
								"astId": 15,
								"contract": "contracts/main.sol:DecentroLocker",
								"label": "name",
								"offset": 0,
								"slot": "0",
								"type": "t_string_storage"
							},
							{
								"astId": 17,
								"contract": "contracts/main.sol:DecentroLocker",
								"label": "ipfsHash",
								"offset": 0,
								"slot": "1",
								"type": "t_string_storage"
							},
							{
								"astId": 20,
								"contract": "contracts/main.sol:DecentroLocker",
								"label": "status",
								"offset": 0,
								"slot": "2",
								"type": "t_enum(DocumentStatus)6"
							},
							{
								"astId": 22,
								"contract": "contracts/main.sol:DecentroLocker",
								"label": "verifiedBy",
								"offset": 1,
								"slot": "2",
								"type": "t_address"
							},
							{
								"astId": 24,
								"contract": "contracts/main.sol:DecentroLocker",
								"label": "reason",
								"offset": 0,
								"slot": "3",
								"type": "t_string_storage"
							},
							{
								"astId": 26,
								"contract": "contracts/main.sol:DecentroLocker",
								"label": "timestamp",
								"offset": 0,
								"slot": "4",
								"type": "t_uint256"
							}
						],
						"numberOfBytes": "160"
					},
					"t_struct(LinkedQueue)411_storage": {
						"encoding": "inplace",
						"label": "struct UserVerificationQueue.LinkedQueue",
						"members": [
							{
								"astId": 399,
								"contract": "contracts/main.sol:DecentroLocker",
								"label": "queueItems",
								"offset": 0,
								"slot": "0",
								"type": "t_mapping(t_address,t_address)"
							},
							{
								"astId": 404,
								"contract": "contracts/main.sol:DecentroLocker",
								"label": "queueData",
								"offset": 0,
								"slot": "1",
								"type": "t_mapping(t_address,t_struct(User)395_storage)"
							},
							{
								"astId": 406,
								"contract": "contracts/main.sol:DecentroLocker",
								"label": "front",
								"offset": 0,
								"slot": "2",
								"type": "t_address"
							},
							{
								"astId": 408,
								"contract": "contracts/main.sol:DecentroLocker",
								"label": "back",
								"offset": 0,
								"slot": "3",
								"type": "t_address"
							},
							{
								"astId": 410,
								"contract": "contracts/main.sol:DecentroLocker",
								"label": "length",
								"offset": 0,
								"slot": "4",
								"type": "t_uint256"
							}
						],
						"numberOfBytes": "160"
					},
					"t_struct(LinkedQueue)42_storage": {
						"encoding": "inplace",
						"label": "struct Queue.LinkedQueue",
						"members": [
							{
								"astId": 35,
								"contract": "contracts/main.sol:DecentroLocker",
								"label": "queueItems",
								"offset": 0,
								"slot": "0",
								"type": "t_mapping(t_bytes32,t_bytes32)"
							},
							{
								"astId": 37,
								"contract": "contracts/main.sol:DecentroLocker",
								"label": "front",
								"offset": 0,
								"slot": "1",
								"type": "t_bytes32"
							},
							{
								"astId": 39,
								"contract": "contracts/main.sol:DecentroLocker",
								"label": "back",
								"offset": 0,
								"slot": "2",
								"type": "t_bytes32"
							},
							{
								"astId": 41,
								"contract": "contracts/main.sol:DecentroLocker",
								"label": "length",
								"offset": 0,
								"slot": "3",
								"type": "t_uint256"
							}
						],
						"numberOfBytes": "128"
					},
					"t_struct(User)30_storage": {
						"encoding": "inplace",
						"label": "struct Entities.User",
						"members": [
							{
								"astId": 29,
								"contract": "contracts/main.sol:DecentroLocker",
								"label": "walletAddress",
								"offset": 0,
								"slot": "0",
								"type": "t_address"
							}
						],
						"numberOfBytes": "32"
					},
					"t_struct(User)395_storage": {
						"encoding": "inplace",
						"label": "struct UserVerificationQueue.User",
						"members": [
							{
								"astId": 394,
								"contract": "contracts/main.sol:DecentroLocker",
								"label": "walletAddress",
								"offset": 0,
								"slot": "0",
								"type": "t_address"
							}
						],
						"numberOfBytes": "32"
					},
					"t_uint256": {
						"encoding": "inplace",
						"label": "uint256",
						"numberOfBytes": "32"
					}
				}
			},
			"userdoc": {
				"kind": "user",
				"methods": {},
				"version": 1
			}
		}
	}
}